{"contracts/VaultContract.sol":{"VaultContract":{"abi":[{"inputs":[],"name":"InvalidInitialization","type":"error"},{"inputs":[],"name":"NotInitializing","type":"error"},{"inputs":[{"internalType":"address","name":"owner","type":"address"}],"name":"OwnableInvalidOwner","type":"error"},{"inputs":[{"internalType":"address","name":"account","type":"address"}],"name":"OwnableUnauthorizedAccount","type":"error"},{"anonymous":false,"inputs":[{"indexed":false,"internalType":"uint64","name":"version","type":"uint64"}],"name":"Initialized","type":"event"},{"anonymous":false,"inputs":[{"indexed":true,"internalType":"address","name":"previousOwner","type":"address"},{"indexed":true,"internalType":"address","name":"newOwner","type":"address"}],"name":"OwnershipTransferred","type":"event"},{"stateMutability":"payable","type":"fallback"},{"inputs":[],"name":"costManager","outputs":[{"internalType":"contract CostManager","name":"","type":"address"}],"stateMutability":"view","type":"function"},{"inputs":[{"internalType":"uint256[]","name":"ids","type":"uint256[]"}],"name":"deleteCredentials","outputs":[],"stateMutability":"nonpayable","type":"function"},{"inputs":[{"internalType":"uint256[]","name":"ids","type":"uint256[]"}],"name":"deleteNotes","outputs":[],"stateMutability":"nonpayable","type":"function"},{"inputs":[{"internalType":"uint256[]","name":"ids","type":"uint256[]"}],"name":"deleteTOTP","outputs":[],"stateMutability":"nonpayable","type":"function"},{"inputs":[{"internalType":"uint256[]","name":"ids","type":"uint256[]"}],"name":"deleteWalletAddresses","outputs":[],"stateMutability":"nonpayable","type":"function"},{"inputs":[{"internalType":"address","name":"_owner","type":"address"},{"internalType":"address","name":"_costManager","type":"address"}],"name":"initialize","outputs":[],"stateMutability":"payable","type":"function"},{"inputs":[],"name":"owner","outputs":[{"internalType":"address","name":"","type":"address"}],"stateMutability":"view","type":"function"},{"inputs":[],"name":"readCredentials","outputs":[{"components":[{"internalType":"uint256","name":"id","type":"uint256"},{"internalType":"string","name":"name","type":"string"},{"internalType":"string","name":"username","type":"string"},{"internalType":"string","name":"password","type":"string"},{"internalType":"string","name":"remarks","type":"string"},{"internalType":"uint256","name":"timestamp","type":"uint256"}],"internalType":"struct VaultContract.Credential[]","name":"","type":"tuple[]"}],"stateMutability":"view","type":"function"},{"inputs":[],"name":"readNote","outputs":[{"components":[{"internalType":"uint256","name":"id","type":"uint256"},{"internalType":"string","name":"name","type":"string"},{"internalType":"string","name":"note","type":"string"},{"internalType":"uint256","name":"timestamp","type":"uint256"}],"internalType":"struct VaultContract.Note[]","name":"","type":"tuple[]"}],"stateMutability":"view","type":"function"},{"inputs":[],"name":"readTOTP","outputs":[{"components":[{"internalType":"uint256","name":"id","type":"uint256"},{"internalType":"string","name":"name","type":"string"},{"internalType":"string","name":"key","type":"string"},{"internalType":"string","name":"algorithm","type":"string"},{"internalType":"uint256","name":"interval","type":"uint256"},{"internalType":"uint256","name":"timestamp","type":"uint256"}],"internalType":"struct VaultContract.TOTP[]","name":"","type":"tuple[]"}],"stateMutability":"view","type":"function"},{"inputs":[],"name":"readWalletAddress","outputs":[{"components":[{"internalType":"uint256","name":"id","type":"uint256"},{"internalType":"string","name":"name","type":"string"},{"internalType":"string","name":"walletAddress","type":"string"},{"internalType":"string","name":"privateKey","type":"string"},{"internalType":"string","name":"seedPhrase","type":"string"},{"internalType":"string","name":"remarks","type":"string"},{"internalType":"uint256","name":"timestamp","type":"uint256"}],"internalType":"struct VaultContract.WalletInfo[]","name":"","type":"tuple[]"}],"stateMutability":"view","type":"function"},{"inputs":[],"name":"renounceOwnership","outputs":[],"stateMutability":"nonpayable","type":"function"},{"inputs":[{"internalType":"address","name":"newOwner","type":"address"}],"name":"transferOwnership","outputs":[],"stateMutability":"nonpayable","type":"function"},{"inputs":[{"components":[{"internalType":"uint256","name":"id","type":"uint256"},{"internalType":"string","name":"name","type":"string"},{"internalType":"string","name":"username","type":"string"},{"internalType":"string","name":"password","type":"string"},{"internalType":"string","name":"remarks","type":"string"}],"internalType":"struct VaultContract.CredentialUpsert[]","name":"data","type":"tuple[]"}],"name":"upsertCredentials","outputs":[],"stateMutability":"payable","type":"function"},{"inputs":[{"components":[{"internalType":"uint256","name":"id","type":"uint256"},{"internalType":"string","name":"name","type":"string"},{"internalType":"string","name":"note","type":"string"}],"internalType":"struct VaultContract.NoteUpsert[]","name":"data","type":"tuple[]"}],"name":"upsertNotes","outputs":[],"stateMutability":"payable","type":"function"},{"inputs":[{"components":[{"internalType":"uint256","name":"id","type":"uint256"},{"internalType":"string","name":"name","type":"string"},{"internalType":"string","name":"key","type":"string"},{"internalType":"string","name":"algorithm","type":"string"},{"internalType":"uint256","name":"interval","type":"uint256"}],"internalType":"struct VaultContract.TOTPUpsert[]","name":"data","type":"tuple[]"}],"name":"upsertTOTP","outputs":[],"stateMutability":"payable","type":"function"},{"inputs":[{"components":[{"internalType":"uint256","name":"id","type":"uint256"},{"internalType":"string","name":"name","type":"string"},{"internalType":"string","name":"walletAddress","type":"string"},{"internalType":"string","name":"privateKey","type":"string"},{"internalType":"string","name":"seedPhrase","type":"string"},{"internalType":"string","name":"remarks","type":"string"}],"internalType":"struct VaultContract.WalletUpsert[]","name":"data","type":"tuple[]"}],"name":"upsertWalletAddress","outputs":[],"stateMutability":"payable","type":"function"},{"stateMutability":"payable","type":"receive"}],"evm":{"bytecode":{"linkReferences":{},"object":"608060405260018055600160045560016007556001600a55348015602257600080fd5b506152c2806100326000396000f3fe6080604052600436106101025760003560e01c8063715018a611610095578063cafdf8b511610064578063cafdf8b5146102b1578063ccd7dc5a146102dc578063cecd949a14610307578063f117c6a814610332578063f2fde38b1461034e57610103565b8063715018a61461022857806382e91caa1461023f5780638da5cb5b1461026a578063a4595a201461029557610103565b8063485cc955116100d1578063485cc9551461019c57806352ab43e6146101b857806356ba0b01146101e1578063623ac7571461020c57610103565b80630309d406146101055780631e3758351461012e5780633017124114610157578063413ba3261461017357610103565b5b005b34801561011157600080fd5b5061012c60048036038101906101279190613ab3565b610377565b005b34801561013a57600080fd5b5061015560048036038101906101509190613ab3565b6105c5565b005b610171600480360381019061016c9190613b56565b6107db565b005b34801561017f57600080fd5b5061019a60048036038101906101959190613ab3565b610f11565b005b6101b660048036038101906101b19190613c01565b61113a565b005b3480156101c457600080fd5b506101df60048036038101906101da9190613ab3565b61145a565b005b3480156101ed57600080fd5b506101f6611639565b6040516102039190613e43565b60405180910390f35b61022660048036038101906102219190613ebb565b611874565b005b34801561023457600080fd5b5061023d61213d565b005b34801561024b57600080fd5b50610254612151565b6040516102619190614034565b60405180910390f35b34801561027657600080fd5b5061027f6122f0565b60405161028c9190614065565b60405180910390f35b6102af60048036038101906102aa91906140d6565b612328565b005b3480156102bd57600080fd5b506102c66128ac565b6040516102d39190614283565b60405180910390f35b3480156102e857600080fd5b506102f1612b6f565b6040516102fe919061441f565b60405180910390f35b34801561031357600080fd5b5061031c612ec4565b60405161032991906144a0565b60405180910390f35b61034c60048036038101906103479190614511565b612ee8565b005b34801561035a57600080fd5b506103756004803603810190610370919061455e565b61369a565b005b61037f613720565b60005b828290508110156105c05760008383838181106103a2576103a161458b565b5b905060200201359050600060096000838152602001908152602001600020549050600880549050811061040a576040517f08c379a000000000000000000000000000000000000000000000000000000000815260040161040190614617565b60405180910390fd5b6000600160088054905061041e9190614666565b905080821461050e5760006008828154811061043d5761043c61458b565b5b9060005260206000209060070201905080600884815481106104625761046161458b565b5b9060005260206000209060070201600082015481600001556001820181600101908161048e91906148e1565b50600282018160020190816104a391906148e1565b50600382018160030190816104b891906148e1565b50600482018160040190816104cd91906148e1565b50600582018160050190816104e291906148e1565b506006820154816006015590505082600960008360000154815260200190815260200160002081905550505b60088054806105205761051f6149c9565b5b600190038181906000526020600020906007020160008082016000905560018201600061054d91906139e7565b60028201600061055d91906139e7565b60038201600061056d91906139e7565b60048201600061057d91906139e7565b60058201600061058d91906139e7565b60068201600090555050905560096000848152602001908152602001600020600090555050508080600101915050610382565b505050565b6105cd613720565b60005b828290508110156107d65760008383838181106105f0576105ef61458b565b5b9050602002013590506000600c6000838152602001908152602001600020549050600b805490508110610658576040517f08c379a000000000000000000000000000000000000000000000000000000000815260040161064f90614a44565b60405180910390fd5b60006001600b8054905061066c9190614666565b905080821461073c576000600b828154811061068b5761068a61458b565b5b9060005260206000209060060201905080600b84815481106106b0576106af61458b565b5b906000526020600020906006020160008201548160000155600182018160010190816106dc91906148e1565b50600282018160020190816106f191906148e1565b506003820181600301908161070691906148e1565b50600482015481600401556005820154816005015590505082600c60008360000154815260200190815260200160002081905550505b600b80548061074e5761074d6149c9565b5b600190038181906000526020600020906006020160008082016000905560018201600061077b91906139e7565b60028201600061078b91906139e7565b60038201600061079b91906139e7565b6004820160009055600582016000905550509055600c60008481526020019081526020016000206000905550505080806001019150506105d0565b505050565b6107e3613720565b60008060009054906101000a900473ffffffffffffffffffffffffffffffffffffffff1673ffffffffffffffffffffffffffffffffffffffff1663f9c59d076040518163ffffffff1660e01b8152600401602060405180830381865afa158015610851573d6000803e3d6000fd5b505050506040513d601f19601f820116820180604052508101906108759190614a90565b90508034146108b9576040517f08c379a00000000000000000000000000000000000000000000000000000000081526004016108b090614b09565b60405180910390fd5b60008060009054906101000a900473ffffffffffffffffffffffffffffffffffffffff1673ffffffffffffffffffffffffffffffffffffffff163460405161090090614b5a565b60006040518083038185875af1925050503d806000811461093d576040519150601f19603f3d011682016040523d82523d6000602084013e610942565b606091505b5050905080610986576040517f08c379a000000000000000000000000000000000000000000000000000000000815260040161097d90614bbb565b60405180910390fd5b60005b84849050811015610f0a5760008585838181106109a9576109a861458b565b5b90506020028101906109bb9190614bea565b6000013503610c5257600b6040518060c00160405280600a5481526020018787858181106109ec576109eb61458b565b5b90506020028101906109fe9190614bea565b8060200190610a0d9190614c12565b8080601f016020809104026020016040519081016040528093929190818152602001838380828437600081840152601f19601f820116905080830192505050505050508152602001878785818110610a6857610a6761458b565b5b9050602002810190610a7a9190614bea565b8060400190610a899190614c12565b8080601f016020809104026020016040519081016040528093929190818152602001838380828437600081840152601f19601f820116905080830192505050505050508152602001878785818110610ae457610ae361458b565b5b9050602002810190610af69190614bea565b8060600190610b059190614c12565b8080601f016020809104026020016040519081016040528093929190818152602001838380828437600081840152601f19601f820116905080830192505050505050508152602001878785818110610b6057610b5f61458b565b5b9050602002810190610b729190614bea565b608001358152602001428152509080600181540180825580915050600190039060005260206000209060060201600090919091909150600082015181600001556020820151816001019081610bc79190614c75565b506040820151816002019081610bdd9190614c75565b506060820151816003019081610bf39190614c75565b506080820151816004015560a0820151816005015550506001600b80549050610c1c9190614666565b600c6000600a54815260200190815260200160002081905550600a6000815480929190610c4890614d47565b9190505550610efd565b6000600c6000878785818110610c6b57610c6a61458b565b5b9050602002810190610c7d9190614bea565b600001358152602001908152602001600020549050600b805490508110610cd9576040517f08c379a0000000000000000000000000000000000000000000000000000000008152600401610cd090614a44565b60405180910390fd5b6000600b8281548110610cef57610cee61458b565b5b906000526020600020906006020190506000878785818110610d1457610d1361458b565b5b9050602002810190610d269190614bea565b8060200190610d359190614c12565b90501115610d8457868684818110610d5057610d4f61458b565b5b9050602002810190610d629190614bea565b8060200190610d719190614c12565b826001019182610d82929190614d9a565b505b6000878785818110610d9957610d9861458b565b5b9050602002810190610dab9190614bea565b8060400190610dba9190614c12565b90501115610e0957868684818110610dd557610dd461458b565b5b9050602002810190610de79190614bea565b8060400190610df69190614c12565b826002019182610e07929190614d9a565b505b6000878785818110610e1e57610e1d61458b565b5b9050602002810190610e309190614bea565b8060600190610e3f9190614c12565b90501115610e8e57868684818110610e5a57610e5961458b565b5b9050602002810190610e6c9190614bea565b8060600190610e7b9190614c12565b826003019182610e8c929190614d9a565b505b6000878785818110610ea357610ea261458b565b5b9050602002810190610eb59190614bea565b608001351115610ef157868684818110610ed257610ed161458b565b5b9050602002810190610ee49190614bea565b6080013581600401819055505b42816005018190555050505b8080600101915050610989565b5050505050565b610f19613720565b60005b82829050811015611135576000838383818110610f3c57610f3b61458b565b5b9050602002013590506000600360008381526020019081526020016000205490506002805490508110610fa4576040517f08c379a0000000000000000000000000000000000000000000000000000000008152600401610f9b90614eb6565b60405180910390fd5b60006001600280549050610fb89190614666565b905080821461109357600060028281548110610fd757610fd661458b565b5b906000526020600020906006020190508060028481548110610ffc57610ffb61458b565b5b9060005260206000209060060201600082015481600001556001820181600101908161102891906148e1565b506002820181600201908161103d91906148e1565b506003820181600301908161105291906148e1565b506004820181600401908161106791906148e1565b506005820154816005015590505082600360008360000154815260200190815260200160002081905550505b60028054806110a5576110a46149c9565b5b60019003818190600052602060002090600602016000808201600090556001820160006110d291906139e7565b6002820160006110e291906139e7565b6003820160006110f291906139e7565b60048201600061110291906139e7565b60058201600090555050905560036000848152602001908152602001600020600090555050508080600101915050610f1c565b505050565b60006111446137a7565b905060008160000160089054906101000a900460ff1615905060008260000160009054906101000a900467ffffffffffffffff1690506000808267ffffffffffffffff161480156111925750825b9050600060018367ffffffffffffffff161480156111c7575060003073ffffffffffffffffffffffffffffffffffffffff163b145b9050811580156111d5575080155b1561120c576040517ff92ee8a900000000000000000000000000000000000000000000000000000000815260040160405180910390fd5b60018560000160006101000a81548167ffffffffffffffff021916908367ffffffffffffffff160217905550831561125c5760018560000160086101000a81548160ff0219169083151502179055505b611265876137bb565b61126e876137cf565b600073ffffffffffffffffffffffffffffffffffffffff168673ffffffffffffffffffffffffffffffffffffffff16036112dd576040517f08c379a00000000000000000000000000000000000000000000000000000000081526004016112d490614f22565b60405180910390fd5b856000806101000a81548173ffffffffffffffffffffffffffffffffffffffff021916908373ffffffffffffffffffffffffffffffffffffffff16021790555060003411156113f55760008060009054906101000a900473ffffffffffffffffffffffffffffffffffffffff1673ffffffffffffffffffffffffffffffffffffffff163460405161136d90614b5a565b60006040518083038185875af1925050503d80600081146113aa576040519150601f19603f3d011682016040523d82523d6000602084013e6113af565b606091505b50509050806113f3576040517f08c379a00000000000000000000000000000000000000000000000000000000081526004016113ea90614fb4565b60405180910390fd5b505b83156114515760008560000160086101000a81548160ff0219169083151502179055507fc7f505b2f371ae2175ee4913f4499e1f2633a7b5936321eed1cdaeb6115181d260016040516114489190615023565b60405180910390a15b50505050505050565b611462613720565b60005b828290508110156116345760008383838181106114855761148461458b565b5b90506020020135905060006006600083815260200190815260200160002054905060058054905081106114ed576040517f08c379a00000000000000000000000000000000000000000000000000000000081526004016114e49061508a565b60405180910390fd5b600060016005805490506115019190614666565b90508082146115b2576000600582815481106115205761151f61458b565b5b9060005260206000209060040201905080600584815481106115455761154461458b565b5b9060005260206000209060040201600082015481600001556001820181600101908161157191906148e1565b506002820181600201908161158691906148e1565b506003820154816003015590505082600660008360000154815260200190815260200160002081905550505b60058054806115c4576115c36149c9565b5b60019003818190600052602060002090600402016000808201600090556001820160006115f191906139e7565b60028201600061160191906139e7565b60038201600090555050905560066000848152602001908152602001600020600090555050508080600101915050611465565b505050565b6060611643613720565b600b805480602002602001604051908101604052809291908181526020016000905b8282101561186b57838290600052602060002090600602016040518060c0016040529081600082015481526020016001820180546116a2906146c9565b80601f01602080910402602001604051908101604052809291908181526020018280546116ce906146c9565b801561171b5780601f106116f05761010080835404028352916020019161171b565b820191906000526020600020905b8154815290600101906020018083116116fe57829003601f168201915b50505050508152602001600282018054611734906146c9565b80601f0160208091040260200160405190810160405280929190818152602001828054611760906146c9565b80156117ad5780601f10611782576101008083540402835291602001916117ad565b820191906000526020600020905b81548152906001019060200180831161179057829003601f168201915b505050505081526020016003820180546117c6906146c9565b80601f01602080910402602001604051908101604052809291908181526020018280546117f2906146c9565b801561183f5780601f106118145761010080835404028352916020019161183f565b820191906000526020600020905b81548152906001019060200180831161182257829003601f168201915b505050505081526020016004820154815260200160058201548152505081526020019060010190611665565b50505050905090565b61187c613720565b60008060009054906101000a900473ffffffffffffffffffffffffffffffffffffffff1673ffffffffffffffffffffffffffffffffffffffff1663f9c59d076040518163ffffffff1660e01b8152600401602060405180830381865afa1580156118ea573d6000803e3d6000fd5b505050506040513d601f19601f8201168201806040525081019061190e9190614a90565b9050803414611952576040517f08c379a00000000000000000000000000000000000000000000000000000000081526004016119499061511c565b60405180910390fd5b60008060009054906101000a900473ffffffffffffffffffffffffffffffffffffffff1673ffffffffffffffffffffffffffffffffffffffff163460405161199990614b5a565b60006040518083038185875af1925050503d80600081146119d6576040519150601f19603f3d011682016040523d82523d6000602084013e6119db565b606091505b5050905080611a1f576040517f08c379a0000000000000000000000000000000000000000000000000000000008152600401611a1690614bbb565b60405180910390fd5b60005b84849050811015612136576000858583818110611a4257611a4161458b565b5b9050602002810190611a54919061513c565b6000013503611dd75760086040518060e001604052806007548152602001878785818110611a8557611a8461458b565b5b9050602002810190611a97919061513c565b8060200190611aa69190614c12565b8080601f016020809104026020016040519081016040528093929190818152602001838380828437600081840152601f19601f820116905080830192505050505050508152602001878785818110611b0157611b0061458b565b5b9050602002810190611b13919061513c565b8060400190611b229190614c12565b8080601f016020809104026020016040519081016040528093929190818152602001838380828437600081840152601f19601f820116905080830192505050505050508152602001878785818110611b7d57611b7c61458b565b5b9050602002810190611b8f919061513c565b8060600190611b9e9190614c12565b8080601f016020809104026020016040519081016040528093929190818152602001838380828437600081840152601f19601f820116905080830192505050505050508152602001878785818110611bf957611bf861458b565b5b9050602002810190611c0b919061513c565b8060800190611c1a9190614c12565b8080601f016020809104026020016040519081016040528093929190818152602001838380828437600081840152601f19601f820116905080830192505050505050508152602001878785818110611c7557611c7461458b565b5b9050602002810190611c87919061513c565b8060a00190611c969190614c12565b8080601f016020809104026020016040519081016040528093929190818152602001838380828437600081840152601f19601f820116905080830192505050505050508152602001428152509080600181540180825580915050600190039060005260206000209060070201600090919091909150600082015181600001556020820151816001019081611d2a9190614c75565b506040820151816002019081611d409190614c75565b506060820151816003019081611d569190614c75565b506080820151816004019081611d6c9190614c75565b5060a0820151816005019081611d829190614c75565b5060c0820151816006015550506001600880549050611da19190614666565b6009600060075481526020019081526020016000208190555060076000815480929190611dcd90614d47565b9190505550612129565b600060096000878785818110611df057611def61458b565b5b9050602002810190611e02919061513c565b6000013581526020019081526020016000205490506008805490508110611e5e576040517f08c379a0000000000000000000000000000000000000000000000000000000008152600401611e5590614617565b60405180910390fd5b600060088281548110611e7457611e7361458b565b5b906000526020600020906007020190506000878785818110611e9957611e9861458b565b5b9050602002810190611eab919061513c565b8060200190611eba9190614c12565b90501115611f0957868684818110611ed557611ed461458b565b5b9050602002810190611ee7919061513c565b8060200190611ef69190614c12565b826001019182611f07929190614d9a565b505b6000878785818110611f1e57611f1d61458b565b5b9050602002810190611f30919061513c565b8060400190611f3f9190614c12565b90501115611f8e57868684818110611f5a57611f5961458b565b5b9050602002810190611f6c919061513c565b8060400190611f7b9190614c12565b826002019182611f8c929190614d9a565b505b6000878785818110611fa357611fa261458b565b5b9050602002810190611fb5919061513c565b8060600190611fc49190614c12565b9050111561201357868684818110611fdf57611fde61458b565b5b9050602002810190611ff1919061513c565b80606001906120009190614c12565b826003019182612011929190614d9a565b505b60008787858181106120285761202761458b565b5b905060200281019061203a919061513c565b80608001906120499190614c12565b90501115612098578686848181106120645761206361458b565b5b9050602002810190612076919061513c565b80608001906120859190614c12565b826004019182612096929190614d9a565b505b60008787858181106120ad576120ac61458b565b5b90506020028101906120bf919061513c565b8060a001906120ce9190614c12565b9050111561211d578686848181106120e9576120e861458b565b5b90506020028101906120fb919061513c565b8060a0019061210a9190614c12565b82600501918261211b929190614d9a565b505b42816006018190555050505b8080600101915050611a22565b5050505050565b612145613720565b61214f60006137cf565b565b606061215b613720565b6005805480602002602001604051908101604052809291908181526020016000905b828210156122e75783829060005260206000209060040201604051806080016040529081600082015481526020016001820180546121ba906146c9565b80601f01602080910402602001604051908101604052809291908181526020018280546121e6906146c9565b80156122335780601f1061220857610100808354040283529160200191612233565b820191906000526020600020905b81548152906001019060200180831161221657829003601f168201915b5050505050815260200160028201805461224c906146c9565b80601f0160208091040260200160405190810160405280929190818152602001828054612278906146c9565b80156122c55780601f1061229a576101008083540402835291602001916122c5565b820191906000526020600020905b8154815290600101906020018083116122a857829003601f168201915b505050505081526020016003820154815250508152602001906001019061217d565b50505050905090565b6000806122fb6138a6565b90508060000160009054906101000a900473ffffffffffffffffffffffffffffffffffffffff1691505090565b612330613720565b60008060009054906101000a900473ffffffffffffffffffffffffffffffffffffffff1673ffffffffffffffffffffffffffffffffffffffff1663f9c59d076040518163ffffffff1660e01b8152600401602060405180830381865afa15801561239e573d6000803e3d6000fd5b505050506040513d601f19601f820116820180604052508101906123c29190614a90565b9050803414612406576040517f08c379a00000000000000000000000000000000000000000000000000000000081526004016123fd906151b0565b60405180910390fd5b60008060009054906101000a900473ffffffffffffffffffffffffffffffffffffffff1673ffffffffffffffffffffffffffffffffffffffff163460405161244d90614b5a565b60006040518083038185875af1925050503d806000811461248a576040519150601f19603f3d011682016040523d82523d6000602084013e61248f565b606091505b50509050806124d3576040517f08c379a00000000000000000000000000000000000000000000000000000000081526004016124ca90614bbb565b60405180910390fd5b60005b848490508110156128a55760008585838181106124f6576124f561458b565b5b905060200281019061250891906151d0565b60000135036126d5576005604051806080016040528060045481526020018787858181106125395761253861458b565b5b905060200281019061254b91906151d0565b806020019061255a9190614c12565b8080601f016020809104026020016040519081016040528093929190818152602001838380828437600081840152601f19601f8201169050808301925050505050505081526020018787858181106125b5576125b461458b565b5b90506020028101906125c791906151d0565b80604001906125d69190614c12565b8080601f016020809104026020016040519081016040528093929190818152602001838380828437600081840152601f19601f82011690508083019250505050505050815260200142815250908060018154018082558091505060019003906000526020600020906004020160009091909190915060008201518160000155602082015181600101908161266a9190614c75565b5060408201518160020190816126809190614c75565b50606082015181600301555050600160058054905061269f9190614666565b60066000600454815260200190815260200160002081905550600460008154809291906126cb90614d47565b9190505550612898565b6000600660008787858181106126ee576126ed61458b565b5b905060200281019061270091906151d0565b600001358152602001908152602001600020549050600580549050811061275c576040517f08c379a00000000000000000000000000000000000000000000000000000000081526004016127539061508a565b60405180910390fd5b6000600582815481106127725761277161458b565b5b9060005260206000209060040201905060008787858181106127975761279661458b565b5b90506020028101906127a991906151d0565b80602001906127b89190614c12565b90501115612807578686848181106127d3576127d261458b565b5b90506020028101906127e591906151d0565b80602001906127f49190614c12565b826001019182612805929190614d9a565b505b600087878581811061281c5761281b61458b565b5b905060200281019061282e91906151d0565b806040019061283d9190614c12565b9050111561288c578686848181106128585761285761458b565b5b905060200281019061286a91906151d0565b80604001906128799190614c12565b82600201918261288a929190614d9a565b505b42816003018190555050505b80806001019150506124d6565b5050505050565b60606128b6613720565b6002805480602002602001604051908101604052809291908181526020016000905b82821015612b6657838290600052602060002090600602016040518060c001604052908160008201548152602001600182018054612915906146c9565b80601f0160208091040260200160405190810160405280929190818152602001828054612941906146c9565b801561298e5780601f106129635761010080835404028352916020019161298e565b820191906000526020600020905b81548152906001019060200180831161297157829003601f168201915b505050505081526020016002820180546129a7906146c9565b80601f01602080910402602001604051908101604052809291908181526020018280546129d3906146c9565b8015612a205780601f106129f557610100808354040283529160200191612a20565b820191906000526020600020905b815481529060010190602001808311612a0357829003601f168201915b50505050508152602001600382018054612a39906146c9565b80601f0160208091040260200160405190810160405280929190818152602001828054612a65906146c9565b8015612ab25780601f10612a8757610100808354040283529160200191612ab2565b820191906000526020600020905b815481529060010190602001808311612a9557829003601f168201915b50505050508152602001600482018054612acb906146c9565b80601f0160208091040260200160405190810160405280929190818152602001828054612af7906146c9565b8015612b445780601f10612b1957610100808354040283529160200191612b44565b820191906000526020600020905b815481529060010190602001808311612b2757829003601f168201915b50505050508152602001600582015481525050815260200190600101906128d8565b50505050905090565b6060612b79613720565b6008805480602002602001604051908101604052809291908181526020016000905b82821015612ebb57838290600052602060002090600702016040518060e001604052908160008201548152602001600182018054612bd8906146c9565b80601f0160208091040260200160405190810160405280929190818152602001828054612c04906146c9565b8015612c515780601f10612c2657610100808354040283529160200191612c51565b820191906000526020600020905b815481529060010190602001808311612c3457829003601f168201915b50505050508152602001600282018054612c6a906146c9565b80601f0160208091040260200160405190810160405280929190818152602001828054612c96906146c9565b8015612ce35780601f10612cb857610100808354040283529160200191612ce3565b820191906000526020600020905b815481529060010190602001808311612cc657829003601f168201915b50505050508152602001600382018054612cfc906146c9565b80601f0160208091040260200160405190810160405280929190818152602001828054612d28906146c9565b8015612d755780601f10612d4a57610100808354040283529160200191612d75565b820191906000526020600020905b815481529060010190602001808311612d5857829003601f168201915b50505050508152602001600482018054612d8e906146c9565b80601f0160208091040260200160405190810160405280929190818152602001828054612dba906146c9565b8015612e075780601f10612ddc57610100808354040283529160200191612e07565b820191906000526020600020905b815481529060010190602001808311612dea57829003601f168201915b50505050508152602001600582018054612e20906146c9565b80601f0160208091040260200160405190810160405280929190818152602001828054612e4c906146c9565b8015612e995780601f10612e6e57610100808354040283529160200191612e99565b820191906000526020600020905b815481529060010190602001808311612e7c57829003601f168201915b5050505050815260200160068201548152505081526020019060010190612b9b565b50505050905090565b60008054906101000a900473ffffffffffffffffffffffffffffffffffffffff1681565b612ef0613720565b60008060009054906101000a900473ffffffffffffffffffffffffffffffffffffffff1673ffffffffffffffffffffffffffffffffffffffff1663f9c59d076040518163ffffffff1660e01b8152600401602060405180830381865afa158015612f5e573d6000803e3d6000fd5b505050506040513d601f19601f82011682018060405250810190612f829190614a90565b9050803414612fc6576040517f08c379a0000000000000000000000000000000000000000000000000000000008152600401612fbd90615244565b60405180910390fd5b60008060009054906101000a900473ffffffffffffffffffffffffffffffffffffffff1673ffffffffffffffffffffffffffffffffffffffff163460405161300d90614b5a565b60006040518083038185875af1925050503d806000811461304a576040519150601f19603f3d011682016040523d82523d6000602084013e61304f565b606091505b5050905080613093576040517f08c379a000000000000000000000000000000000000000000000000000000000815260040161308a90614bbb565b60405180910390fd5b60005b848490508110156136935760008585838181106130b6576130b561458b565b5b90506020028101906130c89190615264565b60000135036133b95760026040518060c0016040528060015481526020018787858181106130f9576130f861458b565b5b905060200281019061310b9190615264565b806020019061311a9190614c12565b8080601f016020809104026020016040519081016040528093929190818152602001838380828437600081840152601f19601f8201169050808301925050505050505081526020018787858181106131755761317461458b565b5b90506020028101906131879190615264565b80604001906131969190614c12565b8080601f016020809104026020016040519081016040528093929190818152602001838380828437600081840152601f19601f8201169050808301925050505050505081526020018787858181106131f1576131f061458b565b5b90506020028101906132039190615264565b80606001906132129190614c12565b8080601f016020809104026020016040519081016040528093929190818152602001838380828437600081840152601f19601f82011690508083019250505050505050815260200187878581811061326d5761326c61458b565b5b905060200281019061327f9190615264565b806080019061328e9190614c12565b8080601f016020809104026020016040519081016040528093929190818152602001838380828437600081840152601f19601f8201169050808301925050505050505081526020014281525090806001815401808255809150506001900390600052602060002090600602016000909190919091506000820151816000015560208201518160010190816133229190614c75565b5060408201518160020190816133389190614c75565b50606082015181600301908161334e9190614c75565b5060808201518160040190816133649190614c75565b5060a08201518160050155505060016002805490506133839190614666565b60036000600154815260200190815260200160002081905550600160008154809291906133af90614d47565b9190505550613686565b6000600360008787858181106133d2576133d161458b565b5b90506020028101906133e49190615264565b6000013581526020019081526020016000205490506002805490508110613440576040517f08c379a000000000000000000000000000000000000000000000000000000000815260040161343790614eb6565b60405180910390fd5b6000600282815481106134565761345561458b565b5b90600052602060002090600602019050600087878581811061347b5761347a61458b565b5b905060200281019061348d9190615264565b806020019061349c9190614c12565b905011156134eb578686848181106134b7576134b661458b565b5b90506020028101906134c99190615264565b80602001906134d89190614c12565b8260010191826134e9929190614d9a565b505b6000878785818110613500576134ff61458b565b5b90506020028101906135129190615264565b80604001906135219190614c12565b905011156135705786868481811061353c5761353b61458b565b5b905060200281019061354e9190615264565b806040019061355d9190614c12565b82600201918261356e929190614d9a565b505b60008787858181106135855761358461458b565b5b90506020028101906135979190615264565b80606001906135a69190614c12565b905011156135f5578686848181106135c1576135c061458b565b5b90506020028101906135d39190615264565b80606001906135e29190614c12565b8260030191826135f3929190614d9a565b505b600087878581811061360a5761360961458b565b5b905060200281019061361c9190615264565b806080019061362b9190614c12565b9050111561367a578686848181106136465761364561458b565b5b90506020028101906136589190615264565b80608001906136679190614c12565b826004019182613678929190614d9a565b505b42816005018190555050505b8080600101915050613096565b5050505050565b6136a2613720565b600073ffffffffffffffffffffffffffffffffffffffff168173ffffffffffffffffffffffffffffffffffffffff16036137145760006040517f1e4fbdf700000000000000000000000000000000000000000000000000000000815260040161370b9190614065565b60405180910390fd5b61371d816137cf565b50565b6137286138ce565b73ffffffffffffffffffffffffffffffffffffffff166137466122f0565b73ffffffffffffffffffffffffffffffffffffffff16146137a5576137696138ce565b6040517f118cdaa700000000000000000000000000000000000000000000000000000000815260040161379c9190614065565b60405180910390fd5b565b6000806137b26138d6565b90508091505090565b6137c3613901565b6137cc81613941565b50565b60006137d96138a6565b905060008160000160009054906101000a900473ffffffffffffffffffffffffffffffffffffffff169050828260000160006101000a81548173ffffffffffffffffffffffffffffffffffffffff021916908373ffffffffffffffffffffffffffffffffffffffff1602179055508273ffffffffffffffffffffffffffffffffffffffff168173ffffffffffffffffffffffffffffffffffffffff167f8be0079c531659141344cd1fd0a4f28419497f9722a3daafe3b4186f6b6457e060405160405180910390a3505050565b60007f9016d09d72d40fdae2fd8ceac6b6234c7706214fd39c1cd1e609a0528c199300905090565b600033905090565b60007ff0c57e16840df040f15088dc2f81fe391c3923bec73e23a9662efc9c229c6a0060001b905090565b6139096139c7565b61393f576040517fd7e6bcf800000000000000000000000000000000000000000000000000000000815260040160405180910390fd5b565b613949613901565b600073ffffffffffffffffffffffffffffffffffffffff168173ffffffffffffffffffffffffffffffffffffffff16036139bb5760006040517f1e4fbdf70000000000000000000000000000000000000000000000000000000081526004016139b29190614065565b60405180910390fd5b6139c4816137cf565b50565b60006139d16137a7565b60000160089054906101000a900460ff16905090565b5080546139f3906146c9565b6000825580601f10613a055750613a24565b601f016020900490600052602060002090810190613a239190613a27565b5b50565b5b80821115613a40576000816000905550600101613a28565b5090565b600080fd5b600080fd5b600080fd5b600080fd5b600080fd5b60008083601f840112613a7357613a72613a4e565b5b8235905067ffffffffffffffff811115613a9057613a8f613a53565b5b602083019150836020820283011115613aac57613aab613a58565b5b9250929050565b60008060208385031215613aca57613ac9613a44565b5b600083013567ffffffffffffffff811115613ae857613ae7613a49565b5b613af485828601613a5d565b92509250509250929050565b60008083601f840112613b1657613b15613a4e565b5b8235905067ffffffffffffffff811115613b3357613b32613a53565b5b602083019150836020820283011115613b4f57613b4e613a58565b5b9250929050565b60008060208385031215613b6d57613b6c613a44565b5b600083013567ffffffffffffffff811115613b8b57613b8a613a49565b5b613b9785828601613b00565b92509250509250929050565b600073ffffffffffffffffffffffffffffffffffffffff82169050919050565b6000613bce82613ba3565b9050919050565b613bde81613bc3565b8114613be957600080fd5b50565b600081359050613bfb81613bd5565b92915050565b60008060408385031215613c1857613c17613a44565b5b6000613c2685828601613bec565b9250506020613c3785828601613bec565b9150509250929050565b600081519050919050565b600082825260208201905092915050565b6000819050602082019050919050565b6000819050919050565b613c8081613c6d565b82525050565b600081519050919050565b600082825260208201905092915050565b60005b83811015613cc0578082015181840152602081019050613ca5565b60008484015250505050565b6000601f19601f8301169050919050565b6000613ce882613c86565b613cf28185613c91565b9350613d02818560208601613ca2565b613d0b81613ccc565b840191505092915050565b600060c083016000830151613d2e6000860182613c77565b5060208301518482036020860152613d468282613cdd565b91505060408301518482036040860152613d608282613cdd565b91505060608301518482036060860152613d7a8282613cdd565b9150506080830151613d8f6080860182613c77565b5060a0830151613da260a0860182613c77565b508091505092915050565b6000613db98383613d16565b905092915050565b6000602082019050919050565b6000613dd982613c41565b613de38185613c4c565b935083602082028501613df585613c5d565b8060005b85811015613e315784840389528151613e128582613dad565b9450613e1d83613dc1565b925060208a01995050600181019050613df9565b50829750879550505050505092915050565b60006020820190508181036000830152613e5d8184613dce565b905092915050565b60008083601f840112613e7b57613e7a613a4e565b5b8235905067ffffffffffffffff811115613e9857613e97613a53565b5b602083019150836020820283011115613eb457613eb3613a58565b5b9250929050565b60008060208385031215613ed257613ed1613a44565b5b600083013567ffffffffffffffff811115613ef057613eef613a49565b5b613efc85828601613e65565b92509250509250929050565b600081519050919050565b600082825260208201905092915050565b6000819050602082019050919050565b6000608083016000830151613f4c6000860182613c77565b5060208301518482036020860152613f648282613cdd565b91505060408301518482036040860152613f7e8282613cdd565b9150506060830151613f936060860182613c77565b508091505092915050565b6000613faa8383613f34565b905092915050565b6000602082019050919050565b6000613fca82613f08565b613fd48185613f13565b935083602082028501613fe685613f24565b8060005b8581101561402257848403895281516140038582613f9e565b945061400e83613fb2565b925060208a01995050600181019050613fea565b50829750879550505050505092915050565b6000602082019050818103600083015261404e8184613fbf565b905092915050565b61405f81613bc3565b82525050565b600060208201905061407a6000830184614056565b92915050565b60008083601f84011261409657614095613a4e565b5b8235905067ffffffffffffffff8111156140b3576140b2613a53565b5b6020830191508360208202830111156140cf576140ce613a58565b5b9250929050565b600080602083850312156140ed576140ec613a44565b5b600083013567ffffffffffffffff81111561410b5761410a613a49565b5b61411785828601614080565b92509250509250929050565b600081519050919050565b600082825260208201905092915050565b6000819050602082019050919050565b600060c0830160008301516141676000860182613c77565b506020830151848203602086015261417f8282613cdd565b915050604083015184820360408601526141998282613cdd565b915050606083015184820360608601526141b38282613cdd565b915050608083015184820360808601526141cd8282613cdd565b91505060a08301516141e260a0860182613c77565b508091505092915050565b60006141f9838361414f565b905092915050565b6000602082019050919050565b600061421982614123565b614223818561412e565b9350836020820285016142358561413f565b8060005b85811015614271578484038952815161425285826141ed565b945061425d83614201565b925060208a01995050600181019050614239565b50829750879550505050505092915050565b6000602082019050818103600083015261429d818461420e565b905092915050565b600081519050919050565b600082825260208201905092915050565b6000819050602082019050919050565b600060e0830160008301516142e96000860182613c77565b50602083015184820360208601526143018282613cdd565b9150506040830151848203604086015261431b8282613cdd565b915050606083015184820360608601526143358282613cdd565b9150506080830151848203608086015261434f8282613cdd565b91505060a083015184820360a08601526143698282613cdd565b91505060c083015161437e60c0860182613c77565b508091505092915050565b600061439583836142d1565b905092915050565b6000602082019050919050565b60006143b5826142a5565b6143bf81856142b0565b9350836020820285016143d1856142c1565b8060005b8581101561440d57848403895281516143ee8582614389565b94506143f98361439d565b925060208a019950506001810190506143d5565b50829750879550505050505092915050565b6000602082019050818103600083015261443981846143aa565b905092915050565b6000819050919050565b600061446661446161445c84613ba3565b614441565b613ba3565b9050919050565b60006144788261444b565b9050919050565b600061448a8261446d565b9050919050565b61449a8161447f565b82525050565b60006020820190506144b56000830184614491565b92915050565b60008083601f8401126144d1576144d0613a4e565b5b8235905067ffffffffffffffff8111156144ee576144ed613a53565b5b60208301915083602082028301111561450a57614509613a58565b5b9250929050565b6000806020838503121561452857614527613a44565b5b600083013567ffffffffffffffff81111561454657614545613a49565b5b614552858286016144bb565b92509250509250929050565b60006020828403121561457457614573613a44565b5b600061458284828501613bec565b91505092915050565b7f4e487b7100000000000000000000000000000000000000000000000000000000600052603260045260246000fd5b600082825260208201905092915050565b7f496e76616c69642077616c6c6574204944000000000000000000000000000000600082015250565b60006146016011836145ba565b915061460c826145cb565b602082019050919050565b60006020820190508181036000830152614630816145f4565b9050919050565b7f4e487b7100000000000000000000000000000000000000000000000000000000600052601160045260246000fd5b600061467182613c6d565b915061467c83613c6d565b925082820390508181111561469457614693614637565b5b92915050565b7f4e487b7100000000000000000000000000000000000000000000000000000000600052602260045260246000fd5b600060028204905060018216806146e157607f821691505b6020821081036146f4576146f361469a565b5b50919050565b600081549050614709816146c9565b9050919050565b7f4e487b7100000000000000000000000000000000000000000000000000000000600052604160045260246000fd5b60008190508160005260206000209050919050565b60006020601f8301049050919050565b600082821b905092915050565b6000600883026147a17fffffffffffffffffffffffffffffffffffffffffffffffffffffffffffffffff82614764565b6147ab8683614764565b95508019841693508086168417925050509392505050565b60006147de6147d96147d484613c6d565b614441565b613c6d565b9050919050565b6000819050919050565b6147f8836147c3565b61480c614804826147e5565b848454614771565b825550505050565b600090565b614821614814565b61482c8184846147ef565b505050565b5b8181101561485057614845600082614819565b600181019050614832565b5050565b601f821115614895576148668161473f565b61486f84614754565b8101602085101561487e578190505b61489261488a85614754565b830182614831565b50505b505050565b600082821c905092915050565b60006148b86000198460080261489a565b1980831691505092915050565b60006148d183836148a7565b9150826002028217905092915050565b8181036148ef5750506149c7565b6148f8826146fa565b67ffffffffffffffff81111561491157614910614710565b5b61491b82546146c9565b614926828285614854565b6000601f8311600181146149555760008415614943578287015490505b61494d85826148c5565b8655506149c0565b601f1984166149638761473f565b965061496e8661473f565b60005b8281101561499657848901548255600182019150600185019450602081019050614971565b868310156149b357848901546149af601f8916826148a7565b8355505b6001600288020188555050505b5050505050505b565b7f4e487b7100000000000000000000000000000000000000000000000000000000600052603160045260246000fd5b7f496e76616c696420544f54502049440000000000000000000000000000000000600082015250565b6000614a2e600f836145ba565b9150614a39826149f8565b602082019050919050565b60006020820190508181036000830152614a5d81614a21565b9050919050565b614a6d81613c6d565b8114614a7857600080fd5b50565b600081519050614a8a81614a64565b92915050565b600060208284031215614aa657614aa5613a44565b5b6000614ab484828501614a7b565b91505092915050565b7f57726f6e6720636f737420666f7220757073657274544f545000000000000000600082015250565b6000614af36019836145ba565b9150614afe82614abd565b602082019050919050565b60006020820190508181036000830152614b2281614ae6565b9050919050565b600081905092915050565b50565b6000614b44600083614b29565b9150614b4f82614b34565b600082019050919050565b6000614b6582614b37565b9150819050919050565b7f466f7277617264696e6720666565206661696c65640000000000000000000000600082015250565b6000614ba56015836145ba565b9150614bb082614b6f565b602082019050919050565b60006020820190508181036000830152614bd481614b98565b9050919050565b600080fd5b600080fd5b600080fd5b60008235600160a003833603038112614c0657614c05614bdb565b5b80830191505092915050565b60008083356001602003843603038112614c2f57614c2e614bdb565b5b80840192508235915067ffffffffffffffff821115614c5157614c50614be0565b5b602083019250600182023603831315614c6d57614c6c614be5565b5b509250929050565b614c7e82613c86565b67ffffffffffffffff811115614c9757614c96614710565b5b614ca182546146c9565b614cac828285614854565b600060209050601f831160018114614cdf5760008415614ccd578287015190505b614cd785826148c5565b865550614d3f565b601f198416614ced8661473f565b60005b82811015614d1557848901518255600182019150602085019450602081019050614cf0565b86831015614d325784890151614d2e601f8916826148a7565b8355505b6001600288020188555050505b505050505050565b6000614d5282613c6d565b91507fffffffffffffffffffffffffffffffffffffffffffffffffffffffffffffffff8203614d8457614d83614637565b5b600182019050919050565b600082905092915050565b614da48383614d8f565b67ffffffffffffffff811115614dbd57614dbc614710565b5b614dc782546146c9565b614dd2828285614854565b6000601f831160018114614e015760008415614def578287013590505b614df985826148c5565b865550614e61565b601f198416614e0f8661473f565b60005b82811015614e3757848901358255600182019150602085019450602081019050614e12565b86831015614e545784890135614e50601f8916826148a7565b8355505b6001600288020188555050505b50505050505050565b7f496e76616c69642063726564656e7469616c2049440000000000000000000000600082015250565b6000614ea06015836145ba565b9150614eab82614e6a565b602082019050919050565b60006020820190508181036000830152614ecf81614e93565b9050919050565b7f496e76616c696420436f73744d616e6167657200000000000000000000000000600082015250565b6000614f0c6013836145ba565b9150614f1782614ed6565b602082019050919050565b60006020820190508181036000830152614f3b81614eff565b9050919050565b7f466f7277617264696e67206372656174696f6e2066656520746f20436f73744d60008201527f616e61676572206661696c656400000000000000000000000000000000000000602082015250565b6000614f9e602d836145ba565b9150614fa982614f42565b604082019050919050565b60006020820190508181036000830152614fcd81614f91565b9050919050565b6000819050919050565b600067ffffffffffffffff82169050919050565b600061500d61500861500384614fd4565b614441565b614fde565b9050919050565b61501d81614ff2565b82525050565b60006020820190506150386000830184615014565b92915050565b7f496e76616c6964206e6f74652049440000000000000000000000000000000000600082015250565b6000615074600f836145ba565b915061507f8261503e565b602082019050919050565b600060208201905081810360008301526150a381615067565b9050919050565b7f57726f6e6720636f737420666f722075707365727457616c6c6574416464726560008201527f7373000000000000000000000000000000000000000000000000000000000000602082015250565b60006151066022836145ba565b9150615111826150aa565b604082019050919050565b60006020820190508181036000830152615135816150f9565b9050919050565b60008235600160c00383360303811261515857615157614bdb565b5b80830191505092915050565b7f57726f6e6720636f737420666f72207570736572744e6f746573000000000000600082015250565b600061519a601a836145ba565b91506151a582615164565b602082019050919050565b600060208201905081810360008301526151c98161518d565b9050919050565b6000823560016060038336030381126151ec576151eb614bdb565b5b80830191505092915050565b7f57726f6e6720636f737420666f722075707365727443726564656e7469616c73600082015250565b600061522e6020836145ba565b9150615239826151f8565b602082019050919050565b6000602082019050818103600083015261525d81615221565b9050919050565b60008235600160a0038336030381126152805761527f614bdb565b5b8083019150509291505056fea26469706673582212206c5632e72654d5f8cdc3066c5f6dc18aa4280d1a4cb696a26bb9afd612c3856164736f6c634300081c0033","opcodes":"PUSH1 0x80 PUSH1 0x40 MSTORE PUSH1 0x1 DUP1 SSTORE PUSH1 0x1 PUSH1 0x4 SSTORE PUSH1 0x1 PUSH1 0x7 SSTORE PUSH1 0x1 PUSH1 0xA SSTORE CALLVALUE DUP1 ISZERO PUSH1 0x22 JUMPI PUSH1 0x0 DUP1 REVERT JUMPDEST POP PUSH2 0x52C2 DUP1 PUSH2 0x32 PUSH1 0x0 CODECOPY PUSH1 0x0 RETURN INVALID PUSH1 0x80 PUSH1 0x40 MSTORE PUSH1 0x4 CALLDATASIZE LT PUSH2 0x102 JUMPI PUSH1 0x0 CALLDATALOAD PUSH1 0xE0 SHR DUP1 PUSH4 0x715018A6 GT PUSH2 0x95 JUMPI DUP1 PUSH4 0xCAFDF8B5 GT PUSH2 0x64 JUMPI DUP1 PUSH4 0xCAFDF8B5 EQ PUSH2 0x2B1 JUMPI DUP1 PUSH4 0xCCD7DC5A EQ PUSH2 0x2DC JUMPI DUP1 PUSH4 0xCECD949A EQ PUSH2 0x307 JUMPI DUP1 PUSH4 0xF117C6A8 EQ PUSH2 0x332 JUMPI DUP1 PUSH4 0xF2FDE38B EQ PUSH2 0x34E JUMPI PUSH2 0x103 JUMP JUMPDEST DUP1 PUSH4 0x715018A6 EQ PUSH2 0x228 JUMPI DUP1 PUSH4 0x82E91CAA EQ PUSH2 0x23F JUMPI DUP1 PUSH4 0x8DA5CB5B EQ PUSH2 0x26A JUMPI DUP1 PUSH4 0xA4595A20 EQ PUSH2 0x295 JUMPI PUSH2 0x103 JUMP JUMPDEST DUP1 PUSH4 0x485CC955 GT PUSH2 0xD1 JUMPI DUP1 PUSH4 0x485CC955 EQ PUSH2 0x19C JUMPI DUP1 PUSH4 0x52AB43E6 EQ PUSH2 0x1B8 JUMPI DUP1 PUSH4 0x56BA0B01 EQ PUSH2 0x1E1 JUMPI DUP1 PUSH4 0x623AC757 EQ PUSH2 0x20C JUMPI PUSH2 0x103 JUMP JUMPDEST DUP1 PUSH4 0x309D406 EQ PUSH2 0x105 JUMPI DUP1 PUSH4 0x1E375835 EQ PUSH2 0x12E JUMPI DUP1 PUSH4 0x30171241 EQ PUSH2 0x157 JUMPI DUP1 PUSH4 0x413BA326 EQ PUSH2 0x173 JUMPI PUSH2 0x103 JUMP JUMPDEST JUMPDEST STOP JUMPDEST CALLVALUE DUP1 ISZERO PUSH2 0x111 JUMPI PUSH1 0x0 DUP1 REVERT JUMPDEST POP PUSH2 0x12C PUSH1 0x4 DUP1 CALLDATASIZE SUB DUP2 ADD SWAP1 PUSH2 0x127 SWAP2 SWAP1 PUSH2 0x3AB3 JUMP JUMPDEST PUSH2 0x377 JUMP JUMPDEST STOP JUMPDEST CALLVALUE DUP1 ISZERO PUSH2 0x13A JUMPI PUSH1 0x0 DUP1 REVERT JUMPDEST POP PUSH2 0x155 PUSH1 0x4 DUP1 CALLDATASIZE SUB DUP2 ADD SWAP1 PUSH2 0x150 SWAP2 SWAP1 PUSH2 0x3AB3 JUMP JUMPDEST PUSH2 0x5C5 JUMP JUMPDEST STOP JUMPDEST PUSH2 0x171 PUSH1 0x4 DUP1 CALLDATASIZE SUB DUP2 ADD SWAP1 PUSH2 0x16C SWAP2 SWAP1 PUSH2 0x3B56 JUMP JUMPDEST PUSH2 0x7DB JUMP JUMPDEST STOP JUMPDEST CALLVALUE DUP1 ISZERO PUSH2 0x17F JUMPI PUSH1 0x0 DUP1 REVERT JUMPDEST POP PUSH2 0x19A PUSH1 0x4 DUP1 CALLDATASIZE SUB DUP2 ADD SWAP1 PUSH2 0x195 SWAP2 SWAP1 PUSH2 0x3AB3 JUMP JUMPDEST PUSH2 0xF11 JUMP JUMPDEST STOP JUMPDEST PUSH2 0x1B6 PUSH1 0x4 DUP1 CALLDATASIZE SUB DUP2 ADD SWAP1 PUSH2 0x1B1 SWAP2 SWAP1 PUSH2 0x3C01 JUMP JUMPDEST PUSH2 0x113A JUMP JUMPDEST STOP JUMPDEST CALLVALUE DUP1 ISZERO PUSH2 0x1C4 JUMPI PUSH1 0x0 DUP1 REVERT JUMPDEST POP PUSH2 0x1DF PUSH1 0x4 DUP1 CALLDATASIZE SUB DUP2 ADD SWAP1 PUSH2 0x1DA SWAP2 SWAP1 PUSH2 0x3AB3 JUMP JUMPDEST PUSH2 0x145A JUMP JUMPDEST STOP JUMPDEST CALLVALUE DUP1 ISZERO PUSH2 0x1ED JUMPI PUSH1 0x0 DUP1 REVERT JUMPDEST POP PUSH2 0x1F6 PUSH2 0x1639 JUMP JUMPDEST PUSH1 0x40 MLOAD PUSH2 0x203 SWAP2 SWAP1 PUSH2 0x3E43 JUMP JUMPDEST PUSH1 0x40 MLOAD DUP1 SWAP2 SUB SWAP1 RETURN JUMPDEST PUSH2 0x226 PUSH1 0x4 DUP1 CALLDATASIZE SUB DUP2 ADD SWAP1 PUSH2 0x221 SWAP2 SWAP1 PUSH2 0x3EBB JUMP JUMPDEST PUSH2 0x1874 JUMP JUMPDEST STOP JUMPDEST CALLVALUE DUP1 ISZERO PUSH2 0x234 JUMPI PUSH1 0x0 DUP1 REVERT JUMPDEST POP PUSH2 0x23D PUSH2 0x213D JUMP JUMPDEST STOP JUMPDEST CALLVALUE DUP1 ISZERO PUSH2 0x24B JUMPI PUSH1 0x0 DUP1 REVERT JUMPDEST POP PUSH2 0x254 PUSH2 0x2151 JUMP JUMPDEST PUSH1 0x40 MLOAD PUSH2 0x261 SWAP2 SWAP1 PUSH2 0x4034 JUMP JUMPDEST PUSH1 0x40 MLOAD DUP1 SWAP2 SUB SWAP1 RETURN JUMPDEST CALLVALUE DUP1 ISZERO PUSH2 0x276 JUMPI PUSH1 0x0 DUP1 REVERT JUMPDEST POP PUSH2 0x27F PUSH2 0x22F0 JUMP JUMPDEST PUSH1 0x40 MLOAD PUSH2 0x28C SWAP2 SWAP1 PUSH2 0x4065 JUMP JUMPDEST PUSH1 0x40 MLOAD DUP1 SWAP2 SUB SWAP1 RETURN JUMPDEST PUSH2 0x2AF PUSH1 0x4 DUP1 CALLDATASIZE SUB DUP2 ADD SWAP1 PUSH2 0x2AA SWAP2 SWAP1 PUSH2 0x40D6 JUMP JUMPDEST PUSH2 0x2328 JUMP JUMPDEST STOP JUMPDEST CALLVALUE DUP1 ISZERO PUSH2 0x2BD JUMPI PUSH1 0x0 DUP1 REVERT JUMPDEST POP PUSH2 0x2C6 PUSH2 0x28AC JUMP JUMPDEST PUSH1 0x40 MLOAD PUSH2 0x2D3 SWAP2 SWAP1 PUSH2 0x4283 JUMP JUMPDEST PUSH1 0x40 MLOAD DUP1 SWAP2 SUB SWAP1 RETURN JUMPDEST CALLVALUE DUP1 ISZERO PUSH2 0x2E8 JUMPI PUSH1 0x0 DUP1 REVERT JUMPDEST POP PUSH2 0x2F1 PUSH2 0x2B6F JUMP JUMPDEST PUSH1 0x40 MLOAD PUSH2 0x2FE SWAP2 SWAP1 PUSH2 0x441F JUMP JUMPDEST PUSH1 0x40 MLOAD DUP1 SWAP2 SUB SWAP1 RETURN JUMPDEST CALLVALUE DUP1 ISZERO PUSH2 0x313 JUMPI PUSH1 0x0 DUP1 REVERT JUMPDEST POP PUSH2 0x31C PUSH2 0x2EC4 JUMP JUMPDEST PUSH1 0x40 MLOAD PUSH2 0x329 SWAP2 SWAP1 PUSH2 0x44A0 JUMP JUMPDEST PUSH1 0x40 MLOAD DUP1 SWAP2 SUB SWAP1 RETURN JUMPDEST PUSH2 0x34C PUSH1 0x4 DUP1 CALLDATASIZE SUB DUP2 ADD SWAP1 PUSH2 0x347 SWAP2 SWAP1 PUSH2 0x4511 JUMP JUMPDEST PUSH2 0x2EE8 JUMP JUMPDEST STOP JUMPDEST CALLVALUE DUP1 ISZERO PUSH2 0x35A JUMPI PUSH1 0x0 DUP1 REVERT JUMPDEST POP PUSH2 0x375 PUSH1 0x4 DUP1 CALLDATASIZE SUB DUP2 ADD SWAP1 PUSH2 0x370 SWAP2 SWAP1 PUSH2 0x455E JUMP JUMPDEST PUSH2 0x369A JUMP JUMPDEST STOP JUMPDEST PUSH2 0x37F PUSH2 0x3720 JUMP JUMPDEST PUSH1 0x0 JUMPDEST DUP3 DUP3 SWAP1 POP DUP2 LT ISZERO PUSH2 0x5C0 JUMPI PUSH1 0x0 DUP4 DUP4 DUP4 DUP2 DUP2 LT PUSH2 0x3A2 JUMPI PUSH2 0x3A1 PUSH2 0x458B JUMP JUMPDEST JUMPDEST SWAP1 POP PUSH1 0x20 MUL ADD CALLDATALOAD SWAP1 POP PUSH1 0x0 PUSH1 0x9 PUSH1 0x0 DUP4 DUP2 MSTORE PUSH1 0x20 ADD SWAP1 DUP2 MSTORE PUSH1 0x20 ADD PUSH1 0x0 KECCAK256 SLOAD SWAP1 POP PUSH1 0x8 DUP1 SLOAD SWAP1 POP DUP2 LT PUSH2 0x40A JUMPI PUSH1 0x40 MLOAD PUSH32 0x8C379A000000000000000000000000000000000000000000000000000000000 DUP2 MSTORE PUSH1 0x4 ADD PUSH2 0x401 SWAP1 PUSH2 0x4617 JUMP JUMPDEST PUSH1 0x40 MLOAD DUP1 SWAP2 SUB SWAP1 REVERT JUMPDEST PUSH1 0x0 PUSH1 0x1 PUSH1 0x8 DUP1 SLOAD SWAP1 POP PUSH2 0x41E SWAP2 SWAP1 PUSH2 0x4666 JUMP JUMPDEST SWAP1 POP DUP1 DUP3 EQ PUSH2 0x50E JUMPI PUSH1 0x0 PUSH1 0x8 DUP3 DUP2 SLOAD DUP2 LT PUSH2 0x43D JUMPI PUSH2 0x43C PUSH2 0x458B JUMP JUMPDEST JUMPDEST SWAP1 PUSH1 0x0 MSTORE PUSH1 0x20 PUSH1 0x0 KECCAK256 SWAP1 PUSH1 0x7 MUL ADD SWAP1 POP DUP1 PUSH1 0x8 DUP5 DUP2 SLOAD DUP2 LT PUSH2 0x462 JUMPI PUSH2 0x461 PUSH2 0x458B JUMP JUMPDEST JUMPDEST SWAP1 PUSH1 0x0 MSTORE PUSH1 0x20 PUSH1 0x0 KECCAK256 SWAP1 PUSH1 0x7 MUL ADD PUSH1 0x0 DUP3 ADD SLOAD DUP2 PUSH1 0x0 ADD SSTORE PUSH1 0x1 DUP3 ADD DUP2 PUSH1 0x1 ADD SWAP1 DUP2 PUSH2 0x48E SWAP2 SWAP1 PUSH2 0x48E1 JUMP JUMPDEST POP PUSH1 0x2 DUP3 ADD DUP2 PUSH1 0x2 ADD SWAP1 DUP2 PUSH2 0x4A3 SWAP2 SWAP1 PUSH2 0x48E1 JUMP JUMPDEST POP PUSH1 0x3 DUP3 ADD DUP2 PUSH1 0x3 ADD SWAP1 DUP2 PUSH2 0x4B8 SWAP2 SWAP1 PUSH2 0x48E1 JUMP JUMPDEST POP PUSH1 0x4 DUP3 ADD DUP2 PUSH1 0x4 ADD SWAP1 DUP2 PUSH2 0x4CD SWAP2 SWAP1 PUSH2 0x48E1 JUMP JUMPDEST POP PUSH1 0x5 DUP3 ADD DUP2 PUSH1 0x5 ADD SWAP1 DUP2 PUSH2 0x4E2 SWAP2 SWAP1 PUSH2 0x48E1 JUMP JUMPDEST POP PUSH1 0x6 DUP3 ADD SLOAD DUP2 PUSH1 0x6 ADD SSTORE SWAP1 POP POP DUP3 PUSH1 0x9 PUSH1 0x0 DUP4 PUSH1 0x0 ADD SLOAD DUP2 MSTORE PUSH1 0x20 ADD SWAP1 DUP2 MSTORE PUSH1 0x20 ADD PUSH1 0x0 KECCAK256 DUP2 SWAP1 SSTORE POP POP JUMPDEST PUSH1 0x8 DUP1 SLOAD DUP1 PUSH2 0x520 JUMPI PUSH2 0x51F PUSH2 0x49C9 JUMP JUMPDEST JUMPDEST PUSH1 0x1 SWAP1 SUB DUP2 DUP2 SWAP1 PUSH1 0x0 MSTORE PUSH1 0x20 PUSH1 0x0 KECCAK256 SWAP1 PUSH1 0x7 MUL ADD PUSH1 0x0 DUP1 DUP3 ADD PUSH1 0x0 SWAP1 SSTORE PUSH1 0x1 DUP3 ADD PUSH1 0x0 PUSH2 0x54D SWAP2 SWAP1 PUSH2 0x39E7 JUMP JUMPDEST PUSH1 0x2 DUP3 ADD PUSH1 0x0 PUSH2 0x55D SWAP2 SWAP1 PUSH2 0x39E7 JUMP JUMPDEST PUSH1 0x3 DUP3 ADD PUSH1 0x0 PUSH2 0x56D SWAP2 SWAP1 PUSH2 0x39E7 JUMP JUMPDEST PUSH1 0x4 DUP3 ADD PUSH1 0x0 PUSH2 0x57D SWAP2 SWAP1 PUSH2 0x39E7 JUMP JUMPDEST PUSH1 0x5 DUP3 ADD PUSH1 0x0 PUSH2 0x58D SWAP2 SWAP1 PUSH2 0x39E7 JUMP JUMPDEST PUSH1 0x6 DUP3 ADD PUSH1 0x0 SWAP1 SSTORE POP POP SWAP1 SSTORE PUSH1 0x9 PUSH1 0x0 DUP5 DUP2 MSTORE PUSH1 0x20 ADD SWAP1 DUP2 MSTORE PUSH1 0x20 ADD PUSH1 0x0 KECCAK256 PUSH1 0x0 SWAP1 SSTORE POP POP POP DUP1 DUP1 PUSH1 0x1 ADD SWAP2 POP POP PUSH2 0x382 JUMP JUMPDEST POP POP POP JUMP JUMPDEST PUSH2 0x5CD PUSH2 0x3720 JUMP JUMPDEST PUSH1 0x0 JUMPDEST DUP3 DUP3 SWAP1 POP DUP2 LT ISZERO PUSH2 0x7D6 JUMPI PUSH1 0x0 DUP4 DUP4 DUP4 DUP2 DUP2 LT PUSH2 0x5F0 JUMPI PUSH2 0x5EF PUSH2 0x458B JUMP JUMPDEST JUMPDEST SWAP1 POP PUSH1 0x20 MUL ADD CALLDATALOAD SWAP1 POP PUSH1 0x0 PUSH1 0xC PUSH1 0x0 DUP4 DUP2 MSTORE PUSH1 0x20 ADD SWAP1 DUP2 MSTORE PUSH1 0x20 ADD PUSH1 0x0 KECCAK256 SLOAD SWAP1 POP PUSH1 0xB DUP1 SLOAD SWAP1 POP DUP2 LT PUSH2 0x658 JUMPI PUSH1 0x40 MLOAD PUSH32 0x8C379A000000000000000000000000000000000000000000000000000000000 DUP2 MSTORE PUSH1 0x4 ADD PUSH2 0x64F SWAP1 PUSH2 0x4A44 JUMP JUMPDEST PUSH1 0x40 MLOAD DUP1 SWAP2 SUB SWAP1 REVERT JUMPDEST PUSH1 0x0 PUSH1 0x1 PUSH1 0xB DUP1 SLOAD SWAP1 POP PUSH2 0x66C SWAP2 SWAP1 PUSH2 0x4666 JUMP JUMPDEST SWAP1 POP DUP1 DUP3 EQ PUSH2 0x73C JUMPI PUSH1 0x0 PUSH1 0xB DUP3 DUP2 SLOAD DUP2 LT PUSH2 0x68B JUMPI PUSH2 0x68A PUSH2 0x458B JUMP JUMPDEST JUMPDEST SWAP1 PUSH1 0x0 MSTORE PUSH1 0x20 PUSH1 0x0 KECCAK256 SWAP1 PUSH1 0x6 MUL ADD SWAP1 POP DUP1 PUSH1 0xB DUP5 DUP2 SLOAD DUP2 LT PUSH2 0x6B0 JUMPI PUSH2 0x6AF PUSH2 0x458B JUMP JUMPDEST JUMPDEST SWAP1 PUSH1 0x0 MSTORE PUSH1 0x20 PUSH1 0x0 KECCAK256 SWAP1 PUSH1 0x6 MUL ADD PUSH1 0x0 DUP3 ADD SLOAD DUP2 PUSH1 0x0 ADD SSTORE PUSH1 0x1 DUP3 ADD DUP2 PUSH1 0x1 ADD SWAP1 DUP2 PUSH2 0x6DC SWAP2 SWAP1 PUSH2 0x48E1 JUMP JUMPDEST POP PUSH1 0x2 DUP3 ADD DUP2 PUSH1 0x2 ADD SWAP1 DUP2 PUSH2 0x6F1 SWAP2 SWAP1 PUSH2 0x48E1 JUMP JUMPDEST POP PUSH1 0x3 DUP3 ADD DUP2 PUSH1 0x3 ADD SWAP1 DUP2 PUSH2 0x706 SWAP2 SWAP1 PUSH2 0x48E1 JUMP JUMPDEST POP PUSH1 0x4 DUP3 ADD SLOAD DUP2 PUSH1 0x4 ADD SSTORE PUSH1 0x5 DUP3 ADD SLOAD DUP2 PUSH1 0x5 ADD SSTORE SWAP1 POP POP DUP3 PUSH1 0xC PUSH1 0x0 DUP4 PUSH1 0x0 ADD SLOAD DUP2 MSTORE PUSH1 0x20 ADD SWAP1 DUP2 MSTORE PUSH1 0x20 ADD PUSH1 0x0 KECCAK256 DUP2 SWAP1 SSTORE POP POP JUMPDEST PUSH1 0xB DUP1 SLOAD DUP1 PUSH2 0x74E JUMPI PUSH2 0x74D PUSH2 0x49C9 JUMP JUMPDEST JUMPDEST PUSH1 0x1 SWAP1 SUB DUP2 DUP2 SWAP1 PUSH1 0x0 MSTORE PUSH1 0x20 PUSH1 0x0 KECCAK256 SWAP1 PUSH1 0x6 MUL ADD PUSH1 0x0 DUP1 DUP3 ADD PUSH1 0x0 SWAP1 SSTORE PUSH1 0x1 DUP3 ADD PUSH1 0x0 PUSH2 0x77B SWAP2 SWAP1 PUSH2 0x39E7 JUMP JUMPDEST PUSH1 0x2 DUP3 ADD PUSH1 0x0 PUSH2 0x78B SWAP2 SWAP1 PUSH2 0x39E7 JUMP JUMPDEST PUSH1 0x3 DUP3 ADD PUSH1 0x0 PUSH2 0x79B SWAP2 SWAP1 PUSH2 0x39E7 JUMP JUMPDEST PUSH1 0x4 DUP3 ADD PUSH1 0x0 SWAP1 SSTORE PUSH1 0x5 DUP3 ADD PUSH1 0x0 SWAP1 SSTORE POP POP SWAP1 SSTORE PUSH1 0xC PUSH1 0x0 DUP5 DUP2 MSTORE PUSH1 0x20 ADD SWAP1 DUP2 MSTORE PUSH1 0x20 ADD PUSH1 0x0 KECCAK256 PUSH1 0x0 SWAP1 SSTORE POP POP POP DUP1 DUP1 PUSH1 0x1 ADD SWAP2 POP POP PUSH2 0x5D0 JUMP JUMPDEST POP POP POP JUMP JUMPDEST PUSH2 0x7E3 PUSH2 0x3720 JUMP JUMPDEST PUSH1 0x0 DUP1 PUSH1 0x0 SWAP1 SLOAD SWAP1 PUSH2 0x100 EXP SWAP1 DIV PUSH20 0xFFFFFFFFFFFFFFFFFFFFFFFFFFFFFFFFFFFFFFFF AND PUSH20 0xFFFFFFFFFFFFFFFFFFFFFFFFFFFFFFFFFFFFFFFF AND PUSH4 0xF9C59D07 PUSH1 0x40 MLOAD DUP2 PUSH4 0xFFFFFFFF AND PUSH1 0xE0 SHL DUP2 MSTORE PUSH1 0x4 ADD PUSH1 0x20 PUSH1 0x40 MLOAD DUP1 DUP4 SUB DUP2 DUP7 GAS STATICCALL ISZERO DUP1 ISZERO PUSH2 0x851 JUMPI RETURNDATASIZE PUSH1 0x0 DUP1 RETURNDATACOPY RETURNDATASIZE PUSH1 0x0 REVERT JUMPDEST POP POP POP POP PUSH1 0x40 MLOAD RETURNDATASIZE PUSH1 0x1F NOT PUSH1 0x1F DUP3 ADD AND DUP3 ADD DUP1 PUSH1 0x40 MSTORE POP DUP2 ADD SWAP1 PUSH2 0x875 SWAP2 SWAP1 PUSH2 0x4A90 JUMP JUMPDEST SWAP1 POP DUP1 CALLVALUE EQ PUSH2 0x8B9 JUMPI PUSH1 0x40 MLOAD PUSH32 0x8C379A000000000000000000000000000000000000000000000000000000000 DUP2 MSTORE PUSH1 0x4 ADD PUSH2 0x8B0 SWAP1 PUSH2 0x4B09 JUMP JUMPDEST PUSH1 0x40 MLOAD DUP1 SWAP2 SUB SWAP1 REVERT JUMPDEST PUSH1 0x0 DUP1 PUSH1 0x0 SWAP1 SLOAD SWAP1 PUSH2 0x100 EXP SWAP1 DIV PUSH20 0xFFFFFFFFFFFFFFFFFFFFFFFFFFFFFFFFFFFFFFFF AND PUSH20 0xFFFFFFFFFFFFFFFFFFFFFFFFFFFFFFFFFFFFFFFF AND CALLVALUE PUSH1 0x40 MLOAD PUSH2 0x900 SWAP1 PUSH2 0x4B5A JUMP JUMPDEST PUSH1 0x0 PUSH1 0x40 MLOAD DUP1 DUP4 SUB DUP2 DUP6 DUP8 GAS CALL SWAP3 POP POP POP RETURNDATASIZE DUP1 PUSH1 0x0 DUP2 EQ PUSH2 0x93D JUMPI PUSH1 0x40 MLOAD SWAP2 POP PUSH1 0x1F NOT PUSH1 0x3F RETURNDATASIZE ADD AND DUP3 ADD PUSH1 0x40 MSTORE RETURNDATASIZE DUP3 MSTORE RETURNDATASIZE PUSH1 0x0 PUSH1 0x20 DUP5 ADD RETURNDATACOPY PUSH2 0x942 JUMP JUMPDEST PUSH1 0x60 SWAP2 POP JUMPDEST POP POP SWAP1 POP DUP1 PUSH2 0x986 JUMPI PUSH1 0x40 MLOAD PUSH32 0x8C379A000000000000000000000000000000000000000000000000000000000 DUP2 MSTORE PUSH1 0x4 ADD PUSH2 0x97D SWAP1 PUSH2 0x4BBB JUMP JUMPDEST PUSH1 0x40 MLOAD DUP1 SWAP2 SUB SWAP1 REVERT JUMPDEST PUSH1 0x0 JUMPDEST DUP5 DUP5 SWAP1 POP DUP2 LT ISZERO PUSH2 0xF0A JUMPI PUSH1 0x0 DUP6 DUP6 DUP4 DUP2 DUP2 LT PUSH2 0x9A9 JUMPI PUSH2 0x9A8 PUSH2 0x458B JUMP JUMPDEST JUMPDEST SWAP1 POP PUSH1 0x20 MUL DUP2 ADD SWAP1 PUSH2 0x9BB SWAP2 SWAP1 PUSH2 0x4BEA JUMP JUMPDEST PUSH1 0x0 ADD CALLDATALOAD SUB PUSH2 0xC52 JUMPI PUSH1 0xB PUSH1 0x40 MLOAD DUP1 PUSH1 0xC0 ADD PUSH1 0x40 MSTORE DUP1 PUSH1 0xA SLOAD DUP2 MSTORE PUSH1 0x20 ADD DUP8 DUP8 DUP6 DUP2 DUP2 LT PUSH2 0x9EC JUMPI PUSH2 0x9EB PUSH2 0x458B JUMP JUMPDEST JUMPDEST SWAP1 POP PUSH1 0x20 MUL DUP2 ADD SWAP1 PUSH2 0x9FE SWAP2 SWAP1 PUSH2 0x4BEA JUMP JUMPDEST DUP1 PUSH1 0x20 ADD SWAP1 PUSH2 0xA0D SWAP2 SWAP1 PUSH2 0x4C12 JUMP JUMPDEST DUP1 DUP1 PUSH1 0x1F ADD PUSH1 0x20 DUP1 SWAP2 DIV MUL PUSH1 0x20 ADD PUSH1 0x40 MLOAD SWAP1 DUP2 ADD PUSH1 0x40 MSTORE DUP1 SWAP4 SWAP3 SWAP2 SWAP1 DUP2 DUP2 MSTORE PUSH1 0x20 ADD DUP4 DUP4 DUP1 DUP3 DUP5 CALLDATACOPY PUSH1 0x0 DUP2 DUP5 ADD MSTORE PUSH1 0x1F NOT PUSH1 0x1F DUP3 ADD AND SWAP1 POP DUP1 DUP4 ADD SWAP3 POP POP POP POP POP POP POP DUP2 MSTORE PUSH1 0x20 ADD DUP8 DUP8 DUP6 DUP2 DUP2 LT PUSH2 0xA68 JUMPI PUSH2 0xA67 PUSH2 0x458B JUMP JUMPDEST JUMPDEST SWAP1 POP PUSH1 0x20 MUL DUP2 ADD SWAP1 PUSH2 0xA7A SWAP2 SWAP1 PUSH2 0x4BEA JUMP JUMPDEST DUP1 PUSH1 0x40 ADD SWAP1 PUSH2 0xA89 SWAP2 SWAP1 PUSH2 0x4C12 JUMP JUMPDEST DUP1 DUP1 PUSH1 0x1F ADD PUSH1 0x20 DUP1 SWAP2 DIV MUL PUSH1 0x20 ADD PUSH1 0x40 MLOAD SWAP1 DUP2 ADD PUSH1 0x40 MSTORE DUP1 SWAP4 SWAP3 SWAP2 SWAP1 DUP2 DUP2 MSTORE PUSH1 0x20 ADD DUP4 DUP4 DUP1 DUP3 DUP5 CALLDATACOPY PUSH1 0x0 DUP2 DUP5 ADD MSTORE PUSH1 0x1F NOT PUSH1 0x1F DUP3 ADD AND SWAP1 POP DUP1 DUP4 ADD SWAP3 POP POP POP POP POP POP POP DUP2 MSTORE PUSH1 0x20 ADD DUP8 DUP8 DUP6 DUP2 DUP2 LT PUSH2 0xAE4 JUMPI PUSH2 0xAE3 PUSH2 0x458B JUMP JUMPDEST JUMPDEST SWAP1 POP PUSH1 0x20 MUL DUP2 ADD SWAP1 PUSH2 0xAF6 SWAP2 SWAP1 PUSH2 0x4BEA JUMP JUMPDEST DUP1 PUSH1 0x60 ADD SWAP1 PUSH2 0xB05 SWAP2 SWAP1 PUSH2 0x4C12 JUMP JUMPDEST DUP1 DUP1 PUSH1 0x1F ADD PUSH1 0x20 DUP1 SWAP2 DIV MUL PUSH1 0x20 ADD PUSH1 0x40 MLOAD SWAP1 DUP2 ADD PUSH1 0x40 MSTORE DUP1 SWAP4 SWAP3 SWAP2 SWAP1 DUP2 DUP2 MSTORE PUSH1 0x20 ADD DUP4 DUP4 DUP1 DUP3 DUP5 CALLDATACOPY PUSH1 0x0 DUP2 DUP5 ADD MSTORE PUSH1 0x1F NOT PUSH1 0x1F DUP3 ADD AND SWAP1 POP DUP1 DUP4 ADD SWAP3 POP POP POP POP POP POP POP DUP2 MSTORE PUSH1 0x20 ADD DUP8 DUP8 DUP6 DUP2 DUP2 LT PUSH2 0xB60 JUMPI PUSH2 0xB5F PUSH2 0x458B JUMP JUMPDEST JUMPDEST SWAP1 POP PUSH1 0x20 MUL DUP2 ADD SWAP1 PUSH2 0xB72 SWAP2 SWAP1 PUSH2 0x4BEA JUMP JUMPDEST PUSH1 0x80 ADD CALLDATALOAD DUP2 MSTORE PUSH1 0x20 ADD TIMESTAMP DUP2 MSTORE POP SWAP1 DUP1 PUSH1 0x1 DUP2 SLOAD ADD DUP1 DUP3 SSTORE DUP1 SWAP2 POP POP PUSH1 0x1 SWAP1 SUB SWAP1 PUSH1 0x0 MSTORE PUSH1 0x20 PUSH1 0x0 KECCAK256 SWAP1 PUSH1 0x6 MUL ADD PUSH1 0x0 SWAP1 SWAP2 SWAP1 SWAP2 SWAP1 SWAP2 POP PUSH1 0x0 DUP3 ADD MLOAD DUP2 PUSH1 0x0 ADD SSTORE PUSH1 0x20 DUP3 ADD MLOAD DUP2 PUSH1 0x1 ADD SWAP1 DUP2 PUSH2 0xBC7 SWAP2 SWAP1 PUSH2 0x4C75 JUMP JUMPDEST POP PUSH1 0x40 DUP3 ADD MLOAD DUP2 PUSH1 0x2 ADD SWAP1 DUP2 PUSH2 0xBDD SWAP2 SWAP1 PUSH2 0x4C75 JUMP JUMPDEST POP PUSH1 0x60 DUP3 ADD MLOAD DUP2 PUSH1 0x3 ADD SWAP1 DUP2 PUSH2 0xBF3 SWAP2 SWAP1 PUSH2 0x4C75 JUMP JUMPDEST POP PUSH1 0x80 DUP3 ADD MLOAD DUP2 PUSH1 0x4 ADD SSTORE PUSH1 0xA0 DUP3 ADD MLOAD DUP2 PUSH1 0x5 ADD SSTORE POP POP PUSH1 0x1 PUSH1 0xB DUP1 SLOAD SWAP1 POP PUSH2 0xC1C SWAP2 SWAP1 PUSH2 0x4666 JUMP JUMPDEST PUSH1 0xC PUSH1 0x0 PUSH1 0xA SLOAD DUP2 MSTORE PUSH1 0x20 ADD SWAP1 DUP2 MSTORE PUSH1 0x20 ADD PUSH1 0x0 KECCAK256 DUP2 SWAP1 SSTORE POP PUSH1 0xA PUSH1 0x0 DUP2 SLOAD DUP1 SWAP3 SWAP2 SWAP1 PUSH2 0xC48 SWAP1 PUSH2 0x4D47 JUMP JUMPDEST SWAP2 SWAP1 POP SSTORE POP PUSH2 0xEFD JUMP JUMPDEST PUSH1 0x0 PUSH1 0xC PUSH1 0x0 DUP8 DUP8 DUP6 DUP2 DUP2 LT PUSH2 0xC6B JUMPI PUSH2 0xC6A PUSH2 0x458B JUMP JUMPDEST JUMPDEST SWAP1 POP PUSH1 0x20 MUL DUP2 ADD SWAP1 PUSH2 0xC7D SWAP2 SWAP1 PUSH2 0x4BEA JUMP JUMPDEST PUSH1 0x0 ADD CALLDATALOAD DUP2 MSTORE PUSH1 0x20 ADD SWAP1 DUP2 MSTORE PUSH1 0x20 ADD PUSH1 0x0 KECCAK256 SLOAD SWAP1 POP PUSH1 0xB DUP1 SLOAD SWAP1 POP DUP2 LT PUSH2 0xCD9 JUMPI PUSH1 0x40 MLOAD PUSH32 0x8C379A000000000000000000000000000000000000000000000000000000000 DUP2 MSTORE PUSH1 0x4 ADD PUSH2 0xCD0 SWAP1 PUSH2 0x4A44 JUMP JUMPDEST PUSH1 0x40 MLOAD DUP1 SWAP2 SUB SWAP1 REVERT JUMPDEST PUSH1 0x0 PUSH1 0xB DUP3 DUP2 SLOAD DUP2 LT PUSH2 0xCEF JUMPI PUSH2 0xCEE PUSH2 0x458B JUMP JUMPDEST JUMPDEST SWAP1 PUSH1 0x0 MSTORE PUSH1 0x20 PUSH1 0x0 KECCAK256 SWAP1 PUSH1 0x6 MUL ADD SWAP1 POP PUSH1 0x0 DUP8 DUP8 DUP6 DUP2 DUP2 LT PUSH2 0xD14 JUMPI PUSH2 0xD13 PUSH2 0x458B JUMP JUMPDEST JUMPDEST SWAP1 POP PUSH1 0x20 MUL DUP2 ADD SWAP1 PUSH2 0xD26 SWAP2 SWAP1 PUSH2 0x4BEA JUMP JUMPDEST DUP1 PUSH1 0x20 ADD SWAP1 PUSH2 0xD35 SWAP2 SWAP1 PUSH2 0x4C12 JUMP JUMPDEST SWAP1 POP GT ISZERO PUSH2 0xD84 JUMPI DUP7 DUP7 DUP5 DUP2 DUP2 LT PUSH2 0xD50 JUMPI PUSH2 0xD4F PUSH2 0x458B JUMP JUMPDEST JUMPDEST SWAP1 POP PUSH1 0x20 MUL DUP2 ADD SWAP1 PUSH2 0xD62 SWAP2 SWAP1 PUSH2 0x4BEA JUMP JUMPDEST DUP1 PUSH1 0x20 ADD SWAP1 PUSH2 0xD71 SWAP2 SWAP1 PUSH2 0x4C12 JUMP JUMPDEST DUP3 PUSH1 0x1 ADD SWAP2 DUP3 PUSH2 0xD82 SWAP3 SWAP2 SWAP1 PUSH2 0x4D9A JUMP JUMPDEST POP JUMPDEST PUSH1 0x0 DUP8 DUP8 DUP6 DUP2 DUP2 LT PUSH2 0xD99 JUMPI PUSH2 0xD98 PUSH2 0x458B JUMP JUMPDEST JUMPDEST SWAP1 POP PUSH1 0x20 MUL DUP2 ADD SWAP1 PUSH2 0xDAB SWAP2 SWAP1 PUSH2 0x4BEA JUMP JUMPDEST DUP1 PUSH1 0x40 ADD SWAP1 PUSH2 0xDBA SWAP2 SWAP1 PUSH2 0x4C12 JUMP JUMPDEST SWAP1 POP GT ISZERO PUSH2 0xE09 JUMPI DUP7 DUP7 DUP5 DUP2 DUP2 LT PUSH2 0xDD5 JUMPI PUSH2 0xDD4 PUSH2 0x458B JUMP JUMPDEST JUMPDEST SWAP1 POP PUSH1 0x20 MUL DUP2 ADD SWAP1 PUSH2 0xDE7 SWAP2 SWAP1 PUSH2 0x4BEA JUMP JUMPDEST DUP1 PUSH1 0x40 ADD SWAP1 PUSH2 0xDF6 SWAP2 SWAP1 PUSH2 0x4C12 JUMP JUMPDEST DUP3 PUSH1 0x2 ADD SWAP2 DUP3 PUSH2 0xE07 SWAP3 SWAP2 SWAP1 PUSH2 0x4D9A JUMP JUMPDEST POP JUMPDEST PUSH1 0x0 DUP8 DUP8 DUP6 DUP2 DUP2 LT PUSH2 0xE1E JUMPI PUSH2 0xE1D PUSH2 0x458B JUMP JUMPDEST JUMPDEST SWAP1 POP PUSH1 0x20 MUL DUP2 ADD SWAP1 PUSH2 0xE30 SWAP2 SWAP1 PUSH2 0x4BEA JUMP JUMPDEST DUP1 PUSH1 0x60 ADD SWAP1 PUSH2 0xE3F SWAP2 SWAP1 PUSH2 0x4C12 JUMP JUMPDEST SWAP1 POP GT ISZERO PUSH2 0xE8E JUMPI DUP7 DUP7 DUP5 DUP2 DUP2 LT PUSH2 0xE5A JUMPI PUSH2 0xE59 PUSH2 0x458B JUMP JUMPDEST JUMPDEST SWAP1 POP PUSH1 0x20 MUL DUP2 ADD SWAP1 PUSH2 0xE6C SWAP2 SWAP1 PUSH2 0x4BEA JUMP JUMPDEST DUP1 PUSH1 0x60 ADD SWAP1 PUSH2 0xE7B SWAP2 SWAP1 PUSH2 0x4C12 JUMP JUMPDEST DUP3 PUSH1 0x3 ADD SWAP2 DUP3 PUSH2 0xE8C SWAP3 SWAP2 SWAP1 PUSH2 0x4D9A JUMP JUMPDEST POP JUMPDEST PUSH1 0x0 DUP8 DUP8 DUP6 DUP2 DUP2 LT PUSH2 0xEA3 JUMPI PUSH2 0xEA2 PUSH2 0x458B JUMP JUMPDEST JUMPDEST SWAP1 POP PUSH1 0x20 MUL DUP2 ADD SWAP1 PUSH2 0xEB5 SWAP2 SWAP1 PUSH2 0x4BEA JUMP JUMPDEST PUSH1 0x80 ADD CALLDATALOAD GT ISZERO PUSH2 0xEF1 JUMPI DUP7 DUP7 DUP5 DUP2 DUP2 LT PUSH2 0xED2 JUMPI PUSH2 0xED1 PUSH2 0x458B JUMP JUMPDEST JUMPDEST SWAP1 POP PUSH1 0x20 MUL DUP2 ADD SWAP1 PUSH2 0xEE4 SWAP2 SWAP1 PUSH2 0x4BEA JUMP JUMPDEST PUSH1 0x80 ADD CALLDATALOAD DUP2 PUSH1 0x4 ADD DUP2 SWAP1 SSTORE POP JUMPDEST TIMESTAMP DUP2 PUSH1 0x5 ADD DUP2 SWAP1 SSTORE POP POP POP JUMPDEST DUP1 DUP1 PUSH1 0x1 ADD SWAP2 POP POP PUSH2 0x989 JUMP JUMPDEST POP POP POP POP POP JUMP JUMPDEST PUSH2 0xF19 PUSH2 0x3720 JUMP JUMPDEST PUSH1 0x0 JUMPDEST DUP3 DUP3 SWAP1 POP DUP2 LT ISZERO PUSH2 0x1135 JUMPI PUSH1 0x0 DUP4 DUP4 DUP4 DUP2 DUP2 LT PUSH2 0xF3C JUMPI PUSH2 0xF3B PUSH2 0x458B JUMP JUMPDEST JUMPDEST SWAP1 POP PUSH1 0x20 MUL ADD CALLDATALOAD SWAP1 POP PUSH1 0x0 PUSH1 0x3 PUSH1 0x0 DUP4 DUP2 MSTORE PUSH1 0x20 ADD SWAP1 DUP2 MSTORE PUSH1 0x20 ADD PUSH1 0x0 KECCAK256 SLOAD SWAP1 POP PUSH1 0x2 DUP1 SLOAD SWAP1 POP DUP2 LT PUSH2 0xFA4 JUMPI PUSH1 0x40 MLOAD PUSH32 0x8C379A000000000000000000000000000000000000000000000000000000000 DUP2 MSTORE PUSH1 0x4 ADD PUSH2 0xF9B SWAP1 PUSH2 0x4EB6 JUMP JUMPDEST PUSH1 0x40 MLOAD DUP1 SWAP2 SUB SWAP1 REVERT JUMPDEST PUSH1 0x0 PUSH1 0x1 PUSH1 0x2 DUP1 SLOAD SWAP1 POP PUSH2 0xFB8 SWAP2 SWAP1 PUSH2 0x4666 JUMP JUMPDEST SWAP1 POP DUP1 DUP3 EQ PUSH2 0x1093 JUMPI PUSH1 0x0 PUSH1 0x2 DUP3 DUP2 SLOAD DUP2 LT PUSH2 0xFD7 JUMPI PUSH2 0xFD6 PUSH2 0x458B JUMP JUMPDEST JUMPDEST SWAP1 PUSH1 0x0 MSTORE PUSH1 0x20 PUSH1 0x0 KECCAK256 SWAP1 PUSH1 0x6 MUL ADD SWAP1 POP DUP1 PUSH1 0x2 DUP5 DUP2 SLOAD DUP2 LT PUSH2 0xFFC JUMPI PUSH2 0xFFB PUSH2 0x458B JUMP JUMPDEST JUMPDEST SWAP1 PUSH1 0x0 MSTORE PUSH1 0x20 PUSH1 0x0 KECCAK256 SWAP1 PUSH1 0x6 MUL ADD PUSH1 0x0 DUP3 ADD SLOAD DUP2 PUSH1 0x0 ADD SSTORE PUSH1 0x1 DUP3 ADD DUP2 PUSH1 0x1 ADD SWAP1 DUP2 PUSH2 0x1028 SWAP2 SWAP1 PUSH2 0x48E1 JUMP JUMPDEST POP PUSH1 0x2 DUP3 ADD DUP2 PUSH1 0x2 ADD SWAP1 DUP2 PUSH2 0x103D SWAP2 SWAP1 PUSH2 0x48E1 JUMP JUMPDEST POP PUSH1 0x3 DUP3 ADD DUP2 PUSH1 0x3 ADD SWAP1 DUP2 PUSH2 0x1052 SWAP2 SWAP1 PUSH2 0x48E1 JUMP JUMPDEST POP PUSH1 0x4 DUP3 ADD DUP2 PUSH1 0x4 ADD SWAP1 DUP2 PUSH2 0x1067 SWAP2 SWAP1 PUSH2 0x48E1 JUMP JUMPDEST POP PUSH1 0x5 DUP3 ADD SLOAD DUP2 PUSH1 0x5 ADD SSTORE SWAP1 POP POP DUP3 PUSH1 0x3 PUSH1 0x0 DUP4 PUSH1 0x0 ADD SLOAD DUP2 MSTORE PUSH1 0x20 ADD SWAP1 DUP2 MSTORE PUSH1 0x20 ADD PUSH1 0x0 KECCAK256 DUP2 SWAP1 SSTORE POP POP JUMPDEST PUSH1 0x2 DUP1 SLOAD DUP1 PUSH2 0x10A5 JUMPI PUSH2 0x10A4 PUSH2 0x49C9 JUMP JUMPDEST JUMPDEST PUSH1 0x1 SWAP1 SUB DUP2 DUP2 SWAP1 PUSH1 0x0 MSTORE PUSH1 0x20 PUSH1 0x0 KECCAK256 SWAP1 PUSH1 0x6 MUL ADD PUSH1 0x0 DUP1 DUP3 ADD PUSH1 0x0 SWAP1 SSTORE PUSH1 0x1 DUP3 ADD PUSH1 0x0 PUSH2 0x10D2 SWAP2 SWAP1 PUSH2 0x39E7 JUMP JUMPDEST PUSH1 0x2 DUP3 ADD PUSH1 0x0 PUSH2 0x10E2 SWAP2 SWAP1 PUSH2 0x39E7 JUMP JUMPDEST PUSH1 0x3 DUP3 ADD PUSH1 0x0 PUSH2 0x10F2 SWAP2 SWAP1 PUSH2 0x39E7 JUMP JUMPDEST PUSH1 0x4 DUP3 ADD PUSH1 0x0 PUSH2 0x1102 SWAP2 SWAP1 PUSH2 0x39E7 JUMP JUMPDEST PUSH1 0x5 DUP3 ADD PUSH1 0x0 SWAP1 SSTORE POP POP SWAP1 SSTORE PUSH1 0x3 PUSH1 0x0 DUP5 DUP2 MSTORE PUSH1 0x20 ADD SWAP1 DUP2 MSTORE PUSH1 0x20 ADD PUSH1 0x0 KECCAK256 PUSH1 0x0 SWAP1 SSTORE POP POP POP DUP1 DUP1 PUSH1 0x1 ADD SWAP2 POP POP PUSH2 0xF1C JUMP JUMPDEST POP POP POP JUMP JUMPDEST PUSH1 0x0 PUSH2 0x1144 PUSH2 0x37A7 JUMP JUMPDEST SWAP1 POP PUSH1 0x0 DUP2 PUSH1 0x0 ADD PUSH1 0x8 SWAP1 SLOAD SWAP1 PUSH2 0x100 EXP SWAP1 DIV PUSH1 0xFF AND ISZERO SWAP1 POP PUSH1 0x0 DUP3 PUSH1 0x0 ADD PUSH1 0x0 SWAP1 SLOAD SWAP1 PUSH2 0x100 EXP SWAP1 DIV PUSH8 0xFFFFFFFFFFFFFFFF AND SWAP1 POP PUSH1 0x0 DUP1 DUP3 PUSH8 0xFFFFFFFFFFFFFFFF AND EQ DUP1 ISZERO PUSH2 0x1192 JUMPI POP DUP3 JUMPDEST SWAP1 POP PUSH1 0x0 PUSH1 0x1 DUP4 PUSH8 0xFFFFFFFFFFFFFFFF AND EQ DUP1 ISZERO PUSH2 0x11C7 JUMPI POP PUSH1 0x0 ADDRESS PUSH20 0xFFFFFFFFFFFFFFFFFFFFFFFFFFFFFFFFFFFFFFFF AND EXTCODESIZE EQ JUMPDEST SWAP1 POP DUP2 ISZERO DUP1 ISZERO PUSH2 0x11D5 JUMPI POP DUP1 ISZERO JUMPDEST ISZERO PUSH2 0x120C JUMPI PUSH1 0x40 MLOAD PUSH32 0xF92EE8A900000000000000000000000000000000000000000000000000000000 DUP2 MSTORE PUSH1 0x4 ADD PUSH1 0x40 MLOAD DUP1 SWAP2 SUB SWAP1 REVERT JUMPDEST PUSH1 0x1 DUP6 PUSH1 0x0 ADD PUSH1 0x0 PUSH2 0x100 EXP DUP2 SLOAD DUP2 PUSH8 0xFFFFFFFFFFFFFFFF MUL NOT AND SWAP1 DUP4 PUSH8 0xFFFFFFFFFFFFFFFF AND MUL OR SWAP1 SSTORE POP DUP4 ISZERO PUSH2 0x125C JUMPI PUSH1 0x1 DUP6 PUSH1 0x0 ADD PUSH1 0x8 PUSH2 0x100 EXP DUP2 SLOAD DUP2 PUSH1 0xFF MUL NOT AND SWAP1 DUP4 ISZERO ISZERO MUL OR SWAP1 SSTORE POP JUMPDEST PUSH2 0x1265 DUP8 PUSH2 0x37BB JUMP JUMPDEST PUSH2 0x126E DUP8 PUSH2 0x37CF JUMP JUMPDEST PUSH1 0x0 PUSH20 0xFFFFFFFFFFFFFFFFFFFFFFFFFFFFFFFFFFFFFFFF AND DUP7 PUSH20 0xFFFFFFFFFFFFFFFFFFFFFFFFFFFFFFFFFFFFFFFF AND SUB PUSH2 0x12DD JUMPI PUSH1 0x40 MLOAD PUSH32 0x8C379A000000000000000000000000000000000000000000000000000000000 DUP2 MSTORE PUSH1 0x4 ADD PUSH2 0x12D4 SWAP1 PUSH2 0x4F22 JUMP JUMPDEST PUSH1 0x40 MLOAD DUP1 SWAP2 SUB SWAP1 REVERT JUMPDEST DUP6 PUSH1 0x0 DUP1 PUSH2 0x100 EXP DUP2 SLOAD DUP2 PUSH20 0xFFFFFFFFFFFFFFFFFFFFFFFFFFFFFFFFFFFFFFFF MUL NOT AND SWAP1 DUP4 PUSH20 0xFFFFFFFFFFFFFFFFFFFFFFFFFFFFFFFFFFFFFFFF AND MUL OR SWAP1 SSTORE POP PUSH1 0x0 CALLVALUE GT ISZERO PUSH2 0x13F5 JUMPI PUSH1 0x0 DUP1 PUSH1 0x0 SWAP1 SLOAD SWAP1 PUSH2 0x100 EXP SWAP1 DIV PUSH20 0xFFFFFFFFFFFFFFFFFFFFFFFFFFFFFFFFFFFFFFFF AND PUSH20 0xFFFFFFFFFFFFFFFFFFFFFFFFFFFFFFFFFFFFFFFF AND CALLVALUE PUSH1 0x40 MLOAD PUSH2 0x136D SWAP1 PUSH2 0x4B5A JUMP JUMPDEST PUSH1 0x0 PUSH1 0x40 MLOAD DUP1 DUP4 SUB DUP2 DUP6 DUP8 GAS CALL SWAP3 POP POP POP RETURNDATASIZE DUP1 PUSH1 0x0 DUP2 EQ PUSH2 0x13AA JUMPI PUSH1 0x40 MLOAD SWAP2 POP PUSH1 0x1F NOT PUSH1 0x3F RETURNDATASIZE ADD AND DUP3 ADD PUSH1 0x40 MSTORE RETURNDATASIZE DUP3 MSTORE RETURNDATASIZE PUSH1 0x0 PUSH1 0x20 DUP5 ADD RETURNDATACOPY PUSH2 0x13AF JUMP JUMPDEST PUSH1 0x60 SWAP2 POP JUMPDEST POP POP SWAP1 POP DUP1 PUSH2 0x13F3 JUMPI PUSH1 0x40 MLOAD PUSH32 0x8C379A000000000000000000000000000000000000000000000000000000000 DUP2 MSTORE PUSH1 0x4 ADD PUSH2 0x13EA SWAP1 PUSH2 0x4FB4 JUMP JUMPDEST PUSH1 0x40 MLOAD DUP1 SWAP2 SUB SWAP1 REVERT JUMPDEST POP JUMPDEST DUP4 ISZERO PUSH2 0x1451 JUMPI PUSH1 0x0 DUP6 PUSH1 0x0 ADD PUSH1 0x8 PUSH2 0x100 EXP DUP2 SLOAD DUP2 PUSH1 0xFF MUL NOT AND SWAP1 DUP4 ISZERO ISZERO MUL OR SWAP1 SSTORE POP PUSH32 0xC7F505B2F371AE2175EE4913F4499E1F2633A7B5936321EED1CDAEB6115181D2 PUSH1 0x1 PUSH1 0x40 MLOAD PUSH2 0x1448 SWAP2 SWAP1 PUSH2 0x5023 JUMP JUMPDEST PUSH1 0x40 MLOAD DUP1 SWAP2 SUB SWAP1 LOG1 JUMPDEST POP POP POP POP POP POP POP JUMP JUMPDEST PUSH2 0x1462 PUSH2 0x3720 JUMP JUMPDEST PUSH1 0x0 JUMPDEST DUP3 DUP3 SWAP1 POP DUP2 LT ISZERO PUSH2 0x1634 JUMPI PUSH1 0x0 DUP4 DUP4 DUP4 DUP2 DUP2 LT PUSH2 0x1485 JUMPI PUSH2 0x1484 PUSH2 0x458B JUMP JUMPDEST JUMPDEST SWAP1 POP PUSH1 0x20 MUL ADD CALLDATALOAD SWAP1 POP PUSH1 0x0 PUSH1 0x6 PUSH1 0x0 DUP4 DUP2 MSTORE PUSH1 0x20 ADD SWAP1 DUP2 MSTORE PUSH1 0x20 ADD PUSH1 0x0 KECCAK256 SLOAD SWAP1 POP PUSH1 0x5 DUP1 SLOAD SWAP1 POP DUP2 LT PUSH2 0x14ED JUMPI PUSH1 0x40 MLOAD PUSH32 0x8C379A000000000000000000000000000000000000000000000000000000000 DUP2 MSTORE PUSH1 0x4 ADD PUSH2 0x14E4 SWAP1 PUSH2 0x508A JUMP JUMPDEST PUSH1 0x40 MLOAD DUP1 SWAP2 SUB SWAP1 REVERT JUMPDEST PUSH1 0x0 PUSH1 0x1 PUSH1 0x5 DUP1 SLOAD SWAP1 POP PUSH2 0x1501 SWAP2 SWAP1 PUSH2 0x4666 JUMP JUMPDEST SWAP1 POP DUP1 DUP3 EQ PUSH2 0x15B2 JUMPI PUSH1 0x0 PUSH1 0x5 DUP3 DUP2 SLOAD DUP2 LT PUSH2 0x1520 JUMPI PUSH2 0x151F PUSH2 0x458B JUMP JUMPDEST JUMPDEST SWAP1 PUSH1 0x0 MSTORE PUSH1 0x20 PUSH1 0x0 KECCAK256 SWAP1 PUSH1 0x4 MUL ADD SWAP1 POP DUP1 PUSH1 0x5 DUP5 DUP2 SLOAD DUP2 LT PUSH2 0x1545 JUMPI PUSH2 0x1544 PUSH2 0x458B JUMP JUMPDEST JUMPDEST SWAP1 PUSH1 0x0 MSTORE PUSH1 0x20 PUSH1 0x0 KECCAK256 SWAP1 PUSH1 0x4 MUL ADD PUSH1 0x0 DUP3 ADD SLOAD DUP2 PUSH1 0x0 ADD SSTORE PUSH1 0x1 DUP3 ADD DUP2 PUSH1 0x1 ADD SWAP1 DUP2 PUSH2 0x1571 SWAP2 SWAP1 PUSH2 0x48E1 JUMP JUMPDEST POP PUSH1 0x2 DUP3 ADD DUP2 PUSH1 0x2 ADD SWAP1 DUP2 PUSH2 0x1586 SWAP2 SWAP1 PUSH2 0x48E1 JUMP JUMPDEST POP PUSH1 0x3 DUP3 ADD SLOAD DUP2 PUSH1 0x3 ADD SSTORE SWAP1 POP POP DUP3 PUSH1 0x6 PUSH1 0x0 DUP4 PUSH1 0x0 ADD SLOAD DUP2 MSTORE PUSH1 0x20 ADD SWAP1 DUP2 MSTORE PUSH1 0x20 ADD PUSH1 0x0 KECCAK256 DUP2 SWAP1 SSTORE POP POP JUMPDEST PUSH1 0x5 DUP1 SLOAD DUP1 PUSH2 0x15C4 JUMPI PUSH2 0x15C3 PUSH2 0x49C9 JUMP JUMPDEST JUMPDEST PUSH1 0x1 SWAP1 SUB DUP2 DUP2 SWAP1 PUSH1 0x0 MSTORE PUSH1 0x20 PUSH1 0x0 KECCAK256 SWAP1 PUSH1 0x4 MUL ADD PUSH1 0x0 DUP1 DUP3 ADD PUSH1 0x0 SWAP1 SSTORE PUSH1 0x1 DUP3 ADD PUSH1 0x0 PUSH2 0x15F1 SWAP2 SWAP1 PUSH2 0x39E7 JUMP JUMPDEST PUSH1 0x2 DUP3 ADD PUSH1 0x0 PUSH2 0x1601 SWAP2 SWAP1 PUSH2 0x39E7 JUMP JUMPDEST PUSH1 0x3 DUP3 ADD PUSH1 0x0 SWAP1 SSTORE POP POP SWAP1 SSTORE PUSH1 0x6 PUSH1 0x0 DUP5 DUP2 MSTORE PUSH1 0x20 ADD SWAP1 DUP2 MSTORE PUSH1 0x20 ADD PUSH1 0x0 KECCAK256 PUSH1 0x0 SWAP1 SSTORE POP POP POP DUP1 DUP1 PUSH1 0x1 ADD SWAP2 POP POP PUSH2 0x1465 JUMP JUMPDEST POP POP POP JUMP JUMPDEST PUSH1 0x60 PUSH2 0x1643 PUSH2 0x3720 JUMP JUMPDEST PUSH1 0xB DUP1 SLOAD DUP1 PUSH1 0x20 MUL PUSH1 0x20 ADD PUSH1 0x40 MLOAD SWAP1 DUP2 ADD PUSH1 0x40 MSTORE DUP1 SWAP3 SWAP2 SWAP1 DUP2 DUP2 MSTORE PUSH1 0x20 ADD PUSH1 0x0 SWAP1 JUMPDEST DUP3 DUP3 LT ISZERO PUSH2 0x186B JUMPI DUP4 DUP3 SWAP1 PUSH1 0x0 MSTORE PUSH1 0x20 PUSH1 0x0 KECCAK256 SWAP1 PUSH1 0x6 MUL ADD PUSH1 0x40 MLOAD DUP1 PUSH1 0xC0 ADD PUSH1 0x40 MSTORE SWAP1 DUP2 PUSH1 0x0 DUP3 ADD SLOAD DUP2 MSTORE PUSH1 0x20 ADD PUSH1 0x1 DUP3 ADD DUP1 SLOAD PUSH2 0x16A2 SWAP1 PUSH2 0x46C9 JUMP JUMPDEST DUP1 PUSH1 0x1F ADD PUSH1 0x20 DUP1 SWAP2 DIV MUL PUSH1 0x20 ADD PUSH1 0x40 MLOAD SWAP1 DUP2 ADD PUSH1 0x40 MSTORE DUP1 SWAP3 SWAP2 SWAP1 DUP2 DUP2 MSTORE PUSH1 0x20 ADD DUP3 DUP1 SLOAD PUSH2 0x16CE SWAP1 PUSH2 0x46C9 JUMP JUMPDEST DUP1 ISZERO PUSH2 0x171B JUMPI DUP1 PUSH1 0x1F LT PUSH2 0x16F0 JUMPI PUSH2 0x100 DUP1 DUP4 SLOAD DIV MUL DUP4 MSTORE SWAP2 PUSH1 0x20 ADD SWAP2 PUSH2 0x171B JUMP JUMPDEST DUP3 ADD SWAP2 SWAP1 PUSH1 0x0 MSTORE PUSH1 0x20 PUSH1 0x0 KECCAK256 SWAP1 JUMPDEST DUP2 SLOAD DUP2 MSTORE SWAP1 PUSH1 0x1 ADD SWAP1 PUSH1 0x20 ADD DUP1 DUP4 GT PUSH2 0x16FE JUMPI DUP3 SWAP1 SUB PUSH1 0x1F AND DUP3 ADD SWAP2 JUMPDEST POP POP POP POP POP DUP2 MSTORE PUSH1 0x20 ADD PUSH1 0x2 DUP3 ADD DUP1 SLOAD PUSH2 0x1734 SWAP1 PUSH2 0x46C9 JUMP JUMPDEST DUP1 PUSH1 0x1F ADD PUSH1 0x20 DUP1 SWAP2 DIV MUL PUSH1 0x20 ADD PUSH1 0x40 MLOAD SWAP1 DUP2 ADD PUSH1 0x40 MSTORE DUP1 SWAP3 SWAP2 SWAP1 DUP2 DUP2 MSTORE PUSH1 0x20 ADD DUP3 DUP1 SLOAD PUSH2 0x1760 SWAP1 PUSH2 0x46C9 JUMP JUMPDEST DUP1 ISZERO PUSH2 0x17AD JUMPI DUP1 PUSH1 0x1F LT PUSH2 0x1782 JUMPI PUSH2 0x100 DUP1 DUP4 SLOAD DIV MUL DUP4 MSTORE SWAP2 PUSH1 0x20 ADD SWAP2 PUSH2 0x17AD JUMP JUMPDEST DUP3 ADD SWAP2 SWAP1 PUSH1 0x0 MSTORE PUSH1 0x20 PUSH1 0x0 KECCAK256 SWAP1 JUMPDEST DUP2 SLOAD DUP2 MSTORE SWAP1 PUSH1 0x1 ADD SWAP1 PUSH1 0x20 ADD DUP1 DUP4 GT PUSH2 0x1790 JUMPI DUP3 SWAP1 SUB PUSH1 0x1F AND DUP3 ADD SWAP2 JUMPDEST POP POP POP POP POP DUP2 MSTORE PUSH1 0x20 ADD PUSH1 0x3 DUP3 ADD DUP1 SLOAD PUSH2 0x17C6 SWAP1 PUSH2 0x46C9 JUMP JUMPDEST DUP1 PUSH1 0x1F ADD PUSH1 0x20 DUP1 SWAP2 DIV MUL PUSH1 0x20 ADD PUSH1 0x40 MLOAD SWAP1 DUP2 ADD PUSH1 0x40 MSTORE DUP1 SWAP3 SWAP2 SWAP1 DUP2 DUP2 MSTORE PUSH1 0x20 ADD DUP3 DUP1 SLOAD PUSH2 0x17F2 SWAP1 PUSH2 0x46C9 JUMP JUMPDEST DUP1 ISZERO PUSH2 0x183F JUMPI DUP1 PUSH1 0x1F LT PUSH2 0x1814 JUMPI PUSH2 0x100 DUP1 DUP4 SLOAD DIV MUL DUP4 MSTORE SWAP2 PUSH1 0x20 ADD SWAP2 PUSH2 0x183F JUMP JUMPDEST DUP3 ADD SWAP2 SWAP1 PUSH1 0x0 MSTORE PUSH1 0x20 PUSH1 0x0 KECCAK256 SWAP1 JUMPDEST DUP2 SLOAD DUP2 MSTORE SWAP1 PUSH1 0x1 ADD SWAP1 PUSH1 0x20 ADD DUP1 DUP4 GT PUSH2 0x1822 JUMPI DUP3 SWAP1 SUB PUSH1 0x1F AND DUP3 ADD SWAP2 JUMPDEST POP POP POP POP POP DUP2 MSTORE PUSH1 0x20 ADD PUSH1 0x4 DUP3 ADD SLOAD DUP2 MSTORE PUSH1 0x20 ADD PUSH1 0x5 DUP3 ADD SLOAD DUP2 MSTORE POP POP DUP2 MSTORE PUSH1 0x20 ADD SWAP1 PUSH1 0x1 ADD SWAP1 PUSH2 0x1665 JUMP JUMPDEST POP POP POP POP SWAP1 POP SWAP1 JUMP JUMPDEST PUSH2 0x187C PUSH2 0x3720 JUMP JUMPDEST PUSH1 0x0 DUP1 PUSH1 0x0 SWAP1 SLOAD SWAP1 PUSH2 0x100 EXP SWAP1 DIV PUSH20 0xFFFFFFFFFFFFFFFFFFFFFFFFFFFFFFFFFFFFFFFF AND PUSH20 0xFFFFFFFFFFFFFFFFFFFFFFFFFFFFFFFFFFFFFFFF AND PUSH4 0xF9C59D07 PUSH1 0x40 MLOAD DUP2 PUSH4 0xFFFFFFFF AND PUSH1 0xE0 SHL DUP2 MSTORE PUSH1 0x4 ADD PUSH1 0x20 PUSH1 0x40 MLOAD DUP1 DUP4 SUB DUP2 DUP7 GAS STATICCALL ISZERO DUP1 ISZERO PUSH2 0x18EA JUMPI RETURNDATASIZE PUSH1 0x0 DUP1 RETURNDATACOPY RETURNDATASIZE PUSH1 0x0 REVERT JUMPDEST POP POP POP POP PUSH1 0x40 MLOAD RETURNDATASIZE PUSH1 0x1F NOT PUSH1 0x1F DUP3 ADD AND DUP3 ADD DUP1 PUSH1 0x40 MSTORE POP DUP2 ADD SWAP1 PUSH2 0x190E SWAP2 SWAP1 PUSH2 0x4A90 JUMP JUMPDEST SWAP1 POP DUP1 CALLVALUE EQ PUSH2 0x1952 JUMPI PUSH1 0x40 MLOAD PUSH32 0x8C379A000000000000000000000000000000000000000000000000000000000 DUP2 MSTORE PUSH1 0x4 ADD PUSH2 0x1949 SWAP1 PUSH2 0x511C JUMP JUMPDEST PUSH1 0x40 MLOAD DUP1 SWAP2 SUB SWAP1 REVERT JUMPDEST PUSH1 0x0 DUP1 PUSH1 0x0 SWAP1 SLOAD SWAP1 PUSH2 0x100 EXP SWAP1 DIV PUSH20 0xFFFFFFFFFFFFFFFFFFFFFFFFFFFFFFFFFFFFFFFF AND PUSH20 0xFFFFFFFFFFFFFFFFFFFFFFFFFFFFFFFFFFFFFFFF AND CALLVALUE PUSH1 0x40 MLOAD PUSH2 0x1999 SWAP1 PUSH2 0x4B5A JUMP JUMPDEST PUSH1 0x0 PUSH1 0x40 MLOAD DUP1 DUP4 SUB DUP2 DUP6 DUP8 GAS CALL SWAP3 POP POP POP RETURNDATASIZE DUP1 PUSH1 0x0 DUP2 EQ PUSH2 0x19D6 JUMPI PUSH1 0x40 MLOAD SWAP2 POP PUSH1 0x1F NOT PUSH1 0x3F RETURNDATASIZE ADD AND DUP3 ADD PUSH1 0x40 MSTORE RETURNDATASIZE DUP3 MSTORE RETURNDATASIZE PUSH1 0x0 PUSH1 0x20 DUP5 ADD RETURNDATACOPY PUSH2 0x19DB JUMP JUMPDEST PUSH1 0x60 SWAP2 POP JUMPDEST POP POP SWAP1 POP DUP1 PUSH2 0x1A1F JUMPI PUSH1 0x40 MLOAD PUSH32 0x8C379A000000000000000000000000000000000000000000000000000000000 DUP2 MSTORE PUSH1 0x4 ADD PUSH2 0x1A16 SWAP1 PUSH2 0x4BBB JUMP JUMPDEST PUSH1 0x40 MLOAD DUP1 SWAP2 SUB SWAP1 REVERT JUMPDEST PUSH1 0x0 JUMPDEST DUP5 DUP5 SWAP1 POP DUP2 LT ISZERO PUSH2 0x2136 JUMPI PUSH1 0x0 DUP6 DUP6 DUP4 DUP2 DUP2 LT PUSH2 0x1A42 JUMPI PUSH2 0x1A41 PUSH2 0x458B JUMP JUMPDEST JUMPDEST SWAP1 POP PUSH1 0x20 MUL DUP2 ADD SWAP1 PUSH2 0x1A54 SWAP2 SWAP1 PUSH2 0x513C JUMP JUMPDEST PUSH1 0x0 ADD CALLDATALOAD SUB PUSH2 0x1DD7 JUMPI PUSH1 0x8 PUSH1 0x40 MLOAD DUP1 PUSH1 0xE0 ADD PUSH1 0x40 MSTORE DUP1 PUSH1 0x7 SLOAD DUP2 MSTORE PUSH1 0x20 ADD DUP8 DUP8 DUP6 DUP2 DUP2 LT PUSH2 0x1A85 JUMPI PUSH2 0x1A84 PUSH2 0x458B JUMP JUMPDEST JUMPDEST SWAP1 POP PUSH1 0x20 MUL DUP2 ADD SWAP1 PUSH2 0x1A97 SWAP2 SWAP1 PUSH2 0x513C JUMP JUMPDEST DUP1 PUSH1 0x20 ADD SWAP1 PUSH2 0x1AA6 SWAP2 SWAP1 PUSH2 0x4C12 JUMP JUMPDEST DUP1 DUP1 PUSH1 0x1F ADD PUSH1 0x20 DUP1 SWAP2 DIV MUL PUSH1 0x20 ADD PUSH1 0x40 MLOAD SWAP1 DUP2 ADD PUSH1 0x40 MSTORE DUP1 SWAP4 SWAP3 SWAP2 SWAP1 DUP2 DUP2 MSTORE PUSH1 0x20 ADD DUP4 DUP4 DUP1 DUP3 DUP5 CALLDATACOPY PUSH1 0x0 DUP2 DUP5 ADD MSTORE PUSH1 0x1F NOT PUSH1 0x1F DUP3 ADD AND SWAP1 POP DUP1 DUP4 ADD SWAP3 POP POP POP POP POP POP POP DUP2 MSTORE PUSH1 0x20 ADD DUP8 DUP8 DUP6 DUP2 DUP2 LT PUSH2 0x1B01 JUMPI PUSH2 0x1B00 PUSH2 0x458B JUMP JUMPDEST JUMPDEST SWAP1 POP PUSH1 0x20 MUL DUP2 ADD SWAP1 PUSH2 0x1B13 SWAP2 SWAP1 PUSH2 0x513C JUMP JUMPDEST DUP1 PUSH1 0x40 ADD SWAP1 PUSH2 0x1B22 SWAP2 SWAP1 PUSH2 0x4C12 JUMP JUMPDEST DUP1 DUP1 PUSH1 0x1F ADD PUSH1 0x20 DUP1 SWAP2 DIV MUL PUSH1 0x20 ADD PUSH1 0x40 MLOAD SWAP1 DUP2 ADD PUSH1 0x40 MSTORE DUP1 SWAP4 SWAP3 SWAP2 SWAP1 DUP2 DUP2 MSTORE PUSH1 0x20 ADD DUP4 DUP4 DUP1 DUP3 DUP5 CALLDATACOPY PUSH1 0x0 DUP2 DUP5 ADD MSTORE PUSH1 0x1F NOT PUSH1 0x1F DUP3 ADD AND SWAP1 POP DUP1 DUP4 ADD SWAP3 POP POP POP POP POP POP POP DUP2 MSTORE PUSH1 0x20 ADD DUP8 DUP8 DUP6 DUP2 DUP2 LT PUSH2 0x1B7D JUMPI PUSH2 0x1B7C PUSH2 0x458B JUMP JUMPDEST JUMPDEST SWAP1 POP PUSH1 0x20 MUL DUP2 ADD SWAP1 PUSH2 0x1B8F SWAP2 SWAP1 PUSH2 0x513C JUMP JUMPDEST DUP1 PUSH1 0x60 ADD SWAP1 PUSH2 0x1B9E SWAP2 SWAP1 PUSH2 0x4C12 JUMP JUMPDEST DUP1 DUP1 PUSH1 0x1F ADD PUSH1 0x20 DUP1 SWAP2 DIV MUL PUSH1 0x20 ADD PUSH1 0x40 MLOAD SWAP1 DUP2 ADD PUSH1 0x40 MSTORE DUP1 SWAP4 SWAP3 SWAP2 SWAP1 DUP2 DUP2 MSTORE PUSH1 0x20 ADD DUP4 DUP4 DUP1 DUP3 DUP5 CALLDATACOPY PUSH1 0x0 DUP2 DUP5 ADD MSTORE PUSH1 0x1F NOT PUSH1 0x1F DUP3 ADD AND SWAP1 POP DUP1 DUP4 ADD SWAP3 POP POP POP POP POP POP POP DUP2 MSTORE PUSH1 0x20 ADD DUP8 DUP8 DUP6 DUP2 DUP2 LT PUSH2 0x1BF9 JUMPI PUSH2 0x1BF8 PUSH2 0x458B JUMP JUMPDEST JUMPDEST SWAP1 POP PUSH1 0x20 MUL DUP2 ADD SWAP1 PUSH2 0x1C0B SWAP2 SWAP1 PUSH2 0x513C JUMP JUMPDEST DUP1 PUSH1 0x80 ADD SWAP1 PUSH2 0x1C1A SWAP2 SWAP1 PUSH2 0x4C12 JUMP JUMPDEST DUP1 DUP1 PUSH1 0x1F ADD PUSH1 0x20 DUP1 SWAP2 DIV MUL PUSH1 0x20 ADD PUSH1 0x40 MLOAD SWAP1 DUP2 ADD PUSH1 0x40 MSTORE DUP1 SWAP4 SWAP3 SWAP2 SWAP1 DUP2 DUP2 MSTORE PUSH1 0x20 ADD DUP4 DUP4 DUP1 DUP3 DUP5 CALLDATACOPY PUSH1 0x0 DUP2 DUP5 ADD MSTORE PUSH1 0x1F NOT PUSH1 0x1F DUP3 ADD AND SWAP1 POP DUP1 DUP4 ADD SWAP3 POP POP POP POP POP POP POP DUP2 MSTORE PUSH1 0x20 ADD DUP8 DUP8 DUP6 DUP2 DUP2 LT PUSH2 0x1C75 JUMPI PUSH2 0x1C74 PUSH2 0x458B JUMP JUMPDEST JUMPDEST SWAP1 POP PUSH1 0x20 MUL DUP2 ADD SWAP1 PUSH2 0x1C87 SWAP2 SWAP1 PUSH2 0x513C JUMP JUMPDEST DUP1 PUSH1 0xA0 ADD SWAP1 PUSH2 0x1C96 SWAP2 SWAP1 PUSH2 0x4C12 JUMP JUMPDEST DUP1 DUP1 PUSH1 0x1F ADD PUSH1 0x20 DUP1 SWAP2 DIV MUL PUSH1 0x20 ADD PUSH1 0x40 MLOAD SWAP1 DUP2 ADD PUSH1 0x40 MSTORE DUP1 SWAP4 SWAP3 SWAP2 SWAP1 DUP2 DUP2 MSTORE PUSH1 0x20 ADD DUP4 DUP4 DUP1 DUP3 DUP5 CALLDATACOPY PUSH1 0x0 DUP2 DUP5 ADD MSTORE PUSH1 0x1F NOT PUSH1 0x1F DUP3 ADD AND SWAP1 POP DUP1 DUP4 ADD SWAP3 POP POP POP POP POP POP POP DUP2 MSTORE PUSH1 0x20 ADD TIMESTAMP DUP2 MSTORE POP SWAP1 DUP1 PUSH1 0x1 DUP2 SLOAD ADD DUP1 DUP3 SSTORE DUP1 SWAP2 POP POP PUSH1 0x1 SWAP1 SUB SWAP1 PUSH1 0x0 MSTORE PUSH1 0x20 PUSH1 0x0 KECCAK256 SWAP1 PUSH1 0x7 MUL ADD PUSH1 0x0 SWAP1 SWAP2 SWAP1 SWAP2 SWAP1 SWAP2 POP PUSH1 0x0 DUP3 ADD MLOAD DUP2 PUSH1 0x0 ADD SSTORE PUSH1 0x20 DUP3 ADD MLOAD DUP2 PUSH1 0x1 ADD SWAP1 DUP2 PUSH2 0x1D2A SWAP2 SWAP1 PUSH2 0x4C75 JUMP JUMPDEST POP PUSH1 0x40 DUP3 ADD MLOAD DUP2 PUSH1 0x2 ADD SWAP1 DUP2 PUSH2 0x1D40 SWAP2 SWAP1 PUSH2 0x4C75 JUMP JUMPDEST POP PUSH1 0x60 DUP3 ADD MLOAD DUP2 PUSH1 0x3 ADD SWAP1 DUP2 PUSH2 0x1D56 SWAP2 SWAP1 PUSH2 0x4C75 JUMP JUMPDEST POP PUSH1 0x80 DUP3 ADD MLOAD DUP2 PUSH1 0x4 ADD SWAP1 DUP2 PUSH2 0x1D6C SWAP2 SWAP1 PUSH2 0x4C75 JUMP JUMPDEST POP PUSH1 0xA0 DUP3 ADD MLOAD DUP2 PUSH1 0x5 ADD SWAP1 DUP2 PUSH2 0x1D82 SWAP2 SWAP1 PUSH2 0x4C75 JUMP JUMPDEST POP PUSH1 0xC0 DUP3 ADD MLOAD DUP2 PUSH1 0x6 ADD SSTORE POP POP PUSH1 0x1 PUSH1 0x8 DUP1 SLOAD SWAP1 POP PUSH2 0x1DA1 SWAP2 SWAP1 PUSH2 0x4666 JUMP JUMPDEST PUSH1 0x9 PUSH1 0x0 PUSH1 0x7 SLOAD DUP2 MSTORE PUSH1 0x20 ADD SWAP1 DUP2 MSTORE PUSH1 0x20 ADD PUSH1 0x0 KECCAK256 DUP2 SWAP1 SSTORE POP PUSH1 0x7 PUSH1 0x0 DUP2 SLOAD DUP1 SWAP3 SWAP2 SWAP1 PUSH2 0x1DCD SWAP1 PUSH2 0x4D47 JUMP JUMPDEST SWAP2 SWAP1 POP SSTORE POP PUSH2 0x2129 JUMP JUMPDEST PUSH1 0x0 PUSH1 0x9 PUSH1 0x0 DUP8 DUP8 DUP6 DUP2 DUP2 LT PUSH2 0x1DF0 JUMPI PUSH2 0x1DEF PUSH2 0x458B JUMP JUMPDEST JUMPDEST SWAP1 POP PUSH1 0x20 MUL DUP2 ADD SWAP1 PUSH2 0x1E02 SWAP2 SWAP1 PUSH2 0x513C JUMP JUMPDEST PUSH1 0x0 ADD CALLDATALOAD DUP2 MSTORE PUSH1 0x20 ADD SWAP1 DUP2 MSTORE PUSH1 0x20 ADD PUSH1 0x0 KECCAK256 SLOAD SWAP1 POP PUSH1 0x8 DUP1 SLOAD SWAP1 POP DUP2 LT PUSH2 0x1E5E JUMPI PUSH1 0x40 MLOAD PUSH32 0x8C379A000000000000000000000000000000000000000000000000000000000 DUP2 MSTORE PUSH1 0x4 ADD PUSH2 0x1E55 SWAP1 PUSH2 0x4617 JUMP JUMPDEST PUSH1 0x40 MLOAD DUP1 SWAP2 SUB SWAP1 REVERT JUMPDEST PUSH1 0x0 PUSH1 0x8 DUP3 DUP2 SLOAD DUP2 LT PUSH2 0x1E74 JUMPI PUSH2 0x1E73 PUSH2 0x458B JUMP JUMPDEST JUMPDEST SWAP1 PUSH1 0x0 MSTORE PUSH1 0x20 PUSH1 0x0 KECCAK256 SWAP1 PUSH1 0x7 MUL ADD SWAP1 POP PUSH1 0x0 DUP8 DUP8 DUP6 DUP2 DUP2 LT PUSH2 0x1E99 JUMPI PUSH2 0x1E98 PUSH2 0x458B JUMP JUMPDEST JUMPDEST SWAP1 POP PUSH1 0x20 MUL DUP2 ADD SWAP1 PUSH2 0x1EAB SWAP2 SWAP1 PUSH2 0x513C JUMP JUMPDEST DUP1 PUSH1 0x20 ADD SWAP1 PUSH2 0x1EBA SWAP2 SWAP1 PUSH2 0x4C12 JUMP JUMPDEST SWAP1 POP GT ISZERO PUSH2 0x1F09 JUMPI DUP7 DUP7 DUP5 DUP2 DUP2 LT PUSH2 0x1ED5 JUMPI PUSH2 0x1ED4 PUSH2 0x458B JUMP JUMPDEST JUMPDEST SWAP1 POP PUSH1 0x20 MUL DUP2 ADD SWAP1 PUSH2 0x1EE7 SWAP2 SWAP1 PUSH2 0x513C JUMP JUMPDEST DUP1 PUSH1 0x20 ADD SWAP1 PUSH2 0x1EF6 SWAP2 SWAP1 PUSH2 0x4C12 JUMP JUMPDEST DUP3 PUSH1 0x1 ADD SWAP2 DUP3 PUSH2 0x1F07 SWAP3 SWAP2 SWAP1 PUSH2 0x4D9A JUMP JUMPDEST POP JUMPDEST PUSH1 0x0 DUP8 DUP8 DUP6 DUP2 DUP2 LT PUSH2 0x1F1E JUMPI PUSH2 0x1F1D PUSH2 0x458B JUMP JUMPDEST JUMPDEST SWAP1 POP PUSH1 0x20 MUL DUP2 ADD SWAP1 PUSH2 0x1F30 SWAP2 SWAP1 PUSH2 0x513C JUMP JUMPDEST DUP1 PUSH1 0x40 ADD SWAP1 PUSH2 0x1F3F SWAP2 SWAP1 PUSH2 0x4C12 JUMP JUMPDEST SWAP1 POP GT ISZERO PUSH2 0x1F8E JUMPI DUP7 DUP7 DUP5 DUP2 DUP2 LT PUSH2 0x1F5A JUMPI PUSH2 0x1F59 PUSH2 0x458B JUMP JUMPDEST JUMPDEST SWAP1 POP PUSH1 0x20 MUL DUP2 ADD SWAP1 PUSH2 0x1F6C SWAP2 SWAP1 PUSH2 0x513C JUMP JUMPDEST DUP1 PUSH1 0x40 ADD SWAP1 PUSH2 0x1F7B SWAP2 SWAP1 PUSH2 0x4C12 JUMP JUMPDEST DUP3 PUSH1 0x2 ADD SWAP2 DUP3 PUSH2 0x1F8C SWAP3 SWAP2 SWAP1 PUSH2 0x4D9A JUMP JUMPDEST POP JUMPDEST PUSH1 0x0 DUP8 DUP8 DUP6 DUP2 DUP2 LT PUSH2 0x1FA3 JUMPI PUSH2 0x1FA2 PUSH2 0x458B JUMP JUMPDEST JUMPDEST SWAP1 POP PUSH1 0x20 MUL DUP2 ADD SWAP1 PUSH2 0x1FB5 SWAP2 SWAP1 PUSH2 0x513C JUMP JUMPDEST DUP1 PUSH1 0x60 ADD SWAP1 PUSH2 0x1FC4 SWAP2 SWAP1 PUSH2 0x4C12 JUMP JUMPDEST SWAP1 POP GT ISZERO PUSH2 0x2013 JUMPI DUP7 DUP7 DUP5 DUP2 DUP2 LT PUSH2 0x1FDF JUMPI PUSH2 0x1FDE PUSH2 0x458B JUMP JUMPDEST JUMPDEST SWAP1 POP PUSH1 0x20 MUL DUP2 ADD SWAP1 PUSH2 0x1FF1 SWAP2 SWAP1 PUSH2 0x513C JUMP JUMPDEST DUP1 PUSH1 0x60 ADD SWAP1 PUSH2 0x2000 SWAP2 SWAP1 PUSH2 0x4C12 JUMP JUMPDEST DUP3 PUSH1 0x3 ADD SWAP2 DUP3 PUSH2 0x2011 SWAP3 SWAP2 SWAP1 PUSH2 0x4D9A JUMP JUMPDEST POP JUMPDEST PUSH1 0x0 DUP8 DUP8 DUP6 DUP2 DUP2 LT PUSH2 0x2028 JUMPI PUSH2 0x2027 PUSH2 0x458B JUMP JUMPDEST JUMPDEST SWAP1 POP PUSH1 0x20 MUL DUP2 ADD SWAP1 PUSH2 0x203A SWAP2 SWAP1 PUSH2 0x513C JUMP JUMPDEST DUP1 PUSH1 0x80 ADD SWAP1 PUSH2 0x2049 SWAP2 SWAP1 PUSH2 0x4C12 JUMP JUMPDEST SWAP1 POP GT ISZERO PUSH2 0x2098 JUMPI DUP7 DUP7 DUP5 DUP2 DUP2 LT PUSH2 0x2064 JUMPI PUSH2 0x2063 PUSH2 0x458B JUMP JUMPDEST JUMPDEST SWAP1 POP PUSH1 0x20 MUL DUP2 ADD SWAP1 PUSH2 0x2076 SWAP2 SWAP1 PUSH2 0x513C JUMP JUMPDEST DUP1 PUSH1 0x80 ADD SWAP1 PUSH2 0x2085 SWAP2 SWAP1 PUSH2 0x4C12 JUMP JUMPDEST DUP3 PUSH1 0x4 ADD SWAP2 DUP3 PUSH2 0x2096 SWAP3 SWAP2 SWAP1 PUSH2 0x4D9A JUMP JUMPDEST POP JUMPDEST PUSH1 0x0 DUP8 DUP8 DUP6 DUP2 DUP2 LT PUSH2 0x20AD JUMPI PUSH2 0x20AC PUSH2 0x458B JUMP JUMPDEST JUMPDEST SWAP1 POP PUSH1 0x20 MUL DUP2 ADD SWAP1 PUSH2 0x20BF SWAP2 SWAP1 PUSH2 0x513C JUMP JUMPDEST DUP1 PUSH1 0xA0 ADD SWAP1 PUSH2 0x20CE SWAP2 SWAP1 PUSH2 0x4C12 JUMP JUMPDEST SWAP1 POP GT ISZERO PUSH2 0x211D JUMPI DUP7 DUP7 DUP5 DUP2 DUP2 LT PUSH2 0x20E9 JUMPI PUSH2 0x20E8 PUSH2 0x458B JUMP JUMPDEST JUMPDEST SWAP1 POP PUSH1 0x20 MUL DUP2 ADD SWAP1 PUSH2 0x20FB SWAP2 SWAP1 PUSH2 0x513C JUMP JUMPDEST DUP1 PUSH1 0xA0 ADD SWAP1 PUSH2 0x210A SWAP2 SWAP1 PUSH2 0x4C12 JUMP JUMPDEST DUP3 PUSH1 0x5 ADD SWAP2 DUP3 PUSH2 0x211B SWAP3 SWAP2 SWAP1 PUSH2 0x4D9A JUMP JUMPDEST POP JUMPDEST TIMESTAMP DUP2 PUSH1 0x6 ADD DUP2 SWAP1 SSTORE POP POP POP JUMPDEST DUP1 DUP1 PUSH1 0x1 ADD SWAP2 POP POP PUSH2 0x1A22 JUMP JUMPDEST POP POP POP POP POP JUMP JUMPDEST PUSH2 0x2145 PUSH2 0x3720 JUMP JUMPDEST PUSH2 0x214F PUSH1 0x0 PUSH2 0x37CF JUMP JUMPDEST JUMP JUMPDEST PUSH1 0x60 PUSH2 0x215B PUSH2 0x3720 JUMP JUMPDEST PUSH1 0x5 DUP1 SLOAD DUP1 PUSH1 0x20 MUL PUSH1 0x20 ADD PUSH1 0x40 MLOAD SWAP1 DUP2 ADD PUSH1 0x40 MSTORE DUP1 SWAP3 SWAP2 SWAP1 DUP2 DUP2 MSTORE PUSH1 0x20 ADD PUSH1 0x0 SWAP1 JUMPDEST DUP3 DUP3 LT ISZERO PUSH2 0x22E7 JUMPI DUP4 DUP3 SWAP1 PUSH1 0x0 MSTORE PUSH1 0x20 PUSH1 0x0 KECCAK256 SWAP1 PUSH1 0x4 MUL ADD PUSH1 0x40 MLOAD DUP1 PUSH1 0x80 ADD PUSH1 0x40 MSTORE SWAP1 DUP2 PUSH1 0x0 DUP3 ADD SLOAD DUP2 MSTORE PUSH1 0x20 ADD PUSH1 0x1 DUP3 ADD DUP1 SLOAD PUSH2 0x21BA SWAP1 PUSH2 0x46C9 JUMP JUMPDEST DUP1 PUSH1 0x1F ADD PUSH1 0x20 DUP1 SWAP2 DIV MUL PUSH1 0x20 ADD PUSH1 0x40 MLOAD SWAP1 DUP2 ADD PUSH1 0x40 MSTORE DUP1 SWAP3 SWAP2 SWAP1 DUP2 DUP2 MSTORE PUSH1 0x20 ADD DUP3 DUP1 SLOAD PUSH2 0x21E6 SWAP1 PUSH2 0x46C9 JUMP JUMPDEST DUP1 ISZERO PUSH2 0x2233 JUMPI DUP1 PUSH1 0x1F LT PUSH2 0x2208 JUMPI PUSH2 0x100 DUP1 DUP4 SLOAD DIV MUL DUP4 MSTORE SWAP2 PUSH1 0x20 ADD SWAP2 PUSH2 0x2233 JUMP JUMPDEST DUP3 ADD SWAP2 SWAP1 PUSH1 0x0 MSTORE PUSH1 0x20 PUSH1 0x0 KECCAK256 SWAP1 JUMPDEST DUP2 SLOAD DUP2 MSTORE SWAP1 PUSH1 0x1 ADD SWAP1 PUSH1 0x20 ADD DUP1 DUP4 GT PUSH2 0x2216 JUMPI DUP3 SWAP1 SUB PUSH1 0x1F AND DUP3 ADD SWAP2 JUMPDEST POP POP POP POP POP DUP2 MSTORE PUSH1 0x20 ADD PUSH1 0x2 DUP3 ADD DUP1 SLOAD PUSH2 0x224C SWAP1 PUSH2 0x46C9 JUMP JUMPDEST DUP1 PUSH1 0x1F ADD PUSH1 0x20 DUP1 SWAP2 DIV MUL PUSH1 0x20 ADD PUSH1 0x40 MLOAD SWAP1 DUP2 ADD PUSH1 0x40 MSTORE DUP1 SWAP3 SWAP2 SWAP1 DUP2 DUP2 MSTORE PUSH1 0x20 ADD DUP3 DUP1 SLOAD PUSH2 0x2278 SWAP1 PUSH2 0x46C9 JUMP JUMPDEST DUP1 ISZERO PUSH2 0x22C5 JUMPI DUP1 PUSH1 0x1F LT PUSH2 0x229A JUMPI PUSH2 0x100 DUP1 DUP4 SLOAD DIV MUL DUP4 MSTORE SWAP2 PUSH1 0x20 ADD SWAP2 PUSH2 0x22C5 JUMP JUMPDEST DUP3 ADD SWAP2 SWAP1 PUSH1 0x0 MSTORE PUSH1 0x20 PUSH1 0x0 KECCAK256 SWAP1 JUMPDEST DUP2 SLOAD DUP2 MSTORE SWAP1 PUSH1 0x1 ADD SWAP1 PUSH1 0x20 ADD DUP1 DUP4 GT PUSH2 0x22A8 JUMPI DUP3 SWAP1 SUB PUSH1 0x1F AND DUP3 ADD SWAP2 JUMPDEST POP POP POP POP POP DUP2 MSTORE PUSH1 0x20 ADD PUSH1 0x3 DUP3 ADD SLOAD DUP2 MSTORE POP POP DUP2 MSTORE PUSH1 0x20 ADD SWAP1 PUSH1 0x1 ADD SWAP1 PUSH2 0x217D JUMP JUMPDEST POP POP POP POP SWAP1 POP SWAP1 JUMP JUMPDEST PUSH1 0x0 DUP1 PUSH2 0x22FB PUSH2 0x38A6 JUMP JUMPDEST SWAP1 POP DUP1 PUSH1 0x0 ADD PUSH1 0x0 SWAP1 SLOAD SWAP1 PUSH2 0x100 EXP SWAP1 DIV PUSH20 0xFFFFFFFFFFFFFFFFFFFFFFFFFFFFFFFFFFFFFFFF AND SWAP2 POP POP SWAP1 JUMP JUMPDEST PUSH2 0x2330 PUSH2 0x3720 JUMP JUMPDEST PUSH1 0x0 DUP1 PUSH1 0x0 SWAP1 SLOAD SWAP1 PUSH2 0x100 EXP SWAP1 DIV PUSH20 0xFFFFFFFFFFFFFFFFFFFFFFFFFFFFFFFFFFFFFFFF AND PUSH20 0xFFFFFFFFFFFFFFFFFFFFFFFFFFFFFFFFFFFFFFFF AND PUSH4 0xF9C59D07 PUSH1 0x40 MLOAD DUP2 PUSH4 0xFFFFFFFF AND PUSH1 0xE0 SHL DUP2 MSTORE PUSH1 0x4 ADD PUSH1 0x20 PUSH1 0x40 MLOAD DUP1 DUP4 SUB DUP2 DUP7 GAS STATICCALL ISZERO DUP1 ISZERO PUSH2 0x239E JUMPI RETURNDATASIZE PUSH1 0x0 DUP1 RETURNDATACOPY RETURNDATASIZE PUSH1 0x0 REVERT JUMPDEST POP POP POP POP PUSH1 0x40 MLOAD RETURNDATASIZE PUSH1 0x1F NOT PUSH1 0x1F DUP3 ADD AND DUP3 ADD DUP1 PUSH1 0x40 MSTORE POP DUP2 ADD SWAP1 PUSH2 0x23C2 SWAP2 SWAP1 PUSH2 0x4A90 JUMP JUMPDEST SWAP1 POP DUP1 CALLVALUE EQ PUSH2 0x2406 JUMPI PUSH1 0x40 MLOAD PUSH32 0x8C379A000000000000000000000000000000000000000000000000000000000 DUP2 MSTORE PUSH1 0x4 ADD PUSH2 0x23FD SWAP1 PUSH2 0x51B0 JUMP JUMPDEST PUSH1 0x40 MLOAD DUP1 SWAP2 SUB SWAP1 REVERT JUMPDEST PUSH1 0x0 DUP1 PUSH1 0x0 SWAP1 SLOAD SWAP1 PUSH2 0x100 EXP SWAP1 DIV PUSH20 0xFFFFFFFFFFFFFFFFFFFFFFFFFFFFFFFFFFFFFFFF AND PUSH20 0xFFFFFFFFFFFFFFFFFFFFFFFFFFFFFFFFFFFFFFFF AND CALLVALUE PUSH1 0x40 MLOAD PUSH2 0x244D SWAP1 PUSH2 0x4B5A JUMP JUMPDEST PUSH1 0x0 PUSH1 0x40 MLOAD DUP1 DUP4 SUB DUP2 DUP6 DUP8 GAS CALL SWAP3 POP POP POP RETURNDATASIZE DUP1 PUSH1 0x0 DUP2 EQ PUSH2 0x248A JUMPI PUSH1 0x40 MLOAD SWAP2 POP PUSH1 0x1F NOT PUSH1 0x3F RETURNDATASIZE ADD AND DUP3 ADD PUSH1 0x40 MSTORE RETURNDATASIZE DUP3 MSTORE RETURNDATASIZE PUSH1 0x0 PUSH1 0x20 DUP5 ADD RETURNDATACOPY PUSH2 0x248F JUMP JUMPDEST PUSH1 0x60 SWAP2 POP JUMPDEST POP POP SWAP1 POP DUP1 PUSH2 0x24D3 JUMPI PUSH1 0x40 MLOAD PUSH32 0x8C379A000000000000000000000000000000000000000000000000000000000 DUP2 MSTORE PUSH1 0x4 ADD PUSH2 0x24CA SWAP1 PUSH2 0x4BBB JUMP JUMPDEST PUSH1 0x40 MLOAD DUP1 SWAP2 SUB SWAP1 REVERT JUMPDEST PUSH1 0x0 JUMPDEST DUP5 DUP5 SWAP1 POP DUP2 LT ISZERO PUSH2 0x28A5 JUMPI PUSH1 0x0 DUP6 DUP6 DUP4 DUP2 DUP2 LT PUSH2 0x24F6 JUMPI PUSH2 0x24F5 PUSH2 0x458B JUMP JUMPDEST JUMPDEST SWAP1 POP PUSH1 0x20 MUL DUP2 ADD SWAP1 PUSH2 0x2508 SWAP2 SWAP1 PUSH2 0x51D0 JUMP JUMPDEST PUSH1 0x0 ADD CALLDATALOAD SUB PUSH2 0x26D5 JUMPI PUSH1 0x5 PUSH1 0x40 MLOAD DUP1 PUSH1 0x80 ADD PUSH1 0x40 MSTORE DUP1 PUSH1 0x4 SLOAD DUP2 MSTORE PUSH1 0x20 ADD DUP8 DUP8 DUP6 DUP2 DUP2 LT PUSH2 0x2539 JUMPI PUSH2 0x2538 PUSH2 0x458B JUMP JUMPDEST JUMPDEST SWAP1 POP PUSH1 0x20 MUL DUP2 ADD SWAP1 PUSH2 0x254B SWAP2 SWAP1 PUSH2 0x51D0 JUMP JUMPDEST DUP1 PUSH1 0x20 ADD SWAP1 PUSH2 0x255A SWAP2 SWAP1 PUSH2 0x4C12 JUMP JUMPDEST DUP1 DUP1 PUSH1 0x1F ADD PUSH1 0x20 DUP1 SWAP2 DIV MUL PUSH1 0x20 ADD PUSH1 0x40 MLOAD SWAP1 DUP2 ADD PUSH1 0x40 MSTORE DUP1 SWAP4 SWAP3 SWAP2 SWAP1 DUP2 DUP2 MSTORE PUSH1 0x20 ADD DUP4 DUP4 DUP1 DUP3 DUP5 CALLDATACOPY PUSH1 0x0 DUP2 DUP5 ADD MSTORE PUSH1 0x1F NOT PUSH1 0x1F DUP3 ADD AND SWAP1 POP DUP1 DUP4 ADD SWAP3 POP POP POP POP POP POP POP DUP2 MSTORE PUSH1 0x20 ADD DUP8 DUP8 DUP6 DUP2 DUP2 LT PUSH2 0x25B5 JUMPI PUSH2 0x25B4 PUSH2 0x458B JUMP JUMPDEST JUMPDEST SWAP1 POP PUSH1 0x20 MUL DUP2 ADD SWAP1 PUSH2 0x25C7 SWAP2 SWAP1 PUSH2 0x51D0 JUMP JUMPDEST DUP1 PUSH1 0x40 ADD SWAP1 PUSH2 0x25D6 SWAP2 SWAP1 PUSH2 0x4C12 JUMP JUMPDEST DUP1 DUP1 PUSH1 0x1F ADD PUSH1 0x20 DUP1 SWAP2 DIV MUL PUSH1 0x20 ADD PUSH1 0x40 MLOAD SWAP1 DUP2 ADD PUSH1 0x40 MSTORE DUP1 SWAP4 SWAP3 SWAP2 SWAP1 DUP2 DUP2 MSTORE PUSH1 0x20 ADD DUP4 DUP4 DUP1 DUP3 DUP5 CALLDATACOPY PUSH1 0x0 DUP2 DUP5 ADD MSTORE PUSH1 0x1F NOT PUSH1 0x1F DUP3 ADD AND SWAP1 POP DUP1 DUP4 ADD SWAP3 POP POP POP POP POP POP POP DUP2 MSTORE PUSH1 0x20 ADD TIMESTAMP DUP2 MSTORE POP SWAP1 DUP1 PUSH1 0x1 DUP2 SLOAD ADD DUP1 DUP3 SSTORE DUP1 SWAP2 POP POP PUSH1 0x1 SWAP1 SUB SWAP1 PUSH1 0x0 MSTORE PUSH1 0x20 PUSH1 0x0 KECCAK256 SWAP1 PUSH1 0x4 MUL ADD PUSH1 0x0 SWAP1 SWAP2 SWAP1 SWAP2 SWAP1 SWAP2 POP PUSH1 0x0 DUP3 ADD MLOAD DUP2 PUSH1 0x0 ADD SSTORE PUSH1 0x20 DUP3 ADD MLOAD DUP2 PUSH1 0x1 ADD SWAP1 DUP2 PUSH2 0x266A SWAP2 SWAP1 PUSH2 0x4C75 JUMP JUMPDEST POP PUSH1 0x40 DUP3 ADD MLOAD DUP2 PUSH1 0x2 ADD SWAP1 DUP2 PUSH2 0x2680 SWAP2 SWAP1 PUSH2 0x4C75 JUMP JUMPDEST POP PUSH1 0x60 DUP3 ADD MLOAD DUP2 PUSH1 0x3 ADD SSTORE POP POP PUSH1 0x1 PUSH1 0x5 DUP1 SLOAD SWAP1 POP PUSH2 0x269F SWAP2 SWAP1 PUSH2 0x4666 JUMP JUMPDEST PUSH1 0x6 PUSH1 0x0 PUSH1 0x4 SLOAD DUP2 MSTORE PUSH1 0x20 ADD SWAP1 DUP2 MSTORE PUSH1 0x20 ADD PUSH1 0x0 KECCAK256 DUP2 SWAP1 SSTORE POP PUSH1 0x4 PUSH1 0x0 DUP2 SLOAD DUP1 SWAP3 SWAP2 SWAP1 PUSH2 0x26CB SWAP1 PUSH2 0x4D47 JUMP JUMPDEST SWAP2 SWAP1 POP SSTORE POP PUSH2 0x2898 JUMP JUMPDEST PUSH1 0x0 PUSH1 0x6 PUSH1 0x0 DUP8 DUP8 DUP6 DUP2 DUP2 LT PUSH2 0x26EE JUMPI PUSH2 0x26ED PUSH2 0x458B JUMP JUMPDEST JUMPDEST SWAP1 POP PUSH1 0x20 MUL DUP2 ADD SWAP1 PUSH2 0x2700 SWAP2 SWAP1 PUSH2 0x51D0 JUMP JUMPDEST PUSH1 0x0 ADD CALLDATALOAD DUP2 MSTORE PUSH1 0x20 ADD SWAP1 DUP2 MSTORE PUSH1 0x20 ADD PUSH1 0x0 KECCAK256 SLOAD SWAP1 POP PUSH1 0x5 DUP1 SLOAD SWAP1 POP DUP2 LT PUSH2 0x275C JUMPI PUSH1 0x40 MLOAD PUSH32 0x8C379A000000000000000000000000000000000000000000000000000000000 DUP2 MSTORE PUSH1 0x4 ADD PUSH2 0x2753 SWAP1 PUSH2 0x508A JUMP JUMPDEST PUSH1 0x40 MLOAD DUP1 SWAP2 SUB SWAP1 REVERT JUMPDEST PUSH1 0x0 PUSH1 0x5 DUP3 DUP2 SLOAD DUP2 LT PUSH2 0x2772 JUMPI PUSH2 0x2771 PUSH2 0x458B JUMP JUMPDEST JUMPDEST SWAP1 PUSH1 0x0 MSTORE PUSH1 0x20 PUSH1 0x0 KECCAK256 SWAP1 PUSH1 0x4 MUL ADD SWAP1 POP PUSH1 0x0 DUP8 DUP8 DUP6 DUP2 DUP2 LT PUSH2 0x2797 JUMPI PUSH2 0x2796 PUSH2 0x458B JUMP JUMPDEST JUMPDEST SWAP1 POP PUSH1 0x20 MUL DUP2 ADD SWAP1 PUSH2 0x27A9 SWAP2 SWAP1 PUSH2 0x51D0 JUMP JUMPDEST DUP1 PUSH1 0x20 ADD SWAP1 PUSH2 0x27B8 SWAP2 SWAP1 PUSH2 0x4C12 JUMP JUMPDEST SWAP1 POP GT ISZERO PUSH2 0x2807 JUMPI DUP7 DUP7 DUP5 DUP2 DUP2 LT PUSH2 0x27D3 JUMPI PUSH2 0x27D2 PUSH2 0x458B JUMP JUMPDEST JUMPDEST SWAP1 POP PUSH1 0x20 MUL DUP2 ADD SWAP1 PUSH2 0x27E5 SWAP2 SWAP1 PUSH2 0x51D0 JUMP JUMPDEST DUP1 PUSH1 0x20 ADD SWAP1 PUSH2 0x27F4 SWAP2 SWAP1 PUSH2 0x4C12 JUMP JUMPDEST DUP3 PUSH1 0x1 ADD SWAP2 DUP3 PUSH2 0x2805 SWAP3 SWAP2 SWAP1 PUSH2 0x4D9A JUMP JUMPDEST POP JUMPDEST PUSH1 0x0 DUP8 DUP8 DUP6 DUP2 DUP2 LT PUSH2 0x281C JUMPI PUSH2 0x281B PUSH2 0x458B JUMP JUMPDEST JUMPDEST SWAP1 POP PUSH1 0x20 MUL DUP2 ADD SWAP1 PUSH2 0x282E SWAP2 SWAP1 PUSH2 0x51D0 JUMP JUMPDEST DUP1 PUSH1 0x40 ADD SWAP1 PUSH2 0x283D SWAP2 SWAP1 PUSH2 0x4C12 JUMP JUMPDEST SWAP1 POP GT ISZERO PUSH2 0x288C JUMPI DUP7 DUP7 DUP5 DUP2 DUP2 LT PUSH2 0x2858 JUMPI PUSH2 0x2857 PUSH2 0x458B JUMP JUMPDEST JUMPDEST SWAP1 POP PUSH1 0x20 MUL DUP2 ADD SWAP1 PUSH2 0x286A SWAP2 SWAP1 PUSH2 0x51D0 JUMP JUMPDEST DUP1 PUSH1 0x40 ADD SWAP1 PUSH2 0x2879 SWAP2 SWAP1 PUSH2 0x4C12 JUMP JUMPDEST DUP3 PUSH1 0x2 ADD SWAP2 DUP3 PUSH2 0x288A SWAP3 SWAP2 SWAP1 PUSH2 0x4D9A JUMP JUMPDEST POP JUMPDEST TIMESTAMP DUP2 PUSH1 0x3 ADD DUP2 SWAP1 SSTORE POP POP POP JUMPDEST DUP1 DUP1 PUSH1 0x1 ADD SWAP2 POP POP PUSH2 0x24D6 JUMP JUMPDEST POP POP POP POP POP JUMP JUMPDEST PUSH1 0x60 PUSH2 0x28B6 PUSH2 0x3720 JUMP JUMPDEST PUSH1 0x2 DUP1 SLOAD DUP1 PUSH1 0x20 MUL PUSH1 0x20 ADD PUSH1 0x40 MLOAD SWAP1 DUP2 ADD PUSH1 0x40 MSTORE DUP1 SWAP3 SWAP2 SWAP1 DUP2 DUP2 MSTORE PUSH1 0x20 ADD PUSH1 0x0 SWAP1 JUMPDEST DUP3 DUP3 LT ISZERO PUSH2 0x2B66 JUMPI DUP4 DUP3 SWAP1 PUSH1 0x0 MSTORE PUSH1 0x20 PUSH1 0x0 KECCAK256 SWAP1 PUSH1 0x6 MUL ADD PUSH1 0x40 MLOAD DUP1 PUSH1 0xC0 ADD PUSH1 0x40 MSTORE SWAP1 DUP2 PUSH1 0x0 DUP3 ADD SLOAD DUP2 MSTORE PUSH1 0x20 ADD PUSH1 0x1 DUP3 ADD DUP1 SLOAD PUSH2 0x2915 SWAP1 PUSH2 0x46C9 JUMP JUMPDEST DUP1 PUSH1 0x1F ADD PUSH1 0x20 DUP1 SWAP2 DIV MUL PUSH1 0x20 ADD PUSH1 0x40 MLOAD SWAP1 DUP2 ADD PUSH1 0x40 MSTORE DUP1 SWAP3 SWAP2 SWAP1 DUP2 DUP2 MSTORE PUSH1 0x20 ADD DUP3 DUP1 SLOAD PUSH2 0x2941 SWAP1 PUSH2 0x46C9 JUMP JUMPDEST DUP1 ISZERO PUSH2 0x298E JUMPI DUP1 PUSH1 0x1F LT PUSH2 0x2963 JUMPI PUSH2 0x100 DUP1 DUP4 SLOAD DIV MUL DUP4 MSTORE SWAP2 PUSH1 0x20 ADD SWAP2 PUSH2 0x298E JUMP JUMPDEST DUP3 ADD SWAP2 SWAP1 PUSH1 0x0 MSTORE PUSH1 0x20 PUSH1 0x0 KECCAK256 SWAP1 JUMPDEST DUP2 SLOAD DUP2 MSTORE SWAP1 PUSH1 0x1 ADD SWAP1 PUSH1 0x20 ADD DUP1 DUP4 GT PUSH2 0x2971 JUMPI DUP3 SWAP1 SUB PUSH1 0x1F AND DUP3 ADD SWAP2 JUMPDEST POP POP POP POP POP DUP2 MSTORE PUSH1 0x20 ADD PUSH1 0x2 DUP3 ADD DUP1 SLOAD PUSH2 0x29A7 SWAP1 PUSH2 0x46C9 JUMP JUMPDEST DUP1 PUSH1 0x1F ADD PUSH1 0x20 DUP1 SWAP2 DIV MUL PUSH1 0x20 ADD PUSH1 0x40 MLOAD SWAP1 DUP2 ADD PUSH1 0x40 MSTORE DUP1 SWAP3 SWAP2 SWAP1 DUP2 DUP2 MSTORE PUSH1 0x20 ADD DUP3 DUP1 SLOAD PUSH2 0x29D3 SWAP1 PUSH2 0x46C9 JUMP JUMPDEST DUP1 ISZERO PUSH2 0x2A20 JUMPI DUP1 PUSH1 0x1F LT PUSH2 0x29F5 JUMPI PUSH2 0x100 DUP1 DUP4 SLOAD DIV MUL DUP4 MSTORE SWAP2 PUSH1 0x20 ADD SWAP2 PUSH2 0x2A20 JUMP JUMPDEST DUP3 ADD SWAP2 SWAP1 PUSH1 0x0 MSTORE PUSH1 0x20 PUSH1 0x0 KECCAK256 SWAP1 JUMPDEST DUP2 SLOAD DUP2 MSTORE SWAP1 PUSH1 0x1 ADD SWAP1 PUSH1 0x20 ADD DUP1 DUP4 GT PUSH2 0x2A03 JUMPI DUP3 SWAP1 SUB PUSH1 0x1F AND DUP3 ADD SWAP2 JUMPDEST POP POP POP POP POP DUP2 MSTORE PUSH1 0x20 ADD PUSH1 0x3 DUP3 ADD DUP1 SLOAD PUSH2 0x2A39 SWAP1 PUSH2 0x46C9 JUMP JUMPDEST DUP1 PUSH1 0x1F ADD PUSH1 0x20 DUP1 SWAP2 DIV MUL PUSH1 0x20 ADD PUSH1 0x40 MLOAD SWAP1 DUP2 ADD PUSH1 0x40 MSTORE DUP1 SWAP3 SWAP2 SWAP1 DUP2 DUP2 MSTORE PUSH1 0x20 ADD DUP3 DUP1 SLOAD PUSH2 0x2A65 SWAP1 PUSH2 0x46C9 JUMP JUMPDEST DUP1 ISZERO PUSH2 0x2AB2 JUMPI DUP1 PUSH1 0x1F LT PUSH2 0x2A87 JUMPI PUSH2 0x100 DUP1 DUP4 SLOAD DIV MUL DUP4 MSTORE SWAP2 PUSH1 0x20 ADD SWAP2 PUSH2 0x2AB2 JUMP JUMPDEST DUP3 ADD SWAP2 SWAP1 PUSH1 0x0 MSTORE PUSH1 0x20 PUSH1 0x0 KECCAK256 SWAP1 JUMPDEST DUP2 SLOAD DUP2 MSTORE SWAP1 PUSH1 0x1 ADD SWAP1 PUSH1 0x20 ADD DUP1 DUP4 GT PUSH2 0x2A95 JUMPI DUP3 SWAP1 SUB PUSH1 0x1F AND DUP3 ADD SWAP2 JUMPDEST POP POP POP POP POP DUP2 MSTORE PUSH1 0x20 ADD PUSH1 0x4 DUP3 ADD DUP1 SLOAD PUSH2 0x2ACB SWAP1 PUSH2 0x46C9 JUMP JUMPDEST DUP1 PUSH1 0x1F ADD PUSH1 0x20 DUP1 SWAP2 DIV MUL PUSH1 0x20 ADD PUSH1 0x40 MLOAD SWAP1 DUP2 ADD PUSH1 0x40 MSTORE DUP1 SWAP3 SWAP2 SWAP1 DUP2 DUP2 MSTORE PUSH1 0x20 ADD DUP3 DUP1 SLOAD PUSH2 0x2AF7 SWAP1 PUSH2 0x46C9 JUMP JUMPDEST DUP1 ISZERO PUSH2 0x2B44 JUMPI DUP1 PUSH1 0x1F LT PUSH2 0x2B19 JUMPI PUSH2 0x100 DUP1 DUP4 SLOAD DIV MUL DUP4 MSTORE SWAP2 PUSH1 0x20 ADD SWAP2 PUSH2 0x2B44 JUMP JUMPDEST DUP3 ADD SWAP2 SWAP1 PUSH1 0x0 MSTORE PUSH1 0x20 PUSH1 0x0 KECCAK256 SWAP1 JUMPDEST DUP2 SLOAD DUP2 MSTORE SWAP1 PUSH1 0x1 ADD SWAP1 PUSH1 0x20 ADD DUP1 DUP4 GT PUSH2 0x2B27 JUMPI DUP3 SWAP1 SUB PUSH1 0x1F AND DUP3 ADD SWAP2 JUMPDEST POP POP POP POP POP DUP2 MSTORE PUSH1 0x20 ADD PUSH1 0x5 DUP3 ADD SLOAD DUP2 MSTORE POP POP DUP2 MSTORE PUSH1 0x20 ADD SWAP1 PUSH1 0x1 ADD SWAP1 PUSH2 0x28D8 JUMP JUMPDEST POP POP POP POP SWAP1 POP SWAP1 JUMP JUMPDEST PUSH1 0x60 PUSH2 0x2B79 PUSH2 0x3720 JUMP JUMPDEST PUSH1 0x8 DUP1 SLOAD DUP1 PUSH1 0x20 MUL PUSH1 0x20 ADD PUSH1 0x40 MLOAD SWAP1 DUP2 ADD PUSH1 0x40 MSTORE DUP1 SWAP3 SWAP2 SWAP1 DUP2 DUP2 MSTORE PUSH1 0x20 ADD PUSH1 0x0 SWAP1 JUMPDEST DUP3 DUP3 LT ISZERO PUSH2 0x2EBB JUMPI DUP4 DUP3 SWAP1 PUSH1 0x0 MSTORE PUSH1 0x20 PUSH1 0x0 KECCAK256 SWAP1 PUSH1 0x7 MUL ADD PUSH1 0x40 MLOAD DUP1 PUSH1 0xE0 ADD PUSH1 0x40 MSTORE SWAP1 DUP2 PUSH1 0x0 DUP3 ADD SLOAD DUP2 MSTORE PUSH1 0x20 ADD PUSH1 0x1 DUP3 ADD DUP1 SLOAD PUSH2 0x2BD8 SWAP1 PUSH2 0x46C9 JUMP JUMPDEST DUP1 PUSH1 0x1F ADD PUSH1 0x20 DUP1 SWAP2 DIV MUL PUSH1 0x20 ADD PUSH1 0x40 MLOAD SWAP1 DUP2 ADD PUSH1 0x40 MSTORE DUP1 SWAP3 SWAP2 SWAP1 DUP2 DUP2 MSTORE PUSH1 0x20 ADD DUP3 DUP1 SLOAD PUSH2 0x2C04 SWAP1 PUSH2 0x46C9 JUMP JUMPDEST DUP1 ISZERO PUSH2 0x2C51 JUMPI DUP1 PUSH1 0x1F LT PUSH2 0x2C26 JUMPI PUSH2 0x100 DUP1 DUP4 SLOAD DIV MUL DUP4 MSTORE SWAP2 PUSH1 0x20 ADD SWAP2 PUSH2 0x2C51 JUMP JUMPDEST DUP3 ADD SWAP2 SWAP1 PUSH1 0x0 MSTORE PUSH1 0x20 PUSH1 0x0 KECCAK256 SWAP1 JUMPDEST DUP2 SLOAD DUP2 MSTORE SWAP1 PUSH1 0x1 ADD SWAP1 PUSH1 0x20 ADD DUP1 DUP4 GT PUSH2 0x2C34 JUMPI DUP3 SWAP1 SUB PUSH1 0x1F AND DUP3 ADD SWAP2 JUMPDEST POP POP POP POP POP DUP2 MSTORE PUSH1 0x20 ADD PUSH1 0x2 DUP3 ADD DUP1 SLOAD PUSH2 0x2C6A SWAP1 PUSH2 0x46C9 JUMP JUMPDEST DUP1 PUSH1 0x1F ADD PUSH1 0x20 DUP1 SWAP2 DIV MUL PUSH1 0x20 ADD PUSH1 0x40 MLOAD SWAP1 DUP2 ADD PUSH1 0x40 MSTORE DUP1 SWAP3 SWAP2 SWAP1 DUP2 DUP2 MSTORE PUSH1 0x20 ADD DUP3 DUP1 SLOAD PUSH2 0x2C96 SWAP1 PUSH2 0x46C9 JUMP JUMPDEST DUP1 ISZERO PUSH2 0x2CE3 JUMPI DUP1 PUSH1 0x1F LT PUSH2 0x2CB8 JUMPI PUSH2 0x100 DUP1 DUP4 SLOAD DIV MUL DUP4 MSTORE SWAP2 PUSH1 0x20 ADD SWAP2 PUSH2 0x2CE3 JUMP JUMPDEST DUP3 ADD SWAP2 SWAP1 PUSH1 0x0 MSTORE PUSH1 0x20 PUSH1 0x0 KECCAK256 SWAP1 JUMPDEST DUP2 SLOAD DUP2 MSTORE SWAP1 PUSH1 0x1 ADD SWAP1 PUSH1 0x20 ADD DUP1 DUP4 GT PUSH2 0x2CC6 JUMPI DUP3 SWAP1 SUB PUSH1 0x1F AND DUP3 ADD SWAP2 JUMPDEST POP POP POP POP POP DUP2 MSTORE PUSH1 0x20 ADD PUSH1 0x3 DUP3 ADD DUP1 SLOAD PUSH2 0x2CFC SWAP1 PUSH2 0x46C9 JUMP JUMPDEST DUP1 PUSH1 0x1F ADD PUSH1 0x20 DUP1 SWAP2 DIV MUL PUSH1 0x20 ADD PUSH1 0x40 MLOAD SWAP1 DUP2 ADD PUSH1 0x40 MSTORE DUP1 SWAP3 SWAP2 SWAP1 DUP2 DUP2 MSTORE PUSH1 0x20 ADD DUP3 DUP1 SLOAD PUSH2 0x2D28 SWAP1 PUSH2 0x46C9 JUMP JUMPDEST DUP1 ISZERO PUSH2 0x2D75 JUMPI DUP1 PUSH1 0x1F LT PUSH2 0x2D4A JUMPI PUSH2 0x100 DUP1 DUP4 SLOAD DIV MUL DUP4 MSTORE SWAP2 PUSH1 0x20 ADD SWAP2 PUSH2 0x2D75 JUMP JUMPDEST DUP3 ADD SWAP2 SWAP1 PUSH1 0x0 MSTORE PUSH1 0x20 PUSH1 0x0 KECCAK256 SWAP1 JUMPDEST DUP2 SLOAD DUP2 MSTORE SWAP1 PUSH1 0x1 ADD SWAP1 PUSH1 0x20 ADD DUP1 DUP4 GT PUSH2 0x2D58 JUMPI DUP3 SWAP1 SUB PUSH1 0x1F AND DUP3 ADD SWAP2 JUMPDEST POP POP POP POP POP DUP2 MSTORE PUSH1 0x20 ADD PUSH1 0x4 DUP3 ADD DUP1 SLOAD PUSH2 0x2D8E SWAP1 PUSH2 0x46C9 JUMP JUMPDEST DUP1 PUSH1 0x1F ADD PUSH1 0x20 DUP1 SWAP2 DIV MUL PUSH1 0x20 ADD PUSH1 0x40 MLOAD SWAP1 DUP2 ADD PUSH1 0x40 MSTORE DUP1 SWAP3 SWAP2 SWAP1 DUP2 DUP2 MSTORE PUSH1 0x20 ADD DUP3 DUP1 SLOAD PUSH2 0x2DBA SWAP1 PUSH2 0x46C9 JUMP JUMPDEST DUP1 ISZERO PUSH2 0x2E07 JUMPI DUP1 PUSH1 0x1F LT PUSH2 0x2DDC JUMPI PUSH2 0x100 DUP1 DUP4 SLOAD DIV MUL DUP4 MSTORE SWAP2 PUSH1 0x20 ADD SWAP2 PUSH2 0x2E07 JUMP JUMPDEST DUP3 ADD SWAP2 SWAP1 PUSH1 0x0 MSTORE PUSH1 0x20 PUSH1 0x0 KECCAK256 SWAP1 JUMPDEST DUP2 SLOAD DUP2 MSTORE SWAP1 PUSH1 0x1 ADD SWAP1 PUSH1 0x20 ADD DUP1 DUP4 GT PUSH2 0x2DEA JUMPI DUP3 SWAP1 SUB PUSH1 0x1F AND DUP3 ADD SWAP2 JUMPDEST POP POP POP POP POP DUP2 MSTORE PUSH1 0x20 ADD PUSH1 0x5 DUP3 ADD DUP1 SLOAD PUSH2 0x2E20 SWAP1 PUSH2 0x46C9 JUMP JUMPDEST DUP1 PUSH1 0x1F ADD PUSH1 0x20 DUP1 SWAP2 DIV MUL PUSH1 0x20 ADD PUSH1 0x40 MLOAD SWAP1 DUP2 ADD PUSH1 0x40 MSTORE DUP1 SWAP3 SWAP2 SWAP1 DUP2 DUP2 MSTORE PUSH1 0x20 ADD DUP3 DUP1 SLOAD PUSH2 0x2E4C SWAP1 PUSH2 0x46C9 JUMP JUMPDEST DUP1 ISZERO PUSH2 0x2E99 JUMPI DUP1 PUSH1 0x1F LT PUSH2 0x2E6E JUMPI PUSH2 0x100 DUP1 DUP4 SLOAD DIV MUL DUP4 MSTORE SWAP2 PUSH1 0x20 ADD SWAP2 PUSH2 0x2E99 JUMP JUMPDEST DUP3 ADD SWAP2 SWAP1 PUSH1 0x0 MSTORE PUSH1 0x20 PUSH1 0x0 KECCAK256 SWAP1 JUMPDEST DUP2 SLOAD DUP2 MSTORE SWAP1 PUSH1 0x1 ADD SWAP1 PUSH1 0x20 ADD DUP1 DUP4 GT PUSH2 0x2E7C JUMPI DUP3 SWAP1 SUB PUSH1 0x1F AND DUP3 ADD SWAP2 JUMPDEST POP POP POP POP POP DUP2 MSTORE PUSH1 0x20 ADD PUSH1 0x6 DUP3 ADD SLOAD DUP2 MSTORE POP POP DUP2 MSTORE PUSH1 0x20 ADD SWAP1 PUSH1 0x1 ADD SWAP1 PUSH2 0x2B9B JUMP JUMPDEST POP POP POP POP SWAP1 POP SWAP1 JUMP JUMPDEST PUSH1 0x0 DUP1 SLOAD SWAP1 PUSH2 0x100 EXP SWAP1 DIV PUSH20 0xFFFFFFFFFFFFFFFFFFFFFFFFFFFFFFFFFFFFFFFF AND DUP2 JUMP JUMPDEST PUSH2 0x2EF0 PUSH2 0x3720 JUMP JUMPDEST PUSH1 0x0 DUP1 PUSH1 0x0 SWAP1 SLOAD SWAP1 PUSH2 0x100 EXP SWAP1 DIV PUSH20 0xFFFFFFFFFFFFFFFFFFFFFFFFFFFFFFFFFFFFFFFF AND PUSH20 0xFFFFFFFFFFFFFFFFFFFFFFFFFFFFFFFFFFFFFFFF AND PUSH4 0xF9C59D07 PUSH1 0x40 MLOAD DUP2 PUSH4 0xFFFFFFFF AND PUSH1 0xE0 SHL DUP2 MSTORE PUSH1 0x4 ADD PUSH1 0x20 PUSH1 0x40 MLOAD DUP1 DUP4 SUB DUP2 DUP7 GAS STATICCALL ISZERO DUP1 ISZERO PUSH2 0x2F5E JUMPI RETURNDATASIZE PUSH1 0x0 DUP1 RETURNDATACOPY RETURNDATASIZE PUSH1 0x0 REVERT JUMPDEST POP POP POP POP PUSH1 0x40 MLOAD RETURNDATASIZE PUSH1 0x1F NOT PUSH1 0x1F DUP3 ADD AND DUP3 ADD DUP1 PUSH1 0x40 MSTORE POP DUP2 ADD SWAP1 PUSH2 0x2F82 SWAP2 SWAP1 PUSH2 0x4A90 JUMP JUMPDEST SWAP1 POP DUP1 CALLVALUE EQ PUSH2 0x2FC6 JUMPI PUSH1 0x40 MLOAD PUSH32 0x8C379A000000000000000000000000000000000000000000000000000000000 DUP2 MSTORE PUSH1 0x4 ADD PUSH2 0x2FBD SWAP1 PUSH2 0x5244 JUMP JUMPDEST PUSH1 0x40 MLOAD DUP1 SWAP2 SUB SWAP1 REVERT JUMPDEST PUSH1 0x0 DUP1 PUSH1 0x0 SWAP1 SLOAD SWAP1 PUSH2 0x100 EXP SWAP1 DIV PUSH20 0xFFFFFFFFFFFFFFFFFFFFFFFFFFFFFFFFFFFFFFFF AND PUSH20 0xFFFFFFFFFFFFFFFFFFFFFFFFFFFFFFFFFFFFFFFF AND CALLVALUE PUSH1 0x40 MLOAD PUSH2 0x300D SWAP1 PUSH2 0x4B5A JUMP JUMPDEST PUSH1 0x0 PUSH1 0x40 MLOAD DUP1 DUP4 SUB DUP2 DUP6 DUP8 GAS CALL SWAP3 POP POP POP RETURNDATASIZE DUP1 PUSH1 0x0 DUP2 EQ PUSH2 0x304A JUMPI PUSH1 0x40 MLOAD SWAP2 POP PUSH1 0x1F NOT PUSH1 0x3F RETURNDATASIZE ADD AND DUP3 ADD PUSH1 0x40 MSTORE RETURNDATASIZE DUP3 MSTORE RETURNDATASIZE PUSH1 0x0 PUSH1 0x20 DUP5 ADD RETURNDATACOPY PUSH2 0x304F JUMP JUMPDEST PUSH1 0x60 SWAP2 POP JUMPDEST POP POP SWAP1 POP DUP1 PUSH2 0x3093 JUMPI PUSH1 0x40 MLOAD PUSH32 0x8C379A000000000000000000000000000000000000000000000000000000000 DUP2 MSTORE PUSH1 0x4 ADD PUSH2 0x308A SWAP1 PUSH2 0x4BBB JUMP JUMPDEST PUSH1 0x40 MLOAD DUP1 SWAP2 SUB SWAP1 REVERT JUMPDEST PUSH1 0x0 JUMPDEST DUP5 DUP5 SWAP1 POP DUP2 LT ISZERO PUSH2 0x3693 JUMPI PUSH1 0x0 DUP6 DUP6 DUP4 DUP2 DUP2 LT PUSH2 0x30B6 JUMPI PUSH2 0x30B5 PUSH2 0x458B JUMP JUMPDEST JUMPDEST SWAP1 POP PUSH1 0x20 MUL DUP2 ADD SWAP1 PUSH2 0x30C8 SWAP2 SWAP1 PUSH2 0x5264 JUMP JUMPDEST PUSH1 0x0 ADD CALLDATALOAD SUB PUSH2 0x33B9 JUMPI PUSH1 0x2 PUSH1 0x40 MLOAD DUP1 PUSH1 0xC0 ADD PUSH1 0x40 MSTORE DUP1 PUSH1 0x1 SLOAD DUP2 MSTORE PUSH1 0x20 ADD DUP8 DUP8 DUP6 DUP2 DUP2 LT PUSH2 0x30F9 JUMPI PUSH2 0x30F8 PUSH2 0x458B JUMP JUMPDEST JUMPDEST SWAP1 POP PUSH1 0x20 MUL DUP2 ADD SWAP1 PUSH2 0x310B SWAP2 SWAP1 PUSH2 0x5264 JUMP JUMPDEST DUP1 PUSH1 0x20 ADD SWAP1 PUSH2 0x311A SWAP2 SWAP1 PUSH2 0x4C12 JUMP JUMPDEST DUP1 DUP1 PUSH1 0x1F ADD PUSH1 0x20 DUP1 SWAP2 DIV MUL PUSH1 0x20 ADD PUSH1 0x40 MLOAD SWAP1 DUP2 ADD PUSH1 0x40 MSTORE DUP1 SWAP4 SWAP3 SWAP2 SWAP1 DUP2 DUP2 MSTORE PUSH1 0x20 ADD DUP4 DUP4 DUP1 DUP3 DUP5 CALLDATACOPY PUSH1 0x0 DUP2 DUP5 ADD MSTORE PUSH1 0x1F NOT PUSH1 0x1F DUP3 ADD AND SWAP1 POP DUP1 DUP4 ADD SWAP3 POP POP POP POP POP POP POP DUP2 MSTORE PUSH1 0x20 ADD DUP8 DUP8 DUP6 DUP2 DUP2 LT PUSH2 0x3175 JUMPI PUSH2 0x3174 PUSH2 0x458B JUMP JUMPDEST JUMPDEST SWAP1 POP PUSH1 0x20 MUL DUP2 ADD SWAP1 PUSH2 0x3187 SWAP2 SWAP1 PUSH2 0x5264 JUMP JUMPDEST DUP1 PUSH1 0x40 ADD SWAP1 PUSH2 0x3196 SWAP2 SWAP1 PUSH2 0x4C12 JUMP JUMPDEST DUP1 DUP1 PUSH1 0x1F ADD PUSH1 0x20 DUP1 SWAP2 DIV MUL PUSH1 0x20 ADD PUSH1 0x40 MLOAD SWAP1 DUP2 ADD PUSH1 0x40 MSTORE DUP1 SWAP4 SWAP3 SWAP2 SWAP1 DUP2 DUP2 MSTORE PUSH1 0x20 ADD DUP4 DUP4 DUP1 DUP3 DUP5 CALLDATACOPY PUSH1 0x0 DUP2 DUP5 ADD MSTORE PUSH1 0x1F NOT PUSH1 0x1F DUP3 ADD AND SWAP1 POP DUP1 DUP4 ADD SWAP3 POP POP POP POP POP POP POP DUP2 MSTORE PUSH1 0x20 ADD DUP8 DUP8 DUP6 DUP2 DUP2 LT PUSH2 0x31F1 JUMPI PUSH2 0x31F0 PUSH2 0x458B JUMP JUMPDEST JUMPDEST SWAP1 POP PUSH1 0x20 MUL DUP2 ADD SWAP1 PUSH2 0x3203 SWAP2 SWAP1 PUSH2 0x5264 JUMP JUMPDEST DUP1 PUSH1 0x60 ADD SWAP1 PUSH2 0x3212 SWAP2 SWAP1 PUSH2 0x4C12 JUMP JUMPDEST DUP1 DUP1 PUSH1 0x1F ADD PUSH1 0x20 DUP1 SWAP2 DIV MUL PUSH1 0x20 ADD PUSH1 0x40 MLOAD SWAP1 DUP2 ADD PUSH1 0x40 MSTORE DUP1 SWAP4 SWAP3 SWAP2 SWAP1 DUP2 DUP2 MSTORE PUSH1 0x20 ADD DUP4 DUP4 DUP1 DUP3 DUP5 CALLDATACOPY PUSH1 0x0 DUP2 DUP5 ADD MSTORE PUSH1 0x1F NOT PUSH1 0x1F DUP3 ADD AND SWAP1 POP DUP1 DUP4 ADD SWAP3 POP POP POP POP POP POP POP DUP2 MSTORE PUSH1 0x20 ADD DUP8 DUP8 DUP6 DUP2 DUP2 LT PUSH2 0x326D JUMPI PUSH2 0x326C PUSH2 0x458B JUMP JUMPDEST JUMPDEST SWAP1 POP PUSH1 0x20 MUL DUP2 ADD SWAP1 PUSH2 0x327F SWAP2 SWAP1 PUSH2 0x5264 JUMP JUMPDEST DUP1 PUSH1 0x80 ADD SWAP1 PUSH2 0x328E SWAP2 SWAP1 PUSH2 0x4C12 JUMP JUMPDEST DUP1 DUP1 PUSH1 0x1F ADD PUSH1 0x20 DUP1 SWAP2 DIV MUL PUSH1 0x20 ADD PUSH1 0x40 MLOAD SWAP1 DUP2 ADD PUSH1 0x40 MSTORE DUP1 SWAP4 SWAP3 SWAP2 SWAP1 DUP2 DUP2 MSTORE PUSH1 0x20 ADD DUP4 DUP4 DUP1 DUP3 DUP5 CALLDATACOPY PUSH1 0x0 DUP2 DUP5 ADD MSTORE PUSH1 0x1F NOT PUSH1 0x1F DUP3 ADD AND SWAP1 POP DUP1 DUP4 ADD SWAP3 POP POP POP POP POP POP POP DUP2 MSTORE PUSH1 0x20 ADD TIMESTAMP DUP2 MSTORE POP SWAP1 DUP1 PUSH1 0x1 DUP2 SLOAD ADD DUP1 DUP3 SSTORE DUP1 SWAP2 POP POP PUSH1 0x1 SWAP1 SUB SWAP1 PUSH1 0x0 MSTORE PUSH1 0x20 PUSH1 0x0 KECCAK256 SWAP1 PUSH1 0x6 MUL ADD PUSH1 0x0 SWAP1 SWAP2 SWAP1 SWAP2 SWAP1 SWAP2 POP PUSH1 0x0 DUP3 ADD MLOAD DUP2 PUSH1 0x0 ADD SSTORE PUSH1 0x20 DUP3 ADD MLOAD DUP2 PUSH1 0x1 ADD SWAP1 DUP2 PUSH2 0x3322 SWAP2 SWAP1 PUSH2 0x4C75 JUMP JUMPDEST POP PUSH1 0x40 DUP3 ADD MLOAD DUP2 PUSH1 0x2 ADD SWAP1 DUP2 PUSH2 0x3338 SWAP2 SWAP1 PUSH2 0x4C75 JUMP JUMPDEST POP PUSH1 0x60 DUP3 ADD MLOAD DUP2 PUSH1 0x3 ADD SWAP1 DUP2 PUSH2 0x334E SWAP2 SWAP1 PUSH2 0x4C75 JUMP JUMPDEST POP PUSH1 0x80 DUP3 ADD MLOAD DUP2 PUSH1 0x4 ADD SWAP1 DUP2 PUSH2 0x3364 SWAP2 SWAP1 PUSH2 0x4C75 JUMP JUMPDEST POP PUSH1 0xA0 DUP3 ADD MLOAD DUP2 PUSH1 0x5 ADD SSTORE POP POP PUSH1 0x1 PUSH1 0x2 DUP1 SLOAD SWAP1 POP PUSH2 0x3383 SWAP2 SWAP1 PUSH2 0x4666 JUMP JUMPDEST PUSH1 0x3 PUSH1 0x0 PUSH1 0x1 SLOAD DUP2 MSTORE PUSH1 0x20 ADD SWAP1 DUP2 MSTORE PUSH1 0x20 ADD PUSH1 0x0 KECCAK256 DUP2 SWAP1 SSTORE POP PUSH1 0x1 PUSH1 0x0 DUP2 SLOAD DUP1 SWAP3 SWAP2 SWAP1 PUSH2 0x33AF SWAP1 PUSH2 0x4D47 JUMP JUMPDEST SWAP2 SWAP1 POP SSTORE POP PUSH2 0x3686 JUMP JUMPDEST PUSH1 0x0 PUSH1 0x3 PUSH1 0x0 DUP8 DUP8 DUP6 DUP2 DUP2 LT PUSH2 0x33D2 JUMPI PUSH2 0x33D1 PUSH2 0x458B JUMP JUMPDEST JUMPDEST SWAP1 POP PUSH1 0x20 MUL DUP2 ADD SWAP1 PUSH2 0x33E4 SWAP2 SWAP1 PUSH2 0x5264 JUMP JUMPDEST PUSH1 0x0 ADD CALLDATALOAD DUP2 MSTORE PUSH1 0x20 ADD SWAP1 DUP2 MSTORE PUSH1 0x20 ADD PUSH1 0x0 KECCAK256 SLOAD SWAP1 POP PUSH1 0x2 DUP1 SLOAD SWAP1 POP DUP2 LT PUSH2 0x3440 JUMPI PUSH1 0x40 MLOAD PUSH32 0x8C379A000000000000000000000000000000000000000000000000000000000 DUP2 MSTORE PUSH1 0x4 ADD PUSH2 0x3437 SWAP1 PUSH2 0x4EB6 JUMP JUMPDEST PUSH1 0x40 MLOAD DUP1 SWAP2 SUB SWAP1 REVERT JUMPDEST PUSH1 0x0 PUSH1 0x2 DUP3 DUP2 SLOAD DUP2 LT PUSH2 0x3456 JUMPI PUSH2 0x3455 PUSH2 0x458B JUMP JUMPDEST JUMPDEST SWAP1 PUSH1 0x0 MSTORE PUSH1 0x20 PUSH1 0x0 KECCAK256 SWAP1 PUSH1 0x6 MUL ADD SWAP1 POP PUSH1 0x0 DUP8 DUP8 DUP6 DUP2 DUP2 LT PUSH2 0x347B JUMPI PUSH2 0x347A PUSH2 0x458B JUMP JUMPDEST JUMPDEST SWAP1 POP PUSH1 0x20 MUL DUP2 ADD SWAP1 PUSH2 0x348D SWAP2 SWAP1 PUSH2 0x5264 JUMP JUMPDEST DUP1 PUSH1 0x20 ADD SWAP1 PUSH2 0x349C SWAP2 SWAP1 PUSH2 0x4C12 JUMP JUMPDEST SWAP1 POP GT ISZERO PUSH2 0x34EB JUMPI DUP7 DUP7 DUP5 DUP2 DUP2 LT PUSH2 0x34B7 JUMPI PUSH2 0x34B6 PUSH2 0x458B JUMP JUMPDEST JUMPDEST SWAP1 POP PUSH1 0x20 MUL DUP2 ADD SWAP1 PUSH2 0x34C9 SWAP2 SWAP1 PUSH2 0x5264 JUMP JUMPDEST DUP1 PUSH1 0x20 ADD SWAP1 PUSH2 0x34D8 SWAP2 SWAP1 PUSH2 0x4C12 JUMP JUMPDEST DUP3 PUSH1 0x1 ADD SWAP2 DUP3 PUSH2 0x34E9 SWAP3 SWAP2 SWAP1 PUSH2 0x4D9A JUMP JUMPDEST POP JUMPDEST PUSH1 0x0 DUP8 DUP8 DUP6 DUP2 DUP2 LT PUSH2 0x3500 JUMPI PUSH2 0x34FF PUSH2 0x458B JUMP JUMPDEST JUMPDEST SWAP1 POP PUSH1 0x20 MUL DUP2 ADD SWAP1 PUSH2 0x3512 SWAP2 SWAP1 PUSH2 0x5264 JUMP JUMPDEST DUP1 PUSH1 0x40 ADD SWAP1 PUSH2 0x3521 SWAP2 SWAP1 PUSH2 0x4C12 JUMP JUMPDEST SWAP1 POP GT ISZERO PUSH2 0x3570 JUMPI DUP7 DUP7 DUP5 DUP2 DUP2 LT PUSH2 0x353C JUMPI PUSH2 0x353B PUSH2 0x458B JUMP JUMPDEST JUMPDEST SWAP1 POP PUSH1 0x20 MUL DUP2 ADD SWAP1 PUSH2 0x354E SWAP2 SWAP1 PUSH2 0x5264 JUMP JUMPDEST DUP1 PUSH1 0x40 ADD SWAP1 PUSH2 0x355D SWAP2 SWAP1 PUSH2 0x4C12 JUMP JUMPDEST DUP3 PUSH1 0x2 ADD SWAP2 DUP3 PUSH2 0x356E SWAP3 SWAP2 SWAP1 PUSH2 0x4D9A JUMP JUMPDEST POP JUMPDEST PUSH1 0x0 DUP8 DUP8 DUP6 DUP2 DUP2 LT PUSH2 0x3585 JUMPI PUSH2 0x3584 PUSH2 0x458B JUMP JUMPDEST JUMPDEST SWAP1 POP PUSH1 0x20 MUL DUP2 ADD SWAP1 PUSH2 0x3597 SWAP2 SWAP1 PUSH2 0x5264 JUMP JUMPDEST DUP1 PUSH1 0x60 ADD SWAP1 PUSH2 0x35A6 SWAP2 SWAP1 PUSH2 0x4C12 JUMP JUMPDEST SWAP1 POP GT ISZERO PUSH2 0x35F5 JUMPI DUP7 DUP7 DUP5 DUP2 DUP2 LT PUSH2 0x35C1 JUMPI PUSH2 0x35C0 PUSH2 0x458B JUMP JUMPDEST JUMPDEST SWAP1 POP PUSH1 0x20 MUL DUP2 ADD SWAP1 PUSH2 0x35D3 SWAP2 SWAP1 PUSH2 0x5264 JUMP JUMPDEST DUP1 PUSH1 0x60 ADD SWAP1 PUSH2 0x35E2 SWAP2 SWAP1 PUSH2 0x4C12 JUMP JUMPDEST DUP3 PUSH1 0x3 ADD SWAP2 DUP3 PUSH2 0x35F3 SWAP3 SWAP2 SWAP1 PUSH2 0x4D9A JUMP JUMPDEST POP JUMPDEST PUSH1 0x0 DUP8 DUP8 DUP6 DUP2 DUP2 LT PUSH2 0x360A JUMPI PUSH2 0x3609 PUSH2 0x458B JUMP JUMPDEST JUMPDEST SWAP1 POP PUSH1 0x20 MUL DUP2 ADD SWAP1 PUSH2 0x361C SWAP2 SWAP1 PUSH2 0x5264 JUMP JUMPDEST DUP1 PUSH1 0x80 ADD SWAP1 PUSH2 0x362B SWAP2 SWAP1 PUSH2 0x4C12 JUMP JUMPDEST SWAP1 POP GT ISZERO PUSH2 0x367A JUMPI DUP7 DUP7 DUP5 DUP2 DUP2 LT PUSH2 0x3646 JUMPI PUSH2 0x3645 PUSH2 0x458B JUMP JUMPDEST JUMPDEST SWAP1 POP PUSH1 0x20 MUL DUP2 ADD SWAP1 PUSH2 0x3658 SWAP2 SWAP1 PUSH2 0x5264 JUMP JUMPDEST DUP1 PUSH1 0x80 ADD SWAP1 PUSH2 0x3667 SWAP2 SWAP1 PUSH2 0x4C12 JUMP JUMPDEST DUP3 PUSH1 0x4 ADD SWAP2 DUP3 PUSH2 0x3678 SWAP3 SWAP2 SWAP1 PUSH2 0x4D9A JUMP JUMPDEST POP JUMPDEST TIMESTAMP DUP2 PUSH1 0x5 ADD DUP2 SWAP1 SSTORE POP POP POP JUMPDEST DUP1 DUP1 PUSH1 0x1 ADD SWAP2 POP POP PUSH2 0x3096 JUMP JUMPDEST POP POP POP POP POP JUMP JUMPDEST PUSH2 0x36A2 PUSH2 0x3720 JUMP JUMPDEST PUSH1 0x0 PUSH20 0xFFFFFFFFFFFFFFFFFFFFFFFFFFFFFFFFFFFFFFFF AND DUP2 PUSH20 0xFFFFFFFFFFFFFFFFFFFFFFFFFFFFFFFFFFFFFFFF AND SUB PUSH2 0x3714 JUMPI PUSH1 0x0 PUSH1 0x40 MLOAD PUSH32 0x1E4FBDF700000000000000000000000000000000000000000000000000000000 DUP2 MSTORE PUSH1 0x4 ADD PUSH2 0x370B SWAP2 SWAP1 PUSH2 0x4065 JUMP JUMPDEST PUSH1 0x40 MLOAD DUP1 SWAP2 SUB SWAP1 REVERT JUMPDEST PUSH2 0x371D DUP2 PUSH2 0x37CF JUMP JUMPDEST POP JUMP JUMPDEST PUSH2 0x3728 PUSH2 0x38CE JUMP JUMPDEST PUSH20 0xFFFFFFFFFFFFFFFFFFFFFFFFFFFFFFFFFFFFFFFF AND PUSH2 0x3746 PUSH2 0x22F0 JUMP JUMPDEST PUSH20 0xFFFFFFFFFFFFFFFFFFFFFFFFFFFFFFFFFFFFFFFF AND EQ PUSH2 0x37A5 JUMPI PUSH2 0x3769 PUSH2 0x38CE JUMP JUMPDEST PUSH1 0x40 MLOAD PUSH32 0x118CDAA700000000000000000000000000000000000000000000000000000000 DUP2 MSTORE PUSH1 0x4 ADD PUSH2 0x379C SWAP2 SWAP1 PUSH2 0x4065 JUMP JUMPDEST PUSH1 0x40 MLOAD DUP1 SWAP2 SUB SWAP1 REVERT JUMPDEST JUMP JUMPDEST PUSH1 0x0 DUP1 PUSH2 0x37B2 PUSH2 0x38D6 JUMP JUMPDEST SWAP1 POP DUP1 SWAP2 POP POP SWAP1 JUMP JUMPDEST PUSH2 0x37C3 PUSH2 0x3901 JUMP JUMPDEST PUSH2 0x37CC DUP2 PUSH2 0x3941 JUMP JUMPDEST POP JUMP JUMPDEST PUSH1 0x0 PUSH2 0x37D9 PUSH2 0x38A6 JUMP JUMPDEST SWAP1 POP PUSH1 0x0 DUP2 PUSH1 0x0 ADD PUSH1 0x0 SWAP1 SLOAD SWAP1 PUSH2 0x100 EXP SWAP1 DIV PUSH20 0xFFFFFFFFFFFFFFFFFFFFFFFFFFFFFFFFFFFFFFFF AND SWAP1 POP DUP3 DUP3 PUSH1 0x0 ADD PUSH1 0x0 PUSH2 0x100 EXP DUP2 SLOAD DUP2 PUSH20 0xFFFFFFFFFFFFFFFFFFFFFFFFFFFFFFFFFFFFFFFF MUL NOT AND SWAP1 DUP4 PUSH20 0xFFFFFFFFFFFFFFFFFFFFFFFFFFFFFFFFFFFFFFFF AND MUL OR SWAP1 SSTORE POP DUP3 PUSH20 0xFFFFFFFFFFFFFFFFFFFFFFFFFFFFFFFFFFFFFFFF AND DUP2 PUSH20 0xFFFFFFFFFFFFFFFFFFFFFFFFFFFFFFFFFFFFFFFF AND PUSH32 0x8BE0079C531659141344CD1FD0A4F28419497F9722A3DAAFE3B4186F6B6457E0 PUSH1 0x40 MLOAD PUSH1 0x40 MLOAD DUP1 SWAP2 SUB SWAP1 LOG3 POP POP POP JUMP JUMPDEST PUSH1 0x0 PUSH32 0x9016D09D72D40FDAE2FD8CEAC6B6234C7706214FD39C1CD1E609A0528C199300 SWAP1 POP SWAP1 JUMP JUMPDEST PUSH1 0x0 CALLER SWAP1 POP SWAP1 JUMP JUMPDEST PUSH1 0x0 PUSH32 0xF0C57E16840DF040F15088DC2F81FE391C3923BEC73E23A9662EFC9C229C6A00 PUSH1 0x0 SHL SWAP1 POP SWAP1 JUMP JUMPDEST PUSH2 0x3909 PUSH2 0x39C7 JUMP JUMPDEST PUSH2 0x393F JUMPI PUSH1 0x40 MLOAD PUSH32 0xD7E6BCF800000000000000000000000000000000000000000000000000000000 DUP2 MSTORE PUSH1 0x4 ADD PUSH1 0x40 MLOAD DUP1 SWAP2 SUB SWAP1 REVERT JUMPDEST JUMP JUMPDEST PUSH2 0x3949 PUSH2 0x3901 JUMP JUMPDEST PUSH1 0x0 PUSH20 0xFFFFFFFFFFFFFFFFFFFFFFFFFFFFFFFFFFFFFFFF AND DUP2 PUSH20 0xFFFFFFFFFFFFFFFFFFFFFFFFFFFFFFFFFFFFFFFF AND SUB PUSH2 0x39BB JUMPI PUSH1 0x0 PUSH1 0x40 MLOAD PUSH32 0x1E4FBDF700000000000000000000000000000000000000000000000000000000 DUP2 MSTORE PUSH1 0x4 ADD PUSH2 0x39B2 SWAP2 SWAP1 PUSH2 0x4065 JUMP JUMPDEST PUSH1 0x40 MLOAD DUP1 SWAP2 SUB SWAP1 REVERT JUMPDEST PUSH2 0x39C4 DUP2 PUSH2 0x37CF JUMP JUMPDEST POP JUMP JUMPDEST PUSH1 0x0 PUSH2 0x39D1 PUSH2 0x37A7 JUMP JUMPDEST PUSH1 0x0 ADD PUSH1 0x8 SWAP1 SLOAD SWAP1 PUSH2 0x100 EXP SWAP1 DIV PUSH1 0xFF AND SWAP1 POP SWAP1 JUMP JUMPDEST POP DUP1 SLOAD PUSH2 0x39F3 SWAP1 PUSH2 0x46C9 JUMP JUMPDEST PUSH1 0x0 DUP3 SSTORE DUP1 PUSH1 0x1F LT PUSH2 0x3A05 JUMPI POP PUSH2 0x3A24 JUMP JUMPDEST PUSH1 0x1F ADD PUSH1 0x20 SWAP1 DIV SWAP1 PUSH1 0x0 MSTORE PUSH1 0x20 PUSH1 0x0 KECCAK256 SWAP1 DUP2 ADD SWAP1 PUSH2 0x3A23 SWAP2 SWAP1 PUSH2 0x3A27 JUMP JUMPDEST JUMPDEST POP JUMP JUMPDEST JUMPDEST DUP1 DUP3 GT ISZERO PUSH2 0x3A40 JUMPI PUSH1 0x0 DUP2 PUSH1 0x0 SWAP1 SSTORE POP PUSH1 0x1 ADD PUSH2 0x3A28 JUMP JUMPDEST POP SWAP1 JUMP JUMPDEST PUSH1 0x0 DUP1 REVERT JUMPDEST PUSH1 0x0 DUP1 REVERT JUMPDEST PUSH1 0x0 DUP1 REVERT JUMPDEST PUSH1 0x0 DUP1 REVERT JUMPDEST PUSH1 0x0 DUP1 REVERT JUMPDEST PUSH1 0x0 DUP1 DUP4 PUSH1 0x1F DUP5 ADD SLT PUSH2 0x3A73 JUMPI PUSH2 0x3A72 PUSH2 0x3A4E JUMP JUMPDEST JUMPDEST DUP3 CALLDATALOAD SWAP1 POP PUSH8 0xFFFFFFFFFFFFFFFF DUP2 GT ISZERO PUSH2 0x3A90 JUMPI PUSH2 0x3A8F PUSH2 0x3A53 JUMP JUMPDEST JUMPDEST PUSH1 0x20 DUP4 ADD SWAP2 POP DUP4 PUSH1 0x20 DUP3 MUL DUP4 ADD GT ISZERO PUSH2 0x3AAC JUMPI PUSH2 0x3AAB PUSH2 0x3A58 JUMP JUMPDEST JUMPDEST SWAP3 POP SWAP3 SWAP1 POP JUMP JUMPDEST PUSH1 0x0 DUP1 PUSH1 0x20 DUP4 DUP6 SUB SLT ISZERO PUSH2 0x3ACA JUMPI PUSH2 0x3AC9 PUSH2 0x3A44 JUMP JUMPDEST JUMPDEST PUSH1 0x0 DUP4 ADD CALLDATALOAD PUSH8 0xFFFFFFFFFFFFFFFF DUP2 GT ISZERO PUSH2 0x3AE8 JUMPI PUSH2 0x3AE7 PUSH2 0x3A49 JUMP JUMPDEST JUMPDEST PUSH2 0x3AF4 DUP6 DUP3 DUP7 ADD PUSH2 0x3A5D JUMP JUMPDEST SWAP3 POP SWAP3 POP POP SWAP3 POP SWAP3 SWAP1 POP JUMP JUMPDEST PUSH1 0x0 DUP1 DUP4 PUSH1 0x1F DUP5 ADD SLT PUSH2 0x3B16 JUMPI PUSH2 0x3B15 PUSH2 0x3A4E JUMP JUMPDEST JUMPDEST DUP3 CALLDATALOAD SWAP1 POP PUSH8 0xFFFFFFFFFFFFFFFF DUP2 GT ISZERO PUSH2 0x3B33 JUMPI PUSH2 0x3B32 PUSH2 0x3A53 JUMP JUMPDEST JUMPDEST PUSH1 0x20 DUP4 ADD SWAP2 POP DUP4 PUSH1 0x20 DUP3 MUL DUP4 ADD GT ISZERO PUSH2 0x3B4F JUMPI PUSH2 0x3B4E PUSH2 0x3A58 JUMP JUMPDEST JUMPDEST SWAP3 POP SWAP3 SWAP1 POP JUMP JUMPDEST PUSH1 0x0 DUP1 PUSH1 0x20 DUP4 DUP6 SUB SLT ISZERO PUSH2 0x3B6D JUMPI PUSH2 0x3B6C PUSH2 0x3A44 JUMP JUMPDEST JUMPDEST PUSH1 0x0 DUP4 ADD CALLDATALOAD PUSH8 0xFFFFFFFFFFFFFFFF DUP2 GT ISZERO PUSH2 0x3B8B JUMPI PUSH2 0x3B8A PUSH2 0x3A49 JUMP JUMPDEST JUMPDEST PUSH2 0x3B97 DUP6 DUP3 DUP7 ADD PUSH2 0x3B00 JUMP JUMPDEST SWAP3 POP SWAP3 POP POP SWAP3 POP SWAP3 SWAP1 POP JUMP JUMPDEST PUSH1 0x0 PUSH20 0xFFFFFFFFFFFFFFFFFFFFFFFFFFFFFFFFFFFFFFFF DUP3 AND SWAP1 POP SWAP2 SWAP1 POP JUMP JUMPDEST PUSH1 0x0 PUSH2 0x3BCE DUP3 PUSH2 0x3BA3 JUMP JUMPDEST SWAP1 POP SWAP2 SWAP1 POP JUMP JUMPDEST PUSH2 0x3BDE DUP2 PUSH2 0x3BC3 JUMP JUMPDEST DUP2 EQ PUSH2 0x3BE9 JUMPI PUSH1 0x0 DUP1 REVERT JUMPDEST POP JUMP JUMPDEST PUSH1 0x0 DUP2 CALLDATALOAD SWAP1 POP PUSH2 0x3BFB DUP2 PUSH2 0x3BD5 JUMP JUMPDEST SWAP3 SWAP2 POP POP JUMP JUMPDEST PUSH1 0x0 DUP1 PUSH1 0x40 DUP4 DUP6 SUB SLT ISZERO PUSH2 0x3C18 JUMPI PUSH2 0x3C17 PUSH2 0x3A44 JUMP JUMPDEST JUMPDEST PUSH1 0x0 PUSH2 0x3C26 DUP6 DUP3 DUP7 ADD PUSH2 0x3BEC JUMP JUMPDEST SWAP3 POP POP PUSH1 0x20 PUSH2 0x3C37 DUP6 DUP3 DUP7 ADD PUSH2 0x3BEC JUMP JUMPDEST SWAP2 POP POP SWAP3 POP SWAP3 SWAP1 POP JUMP JUMPDEST PUSH1 0x0 DUP2 MLOAD SWAP1 POP SWAP2 SWAP1 POP JUMP JUMPDEST PUSH1 0x0 DUP3 DUP3 MSTORE PUSH1 0x20 DUP3 ADD SWAP1 POP SWAP3 SWAP2 POP POP JUMP JUMPDEST PUSH1 0x0 DUP2 SWAP1 POP PUSH1 0x20 DUP3 ADD SWAP1 POP SWAP2 SWAP1 POP JUMP JUMPDEST PUSH1 0x0 DUP2 SWAP1 POP SWAP2 SWAP1 POP JUMP JUMPDEST PUSH2 0x3C80 DUP2 PUSH2 0x3C6D JUMP JUMPDEST DUP3 MSTORE POP POP JUMP JUMPDEST PUSH1 0x0 DUP2 MLOAD SWAP1 POP SWAP2 SWAP1 POP JUMP JUMPDEST PUSH1 0x0 DUP3 DUP3 MSTORE PUSH1 0x20 DUP3 ADD SWAP1 POP SWAP3 SWAP2 POP POP JUMP JUMPDEST PUSH1 0x0 JUMPDEST DUP4 DUP2 LT ISZERO PUSH2 0x3CC0 JUMPI DUP1 DUP3 ADD MLOAD DUP2 DUP5 ADD MSTORE PUSH1 0x20 DUP2 ADD SWAP1 POP PUSH2 0x3CA5 JUMP JUMPDEST PUSH1 0x0 DUP5 DUP5 ADD MSTORE POP POP POP POP JUMP JUMPDEST PUSH1 0x0 PUSH1 0x1F NOT PUSH1 0x1F DUP4 ADD AND SWAP1 POP SWAP2 SWAP1 POP JUMP JUMPDEST PUSH1 0x0 PUSH2 0x3CE8 DUP3 PUSH2 0x3C86 JUMP JUMPDEST PUSH2 0x3CF2 DUP2 DUP6 PUSH2 0x3C91 JUMP JUMPDEST SWAP4 POP PUSH2 0x3D02 DUP2 DUP6 PUSH1 0x20 DUP7 ADD PUSH2 0x3CA2 JUMP JUMPDEST PUSH2 0x3D0B DUP2 PUSH2 0x3CCC JUMP JUMPDEST DUP5 ADD SWAP2 POP POP SWAP3 SWAP2 POP POP JUMP JUMPDEST PUSH1 0x0 PUSH1 0xC0 DUP4 ADD PUSH1 0x0 DUP4 ADD MLOAD PUSH2 0x3D2E PUSH1 0x0 DUP7 ADD DUP3 PUSH2 0x3C77 JUMP JUMPDEST POP PUSH1 0x20 DUP4 ADD MLOAD DUP5 DUP3 SUB PUSH1 0x20 DUP7 ADD MSTORE PUSH2 0x3D46 DUP3 DUP3 PUSH2 0x3CDD JUMP JUMPDEST SWAP2 POP POP PUSH1 0x40 DUP4 ADD MLOAD DUP5 DUP3 SUB PUSH1 0x40 DUP7 ADD MSTORE PUSH2 0x3D60 DUP3 DUP3 PUSH2 0x3CDD JUMP JUMPDEST SWAP2 POP POP PUSH1 0x60 DUP4 ADD MLOAD DUP5 DUP3 SUB PUSH1 0x60 DUP7 ADD MSTORE PUSH2 0x3D7A DUP3 DUP3 PUSH2 0x3CDD JUMP JUMPDEST SWAP2 POP POP PUSH1 0x80 DUP4 ADD MLOAD PUSH2 0x3D8F PUSH1 0x80 DUP7 ADD DUP3 PUSH2 0x3C77 JUMP JUMPDEST POP PUSH1 0xA0 DUP4 ADD MLOAD PUSH2 0x3DA2 PUSH1 0xA0 DUP7 ADD DUP3 PUSH2 0x3C77 JUMP JUMPDEST POP DUP1 SWAP2 POP POP SWAP3 SWAP2 POP POP JUMP JUMPDEST PUSH1 0x0 PUSH2 0x3DB9 DUP4 DUP4 PUSH2 0x3D16 JUMP JUMPDEST SWAP1 POP SWAP3 SWAP2 POP POP JUMP JUMPDEST PUSH1 0x0 PUSH1 0x20 DUP3 ADD SWAP1 POP SWAP2 SWAP1 POP JUMP JUMPDEST PUSH1 0x0 PUSH2 0x3DD9 DUP3 PUSH2 0x3C41 JUMP JUMPDEST PUSH2 0x3DE3 DUP2 DUP6 PUSH2 0x3C4C JUMP JUMPDEST SWAP4 POP DUP4 PUSH1 0x20 DUP3 MUL DUP6 ADD PUSH2 0x3DF5 DUP6 PUSH2 0x3C5D JUMP JUMPDEST DUP1 PUSH1 0x0 JUMPDEST DUP6 DUP2 LT ISZERO PUSH2 0x3E31 JUMPI DUP5 DUP5 SUB DUP10 MSTORE DUP2 MLOAD PUSH2 0x3E12 DUP6 DUP3 PUSH2 0x3DAD JUMP JUMPDEST SWAP5 POP PUSH2 0x3E1D DUP4 PUSH2 0x3DC1 JUMP JUMPDEST SWAP3 POP PUSH1 0x20 DUP11 ADD SWAP10 POP POP PUSH1 0x1 DUP2 ADD SWAP1 POP PUSH2 0x3DF9 JUMP JUMPDEST POP DUP3 SWAP8 POP DUP8 SWAP6 POP POP POP POP POP POP SWAP3 SWAP2 POP POP JUMP JUMPDEST PUSH1 0x0 PUSH1 0x20 DUP3 ADD SWAP1 POP DUP2 DUP2 SUB PUSH1 0x0 DUP4 ADD MSTORE PUSH2 0x3E5D DUP2 DUP5 PUSH2 0x3DCE JUMP JUMPDEST SWAP1 POP SWAP3 SWAP2 POP POP JUMP JUMPDEST PUSH1 0x0 DUP1 DUP4 PUSH1 0x1F DUP5 ADD SLT PUSH2 0x3E7B JUMPI PUSH2 0x3E7A PUSH2 0x3A4E JUMP JUMPDEST JUMPDEST DUP3 CALLDATALOAD SWAP1 POP PUSH8 0xFFFFFFFFFFFFFFFF DUP2 GT ISZERO PUSH2 0x3E98 JUMPI PUSH2 0x3E97 PUSH2 0x3A53 JUMP JUMPDEST JUMPDEST PUSH1 0x20 DUP4 ADD SWAP2 POP DUP4 PUSH1 0x20 DUP3 MUL DUP4 ADD GT ISZERO PUSH2 0x3EB4 JUMPI PUSH2 0x3EB3 PUSH2 0x3A58 JUMP JUMPDEST JUMPDEST SWAP3 POP SWAP3 SWAP1 POP JUMP JUMPDEST PUSH1 0x0 DUP1 PUSH1 0x20 DUP4 DUP6 SUB SLT ISZERO PUSH2 0x3ED2 JUMPI PUSH2 0x3ED1 PUSH2 0x3A44 JUMP JUMPDEST JUMPDEST PUSH1 0x0 DUP4 ADD CALLDATALOAD PUSH8 0xFFFFFFFFFFFFFFFF DUP2 GT ISZERO PUSH2 0x3EF0 JUMPI PUSH2 0x3EEF PUSH2 0x3A49 JUMP JUMPDEST JUMPDEST PUSH2 0x3EFC DUP6 DUP3 DUP7 ADD PUSH2 0x3E65 JUMP JUMPDEST SWAP3 POP SWAP3 POP POP SWAP3 POP SWAP3 SWAP1 POP JUMP JUMPDEST PUSH1 0x0 DUP2 MLOAD SWAP1 POP SWAP2 SWAP1 POP JUMP JUMPDEST PUSH1 0x0 DUP3 DUP3 MSTORE PUSH1 0x20 DUP3 ADD SWAP1 POP SWAP3 SWAP2 POP POP JUMP JUMPDEST PUSH1 0x0 DUP2 SWAP1 POP PUSH1 0x20 DUP3 ADD SWAP1 POP SWAP2 SWAP1 POP JUMP JUMPDEST PUSH1 0x0 PUSH1 0x80 DUP4 ADD PUSH1 0x0 DUP4 ADD MLOAD PUSH2 0x3F4C PUSH1 0x0 DUP7 ADD DUP3 PUSH2 0x3C77 JUMP JUMPDEST POP PUSH1 0x20 DUP4 ADD MLOAD DUP5 DUP3 SUB PUSH1 0x20 DUP7 ADD MSTORE PUSH2 0x3F64 DUP3 DUP3 PUSH2 0x3CDD JUMP JUMPDEST SWAP2 POP POP PUSH1 0x40 DUP4 ADD MLOAD DUP5 DUP3 SUB PUSH1 0x40 DUP7 ADD MSTORE PUSH2 0x3F7E DUP3 DUP3 PUSH2 0x3CDD JUMP JUMPDEST SWAP2 POP POP PUSH1 0x60 DUP4 ADD MLOAD PUSH2 0x3F93 PUSH1 0x60 DUP7 ADD DUP3 PUSH2 0x3C77 JUMP JUMPDEST POP DUP1 SWAP2 POP POP SWAP3 SWAP2 POP POP JUMP JUMPDEST PUSH1 0x0 PUSH2 0x3FAA DUP4 DUP4 PUSH2 0x3F34 JUMP JUMPDEST SWAP1 POP SWAP3 SWAP2 POP POP JUMP JUMPDEST PUSH1 0x0 PUSH1 0x20 DUP3 ADD SWAP1 POP SWAP2 SWAP1 POP JUMP JUMPDEST PUSH1 0x0 PUSH2 0x3FCA DUP3 PUSH2 0x3F08 JUMP JUMPDEST PUSH2 0x3FD4 DUP2 DUP6 PUSH2 0x3F13 JUMP JUMPDEST SWAP4 POP DUP4 PUSH1 0x20 DUP3 MUL DUP6 ADD PUSH2 0x3FE6 DUP6 PUSH2 0x3F24 JUMP JUMPDEST DUP1 PUSH1 0x0 JUMPDEST DUP6 DUP2 LT ISZERO PUSH2 0x4022 JUMPI DUP5 DUP5 SUB DUP10 MSTORE DUP2 MLOAD PUSH2 0x4003 DUP6 DUP3 PUSH2 0x3F9E JUMP JUMPDEST SWAP5 POP PUSH2 0x400E DUP4 PUSH2 0x3FB2 JUMP JUMPDEST SWAP3 POP PUSH1 0x20 DUP11 ADD SWAP10 POP POP PUSH1 0x1 DUP2 ADD SWAP1 POP PUSH2 0x3FEA JUMP JUMPDEST POP DUP3 SWAP8 POP DUP8 SWAP6 POP POP POP POP POP POP SWAP3 SWAP2 POP POP JUMP JUMPDEST PUSH1 0x0 PUSH1 0x20 DUP3 ADD SWAP1 POP DUP2 DUP2 SUB PUSH1 0x0 DUP4 ADD MSTORE PUSH2 0x404E DUP2 DUP5 PUSH2 0x3FBF JUMP JUMPDEST SWAP1 POP SWAP3 SWAP2 POP POP JUMP JUMPDEST PUSH2 0x405F DUP2 PUSH2 0x3BC3 JUMP JUMPDEST DUP3 MSTORE POP POP JUMP JUMPDEST PUSH1 0x0 PUSH1 0x20 DUP3 ADD SWAP1 POP PUSH2 0x407A PUSH1 0x0 DUP4 ADD DUP5 PUSH2 0x4056 JUMP JUMPDEST SWAP3 SWAP2 POP POP JUMP JUMPDEST PUSH1 0x0 DUP1 DUP4 PUSH1 0x1F DUP5 ADD SLT PUSH2 0x4096 JUMPI PUSH2 0x4095 PUSH2 0x3A4E JUMP JUMPDEST JUMPDEST DUP3 CALLDATALOAD SWAP1 POP PUSH8 0xFFFFFFFFFFFFFFFF DUP2 GT ISZERO PUSH2 0x40B3 JUMPI PUSH2 0x40B2 PUSH2 0x3A53 JUMP JUMPDEST JUMPDEST PUSH1 0x20 DUP4 ADD SWAP2 POP DUP4 PUSH1 0x20 DUP3 MUL DUP4 ADD GT ISZERO PUSH2 0x40CF JUMPI PUSH2 0x40CE PUSH2 0x3A58 JUMP JUMPDEST JUMPDEST SWAP3 POP SWAP3 SWAP1 POP JUMP JUMPDEST PUSH1 0x0 DUP1 PUSH1 0x20 DUP4 DUP6 SUB SLT ISZERO PUSH2 0x40ED JUMPI PUSH2 0x40EC PUSH2 0x3A44 JUMP JUMPDEST JUMPDEST PUSH1 0x0 DUP4 ADD CALLDATALOAD PUSH8 0xFFFFFFFFFFFFFFFF DUP2 GT ISZERO PUSH2 0x410B JUMPI PUSH2 0x410A PUSH2 0x3A49 JUMP JUMPDEST JUMPDEST PUSH2 0x4117 DUP6 DUP3 DUP7 ADD PUSH2 0x4080 JUMP JUMPDEST SWAP3 POP SWAP3 POP POP SWAP3 POP SWAP3 SWAP1 POP JUMP JUMPDEST PUSH1 0x0 DUP2 MLOAD SWAP1 POP SWAP2 SWAP1 POP JUMP JUMPDEST PUSH1 0x0 DUP3 DUP3 MSTORE PUSH1 0x20 DUP3 ADD SWAP1 POP SWAP3 SWAP2 POP POP JUMP JUMPDEST PUSH1 0x0 DUP2 SWAP1 POP PUSH1 0x20 DUP3 ADD SWAP1 POP SWAP2 SWAP1 POP JUMP JUMPDEST PUSH1 0x0 PUSH1 0xC0 DUP4 ADD PUSH1 0x0 DUP4 ADD MLOAD PUSH2 0x4167 PUSH1 0x0 DUP7 ADD DUP3 PUSH2 0x3C77 JUMP JUMPDEST POP PUSH1 0x20 DUP4 ADD MLOAD DUP5 DUP3 SUB PUSH1 0x20 DUP7 ADD MSTORE PUSH2 0x417F DUP3 DUP3 PUSH2 0x3CDD JUMP JUMPDEST SWAP2 POP POP PUSH1 0x40 DUP4 ADD MLOAD DUP5 DUP3 SUB PUSH1 0x40 DUP7 ADD MSTORE PUSH2 0x4199 DUP3 DUP3 PUSH2 0x3CDD JUMP JUMPDEST SWAP2 POP POP PUSH1 0x60 DUP4 ADD MLOAD DUP5 DUP3 SUB PUSH1 0x60 DUP7 ADD MSTORE PUSH2 0x41B3 DUP3 DUP3 PUSH2 0x3CDD JUMP JUMPDEST SWAP2 POP POP PUSH1 0x80 DUP4 ADD MLOAD DUP5 DUP3 SUB PUSH1 0x80 DUP7 ADD MSTORE PUSH2 0x41CD DUP3 DUP3 PUSH2 0x3CDD JUMP JUMPDEST SWAP2 POP POP PUSH1 0xA0 DUP4 ADD MLOAD PUSH2 0x41E2 PUSH1 0xA0 DUP7 ADD DUP3 PUSH2 0x3C77 JUMP JUMPDEST POP DUP1 SWAP2 POP POP SWAP3 SWAP2 POP POP JUMP JUMPDEST PUSH1 0x0 PUSH2 0x41F9 DUP4 DUP4 PUSH2 0x414F JUMP JUMPDEST SWAP1 POP SWAP3 SWAP2 POP POP JUMP JUMPDEST PUSH1 0x0 PUSH1 0x20 DUP3 ADD SWAP1 POP SWAP2 SWAP1 POP JUMP JUMPDEST PUSH1 0x0 PUSH2 0x4219 DUP3 PUSH2 0x4123 JUMP JUMPDEST PUSH2 0x4223 DUP2 DUP6 PUSH2 0x412E JUMP JUMPDEST SWAP4 POP DUP4 PUSH1 0x20 DUP3 MUL DUP6 ADD PUSH2 0x4235 DUP6 PUSH2 0x413F JUMP JUMPDEST DUP1 PUSH1 0x0 JUMPDEST DUP6 DUP2 LT ISZERO PUSH2 0x4271 JUMPI DUP5 DUP5 SUB DUP10 MSTORE DUP2 MLOAD PUSH2 0x4252 DUP6 DUP3 PUSH2 0x41ED JUMP JUMPDEST SWAP5 POP PUSH2 0x425D DUP4 PUSH2 0x4201 JUMP JUMPDEST SWAP3 POP PUSH1 0x20 DUP11 ADD SWAP10 POP POP PUSH1 0x1 DUP2 ADD SWAP1 POP PUSH2 0x4239 JUMP JUMPDEST POP DUP3 SWAP8 POP DUP8 SWAP6 POP POP POP POP POP POP SWAP3 SWAP2 POP POP JUMP JUMPDEST PUSH1 0x0 PUSH1 0x20 DUP3 ADD SWAP1 POP DUP2 DUP2 SUB PUSH1 0x0 DUP4 ADD MSTORE PUSH2 0x429D DUP2 DUP5 PUSH2 0x420E JUMP JUMPDEST SWAP1 POP SWAP3 SWAP2 POP POP JUMP JUMPDEST PUSH1 0x0 DUP2 MLOAD SWAP1 POP SWAP2 SWAP1 POP JUMP JUMPDEST PUSH1 0x0 DUP3 DUP3 MSTORE PUSH1 0x20 DUP3 ADD SWAP1 POP SWAP3 SWAP2 POP POP JUMP JUMPDEST PUSH1 0x0 DUP2 SWAP1 POP PUSH1 0x20 DUP3 ADD SWAP1 POP SWAP2 SWAP1 POP JUMP JUMPDEST PUSH1 0x0 PUSH1 0xE0 DUP4 ADD PUSH1 0x0 DUP4 ADD MLOAD PUSH2 0x42E9 PUSH1 0x0 DUP7 ADD DUP3 PUSH2 0x3C77 JUMP JUMPDEST POP PUSH1 0x20 DUP4 ADD MLOAD DUP5 DUP3 SUB PUSH1 0x20 DUP7 ADD MSTORE PUSH2 0x4301 DUP3 DUP3 PUSH2 0x3CDD JUMP JUMPDEST SWAP2 POP POP PUSH1 0x40 DUP4 ADD MLOAD DUP5 DUP3 SUB PUSH1 0x40 DUP7 ADD MSTORE PUSH2 0x431B DUP3 DUP3 PUSH2 0x3CDD JUMP JUMPDEST SWAP2 POP POP PUSH1 0x60 DUP4 ADD MLOAD DUP5 DUP3 SUB PUSH1 0x60 DUP7 ADD MSTORE PUSH2 0x4335 DUP3 DUP3 PUSH2 0x3CDD JUMP JUMPDEST SWAP2 POP POP PUSH1 0x80 DUP4 ADD MLOAD DUP5 DUP3 SUB PUSH1 0x80 DUP7 ADD MSTORE PUSH2 0x434F DUP3 DUP3 PUSH2 0x3CDD JUMP JUMPDEST SWAP2 POP POP PUSH1 0xA0 DUP4 ADD MLOAD DUP5 DUP3 SUB PUSH1 0xA0 DUP7 ADD MSTORE PUSH2 0x4369 DUP3 DUP3 PUSH2 0x3CDD JUMP JUMPDEST SWAP2 POP POP PUSH1 0xC0 DUP4 ADD MLOAD PUSH2 0x437E PUSH1 0xC0 DUP7 ADD DUP3 PUSH2 0x3C77 JUMP JUMPDEST POP DUP1 SWAP2 POP POP SWAP3 SWAP2 POP POP JUMP JUMPDEST PUSH1 0x0 PUSH2 0x4395 DUP4 DUP4 PUSH2 0x42D1 JUMP JUMPDEST SWAP1 POP SWAP3 SWAP2 POP POP JUMP JUMPDEST PUSH1 0x0 PUSH1 0x20 DUP3 ADD SWAP1 POP SWAP2 SWAP1 POP JUMP JUMPDEST PUSH1 0x0 PUSH2 0x43B5 DUP3 PUSH2 0x42A5 JUMP JUMPDEST PUSH2 0x43BF DUP2 DUP6 PUSH2 0x42B0 JUMP JUMPDEST SWAP4 POP DUP4 PUSH1 0x20 DUP3 MUL DUP6 ADD PUSH2 0x43D1 DUP6 PUSH2 0x42C1 JUMP JUMPDEST DUP1 PUSH1 0x0 JUMPDEST DUP6 DUP2 LT ISZERO PUSH2 0x440D JUMPI DUP5 DUP5 SUB DUP10 MSTORE DUP2 MLOAD PUSH2 0x43EE DUP6 DUP3 PUSH2 0x4389 JUMP JUMPDEST SWAP5 POP PUSH2 0x43F9 DUP4 PUSH2 0x439D JUMP JUMPDEST SWAP3 POP PUSH1 0x20 DUP11 ADD SWAP10 POP POP PUSH1 0x1 DUP2 ADD SWAP1 POP PUSH2 0x43D5 JUMP JUMPDEST POP DUP3 SWAP8 POP DUP8 SWAP6 POP POP POP POP POP POP SWAP3 SWAP2 POP POP JUMP JUMPDEST PUSH1 0x0 PUSH1 0x20 DUP3 ADD SWAP1 POP DUP2 DUP2 SUB PUSH1 0x0 DUP4 ADD MSTORE PUSH2 0x4439 DUP2 DUP5 PUSH2 0x43AA JUMP JUMPDEST SWAP1 POP SWAP3 SWAP2 POP POP JUMP JUMPDEST PUSH1 0x0 DUP2 SWAP1 POP SWAP2 SWAP1 POP JUMP JUMPDEST PUSH1 0x0 PUSH2 0x4466 PUSH2 0x4461 PUSH2 0x445C DUP5 PUSH2 0x3BA3 JUMP JUMPDEST PUSH2 0x4441 JUMP JUMPDEST PUSH2 0x3BA3 JUMP JUMPDEST SWAP1 POP SWAP2 SWAP1 POP JUMP JUMPDEST PUSH1 0x0 PUSH2 0x4478 DUP3 PUSH2 0x444B JUMP JUMPDEST SWAP1 POP SWAP2 SWAP1 POP JUMP JUMPDEST PUSH1 0x0 PUSH2 0x448A DUP3 PUSH2 0x446D JUMP JUMPDEST SWAP1 POP SWAP2 SWAP1 POP JUMP JUMPDEST PUSH2 0x449A DUP2 PUSH2 0x447F JUMP JUMPDEST DUP3 MSTORE POP POP JUMP JUMPDEST PUSH1 0x0 PUSH1 0x20 DUP3 ADD SWAP1 POP PUSH2 0x44B5 PUSH1 0x0 DUP4 ADD DUP5 PUSH2 0x4491 JUMP JUMPDEST SWAP3 SWAP2 POP POP JUMP JUMPDEST PUSH1 0x0 DUP1 DUP4 PUSH1 0x1F DUP5 ADD SLT PUSH2 0x44D1 JUMPI PUSH2 0x44D0 PUSH2 0x3A4E JUMP JUMPDEST JUMPDEST DUP3 CALLDATALOAD SWAP1 POP PUSH8 0xFFFFFFFFFFFFFFFF DUP2 GT ISZERO PUSH2 0x44EE JUMPI PUSH2 0x44ED PUSH2 0x3A53 JUMP JUMPDEST JUMPDEST PUSH1 0x20 DUP4 ADD SWAP2 POP DUP4 PUSH1 0x20 DUP3 MUL DUP4 ADD GT ISZERO PUSH2 0x450A JUMPI PUSH2 0x4509 PUSH2 0x3A58 JUMP JUMPDEST JUMPDEST SWAP3 POP SWAP3 SWAP1 POP JUMP JUMPDEST PUSH1 0x0 DUP1 PUSH1 0x20 DUP4 DUP6 SUB SLT ISZERO PUSH2 0x4528 JUMPI PUSH2 0x4527 PUSH2 0x3A44 JUMP JUMPDEST JUMPDEST PUSH1 0x0 DUP4 ADD CALLDATALOAD PUSH8 0xFFFFFFFFFFFFFFFF DUP2 GT ISZERO PUSH2 0x4546 JUMPI PUSH2 0x4545 PUSH2 0x3A49 JUMP JUMPDEST JUMPDEST PUSH2 0x4552 DUP6 DUP3 DUP7 ADD PUSH2 0x44BB JUMP JUMPDEST SWAP3 POP SWAP3 POP POP SWAP3 POP SWAP3 SWAP1 POP JUMP JUMPDEST PUSH1 0x0 PUSH1 0x20 DUP3 DUP5 SUB SLT ISZERO PUSH2 0x4574 JUMPI PUSH2 0x4573 PUSH2 0x3A44 JUMP JUMPDEST JUMPDEST PUSH1 0x0 PUSH2 0x4582 DUP5 DUP3 DUP6 ADD PUSH2 0x3BEC JUMP JUMPDEST SWAP2 POP POP SWAP3 SWAP2 POP POP JUMP JUMPDEST PUSH32 0x4E487B7100000000000000000000000000000000000000000000000000000000 PUSH1 0x0 MSTORE PUSH1 0x32 PUSH1 0x4 MSTORE PUSH1 0x24 PUSH1 0x0 REVERT JUMPDEST PUSH1 0x0 DUP3 DUP3 MSTORE PUSH1 0x20 DUP3 ADD SWAP1 POP SWAP3 SWAP2 POP POP JUMP JUMPDEST PUSH32 0x496E76616C69642077616C6C6574204944000000000000000000000000000000 PUSH1 0x0 DUP3 ADD MSTORE POP JUMP JUMPDEST PUSH1 0x0 PUSH2 0x4601 PUSH1 0x11 DUP4 PUSH2 0x45BA JUMP JUMPDEST SWAP2 POP PUSH2 0x460C DUP3 PUSH2 0x45CB JUMP JUMPDEST PUSH1 0x20 DUP3 ADD SWAP1 POP SWAP2 SWAP1 POP JUMP JUMPDEST PUSH1 0x0 PUSH1 0x20 DUP3 ADD SWAP1 POP DUP2 DUP2 SUB PUSH1 0x0 DUP4 ADD MSTORE PUSH2 0x4630 DUP2 PUSH2 0x45F4 JUMP JUMPDEST SWAP1 POP SWAP2 SWAP1 POP JUMP JUMPDEST PUSH32 0x4E487B7100000000000000000000000000000000000000000000000000000000 PUSH1 0x0 MSTORE PUSH1 0x11 PUSH1 0x4 MSTORE PUSH1 0x24 PUSH1 0x0 REVERT JUMPDEST PUSH1 0x0 PUSH2 0x4671 DUP3 PUSH2 0x3C6D JUMP JUMPDEST SWAP2 POP PUSH2 0x467C DUP4 PUSH2 0x3C6D JUMP JUMPDEST SWAP3 POP DUP3 DUP3 SUB SWAP1 POP DUP2 DUP2 GT ISZERO PUSH2 0x4694 JUMPI PUSH2 0x4693 PUSH2 0x4637 JUMP JUMPDEST JUMPDEST SWAP3 SWAP2 POP POP JUMP JUMPDEST PUSH32 0x4E487B7100000000000000000000000000000000000000000000000000000000 PUSH1 0x0 MSTORE PUSH1 0x22 PUSH1 0x4 MSTORE PUSH1 0x24 PUSH1 0x0 REVERT JUMPDEST PUSH1 0x0 PUSH1 0x2 DUP3 DIV SWAP1 POP PUSH1 0x1 DUP3 AND DUP1 PUSH2 0x46E1 JUMPI PUSH1 0x7F DUP3 AND SWAP2 POP JUMPDEST PUSH1 0x20 DUP3 LT DUP2 SUB PUSH2 0x46F4 JUMPI PUSH2 0x46F3 PUSH2 0x469A JUMP JUMPDEST JUMPDEST POP SWAP2 SWAP1 POP JUMP JUMPDEST PUSH1 0x0 DUP2 SLOAD SWAP1 POP PUSH2 0x4709 DUP2 PUSH2 0x46C9 JUMP JUMPDEST SWAP1 POP SWAP2 SWAP1 POP JUMP JUMPDEST PUSH32 0x4E487B7100000000000000000000000000000000000000000000000000000000 PUSH1 0x0 MSTORE PUSH1 0x41 PUSH1 0x4 MSTORE PUSH1 0x24 PUSH1 0x0 REVERT JUMPDEST PUSH1 0x0 DUP2 SWAP1 POP DUP2 PUSH1 0x0 MSTORE PUSH1 0x20 PUSH1 0x0 KECCAK256 SWAP1 POP SWAP2 SWAP1 POP JUMP JUMPDEST PUSH1 0x0 PUSH1 0x20 PUSH1 0x1F DUP4 ADD DIV SWAP1 POP SWAP2 SWAP1 POP JUMP JUMPDEST PUSH1 0x0 DUP3 DUP3 SHL SWAP1 POP SWAP3 SWAP2 POP POP JUMP JUMPDEST PUSH1 0x0 PUSH1 0x8 DUP4 MUL PUSH2 0x47A1 PUSH32 0xFFFFFFFFFFFFFFFFFFFFFFFFFFFFFFFFFFFFFFFFFFFFFFFFFFFFFFFFFFFFFFFF DUP3 PUSH2 0x4764 JUMP JUMPDEST PUSH2 0x47AB DUP7 DUP4 PUSH2 0x4764 JUMP JUMPDEST SWAP6 POP DUP1 NOT DUP5 AND SWAP4 POP DUP1 DUP7 AND DUP5 OR SWAP3 POP POP POP SWAP4 SWAP3 POP POP POP JUMP JUMPDEST PUSH1 0x0 PUSH2 0x47DE PUSH2 0x47D9 PUSH2 0x47D4 DUP5 PUSH2 0x3C6D JUMP JUMPDEST PUSH2 0x4441 JUMP JUMPDEST PUSH2 0x3C6D JUMP JUMPDEST SWAP1 POP SWAP2 SWAP1 POP JUMP JUMPDEST PUSH1 0x0 DUP2 SWAP1 POP SWAP2 SWAP1 POP JUMP JUMPDEST PUSH2 0x47F8 DUP4 PUSH2 0x47C3 JUMP JUMPDEST PUSH2 0x480C PUSH2 0x4804 DUP3 PUSH2 0x47E5 JUMP JUMPDEST DUP5 DUP5 SLOAD PUSH2 0x4771 JUMP JUMPDEST DUP3 SSTORE POP POP POP POP JUMP JUMPDEST PUSH1 0x0 SWAP1 JUMP JUMPDEST PUSH2 0x4821 PUSH2 0x4814 JUMP JUMPDEST PUSH2 0x482C DUP2 DUP5 DUP5 PUSH2 0x47EF JUMP JUMPDEST POP POP POP JUMP JUMPDEST JUMPDEST DUP2 DUP2 LT ISZERO PUSH2 0x4850 JUMPI PUSH2 0x4845 PUSH1 0x0 DUP3 PUSH2 0x4819 JUMP JUMPDEST PUSH1 0x1 DUP2 ADD SWAP1 POP PUSH2 0x4832 JUMP JUMPDEST POP POP JUMP JUMPDEST PUSH1 0x1F DUP3 GT ISZERO PUSH2 0x4895 JUMPI PUSH2 0x4866 DUP2 PUSH2 0x473F JUMP JUMPDEST PUSH2 0x486F DUP5 PUSH2 0x4754 JUMP JUMPDEST DUP2 ADD PUSH1 0x20 DUP6 LT ISZERO PUSH2 0x487E JUMPI DUP2 SWAP1 POP JUMPDEST PUSH2 0x4892 PUSH2 0x488A DUP6 PUSH2 0x4754 JUMP JUMPDEST DUP4 ADD DUP3 PUSH2 0x4831 JUMP JUMPDEST POP POP JUMPDEST POP POP POP JUMP JUMPDEST PUSH1 0x0 DUP3 DUP3 SHR SWAP1 POP SWAP3 SWAP2 POP POP JUMP JUMPDEST PUSH1 0x0 PUSH2 0x48B8 PUSH1 0x0 NOT DUP5 PUSH1 0x8 MUL PUSH2 0x489A JUMP JUMPDEST NOT DUP1 DUP4 AND SWAP2 POP POP SWAP3 SWAP2 POP POP JUMP JUMPDEST PUSH1 0x0 PUSH2 0x48D1 DUP4 DUP4 PUSH2 0x48A7 JUMP JUMPDEST SWAP2 POP DUP3 PUSH1 0x2 MUL DUP3 OR SWAP1 POP SWAP3 SWAP2 POP POP JUMP JUMPDEST DUP2 DUP2 SUB PUSH2 0x48EF JUMPI POP POP PUSH2 0x49C7 JUMP JUMPDEST PUSH2 0x48F8 DUP3 PUSH2 0x46FA JUMP JUMPDEST PUSH8 0xFFFFFFFFFFFFFFFF DUP2 GT ISZERO PUSH2 0x4911 JUMPI PUSH2 0x4910 PUSH2 0x4710 JUMP JUMPDEST JUMPDEST PUSH2 0x491B DUP3 SLOAD PUSH2 0x46C9 JUMP JUMPDEST PUSH2 0x4926 DUP3 DUP3 DUP6 PUSH2 0x4854 JUMP JUMPDEST PUSH1 0x0 PUSH1 0x1F DUP4 GT PUSH1 0x1 DUP2 EQ PUSH2 0x4955 JUMPI PUSH1 0x0 DUP5 ISZERO PUSH2 0x4943 JUMPI DUP3 DUP8 ADD SLOAD SWAP1 POP JUMPDEST PUSH2 0x494D DUP6 DUP3 PUSH2 0x48C5 JUMP JUMPDEST DUP7 SSTORE POP PUSH2 0x49C0 JUMP JUMPDEST PUSH1 0x1F NOT DUP5 AND PUSH2 0x4963 DUP8 PUSH2 0x473F JUMP JUMPDEST SWAP7 POP PUSH2 0x496E DUP7 PUSH2 0x473F JUMP JUMPDEST PUSH1 0x0 JUMPDEST DUP3 DUP2 LT ISZERO PUSH2 0x4996 JUMPI DUP5 DUP10 ADD SLOAD DUP3 SSTORE PUSH1 0x1 DUP3 ADD SWAP2 POP PUSH1 0x1 DUP6 ADD SWAP5 POP PUSH1 0x20 DUP2 ADD SWAP1 POP PUSH2 0x4971 JUMP JUMPDEST DUP7 DUP4 LT ISZERO PUSH2 0x49B3 JUMPI DUP5 DUP10 ADD SLOAD PUSH2 0x49AF PUSH1 0x1F DUP10 AND DUP3 PUSH2 0x48A7 JUMP JUMPDEST DUP4 SSTORE POP JUMPDEST PUSH1 0x1 PUSH1 0x2 DUP9 MUL ADD DUP9 SSTORE POP POP POP JUMPDEST POP POP POP POP POP POP JUMPDEST JUMP JUMPDEST PUSH32 0x4E487B7100000000000000000000000000000000000000000000000000000000 PUSH1 0x0 MSTORE PUSH1 0x31 PUSH1 0x4 MSTORE PUSH1 0x24 PUSH1 0x0 REVERT JUMPDEST PUSH32 0x496E76616C696420544F54502049440000000000000000000000000000000000 PUSH1 0x0 DUP3 ADD MSTORE POP JUMP JUMPDEST PUSH1 0x0 PUSH2 0x4A2E PUSH1 0xF DUP4 PUSH2 0x45BA JUMP JUMPDEST SWAP2 POP PUSH2 0x4A39 DUP3 PUSH2 0x49F8 JUMP JUMPDEST PUSH1 0x20 DUP3 ADD SWAP1 POP SWAP2 SWAP1 POP JUMP JUMPDEST PUSH1 0x0 PUSH1 0x20 DUP3 ADD SWAP1 POP DUP2 DUP2 SUB PUSH1 0x0 DUP4 ADD MSTORE PUSH2 0x4A5D DUP2 PUSH2 0x4A21 JUMP JUMPDEST SWAP1 POP SWAP2 SWAP1 POP JUMP JUMPDEST PUSH2 0x4A6D DUP2 PUSH2 0x3C6D JUMP JUMPDEST DUP2 EQ PUSH2 0x4A78 JUMPI PUSH1 0x0 DUP1 REVERT JUMPDEST POP JUMP JUMPDEST PUSH1 0x0 DUP2 MLOAD SWAP1 POP PUSH2 0x4A8A DUP2 PUSH2 0x4A64 JUMP JUMPDEST SWAP3 SWAP2 POP POP JUMP JUMPDEST PUSH1 0x0 PUSH1 0x20 DUP3 DUP5 SUB SLT ISZERO PUSH2 0x4AA6 JUMPI PUSH2 0x4AA5 PUSH2 0x3A44 JUMP JUMPDEST JUMPDEST PUSH1 0x0 PUSH2 0x4AB4 DUP5 DUP3 DUP6 ADD PUSH2 0x4A7B JUMP JUMPDEST SWAP2 POP POP SWAP3 SWAP2 POP POP JUMP JUMPDEST PUSH32 0x57726F6E6720636F737420666F7220757073657274544F545000000000000000 PUSH1 0x0 DUP3 ADD MSTORE POP JUMP JUMPDEST PUSH1 0x0 PUSH2 0x4AF3 PUSH1 0x19 DUP4 PUSH2 0x45BA JUMP JUMPDEST SWAP2 POP PUSH2 0x4AFE DUP3 PUSH2 0x4ABD JUMP JUMPDEST PUSH1 0x20 DUP3 ADD SWAP1 POP SWAP2 SWAP1 POP JUMP JUMPDEST PUSH1 0x0 PUSH1 0x20 DUP3 ADD SWAP1 POP DUP2 DUP2 SUB PUSH1 0x0 DUP4 ADD MSTORE PUSH2 0x4B22 DUP2 PUSH2 0x4AE6 JUMP JUMPDEST SWAP1 POP SWAP2 SWAP1 POP JUMP JUMPDEST PUSH1 0x0 DUP2 SWAP1 POP SWAP3 SWAP2 POP POP JUMP JUMPDEST POP JUMP JUMPDEST PUSH1 0x0 PUSH2 0x4B44 PUSH1 0x0 DUP4 PUSH2 0x4B29 JUMP JUMPDEST SWAP2 POP PUSH2 0x4B4F DUP3 PUSH2 0x4B34 JUMP JUMPDEST PUSH1 0x0 DUP3 ADD SWAP1 POP SWAP2 SWAP1 POP JUMP JUMPDEST PUSH1 0x0 PUSH2 0x4B65 DUP3 PUSH2 0x4B37 JUMP JUMPDEST SWAP2 POP DUP2 SWAP1 POP SWAP2 SWAP1 POP JUMP JUMPDEST PUSH32 0x466F7277617264696E6720666565206661696C65640000000000000000000000 PUSH1 0x0 DUP3 ADD MSTORE POP JUMP JUMPDEST PUSH1 0x0 PUSH2 0x4BA5 PUSH1 0x15 DUP4 PUSH2 0x45BA JUMP JUMPDEST SWAP2 POP PUSH2 0x4BB0 DUP3 PUSH2 0x4B6F JUMP JUMPDEST PUSH1 0x20 DUP3 ADD SWAP1 POP SWAP2 SWAP1 POP JUMP JUMPDEST PUSH1 0x0 PUSH1 0x20 DUP3 ADD SWAP1 POP DUP2 DUP2 SUB PUSH1 0x0 DUP4 ADD MSTORE PUSH2 0x4BD4 DUP2 PUSH2 0x4B98 JUMP JUMPDEST SWAP1 POP SWAP2 SWAP1 POP JUMP JUMPDEST PUSH1 0x0 DUP1 REVERT JUMPDEST PUSH1 0x0 DUP1 REVERT JUMPDEST PUSH1 0x0 DUP1 REVERT JUMPDEST PUSH1 0x0 DUP3 CALLDATALOAD PUSH1 0x1 PUSH1 0xA0 SUB DUP4 CALLDATASIZE SUB SUB DUP2 SLT PUSH2 0x4C06 JUMPI PUSH2 0x4C05 PUSH2 0x4BDB JUMP JUMPDEST JUMPDEST DUP1 DUP4 ADD SWAP2 POP POP SWAP3 SWAP2 POP POP JUMP JUMPDEST PUSH1 0x0 DUP1 DUP4 CALLDATALOAD PUSH1 0x1 PUSH1 0x20 SUB DUP5 CALLDATASIZE SUB SUB DUP2 SLT PUSH2 0x4C2F JUMPI PUSH2 0x4C2E PUSH2 0x4BDB JUMP JUMPDEST JUMPDEST DUP1 DUP5 ADD SWAP3 POP DUP3 CALLDATALOAD SWAP2 POP PUSH8 0xFFFFFFFFFFFFFFFF DUP3 GT ISZERO PUSH2 0x4C51 JUMPI PUSH2 0x4C50 PUSH2 0x4BE0 JUMP JUMPDEST JUMPDEST PUSH1 0x20 DUP4 ADD SWAP3 POP PUSH1 0x1 DUP3 MUL CALLDATASIZE SUB DUP4 SGT ISZERO PUSH2 0x4C6D JUMPI PUSH2 0x4C6C PUSH2 0x4BE5 JUMP JUMPDEST JUMPDEST POP SWAP3 POP SWAP3 SWAP1 POP JUMP JUMPDEST PUSH2 0x4C7E DUP3 PUSH2 0x3C86 JUMP JUMPDEST PUSH8 0xFFFFFFFFFFFFFFFF DUP2 GT ISZERO PUSH2 0x4C97 JUMPI PUSH2 0x4C96 PUSH2 0x4710 JUMP JUMPDEST JUMPDEST PUSH2 0x4CA1 DUP3 SLOAD PUSH2 0x46C9 JUMP JUMPDEST PUSH2 0x4CAC DUP3 DUP3 DUP6 PUSH2 0x4854 JUMP JUMPDEST PUSH1 0x0 PUSH1 0x20 SWAP1 POP PUSH1 0x1F DUP4 GT PUSH1 0x1 DUP2 EQ PUSH2 0x4CDF JUMPI PUSH1 0x0 DUP5 ISZERO PUSH2 0x4CCD JUMPI DUP3 DUP8 ADD MLOAD SWAP1 POP JUMPDEST PUSH2 0x4CD7 DUP6 DUP3 PUSH2 0x48C5 JUMP JUMPDEST DUP7 SSTORE POP PUSH2 0x4D3F JUMP JUMPDEST PUSH1 0x1F NOT DUP5 AND PUSH2 0x4CED DUP7 PUSH2 0x473F JUMP JUMPDEST PUSH1 0x0 JUMPDEST DUP3 DUP2 LT ISZERO PUSH2 0x4D15 JUMPI DUP5 DUP10 ADD MLOAD DUP3 SSTORE PUSH1 0x1 DUP3 ADD SWAP2 POP PUSH1 0x20 DUP6 ADD SWAP5 POP PUSH1 0x20 DUP2 ADD SWAP1 POP PUSH2 0x4CF0 JUMP JUMPDEST DUP7 DUP4 LT ISZERO PUSH2 0x4D32 JUMPI DUP5 DUP10 ADD MLOAD PUSH2 0x4D2E PUSH1 0x1F DUP10 AND DUP3 PUSH2 0x48A7 JUMP JUMPDEST DUP4 SSTORE POP JUMPDEST PUSH1 0x1 PUSH1 0x2 DUP9 MUL ADD DUP9 SSTORE POP POP POP JUMPDEST POP POP POP POP POP POP JUMP JUMPDEST PUSH1 0x0 PUSH2 0x4D52 DUP3 PUSH2 0x3C6D JUMP JUMPDEST SWAP2 POP PUSH32 0xFFFFFFFFFFFFFFFFFFFFFFFFFFFFFFFFFFFFFFFFFFFFFFFFFFFFFFFFFFFFFFFF DUP3 SUB PUSH2 0x4D84 JUMPI PUSH2 0x4D83 PUSH2 0x4637 JUMP JUMPDEST JUMPDEST PUSH1 0x1 DUP3 ADD SWAP1 POP SWAP2 SWAP1 POP JUMP JUMPDEST PUSH1 0x0 DUP3 SWAP1 POP SWAP3 SWAP2 POP POP JUMP JUMPDEST PUSH2 0x4DA4 DUP4 DUP4 PUSH2 0x4D8F JUMP JUMPDEST PUSH8 0xFFFFFFFFFFFFFFFF DUP2 GT ISZERO PUSH2 0x4DBD JUMPI PUSH2 0x4DBC PUSH2 0x4710 JUMP JUMPDEST JUMPDEST PUSH2 0x4DC7 DUP3 SLOAD PUSH2 0x46C9 JUMP JUMPDEST PUSH2 0x4DD2 DUP3 DUP3 DUP6 PUSH2 0x4854 JUMP JUMPDEST PUSH1 0x0 PUSH1 0x1F DUP4 GT PUSH1 0x1 DUP2 EQ PUSH2 0x4E01 JUMPI PUSH1 0x0 DUP5 ISZERO PUSH2 0x4DEF JUMPI DUP3 DUP8 ADD CALLDATALOAD SWAP1 POP JUMPDEST PUSH2 0x4DF9 DUP6 DUP3 PUSH2 0x48C5 JUMP JUMPDEST DUP7 SSTORE POP PUSH2 0x4E61 JUMP JUMPDEST PUSH1 0x1F NOT DUP5 AND PUSH2 0x4E0F DUP7 PUSH2 0x473F JUMP JUMPDEST PUSH1 0x0 JUMPDEST DUP3 DUP2 LT ISZERO PUSH2 0x4E37 JUMPI DUP5 DUP10 ADD CALLDATALOAD DUP3 SSTORE PUSH1 0x1 DUP3 ADD SWAP2 POP PUSH1 0x20 DUP6 ADD SWAP5 POP PUSH1 0x20 DUP2 ADD SWAP1 POP PUSH2 0x4E12 JUMP JUMPDEST DUP7 DUP4 LT ISZERO PUSH2 0x4E54 JUMPI DUP5 DUP10 ADD CALLDATALOAD PUSH2 0x4E50 PUSH1 0x1F DUP10 AND DUP3 PUSH2 0x48A7 JUMP JUMPDEST DUP4 SSTORE POP JUMPDEST PUSH1 0x1 PUSH1 0x2 DUP9 MUL ADD DUP9 SSTORE POP POP POP JUMPDEST POP POP POP POP POP POP POP JUMP JUMPDEST PUSH32 0x496E76616C69642063726564656E7469616C2049440000000000000000000000 PUSH1 0x0 DUP3 ADD MSTORE POP JUMP JUMPDEST PUSH1 0x0 PUSH2 0x4EA0 PUSH1 0x15 DUP4 PUSH2 0x45BA JUMP JUMPDEST SWAP2 POP PUSH2 0x4EAB DUP3 PUSH2 0x4E6A JUMP JUMPDEST PUSH1 0x20 DUP3 ADD SWAP1 POP SWAP2 SWAP1 POP JUMP JUMPDEST PUSH1 0x0 PUSH1 0x20 DUP3 ADD SWAP1 POP DUP2 DUP2 SUB PUSH1 0x0 DUP4 ADD MSTORE PUSH2 0x4ECF DUP2 PUSH2 0x4E93 JUMP JUMPDEST SWAP1 POP SWAP2 SWAP1 POP JUMP JUMPDEST PUSH32 0x496E76616C696420436F73744D616E6167657200000000000000000000000000 PUSH1 0x0 DUP3 ADD MSTORE POP JUMP JUMPDEST PUSH1 0x0 PUSH2 0x4F0C PUSH1 0x13 DUP4 PUSH2 0x45BA JUMP JUMPDEST SWAP2 POP PUSH2 0x4F17 DUP3 PUSH2 0x4ED6 JUMP JUMPDEST PUSH1 0x20 DUP3 ADD SWAP1 POP SWAP2 SWAP1 POP JUMP JUMPDEST PUSH1 0x0 PUSH1 0x20 DUP3 ADD SWAP1 POP DUP2 DUP2 SUB PUSH1 0x0 DUP4 ADD MSTORE PUSH2 0x4F3B DUP2 PUSH2 0x4EFF JUMP JUMPDEST SWAP1 POP SWAP2 SWAP1 POP JUMP JUMPDEST PUSH32 0x466F7277617264696E67206372656174696F6E2066656520746F20436F73744D PUSH1 0x0 DUP3 ADD MSTORE PUSH32 0x616E61676572206661696C656400000000000000000000000000000000000000 PUSH1 0x20 DUP3 ADD MSTORE POP JUMP JUMPDEST PUSH1 0x0 PUSH2 0x4F9E PUSH1 0x2D DUP4 PUSH2 0x45BA JUMP JUMPDEST SWAP2 POP PUSH2 0x4FA9 DUP3 PUSH2 0x4F42 JUMP JUMPDEST PUSH1 0x40 DUP3 ADD SWAP1 POP SWAP2 SWAP1 POP JUMP JUMPDEST PUSH1 0x0 PUSH1 0x20 DUP3 ADD SWAP1 POP DUP2 DUP2 SUB PUSH1 0x0 DUP4 ADD MSTORE PUSH2 0x4FCD DUP2 PUSH2 0x4F91 JUMP JUMPDEST SWAP1 POP SWAP2 SWAP1 POP JUMP JUMPDEST PUSH1 0x0 DUP2 SWAP1 POP SWAP2 SWAP1 POP JUMP JUMPDEST PUSH1 0x0 PUSH8 0xFFFFFFFFFFFFFFFF DUP3 AND SWAP1 POP SWAP2 SWAP1 POP JUMP JUMPDEST PUSH1 0x0 PUSH2 0x500D PUSH2 0x5008 PUSH2 0x5003 DUP5 PUSH2 0x4FD4 JUMP JUMPDEST PUSH2 0x4441 JUMP JUMPDEST PUSH2 0x4FDE JUMP JUMPDEST SWAP1 POP SWAP2 SWAP1 POP JUMP JUMPDEST PUSH2 0x501D DUP2 PUSH2 0x4FF2 JUMP JUMPDEST DUP3 MSTORE POP POP JUMP JUMPDEST PUSH1 0x0 PUSH1 0x20 DUP3 ADD SWAP1 POP PUSH2 0x5038 PUSH1 0x0 DUP4 ADD DUP5 PUSH2 0x5014 JUMP JUMPDEST SWAP3 SWAP2 POP POP JUMP JUMPDEST PUSH32 0x496E76616C6964206E6F74652049440000000000000000000000000000000000 PUSH1 0x0 DUP3 ADD MSTORE POP JUMP JUMPDEST PUSH1 0x0 PUSH2 0x5074 PUSH1 0xF DUP4 PUSH2 0x45BA JUMP JUMPDEST SWAP2 POP PUSH2 0x507F DUP3 PUSH2 0x503E JUMP JUMPDEST PUSH1 0x20 DUP3 ADD SWAP1 POP SWAP2 SWAP1 POP JUMP JUMPDEST PUSH1 0x0 PUSH1 0x20 DUP3 ADD SWAP1 POP DUP2 DUP2 SUB PUSH1 0x0 DUP4 ADD MSTORE PUSH2 0x50A3 DUP2 PUSH2 0x5067 JUMP JUMPDEST SWAP1 POP SWAP2 SWAP1 POP JUMP JUMPDEST PUSH32 0x57726F6E6720636F737420666F722075707365727457616C6C65744164647265 PUSH1 0x0 DUP3 ADD MSTORE PUSH32 0x7373000000000000000000000000000000000000000000000000000000000000 PUSH1 0x20 DUP3 ADD MSTORE POP JUMP JUMPDEST PUSH1 0x0 PUSH2 0x5106 PUSH1 0x22 DUP4 PUSH2 0x45BA JUMP JUMPDEST SWAP2 POP PUSH2 0x5111 DUP3 PUSH2 0x50AA JUMP JUMPDEST PUSH1 0x40 DUP3 ADD SWAP1 POP SWAP2 SWAP1 POP JUMP JUMPDEST PUSH1 0x0 PUSH1 0x20 DUP3 ADD SWAP1 POP DUP2 DUP2 SUB PUSH1 0x0 DUP4 ADD MSTORE PUSH2 0x5135 DUP2 PUSH2 0x50F9 JUMP JUMPDEST SWAP1 POP SWAP2 SWAP1 POP JUMP JUMPDEST PUSH1 0x0 DUP3 CALLDATALOAD PUSH1 0x1 PUSH1 0xC0 SUB DUP4 CALLDATASIZE SUB SUB DUP2 SLT PUSH2 0x5158 JUMPI PUSH2 0x5157 PUSH2 0x4BDB JUMP JUMPDEST JUMPDEST DUP1 DUP4 ADD SWAP2 POP POP SWAP3 SWAP2 POP POP JUMP JUMPDEST PUSH32 0x57726F6E6720636F737420666F72207570736572744E6F746573000000000000 PUSH1 0x0 DUP3 ADD MSTORE POP JUMP JUMPDEST PUSH1 0x0 PUSH2 0x519A PUSH1 0x1A DUP4 PUSH2 0x45BA JUMP JUMPDEST SWAP2 POP PUSH2 0x51A5 DUP3 PUSH2 0x5164 JUMP JUMPDEST PUSH1 0x20 DUP3 ADD SWAP1 POP SWAP2 SWAP1 POP JUMP JUMPDEST PUSH1 0x0 PUSH1 0x20 DUP3 ADD SWAP1 POP DUP2 DUP2 SUB PUSH1 0x0 DUP4 ADD MSTORE PUSH2 0x51C9 DUP2 PUSH2 0x518D JUMP JUMPDEST SWAP1 POP SWAP2 SWAP1 POP JUMP JUMPDEST PUSH1 0x0 DUP3 CALLDATALOAD PUSH1 0x1 PUSH1 0x60 SUB DUP4 CALLDATASIZE SUB SUB DUP2 SLT PUSH2 0x51EC JUMPI PUSH2 0x51EB PUSH2 0x4BDB JUMP JUMPDEST JUMPDEST DUP1 DUP4 ADD SWAP2 POP POP SWAP3 SWAP2 POP POP JUMP JUMPDEST PUSH32 0x57726F6E6720636F737420666F722075707365727443726564656E7469616C73 PUSH1 0x0 DUP3 ADD MSTORE POP JUMP JUMPDEST PUSH1 0x0 PUSH2 0x522E PUSH1 0x20 DUP4 PUSH2 0x45BA JUMP JUMPDEST SWAP2 POP PUSH2 0x5239 DUP3 PUSH2 0x51F8 JUMP JUMPDEST PUSH1 0x20 DUP3 ADD SWAP1 POP SWAP2 SWAP1 POP JUMP JUMPDEST PUSH1 0x0 PUSH1 0x20 DUP3 ADD SWAP1 POP DUP2 DUP2 SUB PUSH1 0x0 DUP4 ADD MSTORE PUSH2 0x525D DUP2 PUSH2 0x5221 JUMP JUMPDEST SWAP1 POP SWAP2 SWAP1 POP JUMP JUMPDEST PUSH1 0x0 DUP3 CALLDATALOAD PUSH1 0x1 PUSH1 0xA0 SUB DUP4 CALLDATASIZE SUB SUB DUP2 SLT PUSH2 0x5280 JUMPI PUSH2 0x527F PUSH2 0x4BDB JUMP JUMPDEST JUMPDEST DUP1 DUP4 ADD SWAP2 POP POP SWAP3 SWAP2 POP POP JUMP INVALID LOG2 PUSH5 0x6970667358 0x22 SLT KECCAK256 PUSH13 0x5632E72654D5F8CDC3066C5F6D 0xC1 DUP11 LOG4 0x28 0xD BYTE 0x4C 0xB6 SWAP7 LOG2 PUSH12 0xB9AFD612C3856164736F6C63 NUMBER STOP ADDMOD SHR STOP CALLER "},"methodIdentifiers":{"costManager()":"cecd949a","deleteCredentials(uint256[])":"413ba326","deleteNotes(uint256[])":"52ab43e6","deleteTOTP(uint256[])":"1e375835","deleteWalletAddresses(uint256[])":"0309d406","initialize(address,address)":"485cc955","owner()":"8da5cb5b","readCredentials()":"cafdf8b5","readNote()":"82e91caa","readTOTP()":"56ba0b01","readWalletAddress()":"ccd7dc5a","renounceOwnership()":"715018a6","transferOwnership(address)":"f2fde38b","upsertCredentials((uint256,string,string,string,string)[])":"f117c6a8","upsertNotes((uint256,string,string)[])":"a4595a20","upsertTOTP((uint256,string,string,string,uint256)[])":"30171241","upsertWalletAddress((uint256,string,string,string,string,string)[])":"623ac757"}}}}}