{"contracts/VaultContract3.sol":{"VaultContract3":{"abi":[{"inputs":[],"name":"InvalidInitialization","type":"error"},{"inputs":[],"name":"NotInitializing","type":"error"},{"inputs":[{"internalType":"address","name":"owner","type":"address"}],"name":"OwnableInvalidOwner","type":"error"},{"inputs":[{"internalType":"address","name":"account","type":"address"}],"name":"OwnableUnauthorizedAccount","type":"error"},{"anonymous":false,"inputs":[{"indexed":false,"internalType":"uint64","name":"version","type":"uint64"}],"name":"Initialized","type":"event"},{"anonymous":false,"inputs":[{"indexed":true,"internalType":"address","name":"previousOwner","type":"address"},{"indexed":true,"internalType":"address","name":"newOwner","type":"address"}],"name":"OwnershipTransferred","type":"event"},{"stateMutability":"payable","type":"fallback"},{"inputs":[],"name":"costManager","outputs":[{"internalType":"contract CostManager","name":"","type":"address"}],"stateMutability":"view","type":"function"},{"inputs":[{"internalType":"uint256[]","name":"ids","type":"uint256[]"}],"name":"deleteIdentities","outputs":[],"stateMutability":"nonpayable","type":"function"},{"inputs":[{"internalType":"uint256[]","name":"ids","type":"uint256[]"}],"name":"deleteInsurances","outputs":[],"stateMutability":"nonpayable","type":"function"},{"inputs":[{"internalType":"uint256[]","name":"ids","type":"uint256[]"}],"name":"deleteLegalDocuments","outputs":[],"stateMutability":"nonpayable","type":"function"},{"inputs":[{"internalType":"address","name":"_owner","type":"address"},{"internalType":"address","name":"_costManager","type":"address"}],"name":"initialize","outputs":[],"stateMutability":"payable","type":"function"},{"inputs":[],"name":"owner","outputs":[{"internalType":"address","name":"","type":"address"}],"stateMutability":"view","type":"function"},{"inputs":[],"name":"readIdentities","outputs":[{"components":[{"internalType":"uint256","name":"id","type":"uint256"},{"internalType":"string","name":"name","type":"string"},{"internalType":"string","name":"documentType","type":"string"},{"internalType":"string","name":"documentNumber","type":"string"},{"internalType":"string","name":"country","type":"string"},{"internalType":"string","name":"expiryDate","type":"string"},{"internalType":"string","name":"remarks","type":"string"},{"internalType":"uint256","name":"timestamp","type":"uint256"}],"internalType":"struct VaultContract3.Identity[]","name":"","type":"tuple[]"}],"stateMutability":"view","type":"function"},{"inputs":[],"name":"readInsurances","outputs":[{"components":[{"internalType":"uint256","name":"id","type":"uint256"},{"internalType":"string","name":"name","type":"string"},{"internalType":"string","name":"provider","type":"string"},{"internalType":"string","name":"policyNumber","type":"string"},{"internalType":"string","name":"expiryDate","type":"string"},{"internalType":"string","name":"linkedTo","type":"string"},{"internalType":"string","name":"remarks","type":"string"},{"internalType":"uint256","name":"timestamp","type":"uint256"}],"internalType":"struct VaultContract3.Insurance[]","name":"","type":"tuple[]"}],"stateMutability":"view","type":"function"},{"inputs":[],"name":"readLegalDocuments","outputs":[{"components":[{"internalType":"uint256","name":"id","type":"uint256"},{"internalType":"string","name":"name","type":"string"},{"internalType":"string","name":"documentType","type":"string"},{"internalType":"string","name":"storageLocation","type":"string"},{"internalType":"string","name":"linkedTo","type":"string"},{"internalType":"string","name":"remarks","type":"string"},{"internalType":"uint256","name":"timestamp","type":"uint256"}],"internalType":"struct VaultContract3.LegalDocument[]","name":"","type":"tuple[]"}],"stateMutability":"view","type":"function"},{"inputs":[],"name":"renounceOwnership","outputs":[],"stateMutability":"nonpayable","type":"function"},{"inputs":[{"internalType":"address","name":"newOwner","type":"address"}],"name":"transferOwnership","outputs":[],"stateMutability":"nonpayable","type":"function"},{"inputs":[{"components":[{"internalType":"uint256","name":"id","type":"uint256"},{"internalType":"string","name":"name","type":"string"},{"internalType":"string","name":"documentType","type":"string"},{"internalType":"string","name":"documentNumber","type":"string"},{"internalType":"string","name":"country","type":"string"},{"internalType":"string","name":"expiryDate","type":"string"},{"internalType":"string","name":"remarks","type":"string"}],"internalType":"struct VaultContract3.IdentityUpsert[]","name":"data","type":"tuple[]"}],"name":"upsertIdentities","outputs":[],"stateMutability":"payable","type":"function"},{"inputs":[{"components":[{"internalType":"uint256","name":"id","type":"uint256"},{"internalType":"string","name":"name","type":"string"},{"internalType":"string","name":"provider","type":"string"},{"internalType":"string","name":"policyNumber","type":"string"},{"internalType":"string","name":"expiryDate","type":"string"},{"internalType":"string","name":"linkedTo","type":"string"},{"internalType":"string","name":"remarks","type":"string"}],"internalType":"struct VaultContract3.InsuranceUpsert[]","name":"data","type":"tuple[]"}],"name":"upsertInsurances","outputs":[],"stateMutability":"payable","type":"function"},{"inputs":[{"components":[{"internalType":"uint256","name":"id","type":"uint256"},{"internalType":"string","name":"name","type":"string"},{"internalType":"string","name":"documentType","type":"string"},{"internalType":"string","name":"storageLocation","type":"string"},{"internalType":"string","name":"linkedTo","type":"string"},{"internalType":"string","name":"remarks","type":"string"}],"internalType":"struct VaultContract3.LegalDocumentUpsert[]","name":"data","type":"tuple[]"}],"name":"upsertLegalDocuments","outputs":[],"stateMutability":"payable","type":"function"},{"stateMutability":"payable","type":"receive"}],"evm":{"bytecode":{"linkReferences":{},"object":"60806040526001805560016004556001600755348015601d57600080fd5b50614d988061002d6000396000f3fe6080604052600436106100e15760003560e01c80637d651b451161007f578063cecd949a11610059578063cecd949a1461024b578063eb42002414610276578063f2fde38b14610292578063f9084d69146102bb576100e2565b80637d651b45146101cc5780638da5cb5b146101f5578063a8a91ce614610220576100e2565b806351521679116100bb57806351521679146101455780635886ed5e14610170578063715018a6146101995780637d588e84146101b0576100e2565b80632687499b146100e45780633cdafff214610100578063485cc95514610129576100e2565b5b005b6100fe60048036038101906100f9919061389b565b6102e6565b005b34801561010c57600080fd5b506101276004803603810190610122919061393e565b610baf565b005b610143600480360381019061013e91906139e9565b610dfd565b005b34801561015157600080fd5b5061015a611045565b6040516101679190613c4c565b60405180910390f35b34801561017c57600080fd5b506101976004803603810190610192919061393e565b61139a565b005b3480156101a557600080fd5b506101ae61160d565b005b6101ca60048036038101906101c59190613cc4565b611621565b005b3480156101d857600080fd5b506101f360048036038101906101ee919061393e565b612002565b005b34801561020157600080fd5b5061020a612275565b6040516102179190613d20565b60405180910390f35b34801561022c57600080fd5b506102356122ad565b6040516102429190613ed0565b60405180910390f35b34801561025757600080fd5b50610260612695565b60405161026d9190613f51565b60405180910390f35b610290600480360381019061028b9190613fc2565b6126b9565b005b34801561029e57600080fd5b506102b960048036038101906102b4919061400f565b61309a565b005b3480156102c757600080fd5b506102d0613120565b6040516102dd91906141d1565b60405180910390f35b6102ee613508565b60008060009054906101000a900473ffffffffffffffffffffffffffffffffffffffff1673ffffffffffffffffffffffffffffffffffffffff1663f9c59d076040518163ffffffff1660e01b8152600401602060405180830381865afa15801561035c573d6000803e3d6000fd5b505050506040513d601f19601f82011682018060405250810190610380919061421f565b90508034146103c4576040517f08c379a00000000000000000000000000000000000000000000000000000000081526004016103bb906142cf565b60405180910390fd5b60008060009054906101000a900473ffffffffffffffffffffffffffffffffffffffff1673ffffffffffffffffffffffffffffffffffffffff163460405161040b90614320565b60006040518083038185875af1925050503d8060008114610448576040519150601f19603f3d011682016040523d82523d6000602084013e61044d565b606091505b5050905080610491576040517f08c379a000000000000000000000000000000000000000000000000000000000815260040161048890614381565b60405180910390fd5b60005b84849050811015610ba85760008585838181106104b4576104b36143a1565b5b90506020028101906104c691906143df565b60000135036108495760086040518060e0016040528060075481526020018787858181106104f7576104f66143a1565b5b905060200281019061050991906143df565b80602001906105189190614407565b8080601f016020809104026020016040519081016040528093929190818152602001838380828437600081840152601f19601f820116905080830192505050505050508152602001878785818110610573576105726143a1565b5b905060200281019061058591906143df565b80604001906105949190614407565b8080601f016020809104026020016040519081016040528093929190818152602001838380828437600081840152601f19601f8201169050808301925050505050505081526020018787858181106105ef576105ee6143a1565b5b905060200281019061060191906143df565b80606001906106109190614407565b8080601f016020809104026020016040519081016040528093929190818152602001838380828437600081840152601f19601f82011690508083019250505050505050815260200187878581811061066b5761066a6143a1565b5b905060200281019061067d91906143df565b806080019061068c9190614407565b8080601f016020809104026020016040519081016040528093929190818152602001838380828437600081840152601f19601f8201169050808301925050505050505081526020018787858181106106e7576106e66143a1565b5b90506020028101906106f991906143df565b8060a001906107089190614407565b8080601f016020809104026020016040519081016040528093929190818152602001838380828437600081840152601f19601f82011690508083019250505050505050815260200142815250908060018154018082558091505060019003906000526020600020906007020160009091909190915060008201518160000155602082015181600101908161079c919061469b565b5060408201518160020190816107b2919061469b565b5060608201518160030190816107c8919061469b565b5060808201518160040190816107de919061469b565b5060a08201518160050190816107f4919061469b565b5060c0820151816006015550506001600880549050610813919061479c565b600960006007548152602001908152602001600020819055506007600081548092919061083f906147d0565b9190505550610b9b565b600060096000878785818110610862576108616143a1565b5b905060200281019061087491906143df565b60000135815260200190815260200160002054905060088054905081106108d0576040517f08c379a00000000000000000000000000000000000000000000000000000000081526004016108c790614864565b60405180910390fd5b6000600882815481106108e6576108e56143a1565b5b90600052602060002090600702019050600087878581811061090b5761090a6143a1565b5b905060200281019061091d91906143df565b806020019061092c9190614407565b9050111561097b57868684818110610947576109466143a1565b5b905060200281019061095991906143df565b80602001906109689190614407565b82600101918261097992919061488f565b505b60008787858181106109905761098f6143a1565b5b90506020028101906109a291906143df565b80604001906109b19190614407565b90501115610a00578686848181106109cc576109cb6143a1565b5b90506020028101906109de91906143df565b80604001906109ed9190614407565b8260020191826109fe92919061488f565b505b6000878785818110610a1557610a146143a1565b5b9050602002810190610a2791906143df565b8060600190610a369190614407565b90501115610a8557868684818110610a5157610a506143a1565b5b9050602002810190610a6391906143df565b8060600190610a729190614407565b826003019182610a8392919061488f565b505b6000878785818110610a9a57610a996143a1565b5b9050602002810190610aac91906143df565b8060800190610abb9190614407565b90501115610b0a57868684818110610ad657610ad56143a1565b5b9050602002810190610ae891906143df565b8060800190610af79190614407565b826004019182610b0892919061488f565b505b6000878785818110610b1f57610b1e6143a1565b5b9050602002810190610b3191906143df565b8060a00190610b409190614407565b90501115610b8f57868684818110610b5b57610b5a6143a1565b5b9050602002810190610b6d91906143df565b8060a00190610b7c9190614407565b826005019182610b8d92919061488f565b505b42816006018190555050505b8080600101915050610494565b5050505050565b610bb7613508565b60005b82829050811015610df8576000838383818110610bda57610bd96143a1565b5b9050602002013590506000600960008381526020019081526020016000205490506008805490508110610c42576040517f08c379a0000000000000000000000000000000000000000000000000000000008152600401610c3990614864565b60405180910390fd5b60006001600880549050610c56919061479c565b9050808214610d4657600060088281548110610c7557610c746143a1565b5b906000526020600020906007020190508060088481548110610c9a57610c996143a1565b5b90600052602060002090600702016000820154816000015560018201816001019081610cc69190614975565b5060028201816002019081610cdb9190614975565b5060038201816003019081610cf09190614975565b5060048201816004019081610d059190614975565b5060058201816005019081610d1a9190614975565b506006820154816006015590505082600960008360000154815260200190815260200160002081905550505b6008805480610d5857610d57614a5d565b5b6001900381819060005260206000209060070201600080820160009055600182016000610d8591906137cf565b600282016000610d9591906137cf565b600382016000610da591906137cf565b600482016000610db591906137cf565b600582016000610dc591906137cf565b60068201600090555050905560096000848152602001908152602001600020600090555050508080600101915050610bba565b505050565b6000610e0761358f565b905060008160000160089054906101000a900460ff1615905060008260000160009054906101000a900467ffffffffffffffff1690506000808267ffffffffffffffff16148015610e555750825b9050600060018367ffffffffffffffff16148015610e8a575060003073ffffffffffffffffffffffffffffffffffffffff163b145b905081158015610e98575080155b15610ecf576040517ff92ee8a900000000000000000000000000000000000000000000000000000000815260040160405180910390fd5b60018560000160006101000a81548167ffffffffffffffff021916908367ffffffffffffffff1602179055508315610f1f5760018560000160086101000a81548160ff0219169083151502179055505b610f28876135a3565b610f31876135b7565b600073ffffffffffffffffffffffffffffffffffffffff168673ffffffffffffffffffffffffffffffffffffffff1603610fa0576040517f08c379a0000000000000000000000000000000000000000000000000000000008152600401610f9790614ad8565b60405180910390fd5b856000806101000a81548173ffffffffffffffffffffffffffffffffffffffff021916908373ffffffffffffffffffffffffffffffffffffffff160217905550831561103c5760008560000160086101000a81548160ff0219169083151502179055507fc7f505b2f371ae2175ee4913f4499e1f2633a7b5936321eed1cdaeb6115181d260016040516110339190614b47565b60405180910390a15b50505050505050565b606061104f613508565b6008805480602002602001604051908101604052809291908181526020016000905b8282101561139157838290600052602060002090600702016040518060e0016040529081600082015481526020016001820180546110ae906144c8565b80601f01602080910402602001604051908101604052809291908181526020018280546110da906144c8565b80156111275780601f106110fc57610100808354040283529160200191611127565b820191906000526020600020905b81548152906001019060200180831161110a57829003601f168201915b50505050508152602001600282018054611140906144c8565b80601f016020809104026020016040519081016040528092919081815260200182805461116c906144c8565b80156111b95780601f1061118e576101008083540402835291602001916111b9565b820191906000526020600020905b81548152906001019060200180831161119c57829003601f168201915b505050505081526020016003820180546111d2906144c8565b80601f01602080910402602001604051908101604052809291908181526020018280546111fe906144c8565b801561124b5780601f106112205761010080835404028352916020019161124b565b820191906000526020600020905b81548152906001019060200180831161122e57829003601f168201915b50505050508152602001600482018054611264906144c8565b80601f0160208091040260200160405190810160405280929190818152602001828054611290906144c8565b80156112dd5780601f106112b2576101008083540402835291602001916112dd565b820191906000526020600020905b8154815290600101906020018083116112c057829003601f168201915b505050505081526020016005820180546112f6906144c8565b80601f0160208091040260200160405190810160405280929190818152602001828054611322906144c8565b801561136f5780601f106113445761010080835404028352916020019161136f565b820191906000526020600020905b81548152906001019060200180831161135257829003601f168201915b5050505050815260200160068201548152505081526020019060010190611071565b50505050905090565b6113a2613508565b60005b828290508110156116085760008383838181106113c5576113c46143a1565b5b905060200201359050600060066000838152602001908152602001600020549050600580549050811061142d576040517f08c379a000000000000000000000000000000000000000000000000000000000815260040161142490614bae565b60405180910390fd5b60006001600580549050611441919061479c565b9050808214611546576000600582815481106114605761145f6143a1565b5b906000526020600020906008020190508060058481548110611485576114846143a1565b5b906000526020600020906008020160008201548160000155600182018160010190816114b19190614975565b50600282018160020190816114c69190614975565b50600382018160030190816114db9190614975565b50600482018160040190816114f09190614975565b50600582018160050190816115059190614975565b506006820181600601908161151a9190614975565b506007820154816007015590505082600660008360000154815260200190815260200160002081905550505b600580548061155857611557614a5d565b5b600190038181906000526020600020906008020160008082016000905560018201600061158591906137cf565b60028201600061159591906137cf565b6003820160006115a591906137cf565b6004820160006115b591906137cf565b6005820160006115c591906137cf565b6006820160006115d591906137cf565b600782016000905550509055600660008481526020019081526020016000206000905550505080806001019150506113a5565b505050565b611615613508565b61161f60006135b7565b565b611629613508565b60008060009054906101000a900473ffffffffffffffffffffffffffffffffffffffff1673ffffffffffffffffffffffffffffffffffffffff1663f9c59d076040518163ffffffff1660e01b8152600401602060405180830381865afa158015611697573d6000803e3d6000fd5b505050506040513d601f19601f820116820180604052508101906116bb919061421f565b90508034146116ff576040517f08c379a00000000000000000000000000000000000000000000000000000000081526004016116f690614c1a565b60405180910390fd5b60008060009054906101000a900473ffffffffffffffffffffffffffffffffffffffff1673ffffffffffffffffffffffffffffffffffffffff163460405161174690614320565b60006040518083038185875af1925050503d8060008114611783576040519150601f19603f3d011682016040523d82523d6000602084013e611788565b606091505b50509050806117cc576040517f08c379a00000000000000000000000000000000000000000000000000000000081526004016117c390614381565b60405180910390fd5b60005b84849050811015611ffb5760008585838181106117ef576117ee6143a1565b5b90506020028101906118019190614c3a565b6000013503611c175760026040518061010001604052806001548152602001878785818110611833576118326143a1565b5b90506020028101906118459190614c3a565b80602001906118549190614407565b8080601f016020809104026020016040519081016040528093929190818152602001838380828437600081840152601f19601f8201169050808301925050505050505081526020018787858181106118af576118ae6143a1565b5b90506020028101906118c19190614c3a565b80604001906118d09190614407565b8080601f016020809104026020016040519081016040528093929190818152602001838380828437600081840152601f19601f82011690508083019250505050505050815260200187878581811061192b5761192a6143a1565b5b905060200281019061193d9190614c3a565b806060019061194c9190614407565b8080601f016020809104026020016040519081016040528093929190818152602001838380828437600081840152601f19601f8201169050808301925050505050505081526020018787858181106119a7576119a66143a1565b5b90506020028101906119b99190614c3a565b80608001906119c89190614407565b8080601f016020809104026020016040519081016040528093929190818152602001838380828437600081840152601f19601f820116905080830192505050505050508152602001878785818110611a2357611a226143a1565b5b9050602002810190611a359190614c3a565b8060a00190611a449190614407565b8080601f016020809104026020016040519081016040528093929190818152602001838380828437600081840152601f19601f820116905080830192505050505050508152602001878785818110611a9f57611a9e6143a1565b5b9050602002810190611ab19190614c3a565b8060c00190611ac09190614407565b8080601f016020809104026020016040519081016040528093929190818152602001838380828437600081840152601f19601f820116905080830192505050505050508152602001428152509080600181540180825580915050600190039060005260206000209060080201600090919091909150600082015181600001556020820151816001019081611b54919061469b565b506040820151816002019081611b6a919061469b565b506060820151816003019081611b80919061469b565b506080820151816004019081611b96919061469b565b5060a0820151816005019081611bac919061469b565b5060c0820151816006019081611bc2919061469b565b5060e0820151816007015550506001600280549050611be1919061479c565b6003600060015481526020019081526020016000208190555060016000815480929190611c0d906147d0565b9190505550611fee565b600060036000878785818110611c3057611c2f6143a1565b5b9050602002810190611c429190614c3a565b6000013581526020019081526020016000205490506002805490508110611c9e576040517f08c379a0000000000000000000000000000000000000000000000000000000008152600401611c9590614cae565b60405180910390fd5b600060028281548110611cb457611cb36143a1565b5b906000526020600020906008020190506000878785818110611cd957611cd86143a1565b5b9050602002810190611ceb9190614c3a565b8060200190611cfa9190614407565b90501115611d4957868684818110611d1557611d146143a1565b5b9050602002810190611d279190614c3a565b8060200190611d369190614407565b826001019182611d4792919061488f565b505b6000878785818110611d5e57611d5d6143a1565b5b9050602002810190611d709190614c3a565b8060400190611d7f9190614407565b90501115611dce57868684818110611d9a57611d996143a1565b5b9050602002810190611dac9190614c3a565b8060400190611dbb9190614407565b826002019182611dcc92919061488f565b505b6000878785818110611de357611de26143a1565b5b9050602002810190611df59190614c3a565b8060600190611e049190614407565b90501115611e5357868684818110611e1f57611e1e6143a1565b5b9050602002810190611e319190614c3a565b8060600190611e409190614407565b826003019182611e5192919061488f565b505b6000878785818110611e6857611e676143a1565b5b9050602002810190611e7a9190614c3a565b8060800190611e899190614407565b90501115611ed857868684818110611ea457611ea36143a1565b5b9050602002810190611eb69190614c3a565b8060800190611ec59190614407565b826004019182611ed692919061488f565b505b6000878785818110611eed57611eec6143a1565b5b9050602002810190611eff9190614c3a565b8060a00190611f0e9190614407565b90501115611f5d57868684818110611f2957611f286143a1565b5b9050602002810190611f3b9190614c3a565b8060a00190611f4a9190614407565b826005019182611f5b92919061488f565b505b6000878785818110611f7257611f716143a1565b5b9050602002810190611f849190614c3a565b8060c00190611f939190614407565b90501115611fe257868684818110611fae57611fad6143a1565b5b9050602002810190611fc09190614c3a565b8060c00190611fcf9190614407565b826006019182611fe092919061488f565b505b42816007018190555050505b80806001019150506117cf565b5050505050565b61200a613508565b60005b8282905081101561227057600083838381811061202d5761202c6143a1565b5b9050602002013590506000600360008381526020019081526020016000205490506002805490508110612095576040517f08c379a000000000000000000000000000000000000000000000000000000000815260040161208c90614cae565b60405180910390fd5b600060016002805490506120a9919061479c565b90508082146121ae576000600282815481106120c8576120c76143a1565b5b9060005260206000209060080201905080600284815481106120ed576120ec6143a1565b5b906000526020600020906008020160008201548160000155600182018160010190816121199190614975565b506002820181600201908161212e9190614975565b50600382018160030190816121439190614975565b50600482018160040190816121589190614975565b506005820181600501908161216d9190614975565b50600682018160060190816121829190614975565b506007820154816007015590505082600360008360000154815260200190815260200160002081905550505b60028054806121c0576121bf614a5d565b5b60019003818190600052602060002090600802016000808201600090556001820160006121ed91906137cf565b6002820160006121fd91906137cf565b60038201600061220d91906137cf565b60048201600061221d91906137cf565b60058201600061222d91906137cf565b60068201600061223d91906137cf565b6007820160009055505090556003600084815260200190815260200160002060009055505050808060010191505061200d565b505050565b60008061228061368e565b90508060000160009054906101000a900473ffffffffffffffffffffffffffffffffffffffff1691505090565b60606122b7613508565b6002805480602002602001604051908101604052809291908181526020016000905b8282101561268c57838290600052602060002090600802016040518061010001604052908160008201548152602001600182018054612317906144c8565b80601f0160208091040260200160405190810160405280929190818152602001828054612343906144c8565b80156123905780601f1061236557610100808354040283529160200191612390565b820191906000526020600020905b81548152906001019060200180831161237357829003601f168201915b505050505081526020016002820180546123a9906144c8565b80601f01602080910402602001604051908101604052809291908181526020018280546123d5906144c8565b80156124225780601f106123f757610100808354040283529160200191612422565b820191906000526020600020905b81548152906001019060200180831161240557829003601f168201915b5050505050815260200160038201805461243b906144c8565b80601f0160208091040260200160405190810160405280929190818152602001828054612467906144c8565b80156124b45780601f10612489576101008083540402835291602001916124b4565b820191906000526020600020905b81548152906001019060200180831161249757829003601f168201915b505050505081526020016004820180546124cd906144c8565b80601f01602080910402602001604051908101604052809291908181526020018280546124f9906144c8565b80156125465780601f1061251b57610100808354040283529160200191612546565b820191906000526020600020905b81548152906001019060200180831161252957829003601f168201915b5050505050815260200160058201805461255f906144c8565b80601f016020809104026020016040519081016040528092919081815260200182805461258b906144c8565b80156125d85780601f106125ad576101008083540402835291602001916125d8565b820191906000526020600020905b8154815290600101906020018083116125bb57829003601f168201915b505050505081526020016006820180546125f1906144c8565b80601f016020809104026020016040519081016040528092919081815260200182805461261d906144c8565b801561266a5780601f1061263f5761010080835404028352916020019161266a565b820191906000526020600020905b81548152906001019060200180831161264d57829003601f168201915b50505050508152602001600782015481525050815260200190600101906122d9565b50505050905090565b60008054906101000a900473ffffffffffffffffffffffffffffffffffffffff1681565b6126c1613508565b60008060009054906101000a900473ffffffffffffffffffffffffffffffffffffffff1673ffffffffffffffffffffffffffffffffffffffff1663f9c59d076040518163ffffffff1660e01b8152600401602060405180830381865afa15801561272f573d6000803e3d6000fd5b505050506040513d601f19601f82011682018060405250810190612753919061421f565b9050803414612797576040517f08c379a000000000000000000000000000000000000000000000000000000000815260040161278e90614d1a565b60405180910390fd5b60008060009054906101000a900473ffffffffffffffffffffffffffffffffffffffff1673ffffffffffffffffffffffffffffffffffffffff16346040516127de90614320565b60006040518083038185875af1925050503d806000811461281b576040519150601f19603f3d011682016040523d82523d6000602084013e612820565b606091505b5050905080612864576040517f08c379a000000000000000000000000000000000000000000000000000000000815260040161285b90614381565b60405180910390fd5b60005b84849050811015613093576000858583818110612887576128866143a1565b5b90506020028101906128999190614d3a565b6000013503612caf57600560405180610100016040528060045481526020018787858181106128cb576128ca6143a1565b5b90506020028101906128dd9190614d3a565b80602001906128ec9190614407565b8080601f016020809104026020016040519081016040528093929190818152602001838380828437600081840152601f19601f820116905080830192505050505050508152602001878785818110612947576129466143a1565b5b90506020028101906129599190614d3a565b80604001906129689190614407565b8080601f016020809104026020016040519081016040528093929190818152602001838380828437600081840152601f19601f8201169050808301925050505050505081526020018787858181106129c3576129c26143a1565b5b90506020028101906129d59190614d3a565b80606001906129e49190614407565b8080601f016020809104026020016040519081016040528093929190818152602001838380828437600081840152601f19601f820116905080830192505050505050508152602001878785818110612a3f57612a3e6143a1565b5b9050602002810190612a519190614d3a565b8060800190612a609190614407565b8080601f016020809104026020016040519081016040528093929190818152602001838380828437600081840152601f19601f820116905080830192505050505050508152602001878785818110612abb57612aba6143a1565b5b9050602002810190612acd9190614d3a565b8060a00190612adc9190614407565b8080601f016020809104026020016040519081016040528093929190818152602001838380828437600081840152601f19601f820116905080830192505050505050508152602001878785818110612b3757612b366143a1565b5b9050602002810190612b499190614d3a565b8060c00190612b589190614407565b8080601f016020809104026020016040519081016040528093929190818152602001838380828437600081840152601f19601f820116905080830192505050505050508152602001428152509080600181540180825580915050600190039060005260206000209060080201600090919091909150600082015181600001556020820151816001019081612bec919061469b565b506040820151816002019081612c02919061469b565b506060820151816003019081612c18919061469b565b506080820151816004019081612c2e919061469b565b5060a0820151816005019081612c44919061469b565b5060c0820151816006019081612c5a919061469b565b5060e0820151816007015550506001600580549050612c79919061479c565b6006600060045481526020019081526020016000208190555060046000815480929190612ca5906147d0565b9190505550613086565b600060066000878785818110612cc857612cc76143a1565b5b9050602002810190612cda9190614d3a565b6000013581526020019081526020016000205490506005805490508110612d36576040517f08c379a0000000000000000000000000000000000000000000000000000000008152600401612d2d90614bae565b60405180910390fd5b600060058281548110612d4c57612d4b6143a1565b5b906000526020600020906008020190506000878785818110612d7157612d706143a1565b5b9050602002810190612d839190614d3a565b8060200190612d929190614407565b90501115612de157868684818110612dad57612dac6143a1565b5b9050602002810190612dbf9190614d3a565b8060200190612dce9190614407565b826001019182612ddf92919061488f565b505b6000878785818110612df657612df56143a1565b5b9050602002810190612e089190614d3a565b8060400190612e179190614407565b90501115612e6657868684818110612e3257612e316143a1565b5b9050602002810190612e449190614d3a565b8060400190612e539190614407565b826002019182612e6492919061488f565b505b6000878785818110612e7b57612e7a6143a1565b5b9050602002810190612e8d9190614d3a565b8060600190612e9c9190614407565b90501115612eeb57868684818110612eb757612eb66143a1565b5b9050602002810190612ec99190614d3a565b8060600190612ed89190614407565b826003019182612ee992919061488f565b505b6000878785818110612f0057612eff6143a1565b5b9050602002810190612f129190614d3a565b8060800190612f219190614407565b90501115612f7057868684818110612f3c57612f3b6143a1565b5b9050602002810190612f4e9190614d3a565b8060800190612f5d9190614407565b826004019182612f6e92919061488f565b505b6000878785818110612f8557612f846143a1565b5b9050602002810190612f979190614d3a565b8060a00190612fa69190614407565b90501115612ff557868684818110612fc157612fc06143a1565b5b9050602002810190612fd39190614d3a565b8060a00190612fe29190614407565b826005019182612ff392919061488f565b505b600087878581811061300a576130096143a1565b5b905060200281019061301c9190614d3a565b8060c0019061302b9190614407565b9050111561307a57868684818110613046576130456143a1565b5b90506020028101906130589190614d3a565b8060c001906130679190614407565b82600601918261307892919061488f565b505b42816007018190555050505b8080600101915050612867565b5050505050565b6130a2613508565b600073ffffffffffffffffffffffffffffffffffffffff168173ffffffffffffffffffffffffffffffffffffffff16036131145760006040517f1e4fbdf700000000000000000000000000000000000000000000000000000000815260040161310b9190613d20565b60405180910390fd5b61311d816135b7565b50565b606061312a613508565b6005805480602002602001604051908101604052809291908181526020016000905b828210156134ff5783829060005260206000209060080201604051806101000160405290816000820154815260200160018201805461318a906144c8565b80601f01602080910402602001604051908101604052809291908181526020018280546131b6906144c8565b80156132035780601f106131d857610100808354040283529160200191613203565b820191906000526020600020905b8154815290600101906020018083116131e657829003601f168201915b5050505050815260200160028201805461321c906144c8565b80601f0160208091040260200160405190810160405280929190818152602001828054613248906144c8565b80156132955780601f1061326a57610100808354040283529160200191613295565b820191906000526020600020905b81548152906001019060200180831161327857829003601f168201915b505050505081526020016003820180546132ae906144c8565b80601f01602080910402602001604051908101604052809291908181526020018280546132da906144c8565b80156133275780601f106132fc57610100808354040283529160200191613327565b820191906000526020600020905b81548152906001019060200180831161330a57829003601f168201915b50505050508152602001600482018054613340906144c8565b80601f016020809104026020016040519081016040528092919081815260200182805461336c906144c8565b80156133b95780601f1061338e576101008083540402835291602001916133b9565b820191906000526020600020905b81548152906001019060200180831161339c57829003601f168201915b505050505081526020016005820180546133d2906144c8565b80601f01602080910402602001604051908101604052809291908181526020018280546133fe906144c8565b801561344b5780601f106134205761010080835404028352916020019161344b565b820191906000526020600020905b81548152906001019060200180831161342e57829003601f168201915b50505050508152602001600682018054613464906144c8565b80601f0160208091040260200160405190810160405280929190818152602001828054613490906144c8565b80156134dd5780601f106134b2576101008083540402835291602001916134dd565b820191906000526020600020905b8154815290600101906020018083116134c057829003601f168201915b505050505081526020016007820154815250508152602001906001019061314c565b50505050905090565b6135106136b6565b73ffffffffffffffffffffffffffffffffffffffff1661352e612275565b73ffffffffffffffffffffffffffffffffffffffff161461358d576135516136b6565b6040517f118cdaa70000000000000000000000000000000000000000000000000000000081526004016135849190613d20565b60405180910390fd5b565b60008061359a6136be565b90508091505090565b6135ab6136e9565b6135b481613729565b50565b60006135c161368e565b905060008160000160009054906101000a900473ffffffffffffffffffffffffffffffffffffffff169050828260000160006101000a81548173ffffffffffffffffffffffffffffffffffffffff021916908373ffffffffffffffffffffffffffffffffffffffff1602179055508273ffffffffffffffffffffffffffffffffffffffff168173ffffffffffffffffffffffffffffffffffffffff167f8be0079c531659141344cd1fd0a4f28419497f9722a3daafe3b4186f6b6457e060405160405180910390a3505050565b60007f9016d09d72d40fdae2fd8ceac6b6234c7706214fd39c1cd1e609a0528c199300905090565b600033905090565b60007ff0c57e16840df040f15088dc2f81fe391c3923bec73e23a9662efc9c229c6a0060001b905090565b6136f16137af565b613727576040517fd7e6bcf800000000000000000000000000000000000000000000000000000000815260040160405180910390fd5b565b6137316136e9565b600073ffffffffffffffffffffffffffffffffffffffff168173ffffffffffffffffffffffffffffffffffffffff16036137a35760006040517f1e4fbdf700000000000000000000000000000000000000000000000000000000815260040161379a9190613d20565b60405180910390fd5b6137ac816135b7565b50565b60006137b961358f565b60000160089054906101000a900460ff16905090565b5080546137db906144c8565b6000825580601f106137ed575061380c565b601f01602090049060005260206000209081019061380b919061380f565b5b50565b5b80821115613828576000816000905550600101613810565b5090565b600080fd5b600080fd5b600080fd5b600080fd5b600080fd5b60008083601f84011261385b5761385a613836565b5b8235905067ffffffffffffffff8111156138785761387761383b565b5b60208301915083602082028301111561389457613893613840565b5b9250929050565b600080602083850312156138b2576138b161382c565b5b600083013567ffffffffffffffff8111156138d0576138cf613831565b5b6138dc85828601613845565b92509250509250929050565b60008083601f8401126138fe576138fd613836565b5b8235905067ffffffffffffffff81111561391b5761391a61383b565b5b60208301915083602082028301111561393757613936613840565b5b9250929050565b600080602083850312156139555761395461382c565b5b600083013567ffffffffffffffff81111561397357613972613831565b5b61397f858286016138e8565b92509250509250929050565b600073ffffffffffffffffffffffffffffffffffffffff82169050919050565b60006139b68261398b565b9050919050565b6139c6816139ab565b81146139d157600080fd5b50565b6000813590506139e3816139bd565b92915050565b60008060408385031215613a00576139ff61382c565b5b6000613a0e858286016139d4565b9250506020613a1f858286016139d4565b9150509250929050565b600081519050919050565b600082825260208201905092915050565b6000819050602082019050919050565b6000819050919050565b613a6881613a55565b82525050565b600081519050919050565b600082825260208201905092915050565b60005b83811015613aa8578082015181840152602081019050613a8d565b60008484015250505050565b6000601f19601f8301169050919050565b6000613ad082613a6e565b613ada8185613a79565b9350613aea818560208601613a8a565b613af381613ab4565b840191505092915050565b600060e083016000830151613b166000860182613a5f565b5060208301518482036020860152613b2e8282613ac5565b91505060408301518482036040860152613b488282613ac5565b91505060608301518482036060860152613b628282613ac5565b91505060808301518482036080860152613b7c8282613ac5565b91505060a083015184820360a0860152613b968282613ac5565b91505060c0830151613bab60c0860182613a5f565b508091505092915050565b6000613bc28383613afe565b905092915050565b6000602082019050919050565b6000613be282613a29565b613bec8185613a34565b935083602082028501613bfe85613a45565b8060005b85811015613c3a5784840389528151613c1b8582613bb6565b9450613c2683613bca565b925060208a01995050600181019050613c02565b50829750879550505050505092915050565b60006020820190508181036000830152613c668184613bd7565b905092915050565b60008083601f840112613c8457613c83613836565b5b8235905067ffffffffffffffff811115613ca157613ca061383b565b5b602083019150836020820283011115613cbd57613cbc613840565b5b9250929050565b60008060208385031215613cdb57613cda61382c565b5b600083013567ffffffffffffffff811115613cf957613cf8613831565b5b613d0585828601613c6e565b92509250509250929050565b613d1a816139ab565b82525050565b6000602082019050613d356000830184613d11565b92915050565b600081519050919050565b600082825260208201905092915050565b6000819050602082019050919050565b600061010083016000830151613d806000860182613a5f565b5060208301518482036020860152613d988282613ac5565b91505060408301518482036040860152613db28282613ac5565b91505060608301518482036060860152613dcc8282613ac5565b91505060808301518482036080860152613de68282613ac5565b91505060a083015184820360a0860152613e008282613ac5565b91505060c083015184820360c0860152613e1a8282613ac5565b91505060e0830151613e2f60e0860182613a5f565b508091505092915050565b6000613e468383613d67565b905092915050565b6000602082019050919050565b6000613e6682613d3b565b613e708185613d46565b935083602082028501613e8285613d57565b8060005b85811015613ebe5784840389528151613e9f8582613e3a565b9450613eaa83613e4e565b925060208a01995050600181019050613e86565b50829750879550505050505092915050565b60006020820190508181036000830152613eea8184613e5b565b905092915050565b6000819050919050565b6000613f17613f12613f0d8461398b565b613ef2565b61398b565b9050919050565b6000613f2982613efc565b9050919050565b6000613f3b82613f1e565b9050919050565b613f4b81613f30565b82525050565b6000602082019050613f666000830184613f42565b92915050565b60008083601f840112613f8257613f81613836565b5b8235905067ffffffffffffffff811115613f9f57613f9e61383b565b5b602083019150836020820283011115613fbb57613fba613840565b5b9250929050565b60008060208385031215613fd957613fd861382c565b5b600083013567ffffffffffffffff811115613ff757613ff6613831565b5b61400385828601613f6c565b92509250509250929050565b6000602082840312156140255761402461382c565b5b6000614033848285016139d4565b91505092915050565b600081519050919050565b600082825260208201905092915050565b6000819050602082019050919050565b6000610100830160008301516140816000860182613a5f565b50602083015184820360208601526140998282613ac5565b915050604083015184820360408601526140b38282613ac5565b915050606083015184820360608601526140cd8282613ac5565b915050608083015184820360808601526140e78282613ac5565b91505060a083015184820360a08601526141018282613ac5565b91505060c083015184820360c086015261411b8282613ac5565b91505060e083015161413060e0860182613a5f565b508091505092915050565b60006141478383614068565b905092915050565b6000602082019050919050565b60006141678261403c565b6141718185614047565b93508360208202850161418385614058565b8060005b858110156141bf57848403895281516141a0858261413b565b94506141ab8361414f565b925060208a01995050600181019050614187565b50829750879550505050505092915050565b600060208201905081810360008301526141eb818461415c565b905092915050565b6141fc81613a55565b811461420757600080fd5b50565b600081519050614219816141f3565b92915050565b6000602082840312156142355761423461382c565b5b60006142438482850161420a565b91505092915050565b600082825260208201905092915050565b7f57726f6e6720636f737420666f72207570736572744c6567616c446f63756d6560008201527f6e74730000000000000000000000000000000000000000000000000000000000602082015250565b60006142b960238361424c565b91506142c48261425d565b604082019050919050565b600060208201905081810360008301526142e8816142ac565b9050919050565b600081905092915050565b50565b600061430a6000836142ef565b9150614315826142fa565b600082019050919050565b600061432b826142fd565b9150819050919050565b7f466f7277617264696e6720666565206661696c65640000000000000000000000600082015250565b600061436b60158361424c565b915061437682614335565b602082019050919050565b6000602082019050818103600083015261439a8161435e565b9050919050565b7f4e487b7100000000000000000000000000000000000000000000000000000000600052603260045260246000fd5b600080fd5b600080fd5b600080fd5b60008235600160c0038336030381126143fb576143fa6143d0565b5b80830191505092915050565b60008083356001602003843603038112614424576144236143d0565b5b80840192508235915067ffffffffffffffff821115614446576144456143d5565b5b602083019250600182023603831315614462576144616143da565b5b509250929050565b7f4e487b7100000000000000000000000000000000000000000000000000000000600052604160045260246000fd5b7f4e487b7100000000000000000000000000000000000000000000000000000000600052602260045260246000fd5b600060028204905060018216806144e057607f821691505b6020821081036144f3576144f2614499565b5b50919050565b60008190508160005260206000209050919050565b60006020601f8301049050919050565b600082821b905092915050565b60006008830261455b7fffffffffffffffffffffffffffffffffffffffffffffffffffffffffffffffff8261451e565b614565868361451e565b95508019841693508086168417925050509392505050565b600061459861459361458e84613a55565b613ef2565b613a55565b9050919050565b6000819050919050565b6145b28361457d565b6145c66145be8261459f565b84845461452b565b825550505050565b600090565b6145db6145ce565b6145e68184846145a9565b505050565b5b8181101561460a576145ff6000826145d3565b6001810190506145ec565b5050565b601f82111561464f57614620816144f9565b6146298461450e565b81016020851015614638578190505b61464c6146448561450e565b8301826145eb565b50505b505050565b600082821c905092915050565b600061467260001984600802614654565b1980831691505092915050565b600061468b8383614661565b9150826002028217905092915050565b6146a482613a6e565b67ffffffffffffffff8111156146bd576146bc61446a565b5b6146c782546144c8565b6146d282828561460e565b600060209050601f83116001811461470557600084156146f3578287015190505b6146fd858261467f565b865550614765565b601f198416614713866144f9565b60005b8281101561473b57848901518255600182019150602085019450602081019050614716565b868310156147585784890151614754601f891682614661565b8355505b6001600288020188555050505b505050505050565b7f4e487b7100000000000000000000000000000000000000000000000000000000600052601160045260246000fd5b60006147a782613a55565b91506147b283613a55565b92508282039050818111156147ca576147c961476d565b5b92915050565b60006147db82613a55565b91507fffffffffffffffffffffffffffffffffffffffffffffffffffffffffffffffff820361480d5761480c61476d565b5b600182019050919050565b7f496e76616c6964206c6567616c20646f63756d656e7420494400000000000000600082015250565b600061484e60198361424c565b915061485982614818565b602082019050919050565b6000602082019050818103600083015261487d81614841565b9050919050565b600082905092915050565b6148998383614884565b67ffffffffffffffff8111156148b2576148b161446a565b5b6148bc82546144c8565b6148c782828561460e565b6000601f8311600181146148f657600084156148e4578287013590505b6148ee858261467f565b865550614956565b601f198416614904866144f9565b60005b8281101561492c57848901358255600182019150602085019450602081019050614907565b868310156149495784890135614945601f891682614661565b8355505b6001600288020188555050505b50505050505050565b60008154905061496e816144c8565b9050919050565b818103614983575050614a5b565b61498c8261495f565b67ffffffffffffffff8111156149a5576149a461446a565b5b6149af82546144c8565b6149ba82828561460e565b6000601f8311600181146149e957600084156149d7578287015490505b6149e1858261467f565b865550614a54565b601f1984166149f7876144f9565b9650614a02866144f9565b60005b82811015614a2a57848901548255600182019150600185019450602081019050614a05565b86831015614a475784890154614a43601f891682614661565b8355505b6001600288020188555050505b5050505050505b565b7f4e487b7100000000000000000000000000000000000000000000000000000000600052603160045260246000fd5b7f496e76616c696420436f73744d616e6167657200000000000000000000000000600082015250565b6000614ac260138361424c565b9150614acd82614a8c565b602082019050919050565b60006020820190508181036000830152614af181614ab5565b9050919050565b6000819050919050565b600067ffffffffffffffff82169050919050565b6000614b31614b2c614b2784614af8565b613ef2565b614b02565b9050919050565b614b4181614b16565b82525050565b6000602082019050614b5c6000830184614b38565b92915050565b7f496e76616c6964206964656e7469747920494400000000000000000000000000600082015250565b6000614b9860138361424c565b9150614ba382614b62565b602082019050919050565b60006020820190508181036000830152614bc781614b8b565b9050919050565b7f57726f6e6720636f737420666f7220757073657274496e737572616e63657300600082015250565b6000614c04601f8361424c565b9150614c0f82614bce565b602082019050919050565b60006020820190508181036000830152614c3381614bf7565b9050919050565b60008235600160e003833603038112614c5657614c556143d0565b5b80830191505092915050565b7f496e76616c696420696e737572616e6365204944000000000000000000000000600082015250565b6000614c9860148361424c565b9150614ca382614c62565b602082019050919050565b60006020820190508181036000830152614cc781614c8b565b9050919050565b7f57726f6e6720636f737420666f72207570736572744964656e74697469657300600082015250565b6000614d04601f8361424c565b9150614d0f82614cce565b602082019050919050565b60006020820190508181036000830152614d3381614cf7565b9050919050565b60008235600160e003833603038112614d5657614d556143d0565b5b8083019150509291505056fea2646970667358221220f1c8c6f7f76bedd1e93087f5af71f15aa213749abe09730bd1849456a48674d364736f6c634300081c0033","opcodes":"PUSH1 0x80 PUSH1 0x40 MSTORE PUSH1 0x1 DUP1 SSTORE PUSH1 0x1 PUSH1 0x4 SSTORE PUSH1 0x1 PUSH1 0x7 SSTORE CALLVALUE DUP1 ISZERO PUSH1 0x1D JUMPI PUSH1 0x0 DUP1 REVERT JUMPDEST POP PUSH2 0x4D98 DUP1 PUSH2 0x2D PUSH1 0x0 CODECOPY PUSH1 0x0 RETURN INVALID PUSH1 0x80 PUSH1 0x40 MSTORE PUSH1 0x4 CALLDATASIZE LT PUSH2 0xE1 JUMPI PUSH1 0x0 CALLDATALOAD PUSH1 0xE0 SHR DUP1 PUSH4 0x7D651B45 GT PUSH2 0x7F JUMPI DUP1 PUSH4 0xCECD949A GT PUSH2 0x59 JUMPI DUP1 PUSH4 0xCECD949A EQ PUSH2 0x24B JUMPI DUP1 PUSH4 0xEB420024 EQ PUSH2 0x276 JUMPI DUP1 PUSH4 0xF2FDE38B EQ PUSH2 0x292 JUMPI DUP1 PUSH4 0xF9084D69 EQ PUSH2 0x2BB JUMPI PUSH2 0xE2 JUMP JUMPDEST DUP1 PUSH4 0x7D651B45 EQ PUSH2 0x1CC JUMPI DUP1 PUSH4 0x8DA5CB5B EQ PUSH2 0x1F5 JUMPI DUP1 PUSH4 0xA8A91CE6 EQ PUSH2 0x220 JUMPI PUSH2 0xE2 JUMP JUMPDEST DUP1 PUSH4 0x51521679 GT PUSH2 0xBB JUMPI DUP1 PUSH4 0x51521679 EQ PUSH2 0x145 JUMPI DUP1 PUSH4 0x5886ED5E EQ PUSH2 0x170 JUMPI DUP1 PUSH4 0x715018A6 EQ PUSH2 0x199 JUMPI DUP1 PUSH4 0x7D588E84 EQ PUSH2 0x1B0 JUMPI PUSH2 0xE2 JUMP JUMPDEST DUP1 PUSH4 0x2687499B EQ PUSH2 0xE4 JUMPI DUP1 PUSH4 0x3CDAFFF2 EQ PUSH2 0x100 JUMPI DUP1 PUSH4 0x485CC955 EQ PUSH2 0x129 JUMPI PUSH2 0xE2 JUMP JUMPDEST JUMPDEST STOP JUMPDEST PUSH2 0xFE PUSH1 0x4 DUP1 CALLDATASIZE SUB DUP2 ADD SWAP1 PUSH2 0xF9 SWAP2 SWAP1 PUSH2 0x389B JUMP JUMPDEST PUSH2 0x2E6 JUMP JUMPDEST STOP JUMPDEST CALLVALUE DUP1 ISZERO PUSH2 0x10C JUMPI PUSH1 0x0 DUP1 REVERT JUMPDEST POP PUSH2 0x127 PUSH1 0x4 DUP1 CALLDATASIZE SUB DUP2 ADD SWAP1 PUSH2 0x122 SWAP2 SWAP1 PUSH2 0x393E JUMP JUMPDEST PUSH2 0xBAF JUMP JUMPDEST STOP JUMPDEST PUSH2 0x143 PUSH1 0x4 DUP1 CALLDATASIZE SUB DUP2 ADD SWAP1 PUSH2 0x13E SWAP2 SWAP1 PUSH2 0x39E9 JUMP JUMPDEST PUSH2 0xDFD JUMP JUMPDEST STOP JUMPDEST CALLVALUE DUP1 ISZERO PUSH2 0x151 JUMPI PUSH1 0x0 DUP1 REVERT JUMPDEST POP PUSH2 0x15A PUSH2 0x1045 JUMP JUMPDEST PUSH1 0x40 MLOAD PUSH2 0x167 SWAP2 SWAP1 PUSH2 0x3C4C JUMP JUMPDEST PUSH1 0x40 MLOAD DUP1 SWAP2 SUB SWAP1 RETURN JUMPDEST CALLVALUE DUP1 ISZERO PUSH2 0x17C JUMPI PUSH1 0x0 DUP1 REVERT JUMPDEST POP PUSH2 0x197 PUSH1 0x4 DUP1 CALLDATASIZE SUB DUP2 ADD SWAP1 PUSH2 0x192 SWAP2 SWAP1 PUSH2 0x393E JUMP JUMPDEST PUSH2 0x139A JUMP JUMPDEST STOP JUMPDEST CALLVALUE DUP1 ISZERO PUSH2 0x1A5 JUMPI PUSH1 0x0 DUP1 REVERT JUMPDEST POP PUSH2 0x1AE PUSH2 0x160D JUMP JUMPDEST STOP JUMPDEST PUSH2 0x1CA PUSH1 0x4 DUP1 CALLDATASIZE SUB DUP2 ADD SWAP1 PUSH2 0x1C5 SWAP2 SWAP1 PUSH2 0x3CC4 JUMP JUMPDEST PUSH2 0x1621 JUMP JUMPDEST STOP JUMPDEST CALLVALUE DUP1 ISZERO PUSH2 0x1D8 JUMPI PUSH1 0x0 DUP1 REVERT JUMPDEST POP PUSH2 0x1F3 PUSH1 0x4 DUP1 CALLDATASIZE SUB DUP2 ADD SWAP1 PUSH2 0x1EE SWAP2 SWAP1 PUSH2 0x393E JUMP JUMPDEST PUSH2 0x2002 JUMP JUMPDEST STOP JUMPDEST CALLVALUE DUP1 ISZERO PUSH2 0x201 JUMPI PUSH1 0x0 DUP1 REVERT JUMPDEST POP PUSH2 0x20A PUSH2 0x2275 JUMP JUMPDEST PUSH1 0x40 MLOAD PUSH2 0x217 SWAP2 SWAP1 PUSH2 0x3D20 JUMP JUMPDEST PUSH1 0x40 MLOAD DUP1 SWAP2 SUB SWAP1 RETURN JUMPDEST CALLVALUE DUP1 ISZERO PUSH2 0x22C JUMPI PUSH1 0x0 DUP1 REVERT JUMPDEST POP PUSH2 0x235 PUSH2 0x22AD JUMP JUMPDEST PUSH1 0x40 MLOAD PUSH2 0x242 SWAP2 SWAP1 PUSH2 0x3ED0 JUMP JUMPDEST PUSH1 0x40 MLOAD DUP1 SWAP2 SUB SWAP1 RETURN JUMPDEST CALLVALUE DUP1 ISZERO PUSH2 0x257 JUMPI PUSH1 0x0 DUP1 REVERT JUMPDEST POP PUSH2 0x260 PUSH2 0x2695 JUMP JUMPDEST PUSH1 0x40 MLOAD PUSH2 0x26D SWAP2 SWAP1 PUSH2 0x3F51 JUMP JUMPDEST PUSH1 0x40 MLOAD DUP1 SWAP2 SUB SWAP1 RETURN JUMPDEST PUSH2 0x290 PUSH1 0x4 DUP1 CALLDATASIZE SUB DUP2 ADD SWAP1 PUSH2 0x28B SWAP2 SWAP1 PUSH2 0x3FC2 JUMP JUMPDEST PUSH2 0x26B9 JUMP JUMPDEST STOP JUMPDEST CALLVALUE DUP1 ISZERO PUSH2 0x29E JUMPI PUSH1 0x0 DUP1 REVERT JUMPDEST POP PUSH2 0x2B9 PUSH1 0x4 DUP1 CALLDATASIZE SUB DUP2 ADD SWAP1 PUSH2 0x2B4 SWAP2 SWAP1 PUSH2 0x400F JUMP JUMPDEST PUSH2 0x309A JUMP JUMPDEST STOP JUMPDEST CALLVALUE DUP1 ISZERO PUSH2 0x2C7 JUMPI PUSH1 0x0 DUP1 REVERT JUMPDEST POP PUSH2 0x2D0 PUSH2 0x3120 JUMP JUMPDEST PUSH1 0x40 MLOAD PUSH2 0x2DD SWAP2 SWAP1 PUSH2 0x41D1 JUMP JUMPDEST PUSH1 0x40 MLOAD DUP1 SWAP2 SUB SWAP1 RETURN JUMPDEST PUSH2 0x2EE PUSH2 0x3508 JUMP JUMPDEST PUSH1 0x0 DUP1 PUSH1 0x0 SWAP1 SLOAD SWAP1 PUSH2 0x100 EXP SWAP1 DIV PUSH20 0xFFFFFFFFFFFFFFFFFFFFFFFFFFFFFFFFFFFFFFFF AND PUSH20 0xFFFFFFFFFFFFFFFFFFFFFFFFFFFFFFFFFFFFFFFF AND PUSH4 0xF9C59D07 PUSH1 0x40 MLOAD DUP2 PUSH4 0xFFFFFFFF AND PUSH1 0xE0 SHL DUP2 MSTORE PUSH1 0x4 ADD PUSH1 0x20 PUSH1 0x40 MLOAD DUP1 DUP4 SUB DUP2 DUP7 GAS STATICCALL ISZERO DUP1 ISZERO PUSH2 0x35C JUMPI RETURNDATASIZE PUSH1 0x0 DUP1 RETURNDATACOPY RETURNDATASIZE PUSH1 0x0 REVERT JUMPDEST POP POP POP POP PUSH1 0x40 MLOAD RETURNDATASIZE PUSH1 0x1F NOT PUSH1 0x1F DUP3 ADD AND DUP3 ADD DUP1 PUSH1 0x40 MSTORE POP DUP2 ADD SWAP1 PUSH2 0x380 SWAP2 SWAP1 PUSH2 0x421F JUMP JUMPDEST SWAP1 POP DUP1 CALLVALUE EQ PUSH2 0x3C4 JUMPI PUSH1 0x40 MLOAD PUSH32 0x8C379A000000000000000000000000000000000000000000000000000000000 DUP2 MSTORE PUSH1 0x4 ADD PUSH2 0x3BB SWAP1 PUSH2 0x42CF JUMP JUMPDEST PUSH1 0x40 MLOAD DUP1 SWAP2 SUB SWAP1 REVERT JUMPDEST PUSH1 0x0 DUP1 PUSH1 0x0 SWAP1 SLOAD SWAP1 PUSH2 0x100 EXP SWAP1 DIV PUSH20 0xFFFFFFFFFFFFFFFFFFFFFFFFFFFFFFFFFFFFFFFF AND PUSH20 0xFFFFFFFFFFFFFFFFFFFFFFFFFFFFFFFFFFFFFFFF AND CALLVALUE PUSH1 0x40 MLOAD PUSH2 0x40B SWAP1 PUSH2 0x4320 JUMP JUMPDEST PUSH1 0x0 PUSH1 0x40 MLOAD DUP1 DUP4 SUB DUP2 DUP6 DUP8 GAS CALL SWAP3 POP POP POP RETURNDATASIZE DUP1 PUSH1 0x0 DUP2 EQ PUSH2 0x448 JUMPI PUSH1 0x40 MLOAD SWAP2 POP PUSH1 0x1F NOT PUSH1 0x3F RETURNDATASIZE ADD AND DUP3 ADD PUSH1 0x40 MSTORE RETURNDATASIZE DUP3 MSTORE RETURNDATASIZE PUSH1 0x0 PUSH1 0x20 DUP5 ADD RETURNDATACOPY PUSH2 0x44D JUMP JUMPDEST PUSH1 0x60 SWAP2 POP JUMPDEST POP POP SWAP1 POP DUP1 PUSH2 0x491 JUMPI PUSH1 0x40 MLOAD PUSH32 0x8C379A000000000000000000000000000000000000000000000000000000000 DUP2 MSTORE PUSH1 0x4 ADD PUSH2 0x488 SWAP1 PUSH2 0x4381 JUMP JUMPDEST PUSH1 0x40 MLOAD DUP1 SWAP2 SUB SWAP1 REVERT JUMPDEST PUSH1 0x0 JUMPDEST DUP5 DUP5 SWAP1 POP DUP2 LT ISZERO PUSH2 0xBA8 JUMPI PUSH1 0x0 DUP6 DUP6 DUP4 DUP2 DUP2 LT PUSH2 0x4B4 JUMPI PUSH2 0x4B3 PUSH2 0x43A1 JUMP JUMPDEST JUMPDEST SWAP1 POP PUSH1 0x20 MUL DUP2 ADD SWAP1 PUSH2 0x4C6 SWAP2 SWAP1 PUSH2 0x43DF JUMP JUMPDEST PUSH1 0x0 ADD CALLDATALOAD SUB PUSH2 0x849 JUMPI PUSH1 0x8 PUSH1 0x40 MLOAD DUP1 PUSH1 0xE0 ADD PUSH1 0x40 MSTORE DUP1 PUSH1 0x7 SLOAD DUP2 MSTORE PUSH1 0x20 ADD DUP8 DUP8 DUP6 DUP2 DUP2 LT PUSH2 0x4F7 JUMPI PUSH2 0x4F6 PUSH2 0x43A1 JUMP JUMPDEST JUMPDEST SWAP1 POP PUSH1 0x20 MUL DUP2 ADD SWAP1 PUSH2 0x509 SWAP2 SWAP1 PUSH2 0x43DF JUMP JUMPDEST DUP1 PUSH1 0x20 ADD SWAP1 PUSH2 0x518 SWAP2 SWAP1 PUSH2 0x4407 JUMP JUMPDEST DUP1 DUP1 PUSH1 0x1F ADD PUSH1 0x20 DUP1 SWAP2 DIV MUL PUSH1 0x20 ADD PUSH1 0x40 MLOAD SWAP1 DUP2 ADD PUSH1 0x40 MSTORE DUP1 SWAP4 SWAP3 SWAP2 SWAP1 DUP2 DUP2 MSTORE PUSH1 0x20 ADD DUP4 DUP4 DUP1 DUP3 DUP5 CALLDATACOPY PUSH1 0x0 DUP2 DUP5 ADD MSTORE PUSH1 0x1F NOT PUSH1 0x1F DUP3 ADD AND SWAP1 POP DUP1 DUP4 ADD SWAP3 POP POP POP POP POP POP POP DUP2 MSTORE PUSH1 0x20 ADD DUP8 DUP8 DUP6 DUP2 DUP2 LT PUSH2 0x573 JUMPI PUSH2 0x572 PUSH2 0x43A1 JUMP JUMPDEST JUMPDEST SWAP1 POP PUSH1 0x20 MUL DUP2 ADD SWAP1 PUSH2 0x585 SWAP2 SWAP1 PUSH2 0x43DF JUMP JUMPDEST DUP1 PUSH1 0x40 ADD SWAP1 PUSH2 0x594 SWAP2 SWAP1 PUSH2 0x4407 JUMP JUMPDEST DUP1 DUP1 PUSH1 0x1F ADD PUSH1 0x20 DUP1 SWAP2 DIV MUL PUSH1 0x20 ADD PUSH1 0x40 MLOAD SWAP1 DUP2 ADD PUSH1 0x40 MSTORE DUP1 SWAP4 SWAP3 SWAP2 SWAP1 DUP2 DUP2 MSTORE PUSH1 0x20 ADD DUP4 DUP4 DUP1 DUP3 DUP5 CALLDATACOPY PUSH1 0x0 DUP2 DUP5 ADD MSTORE PUSH1 0x1F NOT PUSH1 0x1F DUP3 ADD AND SWAP1 POP DUP1 DUP4 ADD SWAP3 POP POP POP POP POP POP POP DUP2 MSTORE PUSH1 0x20 ADD DUP8 DUP8 DUP6 DUP2 DUP2 LT PUSH2 0x5EF JUMPI PUSH2 0x5EE PUSH2 0x43A1 JUMP JUMPDEST JUMPDEST SWAP1 POP PUSH1 0x20 MUL DUP2 ADD SWAP1 PUSH2 0x601 SWAP2 SWAP1 PUSH2 0x43DF JUMP JUMPDEST DUP1 PUSH1 0x60 ADD SWAP1 PUSH2 0x610 SWAP2 SWAP1 PUSH2 0x4407 JUMP JUMPDEST DUP1 DUP1 PUSH1 0x1F ADD PUSH1 0x20 DUP1 SWAP2 DIV MUL PUSH1 0x20 ADD PUSH1 0x40 MLOAD SWAP1 DUP2 ADD PUSH1 0x40 MSTORE DUP1 SWAP4 SWAP3 SWAP2 SWAP1 DUP2 DUP2 MSTORE PUSH1 0x20 ADD DUP4 DUP4 DUP1 DUP3 DUP5 CALLDATACOPY PUSH1 0x0 DUP2 DUP5 ADD MSTORE PUSH1 0x1F NOT PUSH1 0x1F DUP3 ADD AND SWAP1 POP DUP1 DUP4 ADD SWAP3 POP POP POP POP POP POP POP DUP2 MSTORE PUSH1 0x20 ADD DUP8 DUP8 DUP6 DUP2 DUP2 LT PUSH2 0x66B JUMPI PUSH2 0x66A PUSH2 0x43A1 JUMP JUMPDEST JUMPDEST SWAP1 POP PUSH1 0x20 MUL DUP2 ADD SWAP1 PUSH2 0x67D SWAP2 SWAP1 PUSH2 0x43DF JUMP JUMPDEST DUP1 PUSH1 0x80 ADD SWAP1 PUSH2 0x68C SWAP2 SWAP1 PUSH2 0x4407 JUMP JUMPDEST DUP1 DUP1 PUSH1 0x1F ADD PUSH1 0x20 DUP1 SWAP2 DIV MUL PUSH1 0x20 ADD PUSH1 0x40 MLOAD SWAP1 DUP2 ADD PUSH1 0x40 MSTORE DUP1 SWAP4 SWAP3 SWAP2 SWAP1 DUP2 DUP2 MSTORE PUSH1 0x20 ADD DUP4 DUP4 DUP1 DUP3 DUP5 CALLDATACOPY PUSH1 0x0 DUP2 DUP5 ADD MSTORE PUSH1 0x1F NOT PUSH1 0x1F DUP3 ADD AND SWAP1 POP DUP1 DUP4 ADD SWAP3 POP POP POP POP POP POP POP DUP2 MSTORE PUSH1 0x20 ADD DUP8 DUP8 DUP6 DUP2 DUP2 LT PUSH2 0x6E7 JUMPI PUSH2 0x6E6 PUSH2 0x43A1 JUMP JUMPDEST JUMPDEST SWAP1 POP PUSH1 0x20 MUL DUP2 ADD SWAP1 PUSH2 0x6F9 SWAP2 SWAP1 PUSH2 0x43DF JUMP JUMPDEST DUP1 PUSH1 0xA0 ADD SWAP1 PUSH2 0x708 SWAP2 SWAP1 PUSH2 0x4407 JUMP JUMPDEST DUP1 DUP1 PUSH1 0x1F ADD PUSH1 0x20 DUP1 SWAP2 DIV MUL PUSH1 0x20 ADD PUSH1 0x40 MLOAD SWAP1 DUP2 ADD PUSH1 0x40 MSTORE DUP1 SWAP4 SWAP3 SWAP2 SWAP1 DUP2 DUP2 MSTORE PUSH1 0x20 ADD DUP4 DUP4 DUP1 DUP3 DUP5 CALLDATACOPY PUSH1 0x0 DUP2 DUP5 ADD MSTORE PUSH1 0x1F NOT PUSH1 0x1F DUP3 ADD AND SWAP1 POP DUP1 DUP4 ADD SWAP3 POP POP POP POP POP POP POP DUP2 MSTORE PUSH1 0x20 ADD TIMESTAMP DUP2 MSTORE POP SWAP1 DUP1 PUSH1 0x1 DUP2 SLOAD ADD DUP1 DUP3 SSTORE DUP1 SWAP2 POP POP PUSH1 0x1 SWAP1 SUB SWAP1 PUSH1 0x0 MSTORE PUSH1 0x20 PUSH1 0x0 KECCAK256 SWAP1 PUSH1 0x7 MUL ADD PUSH1 0x0 SWAP1 SWAP2 SWAP1 SWAP2 SWAP1 SWAP2 POP PUSH1 0x0 DUP3 ADD MLOAD DUP2 PUSH1 0x0 ADD SSTORE PUSH1 0x20 DUP3 ADD MLOAD DUP2 PUSH1 0x1 ADD SWAP1 DUP2 PUSH2 0x79C SWAP2 SWAP1 PUSH2 0x469B JUMP JUMPDEST POP PUSH1 0x40 DUP3 ADD MLOAD DUP2 PUSH1 0x2 ADD SWAP1 DUP2 PUSH2 0x7B2 SWAP2 SWAP1 PUSH2 0x469B JUMP JUMPDEST POP PUSH1 0x60 DUP3 ADD MLOAD DUP2 PUSH1 0x3 ADD SWAP1 DUP2 PUSH2 0x7C8 SWAP2 SWAP1 PUSH2 0x469B JUMP JUMPDEST POP PUSH1 0x80 DUP3 ADD MLOAD DUP2 PUSH1 0x4 ADD SWAP1 DUP2 PUSH2 0x7DE SWAP2 SWAP1 PUSH2 0x469B JUMP JUMPDEST POP PUSH1 0xA0 DUP3 ADD MLOAD DUP2 PUSH1 0x5 ADD SWAP1 DUP2 PUSH2 0x7F4 SWAP2 SWAP1 PUSH2 0x469B JUMP JUMPDEST POP PUSH1 0xC0 DUP3 ADD MLOAD DUP2 PUSH1 0x6 ADD SSTORE POP POP PUSH1 0x1 PUSH1 0x8 DUP1 SLOAD SWAP1 POP PUSH2 0x813 SWAP2 SWAP1 PUSH2 0x479C JUMP JUMPDEST PUSH1 0x9 PUSH1 0x0 PUSH1 0x7 SLOAD DUP2 MSTORE PUSH1 0x20 ADD SWAP1 DUP2 MSTORE PUSH1 0x20 ADD PUSH1 0x0 KECCAK256 DUP2 SWAP1 SSTORE POP PUSH1 0x7 PUSH1 0x0 DUP2 SLOAD DUP1 SWAP3 SWAP2 SWAP1 PUSH2 0x83F SWAP1 PUSH2 0x47D0 JUMP JUMPDEST SWAP2 SWAP1 POP SSTORE POP PUSH2 0xB9B JUMP JUMPDEST PUSH1 0x0 PUSH1 0x9 PUSH1 0x0 DUP8 DUP8 DUP6 DUP2 DUP2 LT PUSH2 0x862 JUMPI PUSH2 0x861 PUSH2 0x43A1 JUMP JUMPDEST JUMPDEST SWAP1 POP PUSH1 0x20 MUL DUP2 ADD SWAP1 PUSH2 0x874 SWAP2 SWAP1 PUSH2 0x43DF JUMP JUMPDEST PUSH1 0x0 ADD CALLDATALOAD DUP2 MSTORE PUSH1 0x20 ADD SWAP1 DUP2 MSTORE PUSH1 0x20 ADD PUSH1 0x0 KECCAK256 SLOAD SWAP1 POP PUSH1 0x8 DUP1 SLOAD SWAP1 POP DUP2 LT PUSH2 0x8D0 JUMPI PUSH1 0x40 MLOAD PUSH32 0x8C379A000000000000000000000000000000000000000000000000000000000 DUP2 MSTORE PUSH1 0x4 ADD PUSH2 0x8C7 SWAP1 PUSH2 0x4864 JUMP JUMPDEST PUSH1 0x40 MLOAD DUP1 SWAP2 SUB SWAP1 REVERT JUMPDEST PUSH1 0x0 PUSH1 0x8 DUP3 DUP2 SLOAD DUP2 LT PUSH2 0x8E6 JUMPI PUSH2 0x8E5 PUSH2 0x43A1 JUMP JUMPDEST JUMPDEST SWAP1 PUSH1 0x0 MSTORE PUSH1 0x20 PUSH1 0x0 KECCAK256 SWAP1 PUSH1 0x7 MUL ADD SWAP1 POP PUSH1 0x0 DUP8 DUP8 DUP6 DUP2 DUP2 LT PUSH2 0x90B JUMPI PUSH2 0x90A PUSH2 0x43A1 JUMP JUMPDEST JUMPDEST SWAP1 POP PUSH1 0x20 MUL DUP2 ADD SWAP1 PUSH2 0x91D SWAP2 SWAP1 PUSH2 0x43DF JUMP JUMPDEST DUP1 PUSH1 0x20 ADD SWAP1 PUSH2 0x92C SWAP2 SWAP1 PUSH2 0x4407 JUMP JUMPDEST SWAP1 POP GT ISZERO PUSH2 0x97B JUMPI DUP7 DUP7 DUP5 DUP2 DUP2 LT PUSH2 0x947 JUMPI PUSH2 0x946 PUSH2 0x43A1 JUMP JUMPDEST JUMPDEST SWAP1 POP PUSH1 0x20 MUL DUP2 ADD SWAP1 PUSH2 0x959 SWAP2 SWAP1 PUSH2 0x43DF JUMP JUMPDEST DUP1 PUSH1 0x20 ADD SWAP1 PUSH2 0x968 SWAP2 SWAP1 PUSH2 0x4407 JUMP JUMPDEST DUP3 PUSH1 0x1 ADD SWAP2 DUP3 PUSH2 0x979 SWAP3 SWAP2 SWAP1 PUSH2 0x488F JUMP JUMPDEST POP JUMPDEST PUSH1 0x0 DUP8 DUP8 DUP6 DUP2 DUP2 LT PUSH2 0x990 JUMPI PUSH2 0x98F PUSH2 0x43A1 JUMP JUMPDEST JUMPDEST SWAP1 POP PUSH1 0x20 MUL DUP2 ADD SWAP1 PUSH2 0x9A2 SWAP2 SWAP1 PUSH2 0x43DF JUMP JUMPDEST DUP1 PUSH1 0x40 ADD SWAP1 PUSH2 0x9B1 SWAP2 SWAP1 PUSH2 0x4407 JUMP JUMPDEST SWAP1 POP GT ISZERO PUSH2 0xA00 JUMPI DUP7 DUP7 DUP5 DUP2 DUP2 LT PUSH2 0x9CC JUMPI PUSH2 0x9CB PUSH2 0x43A1 JUMP JUMPDEST JUMPDEST SWAP1 POP PUSH1 0x20 MUL DUP2 ADD SWAP1 PUSH2 0x9DE SWAP2 SWAP1 PUSH2 0x43DF JUMP JUMPDEST DUP1 PUSH1 0x40 ADD SWAP1 PUSH2 0x9ED SWAP2 SWAP1 PUSH2 0x4407 JUMP JUMPDEST DUP3 PUSH1 0x2 ADD SWAP2 DUP3 PUSH2 0x9FE SWAP3 SWAP2 SWAP1 PUSH2 0x488F JUMP JUMPDEST POP JUMPDEST PUSH1 0x0 DUP8 DUP8 DUP6 DUP2 DUP2 LT PUSH2 0xA15 JUMPI PUSH2 0xA14 PUSH2 0x43A1 JUMP JUMPDEST JUMPDEST SWAP1 POP PUSH1 0x20 MUL DUP2 ADD SWAP1 PUSH2 0xA27 SWAP2 SWAP1 PUSH2 0x43DF JUMP JUMPDEST DUP1 PUSH1 0x60 ADD SWAP1 PUSH2 0xA36 SWAP2 SWAP1 PUSH2 0x4407 JUMP JUMPDEST SWAP1 POP GT ISZERO PUSH2 0xA85 JUMPI DUP7 DUP7 DUP5 DUP2 DUP2 LT PUSH2 0xA51 JUMPI PUSH2 0xA50 PUSH2 0x43A1 JUMP JUMPDEST JUMPDEST SWAP1 POP PUSH1 0x20 MUL DUP2 ADD SWAP1 PUSH2 0xA63 SWAP2 SWAP1 PUSH2 0x43DF JUMP JUMPDEST DUP1 PUSH1 0x60 ADD SWAP1 PUSH2 0xA72 SWAP2 SWAP1 PUSH2 0x4407 JUMP JUMPDEST DUP3 PUSH1 0x3 ADD SWAP2 DUP3 PUSH2 0xA83 SWAP3 SWAP2 SWAP1 PUSH2 0x488F JUMP JUMPDEST POP JUMPDEST PUSH1 0x0 DUP8 DUP8 DUP6 DUP2 DUP2 LT PUSH2 0xA9A JUMPI PUSH2 0xA99 PUSH2 0x43A1 JUMP JUMPDEST JUMPDEST SWAP1 POP PUSH1 0x20 MUL DUP2 ADD SWAP1 PUSH2 0xAAC SWAP2 SWAP1 PUSH2 0x43DF JUMP JUMPDEST DUP1 PUSH1 0x80 ADD SWAP1 PUSH2 0xABB SWAP2 SWAP1 PUSH2 0x4407 JUMP JUMPDEST SWAP1 POP GT ISZERO PUSH2 0xB0A JUMPI DUP7 DUP7 DUP5 DUP2 DUP2 LT PUSH2 0xAD6 JUMPI PUSH2 0xAD5 PUSH2 0x43A1 JUMP JUMPDEST JUMPDEST SWAP1 POP PUSH1 0x20 MUL DUP2 ADD SWAP1 PUSH2 0xAE8 SWAP2 SWAP1 PUSH2 0x43DF JUMP JUMPDEST DUP1 PUSH1 0x80 ADD SWAP1 PUSH2 0xAF7 SWAP2 SWAP1 PUSH2 0x4407 JUMP JUMPDEST DUP3 PUSH1 0x4 ADD SWAP2 DUP3 PUSH2 0xB08 SWAP3 SWAP2 SWAP1 PUSH2 0x488F JUMP JUMPDEST POP JUMPDEST PUSH1 0x0 DUP8 DUP8 DUP6 DUP2 DUP2 LT PUSH2 0xB1F JUMPI PUSH2 0xB1E PUSH2 0x43A1 JUMP JUMPDEST JUMPDEST SWAP1 POP PUSH1 0x20 MUL DUP2 ADD SWAP1 PUSH2 0xB31 SWAP2 SWAP1 PUSH2 0x43DF JUMP JUMPDEST DUP1 PUSH1 0xA0 ADD SWAP1 PUSH2 0xB40 SWAP2 SWAP1 PUSH2 0x4407 JUMP JUMPDEST SWAP1 POP GT ISZERO PUSH2 0xB8F JUMPI DUP7 DUP7 DUP5 DUP2 DUP2 LT PUSH2 0xB5B JUMPI PUSH2 0xB5A PUSH2 0x43A1 JUMP JUMPDEST JUMPDEST SWAP1 POP PUSH1 0x20 MUL DUP2 ADD SWAP1 PUSH2 0xB6D SWAP2 SWAP1 PUSH2 0x43DF JUMP JUMPDEST DUP1 PUSH1 0xA0 ADD SWAP1 PUSH2 0xB7C SWAP2 SWAP1 PUSH2 0x4407 JUMP JUMPDEST DUP3 PUSH1 0x5 ADD SWAP2 DUP3 PUSH2 0xB8D SWAP3 SWAP2 SWAP1 PUSH2 0x488F JUMP JUMPDEST POP JUMPDEST TIMESTAMP DUP2 PUSH1 0x6 ADD DUP2 SWAP1 SSTORE POP POP POP JUMPDEST DUP1 DUP1 PUSH1 0x1 ADD SWAP2 POP POP PUSH2 0x494 JUMP JUMPDEST POP POP POP POP POP JUMP JUMPDEST PUSH2 0xBB7 PUSH2 0x3508 JUMP JUMPDEST PUSH1 0x0 JUMPDEST DUP3 DUP3 SWAP1 POP DUP2 LT ISZERO PUSH2 0xDF8 JUMPI PUSH1 0x0 DUP4 DUP4 DUP4 DUP2 DUP2 LT PUSH2 0xBDA JUMPI PUSH2 0xBD9 PUSH2 0x43A1 JUMP JUMPDEST JUMPDEST SWAP1 POP PUSH1 0x20 MUL ADD CALLDATALOAD SWAP1 POP PUSH1 0x0 PUSH1 0x9 PUSH1 0x0 DUP4 DUP2 MSTORE PUSH1 0x20 ADD SWAP1 DUP2 MSTORE PUSH1 0x20 ADD PUSH1 0x0 KECCAK256 SLOAD SWAP1 POP PUSH1 0x8 DUP1 SLOAD SWAP1 POP DUP2 LT PUSH2 0xC42 JUMPI PUSH1 0x40 MLOAD PUSH32 0x8C379A000000000000000000000000000000000000000000000000000000000 DUP2 MSTORE PUSH1 0x4 ADD PUSH2 0xC39 SWAP1 PUSH2 0x4864 JUMP JUMPDEST PUSH1 0x40 MLOAD DUP1 SWAP2 SUB SWAP1 REVERT JUMPDEST PUSH1 0x0 PUSH1 0x1 PUSH1 0x8 DUP1 SLOAD SWAP1 POP PUSH2 0xC56 SWAP2 SWAP1 PUSH2 0x479C JUMP JUMPDEST SWAP1 POP DUP1 DUP3 EQ PUSH2 0xD46 JUMPI PUSH1 0x0 PUSH1 0x8 DUP3 DUP2 SLOAD DUP2 LT PUSH2 0xC75 JUMPI PUSH2 0xC74 PUSH2 0x43A1 JUMP JUMPDEST JUMPDEST SWAP1 PUSH1 0x0 MSTORE PUSH1 0x20 PUSH1 0x0 KECCAK256 SWAP1 PUSH1 0x7 MUL ADD SWAP1 POP DUP1 PUSH1 0x8 DUP5 DUP2 SLOAD DUP2 LT PUSH2 0xC9A JUMPI PUSH2 0xC99 PUSH2 0x43A1 JUMP JUMPDEST JUMPDEST SWAP1 PUSH1 0x0 MSTORE PUSH1 0x20 PUSH1 0x0 KECCAK256 SWAP1 PUSH1 0x7 MUL ADD PUSH1 0x0 DUP3 ADD SLOAD DUP2 PUSH1 0x0 ADD SSTORE PUSH1 0x1 DUP3 ADD DUP2 PUSH1 0x1 ADD SWAP1 DUP2 PUSH2 0xCC6 SWAP2 SWAP1 PUSH2 0x4975 JUMP JUMPDEST POP PUSH1 0x2 DUP3 ADD DUP2 PUSH1 0x2 ADD SWAP1 DUP2 PUSH2 0xCDB SWAP2 SWAP1 PUSH2 0x4975 JUMP JUMPDEST POP PUSH1 0x3 DUP3 ADD DUP2 PUSH1 0x3 ADD SWAP1 DUP2 PUSH2 0xCF0 SWAP2 SWAP1 PUSH2 0x4975 JUMP JUMPDEST POP PUSH1 0x4 DUP3 ADD DUP2 PUSH1 0x4 ADD SWAP1 DUP2 PUSH2 0xD05 SWAP2 SWAP1 PUSH2 0x4975 JUMP JUMPDEST POP PUSH1 0x5 DUP3 ADD DUP2 PUSH1 0x5 ADD SWAP1 DUP2 PUSH2 0xD1A SWAP2 SWAP1 PUSH2 0x4975 JUMP JUMPDEST POP PUSH1 0x6 DUP3 ADD SLOAD DUP2 PUSH1 0x6 ADD SSTORE SWAP1 POP POP DUP3 PUSH1 0x9 PUSH1 0x0 DUP4 PUSH1 0x0 ADD SLOAD DUP2 MSTORE PUSH1 0x20 ADD SWAP1 DUP2 MSTORE PUSH1 0x20 ADD PUSH1 0x0 KECCAK256 DUP2 SWAP1 SSTORE POP POP JUMPDEST PUSH1 0x8 DUP1 SLOAD DUP1 PUSH2 0xD58 JUMPI PUSH2 0xD57 PUSH2 0x4A5D JUMP JUMPDEST JUMPDEST PUSH1 0x1 SWAP1 SUB DUP2 DUP2 SWAP1 PUSH1 0x0 MSTORE PUSH1 0x20 PUSH1 0x0 KECCAK256 SWAP1 PUSH1 0x7 MUL ADD PUSH1 0x0 DUP1 DUP3 ADD PUSH1 0x0 SWAP1 SSTORE PUSH1 0x1 DUP3 ADD PUSH1 0x0 PUSH2 0xD85 SWAP2 SWAP1 PUSH2 0x37CF JUMP JUMPDEST PUSH1 0x2 DUP3 ADD PUSH1 0x0 PUSH2 0xD95 SWAP2 SWAP1 PUSH2 0x37CF JUMP JUMPDEST PUSH1 0x3 DUP3 ADD PUSH1 0x0 PUSH2 0xDA5 SWAP2 SWAP1 PUSH2 0x37CF JUMP JUMPDEST PUSH1 0x4 DUP3 ADD PUSH1 0x0 PUSH2 0xDB5 SWAP2 SWAP1 PUSH2 0x37CF JUMP JUMPDEST PUSH1 0x5 DUP3 ADD PUSH1 0x0 PUSH2 0xDC5 SWAP2 SWAP1 PUSH2 0x37CF JUMP JUMPDEST PUSH1 0x6 DUP3 ADD PUSH1 0x0 SWAP1 SSTORE POP POP SWAP1 SSTORE PUSH1 0x9 PUSH1 0x0 DUP5 DUP2 MSTORE PUSH1 0x20 ADD SWAP1 DUP2 MSTORE PUSH1 0x20 ADD PUSH1 0x0 KECCAK256 PUSH1 0x0 SWAP1 SSTORE POP POP POP DUP1 DUP1 PUSH1 0x1 ADD SWAP2 POP POP PUSH2 0xBBA JUMP JUMPDEST POP POP POP JUMP JUMPDEST PUSH1 0x0 PUSH2 0xE07 PUSH2 0x358F JUMP JUMPDEST SWAP1 POP PUSH1 0x0 DUP2 PUSH1 0x0 ADD PUSH1 0x8 SWAP1 SLOAD SWAP1 PUSH2 0x100 EXP SWAP1 DIV PUSH1 0xFF AND ISZERO SWAP1 POP PUSH1 0x0 DUP3 PUSH1 0x0 ADD PUSH1 0x0 SWAP1 SLOAD SWAP1 PUSH2 0x100 EXP SWAP1 DIV PUSH8 0xFFFFFFFFFFFFFFFF AND SWAP1 POP PUSH1 0x0 DUP1 DUP3 PUSH8 0xFFFFFFFFFFFFFFFF AND EQ DUP1 ISZERO PUSH2 0xE55 JUMPI POP DUP3 JUMPDEST SWAP1 POP PUSH1 0x0 PUSH1 0x1 DUP4 PUSH8 0xFFFFFFFFFFFFFFFF AND EQ DUP1 ISZERO PUSH2 0xE8A JUMPI POP PUSH1 0x0 ADDRESS PUSH20 0xFFFFFFFFFFFFFFFFFFFFFFFFFFFFFFFFFFFFFFFF AND EXTCODESIZE EQ JUMPDEST SWAP1 POP DUP2 ISZERO DUP1 ISZERO PUSH2 0xE98 JUMPI POP DUP1 ISZERO JUMPDEST ISZERO PUSH2 0xECF JUMPI PUSH1 0x40 MLOAD PUSH32 0xF92EE8A900000000000000000000000000000000000000000000000000000000 DUP2 MSTORE PUSH1 0x4 ADD PUSH1 0x40 MLOAD DUP1 SWAP2 SUB SWAP1 REVERT JUMPDEST PUSH1 0x1 DUP6 PUSH1 0x0 ADD PUSH1 0x0 PUSH2 0x100 EXP DUP2 SLOAD DUP2 PUSH8 0xFFFFFFFFFFFFFFFF MUL NOT AND SWAP1 DUP4 PUSH8 0xFFFFFFFFFFFFFFFF AND MUL OR SWAP1 SSTORE POP DUP4 ISZERO PUSH2 0xF1F JUMPI PUSH1 0x1 DUP6 PUSH1 0x0 ADD PUSH1 0x8 PUSH2 0x100 EXP DUP2 SLOAD DUP2 PUSH1 0xFF MUL NOT AND SWAP1 DUP4 ISZERO ISZERO MUL OR SWAP1 SSTORE POP JUMPDEST PUSH2 0xF28 DUP8 PUSH2 0x35A3 JUMP JUMPDEST PUSH2 0xF31 DUP8 PUSH2 0x35B7 JUMP JUMPDEST PUSH1 0x0 PUSH20 0xFFFFFFFFFFFFFFFFFFFFFFFFFFFFFFFFFFFFFFFF AND DUP7 PUSH20 0xFFFFFFFFFFFFFFFFFFFFFFFFFFFFFFFFFFFFFFFF AND SUB PUSH2 0xFA0 JUMPI PUSH1 0x40 MLOAD PUSH32 0x8C379A000000000000000000000000000000000000000000000000000000000 DUP2 MSTORE PUSH1 0x4 ADD PUSH2 0xF97 SWAP1 PUSH2 0x4AD8 JUMP JUMPDEST PUSH1 0x40 MLOAD DUP1 SWAP2 SUB SWAP1 REVERT JUMPDEST DUP6 PUSH1 0x0 DUP1 PUSH2 0x100 EXP DUP2 SLOAD DUP2 PUSH20 0xFFFFFFFFFFFFFFFFFFFFFFFFFFFFFFFFFFFFFFFF MUL NOT AND SWAP1 DUP4 PUSH20 0xFFFFFFFFFFFFFFFFFFFFFFFFFFFFFFFFFFFFFFFF AND MUL OR SWAP1 SSTORE POP DUP4 ISZERO PUSH2 0x103C JUMPI PUSH1 0x0 DUP6 PUSH1 0x0 ADD PUSH1 0x8 PUSH2 0x100 EXP DUP2 SLOAD DUP2 PUSH1 0xFF MUL NOT AND SWAP1 DUP4 ISZERO ISZERO MUL OR SWAP1 SSTORE POP PUSH32 0xC7F505B2F371AE2175EE4913F4499E1F2633A7B5936321EED1CDAEB6115181D2 PUSH1 0x1 PUSH1 0x40 MLOAD PUSH2 0x1033 SWAP2 SWAP1 PUSH2 0x4B47 JUMP JUMPDEST PUSH1 0x40 MLOAD DUP1 SWAP2 SUB SWAP1 LOG1 JUMPDEST POP POP POP POP POP POP POP JUMP JUMPDEST PUSH1 0x60 PUSH2 0x104F PUSH2 0x3508 JUMP JUMPDEST PUSH1 0x8 DUP1 SLOAD DUP1 PUSH1 0x20 MUL PUSH1 0x20 ADD PUSH1 0x40 MLOAD SWAP1 DUP2 ADD PUSH1 0x40 MSTORE DUP1 SWAP3 SWAP2 SWAP1 DUP2 DUP2 MSTORE PUSH1 0x20 ADD PUSH1 0x0 SWAP1 JUMPDEST DUP3 DUP3 LT ISZERO PUSH2 0x1391 JUMPI DUP4 DUP3 SWAP1 PUSH1 0x0 MSTORE PUSH1 0x20 PUSH1 0x0 KECCAK256 SWAP1 PUSH1 0x7 MUL ADD PUSH1 0x40 MLOAD DUP1 PUSH1 0xE0 ADD PUSH1 0x40 MSTORE SWAP1 DUP2 PUSH1 0x0 DUP3 ADD SLOAD DUP2 MSTORE PUSH1 0x20 ADD PUSH1 0x1 DUP3 ADD DUP1 SLOAD PUSH2 0x10AE SWAP1 PUSH2 0x44C8 JUMP JUMPDEST DUP1 PUSH1 0x1F ADD PUSH1 0x20 DUP1 SWAP2 DIV MUL PUSH1 0x20 ADD PUSH1 0x40 MLOAD SWAP1 DUP2 ADD PUSH1 0x40 MSTORE DUP1 SWAP3 SWAP2 SWAP1 DUP2 DUP2 MSTORE PUSH1 0x20 ADD DUP3 DUP1 SLOAD PUSH2 0x10DA SWAP1 PUSH2 0x44C8 JUMP JUMPDEST DUP1 ISZERO PUSH2 0x1127 JUMPI DUP1 PUSH1 0x1F LT PUSH2 0x10FC JUMPI PUSH2 0x100 DUP1 DUP4 SLOAD DIV MUL DUP4 MSTORE SWAP2 PUSH1 0x20 ADD SWAP2 PUSH2 0x1127 JUMP JUMPDEST DUP3 ADD SWAP2 SWAP1 PUSH1 0x0 MSTORE PUSH1 0x20 PUSH1 0x0 KECCAK256 SWAP1 JUMPDEST DUP2 SLOAD DUP2 MSTORE SWAP1 PUSH1 0x1 ADD SWAP1 PUSH1 0x20 ADD DUP1 DUP4 GT PUSH2 0x110A JUMPI DUP3 SWAP1 SUB PUSH1 0x1F AND DUP3 ADD SWAP2 JUMPDEST POP POP POP POP POP DUP2 MSTORE PUSH1 0x20 ADD PUSH1 0x2 DUP3 ADD DUP1 SLOAD PUSH2 0x1140 SWAP1 PUSH2 0x44C8 JUMP JUMPDEST DUP1 PUSH1 0x1F ADD PUSH1 0x20 DUP1 SWAP2 DIV MUL PUSH1 0x20 ADD PUSH1 0x40 MLOAD SWAP1 DUP2 ADD PUSH1 0x40 MSTORE DUP1 SWAP3 SWAP2 SWAP1 DUP2 DUP2 MSTORE PUSH1 0x20 ADD DUP3 DUP1 SLOAD PUSH2 0x116C SWAP1 PUSH2 0x44C8 JUMP JUMPDEST DUP1 ISZERO PUSH2 0x11B9 JUMPI DUP1 PUSH1 0x1F LT PUSH2 0x118E JUMPI PUSH2 0x100 DUP1 DUP4 SLOAD DIV MUL DUP4 MSTORE SWAP2 PUSH1 0x20 ADD SWAP2 PUSH2 0x11B9 JUMP JUMPDEST DUP3 ADD SWAP2 SWAP1 PUSH1 0x0 MSTORE PUSH1 0x20 PUSH1 0x0 KECCAK256 SWAP1 JUMPDEST DUP2 SLOAD DUP2 MSTORE SWAP1 PUSH1 0x1 ADD SWAP1 PUSH1 0x20 ADD DUP1 DUP4 GT PUSH2 0x119C JUMPI DUP3 SWAP1 SUB PUSH1 0x1F AND DUP3 ADD SWAP2 JUMPDEST POP POP POP POP POP DUP2 MSTORE PUSH1 0x20 ADD PUSH1 0x3 DUP3 ADD DUP1 SLOAD PUSH2 0x11D2 SWAP1 PUSH2 0x44C8 JUMP JUMPDEST DUP1 PUSH1 0x1F ADD PUSH1 0x20 DUP1 SWAP2 DIV MUL PUSH1 0x20 ADD PUSH1 0x40 MLOAD SWAP1 DUP2 ADD PUSH1 0x40 MSTORE DUP1 SWAP3 SWAP2 SWAP1 DUP2 DUP2 MSTORE PUSH1 0x20 ADD DUP3 DUP1 SLOAD PUSH2 0x11FE SWAP1 PUSH2 0x44C8 JUMP JUMPDEST DUP1 ISZERO PUSH2 0x124B JUMPI DUP1 PUSH1 0x1F LT PUSH2 0x1220 JUMPI PUSH2 0x100 DUP1 DUP4 SLOAD DIV MUL DUP4 MSTORE SWAP2 PUSH1 0x20 ADD SWAP2 PUSH2 0x124B JUMP JUMPDEST DUP3 ADD SWAP2 SWAP1 PUSH1 0x0 MSTORE PUSH1 0x20 PUSH1 0x0 KECCAK256 SWAP1 JUMPDEST DUP2 SLOAD DUP2 MSTORE SWAP1 PUSH1 0x1 ADD SWAP1 PUSH1 0x20 ADD DUP1 DUP4 GT PUSH2 0x122E JUMPI DUP3 SWAP1 SUB PUSH1 0x1F AND DUP3 ADD SWAP2 JUMPDEST POP POP POP POP POP DUP2 MSTORE PUSH1 0x20 ADD PUSH1 0x4 DUP3 ADD DUP1 SLOAD PUSH2 0x1264 SWAP1 PUSH2 0x44C8 JUMP JUMPDEST DUP1 PUSH1 0x1F ADD PUSH1 0x20 DUP1 SWAP2 DIV MUL PUSH1 0x20 ADD PUSH1 0x40 MLOAD SWAP1 DUP2 ADD PUSH1 0x40 MSTORE DUP1 SWAP3 SWAP2 SWAP1 DUP2 DUP2 MSTORE PUSH1 0x20 ADD DUP3 DUP1 SLOAD PUSH2 0x1290 SWAP1 PUSH2 0x44C8 JUMP JUMPDEST DUP1 ISZERO PUSH2 0x12DD JUMPI DUP1 PUSH1 0x1F LT PUSH2 0x12B2 JUMPI PUSH2 0x100 DUP1 DUP4 SLOAD DIV MUL DUP4 MSTORE SWAP2 PUSH1 0x20 ADD SWAP2 PUSH2 0x12DD JUMP JUMPDEST DUP3 ADD SWAP2 SWAP1 PUSH1 0x0 MSTORE PUSH1 0x20 PUSH1 0x0 KECCAK256 SWAP1 JUMPDEST DUP2 SLOAD DUP2 MSTORE SWAP1 PUSH1 0x1 ADD SWAP1 PUSH1 0x20 ADD DUP1 DUP4 GT PUSH2 0x12C0 JUMPI DUP3 SWAP1 SUB PUSH1 0x1F AND DUP3 ADD SWAP2 JUMPDEST POP POP POP POP POP DUP2 MSTORE PUSH1 0x20 ADD PUSH1 0x5 DUP3 ADD DUP1 SLOAD PUSH2 0x12F6 SWAP1 PUSH2 0x44C8 JUMP JUMPDEST DUP1 PUSH1 0x1F ADD PUSH1 0x20 DUP1 SWAP2 DIV MUL PUSH1 0x20 ADD PUSH1 0x40 MLOAD SWAP1 DUP2 ADD PUSH1 0x40 MSTORE DUP1 SWAP3 SWAP2 SWAP1 DUP2 DUP2 MSTORE PUSH1 0x20 ADD DUP3 DUP1 SLOAD PUSH2 0x1322 SWAP1 PUSH2 0x44C8 JUMP JUMPDEST DUP1 ISZERO PUSH2 0x136F JUMPI DUP1 PUSH1 0x1F LT PUSH2 0x1344 JUMPI PUSH2 0x100 DUP1 DUP4 SLOAD DIV MUL DUP4 MSTORE SWAP2 PUSH1 0x20 ADD SWAP2 PUSH2 0x136F JUMP JUMPDEST DUP3 ADD SWAP2 SWAP1 PUSH1 0x0 MSTORE PUSH1 0x20 PUSH1 0x0 KECCAK256 SWAP1 JUMPDEST DUP2 SLOAD DUP2 MSTORE SWAP1 PUSH1 0x1 ADD SWAP1 PUSH1 0x20 ADD DUP1 DUP4 GT PUSH2 0x1352 JUMPI DUP3 SWAP1 SUB PUSH1 0x1F AND DUP3 ADD SWAP2 JUMPDEST POP POP POP POP POP DUP2 MSTORE PUSH1 0x20 ADD PUSH1 0x6 DUP3 ADD SLOAD DUP2 MSTORE POP POP DUP2 MSTORE PUSH1 0x20 ADD SWAP1 PUSH1 0x1 ADD SWAP1 PUSH2 0x1071 JUMP JUMPDEST POP POP POP POP SWAP1 POP SWAP1 JUMP JUMPDEST PUSH2 0x13A2 PUSH2 0x3508 JUMP JUMPDEST PUSH1 0x0 JUMPDEST DUP3 DUP3 SWAP1 POP DUP2 LT ISZERO PUSH2 0x1608 JUMPI PUSH1 0x0 DUP4 DUP4 DUP4 DUP2 DUP2 LT PUSH2 0x13C5 JUMPI PUSH2 0x13C4 PUSH2 0x43A1 JUMP JUMPDEST JUMPDEST SWAP1 POP PUSH1 0x20 MUL ADD CALLDATALOAD SWAP1 POP PUSH1 0x0 PUSH1 0x6 PUSH1 0x0 DUP4 DUP2 MSTORE PUSH1 0x20 ADD SWAP1 DUP2 MSTORE PUSH1 0x20 ADD PUSH1 0x0 KECCAK256 SLOAD SWAP1 POP PUSH1 0x5 DUP1 SLOAD SWAP1 POP DUP2 LT PUSH2 0x142D JUMPI PUSH1 0x40 MLOAD PUSH32 0x8C379A000000000000000000000000000000000000000000000000000000000 DUP2 MSTORE PUSH1 0x4 ADD PUSH2 0x1424 SWAP1 PUSH2 0x4BAE JUMP JUMPDEST PUSH1 0x40 MLOAD DUP1 SWAP2 SUB SWAP1 REVERT JUMPDEST PUSH1 0x0 PUSH1 0x1 PUSH1 0x5 DUP1 SLOAD SWAP1 POP PUSH2 0x1441 SWAP2 SWAP1 PUSH2 0x479C JUMP JUMPDEST SWAP1 POP DUP1 DUP3 EQ PUSH2 0x1546 JUMPI PUSH1 0x0 PUSH1 0x5 DUP3 DUP2 SLOAD DUP2 LT PUSH2 0x1460 JUMPI PUSH2 0x145F PUSH2 0x43A1 JUMP JUMPDEST JUMPDEST SWAP1 PUSH1 0x0 MSTORE PUSH1 0x20 PUSH1 0x0 KECCAK256 SWAP1 PUSH1 0x8 MUL ADD SWAP1 POP DUP1 PUSH1 0x5 DUP5 DUP2 SLOAD DUP2 LT PUSH2 0x1485 JUMPI PUSH2 0x1484 PUSH2 0x43A1 JUMP JUMPDEST JUMPDEST SWAP1 PUSH1 0x0 MSTORE PUSH1 0x20 PUSH1 0x0 KECCAK256 SWAP1 PUSH1 0x8 MUL ADD PUSH1 0x0 DUP3 ADD SLOAD DUP2 PUSH1 0x0 ADD SSTORE PUSH1 0x1 DUP3 ADD DUP2 PUSH1 0x1 ADD SWAP1 DUP2 PUSH2 0x14B1 SWAP2 SWAP1 PUSH2 0x4975 JUMP JUMPDEST POP PUSH1 0x2 DUP3 ADD DUP2 PUSH1 0x2 ADD SWAP1 DUP2 PUSH2 0x14C6 SWAP2 SWAP1 PUSH2 0x4975 JUMP JUMPDEST POP PUSH1 0x3 DUP3 ADD DUP2 PUSH1 0x3 ADD SWAP1 DUP2 PUSH2 0x14DB SWAP2 SWAP1 PUSH2 0x4975 JUMP JUMPDEST POP PUSH1 0x4 DUP3 ADD DUP2 PUSH1 0x4 ADD SWAP1 DUP2 PUSH2 0x14F0 SWAP2 SWAP1 PUSH2 0x4975 JUMP JUMPDEST POP PUSH1 0x5 DUP3 ADD DUP2 PUSH1 0x5 ADD SWAP1 DUP2 PUSH2 0x1505 SWAP2 SWAP1 PUSH2 0x4975 JUMP JUMPDEST POP PUSH1 0x6 DUP3 ADD DUP2 PUSH1 0x6 ADD SWAP1 DUP2 PUSH2 0x151A SWAP2 SWAP1 PUSH2 0x4975 JUMP JUMPDEST POP PUSH1 0x7 DUP3 ADD SLOAD DUP2 PUSH1 0x7 ADD SSTORE SWAP1 POP POP DUP3 PUSH1 0x6 PUSH1 0x0 DUP4 PUSH1 0x0 ADD SLOAD DUP2 MSTORE PUSH1 0x20 ADD SWAP1 DUP2 MSTORE PUSH1 0x20 ADD PUSH1 0x0 KECCAK256 DUP2 SWAP1 SSTORE POP POP JUMPDEST PUSH1 0x5 DUP1 SLOAD DUP1 PUSH2 0x1558 JUMPI PUSH2 0x1557 PUSH2 0x4A5D JUMP JUMPDEST JUMPDEST PUSH1 0x1 SWAP1 SUB DUP2 DUP2 SWAP1 PUSH1 0x0 MSTORE PUSH1 0x20 PUSH1 0x0 KECCAK256 SWAP1 PUSH1 0x8 MUL ADD PUSH1 0x0 DUP1 DUP3 ADD PUSH1 0x0 SWAP1 SSTORE PUSH1 0x1 DUP3 ADD PUSH1 0x0 PUSH2 0x1585 SWAP2 SWAP1 PUSH2 0x37CF JUMP JUMPDEST PUSH1 0x2 DUP3 ADD PUSH1 0x0 PUSH2 0x1595 SWAP2 SWAP1 PUSH2 0x37CF JUMP JUMPDEST PUSH1 0x3 DUP3 ADD PUSH1 0x0 PUSH2 0x15A5 SWAP2 SWAP1 PUSH2 0x37CF JUMP JUMPDEST PUSH1 0x4 DUP3 ADD PUSH1 0x0 PUSH2 0x15B5 SWAP2 SWAP1 PUSH2 0x37CF JUMP JUMPDEST PUSH1 0x5 DUP3 ADD PUSH1 0x0 PUSH2 0x15C5 SWAP2 SWAP1 PUSH2 0x37CF JUMP JUMPDEST PUSH1 0x6 DUP3 ADD PUSH1 0x0 PUSH2 0x15D5 SWAP2 SWAP1 PUSH2 0x37CF JUMP JUMPDEST PUSH1 0x7 DUP3 ADD PUSH1 0x0 SWAP1 SSTORE POP POP SWAP1 SSTORE PUSH1 0x6 PUSH1 0x0 DUP5 DUP2 MSTORE PUSH1 0x20 ADD SWAP1 DUP2 MSTORE PUSH1 0x20 ADD PUSH1 0x0 KECCAK256 PUSH1 0x0 SWAP1 SSTORE POP POP POP DUP1 DUP1 PUSH1 0x1 ADD SWAP2 POP POP PUSH2 0x13A5 JUMP JUMPDEST POP POP POP JUMP JUMPDEST PUSH2 0x1615 PUSH2 0x3508 JUMP JUMPDEST PUSH2 0x161F PUSH1 0x0 PUSH2 0x35B7 JUMP JUMPDEST JUMP JUMPDEST PUSH2 0x1629 PUSH2 0x3508 JUMP JUMPDEST PUSH1 0x0 DUP1 PUSH1 0x0 SWAP1 SLOAD SWAP1 PUSH2 0x100 EXP SWAP1 DIV PUSH20 0xFFFFFFFFFFFFFFFFFFFFFFFFFFFFFFFFFFFFFFFF AND PUSH20 0xFFFFFFFFFFFFFFFFFFFFFFFFFFFFFFFFFFFFFFFF AND PUSH4 0xF9C59D07 PUSH1 0x40 MLOAD DUP2 PUSH4 0xFFFFFFFF AND PUSH1 0xE0 SHL DUP2 MSTORE PUSH1 0x4 ADD PUSH1 0x20 PUSH1 0x40 MLOAD DUP1 DUP4 SUB DUP2 DUP7 GAS STATICCALL ISZERO DUP1 ISZERO PUSH2 0x1697 JUMPI RETURNDATASIZE PUSH1 0x0 DUP1 RETURNDATACOPY RETURNDATASIZE PUSH1 0x0 REVERT JUMPDEST POP POP POP POP PUSH1 0x40 MLOAD RETURNDATASIZE PUSH1 0x1F NOT PUSH1 0x1F DUP3 ADD AND DUP3 ADD DUP1 PUSH1 0x40 MSTORE POP DUP2 ADD SWAP1 PUSH2 0x16BB SWAP2 SWAP1 PUSH2 0x421F JUMP JUMPDEST SWAP1 POP DUP1 CALLVALUE EQ PUSH2 0x16FF JUMPI PUSH1 0x40 MLOAD PUSH32 0x8C379A000000000000000000000000000000000000000000000000000000000 DUP2 MSTORE PUSH1 0x4 ADD PUSH2 0x16F6 SWAP1 PUSH2 0x4C1A JUMP JUMPDEST PUSH1 0x40 MLOAD DUP1 SWAP2 SUB SWAP1 REVERT JUMPDEST PUSH1 0x0 DUP1 PUSH1 0x0 SWAP1 SLOAD SWAP1 PUSH2 0x100 EXP SWAP1 DIV PUSH20 0xFFFFFFFFFFFFFFFFFFFFFFFFFFFFFFFFFFFFFFFF AND PUSH20 0xFFFFFFFFFFFFFFFFFFFFFFFFFFFFFFFFFFFFFFFF AND CALLVALUE PUSH1 0x40 MLOAD PUSH2 0x1746 SWAP1 PUSH2 0x4320 JUMP JUMPDEST PUSH1 0x0 PUSH1 0x40 MLOAD DUP1 DUP4 SUB DUP2 DUP6 DUP8 GAS CALL SWAP3 POP POP POP RETURNDATASIZE DUP1 PUSH1 0x0 DUP2 EQ PUSH2 0x1783 JUMPI PUSH1 0x40 MLOAD SWAP2 POP PUSH1 0x1F NOT PUSH1 0x3F RETURNDATASIZE ADD AND DUP3 ADD PUSH1 0x40 MSTORE RETURNDATASIZE DUP3 MSTORE RETURNDATASIZE PUSH1 0x0 PUSH1 0x20 DUP5 ADD RETURNDATACOPY PUSH2 0x1788 JUMP JUMPDEST PUSH1 0x60 SWAP2 POP JUMPDEST POP POP SWAP1 POP DUP1 PUSH2 0x17CC JUMPI PUSH1 0x40 MLOAD PUSH32 0x8C379A000000000000000000000000000000000000000000000000000000000 DUP2 MSTORE PUSH1 0x4 ADD PUSH2 0x17C3 SWAP1 PUSH2 0x4381 JUMP JUMPDEST PUSH1 0x40 MLOAD DUP1 SWAP2 SUB SWAP1 REVERT JUMPDEST PUSH1 0x0 JUMPDEST DUP5 DUP5 SWAP1 POP DUP2 LT ISZERO PUSH2 0x1FFB JUMPI PUSH1 0x0 DUP6 DUP6 DUP4 DUP2 DUP2 LT PUSH2 0x17EF JUMPI PUSH2 0x17EE PUSH2 0x43A1 JUMP JUMPDEST JUMPDEST SWAP1 POP PUSH1 0x20 MUL DUP2 ADD SWAP1 PUSH2 0x1801 SWAP2 SWAP1 PUSH2 0x4C3A JUMP JUMPDEST PUSH1 0x0 ADD CALLDATALOAD SUB PUSH2 0x1C17 JUMPI PUSH1 0x2 PUSH1 0x40 MLOAD DUP1 PUSH2 0x100 ADD PUSH1 0x40 MSTORE DUP1 PUSH1 0x1 SLOAD DUP2 MSTORE PUSH1 0x20 ADD DUP8 DUP8 DUP6 DUP2 DUP2 LT PUSH2 0x1833 JUMPI PUSH2 0x1832 PUSH2 0x43A1 JUMP JUMPDEST JUMPDEST SWAP1 POP PUSH1 0x20 MUL DUP2 ADD SWAP1 PUSH2 0x1845 SWAP2 SWAP1 PUSH2 0x4C3A JUMP JUMPDEST DUP1 PUSH1 0x20 ADD SWAP1 PUSH2 0x1854 SWAP2 SWAP1 PUSH2 0x4407 JUMP JUMPDEST DUP1 DUP1 PUSH1 0x1F ADD PUSH1 0x20 DUP1 SWAP2 DIV MUL PUSH1 0x20 ADD PUSH1 0x40 MLOAD SWAP1 DUP2 ADD PUSH1 0x40 MSTORE DUP1 SWAP4 SWAP3 SWAP2 SWAP1 DUP2 DUP2 MSTORE PUSH1 0x20 ADD DUP4 DUP4 DUP1 DUP3 DUP5 CALLDATACOPY PUSH1 0x0 DUP2 DUP5 ADD MSTORE PUSH1 0x1F NOT PUSH1 0x1F DUP3 ADD AND SWAP1 POP DUP1 DUP4 ADD SWAP3 POP POP POP POP POP POP POP DUP2 MSTORE PUSH1 0x20 ADD DUP8 DUP8 DUP6 DUP2 DUP2 LT PUSH2 0x18AF JUMPI PUSH2 0x18AE PUSH2 0x43A1 JUMP JUMPDEST JUMPDEST SWAP1 POP PUSH1 0x20 MUL DUP2 ADD SWAP1 PUSH2 0x18C1 SWAP2 SWAP1 PUSH2 0x4C3A JUMP JUMPDEST DUP1 PUSH1 0x40 ADD SWAP1 PUSH2 0x18D0 SWAP2 SWAP1 PUSH2 0x4407 JUMP JUMPDEST DUP1 DUP1 PUSH1 0x1F ADD PUSH1 0x20 DUP1 SWAP2 DIV MUL PUSH1 0x20 ADD PUSH1 0x40 MLOAD SWAP1 DUP2 ADD PUSH1 0x40 MSTORE DUP1 SWAP4 SWAP3 SWAP2 SWAP1 DUP2 DUP2 MSTORE PUSH1 0x20 ADD DUP4 DUP4 DUP1 DUP3 DUP5 CALLDATACOPY PUSH1 0x0 DUP2 DUP5 ADD MSTORE PUSH1 0x1F NOT PUSH1 0x1F DUP3 ADD AND SWAP1 POP DUP1 DUP4 ADD SWAP3 POP POP POP POP POP POP POP DUP2 MSTORE PUSH1 0x20 ADD DUP8 DUP8 DUP6 DUP2 DUP2 LT PUSH2 0x192B JUMPI PUSH2 0x192A PUSH2 0x43A1 JUMP JUMPDEST JUMPDEST SWAP1 POP PUSH1 0x20 MUL DUP2 ADD SWAP1 PUSH2 0x193D SWAP2 SWAP1 PUSH2 0x4C3A JUMP JUMPDEST DUP1 PUSH1 0x60 ADD SWAP1 PUSH2 0x194C SWAP2 SWAP1 PUSH2 0x4407 JUMP JUMPDEST DUP1 DUP1 PUSH1 0x1F ADD PUSH1 0x20 DUP1 SWAP2 DIV MUL PUSH1 0x20 ADD PUSH1 0x40 MLOAD SWAP1 DUP2 ADD PUSH1 0x40 MSTORE DUP1 SWAP4 SWAP3 SWAP2 SWAP1 DUP2 DUP2 MSTORE PUSH1 0x20 ADD DUP4 DUP4 DUP1 DUP3 DUP5 CALLDATACOPY PUSH1 0x0 DUP2 DUP5 ADD MSTORE PUSH1 0x1F NOT PUSH1 0x1F DUP3 ADD AND SWAP1 POP DUP1 DUP4 ADD SWAP3 POP POP POP POP POP POP POP DUP2 MSTORE PUSH1 0x20 ADD DUP8 DUP8 DUP6 DUP2 DUP2 LT PUSH2 0x19A7 JUMPI PUSH2 0x19A6 PUSH2 0x43A1 JUMP JUMPDEST JUMPDEST SWAP1 POP PUSH1 0x20 MUL DUP2 ADD SWAP1 PUSH2 0x19B9 SWAP2 SWAP1 PUSH2 0x4C3A JUMP JUMPDEST DUP1 PUSH1 0x80 ADD SWAP1 PUSH2 0x19C8 SWAP2 SWAP1 PUSH2 0x4407 JUMP JUMPDEST DUP1 DUP1 PUSH1 0x1F ADD PUSH1 0x20 DUP1 SWAP2 DIV MUL PUSH1 0x20 ADD PUSH1 0x40 MLOAD SWAP1 DUP2 ADD PUSH1 0x40 MSTORE DUP1 SWAP4 SWAP3 SWAP2 SWAP1 DUP2 DUP2 MSTORE PUSH1 0x20 ADD DUP4 DUP4 DUP1 DUP3 DUP5 CALLDATACOPY PUSH1 0x0 DUP2 DUP5 ADD MSTORE PUSH1 0x1F NOT PUSH1 0x1F DUP3 ADD AND SWAP1 POP DUP1 DUP4 ADD SWAP3 POP POP POP POP POP POP POP DUP2 MSTORE PUSH1 0x20 ADD DUP8 DUP8 DUP6 DUP2 DUP2 LT PUSH2 0x1A23 JUMPI PUSH2 0x1A22 PUSH2 0x43A1 JUMP JUMPDEST JUMPDEST SWAP1 POP PUSH1 0x20 MUL DUP2 ADD SWAP1 PUSH2 0x1A35 SWAP2 SWAP1 PUSH2 0x4C3A JUMP JUMPDEST DUP1 PUSH1 0xA0 ADD SWAP1 PUSH2 0x1A44 SWAP2 SWAP1 PUSH2 0x4407 JUMP JUMPDEST DUP1 DUP1 PUSH1 0x1F ADD PUSH1 0x20 DUP1 SWAP2 DIV MUL PUSH1 0x20 ADD PUSH1 0x40 MLOAD SWAP1 DUP2 ADD PUSH1 0x40 MSTORE DUP1 SWAP4 SWAP3 SWAP2 SWAP1 DUP2 DUP2 MSTORE PUSH1 0x20 ADD DUP4 DUP4 DUP1 DUP3 DUP5 CALLDATACOPY PUSH1 0x0 DUP2 DUP5 ADD MSTORE PUSH1 0x1F NOT PUSH1 0x1F DUP3 ADD AND SWAP1 POP DUP1 DUP4 ADD SWAP3 POP POP POP POP POP POP POP DUP2 MSTORE PUSH1 0x20 ADD DUP8 DUP8 DUP6 DUP2 DUP2 LT PUSH2 0x1A9F JUMPI PUSH2 0x1A9E PUSH2 0x43A1 JUMP JUMPDEST JUMPDEST SWAP1 POP PUSH1 0x20 MUL DUP2 ADD SWAP1 PUSH2 0x1AB1 SWAP2 SWAP1 PUSH2 0x4C3A JUMP JUMPDEST DUP1 PUSH1 0xC0 ADD SWAP1 PUSH2 0x1AC0 SWAP2 SWAP1 PUSH2 0x4407 JUMP JUMPDEST DUP1 DUP1 PUSH1 0x1F ADD PUSH1 0x20 DUP1 SWAP2 DIV MUL PUSH1 0x20 ADD PUSH1 0x40 MLOAD SWAP1 DUP2 ADD PUSH1 0x40 MSTORE DUP1 SWAP4 SWAP3 SWAP2 SWAP1 DUP2 DUP2 MSTORE PUSH1 0x20 ADD DUP4 DUP4 DUP1 DUP3 DUP5 CALLDATACOPY PUSH1 0x0 DUP2 DUP5 ADD MSTORE PUSH1 0x1F NOT PUSH1 0x1F DUP3 ADD AND SWAP1 POP DUP1 DUP4 ADD SWAP3 POP POP POP POP POP POP POP DUP2 MSTORE PUSH1 0x20 ADD TIMESTAMP DUP2 MSTORE POP SWAP1 DUP1 PUSH1 0x1 DUP2 SLOAD ADD DUP1 DUP3 SSTORE DUP1 SWAP2 POP POP PUSH1 0x1 SWAP1 SUB SWAP1 PUSH1 0x0 MSTORE PUSH1 0x20 PUSH1 0x0 KECCAK256 SWAP1 PUSH1 0x8 MUL ADD PUSH1 0x0 SWAP1 SWAP2 SWAP1 SWAP2 SWAP1 SWAP2 POP PUSH1 0x0 DUP3 ADD MLOAD DUP2 PUSH1 0x0 ADD SSTORE PUSH1 0x20 DUP3 ADD MLOAD DUP2 PUSH1 0x1 ADD SWAP1 DUP2 PUSH2 0x1B54 SWAP2 SWAP1 PUSH2 0x469B JUMP JUMPDEST POP PUSH1 0x40 DUP3 ADD MLOAD DUP2 PUSH1 0x2 ADD SWAP1 DUP2 PUSH2 0x1B6A SWAP2 SWAP1 PUSH2 0x469B JUMP JUMPDEST POP PUSH1 0x60 DUP3 ADD MLOAD DUP2 PUSH1 0x3 ADD SWAP1 DUP2 PUSH2 0x1B80 SWAP2 SWAP1 PUSH2 0x469B JUMP JUMPDEST POP PUSH1 0x80 DUP3 ADD MLOAD DUP2 PUSH1 0x4 ADD SWAP1 DUP2 PUSH2 0x1B96 SWAP2 SWAP1 PUSH2 0x469B JUMP JUMPDEST POP PUSH1 0xA0 DUP3 ADD MLOAD DUP2 PUSH1 0x5 ADD SWAP1 DUP2 PUSH2 0x1BAC SWAP2 SWAP1 PUSH2 0x469B JUMP JUMPDEST POP PUSH1 0xC0 DUP3 ADD MLOAD DUP2 PUSH1 0x6 ADD SWAP1 DUP2 PUSH2 0x1BC2 SWAP2 SWAP1 PUSH2 0x469B JUMP JUMPDEST POP PUSH1 0xE0 DUP3 ADD MLOAD DUP2 PUSH1 0x7 ADD SSTORE POP POP PUSH1 0x1 PUSH1 0x2 DUP1 SLOAD SWAP1 POP PUSH2 0x1BE1 SWAP2 SWAP1 PUSH2 0x479C JUMP JUMPDEST PUSH1 0x3 PUSH1 0x0 PUSH1 0x1 SLOAD DUP2 MSTORE PUSH1 0x20 ADD SWAP1 DUP2 MSTORE PUSH1 0x20 ADD PUSH1 0x0 KECCAK256 DUP2 SWAP1 SSTORE POP PUSH1 0x1 PUSH1 0x0 DUP2 SLOAD DUP1 SWAP3 SWAP2 SWAP1 PUSH2 0x1C0D SWAP1 PUSH2 0x47D0 JUMP JUMPDEST SWAP2 SWAP1 POP SSTORE POP PUSH2 0x1FEE JUMP JUMPDEST PUSH1 0x0 PUSH1 0x3 PUSH1 0x0 DUP8 DUP8 DUP6 DUP2 DUP2 LT PUSH2 0x1C30 JUMPI PUSH2 0x1C2F PUSH2 0x43A1 JUMP JUMPDEST JUMPDEST SWAP1 POP PUSH1 0x20 MUL DUP2 ADD SWAP1 PUSH2 0x1C42 SWAP2 SWAP1 PUSH2 0x4C3A JUMP JUMPDEST PUSH1 0x0 ADD CALLDATALOAD DUP2 MSTORE PUSH1 0x20 ADD SWAP1 DUP2 MSTORE PUSH1 0x20 ADD PUSH1 0x0 KECCAK256 SLOAD SWAP1 POP PUSH1 0x2 DUP1 SLOAD SWAP1 POP DUP2 LT PUSH2 0x1C9E JUMPI PUSH1 0x40 MLOAD PUSH32 0x8C379A000000000000000000000000000000000000000000000000000000000 DUP2 MSTORE PUSH1 0x4 ADD PUSH2 0x1C95 SWAP1 PUSH2 0x4CAE JUMP JUMPDEST PUSH1 0x40 MLOAD DUP1 SWAP2 SUB SWAP1 REVERT JUMPDEST PUSH1 0x0 PUSH1 0x2 DUP3 DUP2 SLOAD DUP2 LT PUSH2 0x1CB4 JUMPI PUSH2 0x1CB3 PUSH2 0x43A1 JUMP JUMPDEST JUMPDEST SWAP1 PUSH1 0x0 MSTORE PUSH1 0x20 PUSH1 0x0 KECCAK256 SWAP1 PUSH1 0x8 MUL ADD SWAP1 POP PUSH1 0x0 DUP8 DUP8 DUP6 DUP2 DUP2 LT PUSH2 0x1CD9 JUMPI PUSH2 0x1CD8 PUSH2 0x43A1 JUMP JUMPDEST JUMPDEST SWAP1 POP PUSH1 0x20 MUL DUP2 ADD SWAP1 PUSH2 0x1CEB SWAP2 SWAP1 PUSH2 0x4C3A JUMP JUMPDEST DUP1 PUSH1 0x20 ADD SWAP1 PUSH2 0x1CFA SWAP2 SWAP1 PUSH2 0x4407 JUMP JUMPDEST SWAP1 POP GT ISZERO PUSH2 0x1D49 JUMPI DUP7 DUP7 DUP5 DUP2 DUP2 LT PUSH2 0x1D15 JUMPI PUSH2 0x1D14 PUSH2 0x43A1 JUMP JUMPDEST JUMPDEST SWAP1 POP PUSH1 0x20 MUL DUP2 ADD SWAP1 PUSH2 0x1D27 SWAP2 SWAP1 PUSH2 0x4C3A JUMP JUMPDEST DUP1 PUSH1 0x20 ADD SWAP1 PUSH2 0x1D36 SWAP2 SWAP1 PUSH2 0x4407 JUMP JUMPDEST DUP3 PUSH1 0x1 ADD SWAP2 DUP3 PUSH2 0x1D47 SWAP3 SWAP2 SWAP1 PUSH2 0x488F JUMP JUMPDEST POP JUMPDEST PUSH1 0x0 DUP8 DUP8 DUP6 DUP2 DUP2 LT PUSH2 0x1D5E JUMPI PUSH2 0x1D5D PUSH2 0x43A1 JUMP JUMPDEST JUMPDEST SWAP1 POP PUSH1 0x20 MUL DUP2 ADD SWAP1 PUSH2 0x1D70 SWAP2 SWAP1 PUSH2 0x4C3A JUMP JUMPDEST DUP1 PUSH1 0x40 ADD SWAP1 PUSH2 0x1D7F SWAP2 SWAP1 PUSH2 0x4407 JUMP JUMPDEST SWAP1 POP GT ISZERO PUSH2 0x1DCE JUMPI DUP7 DUP7 DUP5 DUP2 DUP2 LT PUSH2 0x1D9A JUMPI PUSH2 0x1D99 PUSH2 0x43A1 JUMP JUMPDEST JUMPDEST SWAP1 POP PUSH1 0x20 MUL DUP2 ADD SWAP1 PUSH2 0x1DAC SWAP2 SWAP1 PUSH2 0x4C3A JUMP JUMPDEST DUP1 PUSH1 0x40 ADD SWAP1 PUSH2 0x1DBB SWAP2 SWAP1 PUSH2 0x4407 JUMP JUMPDEST DUP3 PUSH1 0x2 ADD SWAP2 DUP3 PUSH2 0x1DCC SWAP3 SWAP2 SWAP1 PUSH2 0x488F JUMP JUMPDEST POP JUMPDEST PUSH1 0x0 DUP8 DUP8 DUP6 DUP2 DUP2 LT PUSH2 0x1DE3 JUMPI PUSH2 0x1DE2 PUSH2 0x43A1 JUMP JUMPDEST JUMPDEST SWAP1 POP PUSH1 0x20 MUL DUP2 ADD SWAP1 PUSH2 0x1DF5 SWAP2 SWAP1 PUSH2 0x4C3A JUMP JUMPDEST DUP1 PUSH1 0x60 ADD SWAP1 PUSH2 0x1E04 SWAP2 SWAP1 PUSH2 0x4407 JUMP JUMPDEST SWAP1 POP GT ISZERO PUSH2 0x1E53 JUMPI DUP7 DUP7 DUP5 DUP2 DUP2 LT PUSH2 0x1E1F JUMPI PUSH2 0x1E1E PUSH2 0x43A1 JUMP JUMPDEST JUMPDEST SWAP1 POP PUSH1 0x20 MUL DUP2 ADD SWAP1 PUSH2 0x1E31 SWAP2 SWAP1 PUSH2 0x4C3A JUMP JUMPDEST DUP1 PUSH1 0x60 ADD SWAP1 PUSH2 0x1E40 SWAP2 SWAP1 PUSH2 0x4407 JUMP JUMPDEST DUP3 PUSH1 0x3 ADD SWAP2 DUP3 PUSH2 0x1E51 SWAP3 SWAP2 SWAP1 PUSH2 0x488F JUMP JUMPDEST POP JUMPDEST PUSH1 0x0 DUP8 DUP8 DUP6 DUP2 DUP2 LT PUSH2 0x1E68 JUMPI PUSH2 0x1E67 PUSH2 0x43A1 JUMP JUMPDEST JUMPDEST SWAP1 POP PUSH1 0x20 MUL DUP2 ADD SWAP1 PUSH2 0x1E7A SWAP2 SWAP1 PUSH2 0x4C3A JUMP JUMPDEST DUP1 PUSH1 0x80 ADD SWAP1 PUSH2 0x1E89 SWAP2 SWAP1 PUSH2 0x4407 JUMP JUMPDEST SWAP1 POP GT ISZERO PUSH2 0x1ED8 JUMPI DUP7 DUP7 DUP5 DUP2 DUP2 LT PUSH2 0x1EA4 JUMPI PUSH2 0x1EA3 PUSH2 0x43A1 JUMP JUMPDEST JUMPDEST SWAP1 POP PUSH1 0x20 MUL DUP2 ADD SWAP1 PUSH2 0x1EB6 SWAP2 SWAP1 PUSH2 0x4C3A JUMP JUMPDEST DUP1 PUSH1 0x80 ADD SWAP1 PUSH2 0x1EC5 SWAP2 SWAP1 PUSH2 0x4407 JUMP JUMPDEST DUP3 PUSH1 0x4 ADD SWAP2 DUP3 PUSH2 0x1ED6 SWAP3 SWAP2 SWAP1 PUSH2 0x488F JUMP JUMPDEST POP JUMPDEST PUSH1 0x0 DUP8 DUP8 DUP6 DUP2 DUP2 LT PUSH2 0x1EED JUMPI PUSH2 0x1EEC PUSH2 0x43A1 JUMP JUMPDEST JUMPDEST SWAP1 POP PUSH1 0x20 MUL DUP2 ADD SWAP1 PUSH2 0x1EFF SWAP2 SWAP1 PUSH2 0x4C3A JUMP JUMPDEST DUP1 PUSH1 0xA0 ADD SWAP1 PUSH2 0x1F0E SWAP2 SWAP1 PUSH2 0x4407 JUMP JUMPDEST SWAP1 POP GT ISZERO PUSH2 0x1F5D JUMPI DUP7 DUP7 DUP5 DUP2 DUP2 LT PUSH2 0x1F29 JUMPI PUSH2 0x1F28 PUSH2 0x43A1 JUMP JUMPDEST JUMPDEST SWAP1 POP PUSH1 0x20 MUL DUP2 ADD SWAP1 PUSH2 0x1F3B SWAP2 SWAP1 PUSH2 0x4C3A JUMP JUMPDEST DUP1 PUSH1 0xA0 ADD SWAP1 PUSH2 0x1F4A SWAP2 SWAP1 PUSH2 0x4407 JUMP JUMPDEST DUP3 PUSH1 0x5 ADD SWAP2 DUP3 PUSH2 0x1F5B SWAP3 SWAP2 SWAP1 PUSH2 0x488F JUMP JUMPDEST POP JUMPDEST PUSH1 0x0 DUP8 DUP8 DUP6 DUP2 DUP2 LT PUSH2 0x1F72 JUMPI PUSH2 0x1F71 PUSH2 0x43A1 JUMP JUMPDEST JUMPDEST SWAP1 POP PUSH1 0x20 MUL DUP2 ADD SWAP1 PUSH2 0x1F84 SWAP2 SWAP1 PUSH2 0x4C3A JUMP JUMPDEST DUP1 PUSH1 0xC0 ADD SWAP1 PUSH2 0x1F93 SWAP2 SWAP1 PUSH2 0x4407 JUMP JUMPDEST SWAP1 POP GT ISZERO PUSH2 0x1FE2 JUMPI DUP7 DUP7 DUP5 DUP2 DUP2 LT PUSH2 0x1FAE JUMPI PUSH2 0x1FAD PUSH2 0x43A1 JUMP JUMPDEST JUMPDEST SWAP1 POP PUSH1 0x20 MUL DUP2 ADD SWAP1 PUSH2 0x1FC0 SWAP2 SWAP1 PUSH2 0x4C3A JUMP JUMPDEST DUP1 PUSH1 0xC0 ADD SWAP1 PUSH2 0x1FCF SWAP2 SWAP1 PUSH2 0x4407 JUMP JUMPDEST DUP3 PUSH1 0x6 ADD SWAP2 DUP3 PUSH2 0x1FE0 SWAP3 SWAP2 SWAP1 PUSH2 0x488F JUMP JUMPDEST POP JUMPDEST TIMESTAMP DUP2 PUSH1 0x7 ADD DUP2 SWAP1 SSTORE POP POP POP JUMPDEST DUP1 DUP1 PUSH1 0x1 ADD SWAP2 POP POP PUSH2 0x17CF JUMP JUMPDEST POP POP POP POP POP JUMP JUMPDEST PUSH2 0x200A PUSH2 0x3508 JUMP JUMPDEST PUSH1 0x0 JUMPDEST DUP3 DUP3 SWAP1 POP DUP2 LT ISZERO PUSH2 0x2270 JUMPI PUSH1 0x0 DUP4 DUP4 DUP4 DUP2 DUP2 LT PUSH2 0x202D JUMPI PUSH2 0x202C PUSH2 0x43A1 JUMP JUMPDEST JUMPDEST SWAP1 POP PUSH1 0x20 MUL ADD CALLDATALOAD SWAP1 POP PUSH1 0x0 PUSH1 0x3 PUSH1 0x0 DUP4 DUP2 MSTORE PUSH1 0x20 ADD SWAP1 DUP2 MSTORE PUSH1 0x20 ADD PUSH1 0x0 KECCAK256 SLOAD SWAP1 POP PUSH1 0x2 DUP1 SLOAD SWAP1 POP DUP2 LT PUSH2 0x2095 JUMPI PUSH1 0x40 MLOAD PUSH32 0x8C379A000000000000000000000000000000000000000000000000000000000 DUP2 MSTORE PUSH1 0x4 ADD PUSH2 0x208C SWAP1 PUSH2 0x4CAE JUMP JUMPDEST PUSH1 0x40 MLOAD DUP1 SWAP2 SUB SWAP1 REVERT JUMPDEST PUSH1 0x0 PUSH1 0x1 PUSH1 0x2 DUP1 SLOAD SWAP1 POP PUSH2 0x20A9 SWAP2 SWAP1 PUSH2 0x479C JUMP JUMPDEST SWAP1 POP DUP1 DUP3 EQ PUSH2 0x21AE JUMPI PUSH1 0x0 PUSH1 0x2 DUP3 DUP2 SLOAD DUP2 LT PUSH2 0x20C8 JUMPI PUSH2 0x20C7 PUSH2 0x43A1 JUMP JUMPDEST JUMPDEST SWAP1 PUSH1 0x0 MSTORE PUSH1 0x20 PUSH1 0x0 KECCAK256 SWAP1 PUSH1 0x8 MUL ADD SWAP1 POP DUP1 PUSH1 0x2 DUP5 DUP2 SLOAD DUP2 LT PUSH2 0x20ED JUMPI PUSH2 0x20EC PUSH2 0x43A1 JUMP JUMPDEST JUMPDEST SWAP1 PUSH1 0x0 MSTORE PUSH1 0x20 PUSH1 0x0 KECCAK256 SWAP1 PUSH1 0x8 MUL ADD PUSH1 0x0 DUP3 ADD SLOAD DUP2 PUSH1 0x0 ADD SSTORE PUSH1 0x1 DUP3 ADD DUP2 PUSH1 0x1 ADD SWAP1 DUP2 PUSH2 0x2119 SWAP2 SWAP1 PUSH2 0x4975 JUMP JUMPDEST POP PUSH1 0x2 DUP3 ADD DUP2 PUSH1 0x2 ADD SWAP1 DUP2 PUSH2 0x212E SWAP2 SWAP1 PUSH2 0x4975 JUMP JUMPDEST POP PUSH1 0x3 DUP3 ADD DUP2 PUSH1 0x3 ADD SWAP1 DUP2 PUSH2 0x2143 SWAP2 SWAP1 PUSH2 0x4975 JUMP JUMPDEST POP PUSH1 0x4 DUP3 ADD DUP2 PUSH1 0x4 ADD SWAP1 DUP2 PUSH2 0x2158 SWAP2 SWAP1 PUSH2 0x4975 JUMP JUMPDEST POP PUSH1 0x5 DUP3 ADD DUP2 PUSH1 0x5 ADD SWAP1 DUP2 PUSH2 0x216D SWAP2 SWAP1 PUSH2 0x4975 JUMP JUMPDEST POP PUSH1 0x6 DUP3 ADD DUP2 PUSH1 0x6 ADD SWAP1 DUP2 PUSH2 0x2182 SWAP2 SWAP1 PUSH2 0x4975 JUMP JUMPDEST POP PUSH1 0x7 DUP3 ADD SLOAD DUP2 PUSH1 0x7 ADD SSTORE SWAP1 POP POP DUP3 PUSH1 0x3 PUSH1 0x0 DUP4 PUSH1 0x0 ADD SLOAD DUP2 MSTORE PUSH1 0x20 ADD SWAP1 DUP2 MSTORE PUSH1 0x20 ADD PUSH1 0x0 KECCAK256 DUP2 SWAP1 SSTORE POP POP JUMPDEST PUSH1 0x2 DUP1 SLOAD DUP1 PUSH2 0x21C0 JUMPI PUSH2 0x21BF PUSH2 0x4A5D JUMP JUMPDEST JUMPDEST PUSH1 0x1 SWAP1 SUB DUP2 DUP2 SWAP1 PUSH1 0x0 MSTORE PUSH1 0x20 PUSH1 0x0 KECCAK256 SWAP1 PUSH1 0x8 MUL ADD PUSH1 0x0 DUP1 DUP3 ADD PUSH1 0x0 SWAP1 SSTORE PUSH1 0x1 DUP3 ADD PUSH1 0x0 PUSH2 0x21ED SWAP2 SWAP1 PUSH2 0x37CF JUMP JUMPDEST PUSH1 0x2 DUP3 ADD PUSH1 0x0 PUSH2 0x21FD SWAP2 SWAP1 PUSH2 0x37CF JUMP JUMPDEST PUSH1 0x3 DUP3 ADD PUSH1 0x0 PUSH2 0x220D SWAP2 SWAP1 PUSH2 0x37CF JUMP JUMPDEST PUSH1 0x4 DUP3 ADD PUSH1 0x0 PUSH2 0x221D SWAP2 SWAP1 PUSH2 0x37CF JUMP JUMPDEST PUSH1 0x5 DUP3 ADD PUSH1 0x0 PUSH2 0x222D SWAP2 SWAP1 PUSH2 0x37CF JUMP JUMPDEST PUSH1 0x6 DUP3 ADD PUSH1 0x0 PUSH2 0x223D SWAP2 SWAP1 PUSH2 0x37CF JUMP JUMPDEST PUSH1 0x7 DUP3 ADD PUSH1 0x0 SWAP1 SSTORE POP POP SWAP1 SSTORE PUSH1 0x3 PUSH1 0x0 DUP5 DUP2 MSTORE PUSH1 0x20 ADD SWAP1 DUP2 MSTORE PUSH1 0x20 ADD PUSH1 0x0 KECCAK256 PUSH1 0x0 SWAP1 SSTORE POP POP POP DUP1 DUP1 PUSH1 0x1 ADD SWAP2 POP POP PUSH2 0x200D JUMP JUMPDEST POP POP POP JUMP JUMPDEST PUSH1 0x0 DUP1 PUSH2 0x2280 PUSH2 0x368E JUMP JUMPDEST SWAP1 POP DUP1 PUSH1 0x0 ADD PUSH1 0x0 SWAP1 SLOAD SWAP1 PUSH2 0x100 EXP SWAP1 DIV PUSH20 0xFFFFFFFFFFFFFFFFFFFFFFFFFFFFFFFFFFFFFFFF AND SWAP2 POP POP SWAP1 JUMP JUMPDEST PUSH1 0x60 PUSH2 0x22B7 PUSH2 0x3508 JUMP JUMPDEST PUSH1 0x2 DUP1 SLOAD DUP1 PUSH1 0x20 MUL PUSH1 0x20 ADD PUSH1 0x40 MLOAD SWAP1 DUP2 ADD PUSH1 0x40 MSTORE DUP1 SWAP3 SWAP2 SWAP1 DUP2 DUP2 MSTORE PUSH1 0x20 ADD PUSH1 0x0 SWAP1 JUMPDEST DUP3 DUP3 LT ISZERO PUSH2 0x268C JUMPI DUP4 DUP3 SWAP1 PUSH1 0x0 MSTORE PUSH1 0x20 PUSH1 0x0 KECCAK256 SWAP1 PUSH1 0x8 MUL ADD PUSH1 0x40 MLOAD DUP1 PUSH2 0x100 ADD PUSH1 0x40 MSTORE SWAP1 DUP2 PUSH1 0x0 DUP3 ADD SLOAD DUP2 MSTORE PUSH1 0x20 ADD PUSH1 0x1 DUP3 ADD DUP1 SLOAD PUSH2 0x2317 SWAP1 PUSH2 0x44C8 JUMP JUMPDEST DUP1 PUSH1 0x1F ADD PUSH1 0x20 DUP1 SWAP2 DIV MUL PUSH1 0x20 ADD PUSH1 0x40 MLOAD SWAP1 DUP2 ADD PUSH1 0x40 MSTORE DUP1 SWAP3 SWAP2 SWAP1 DUP2 DUP2 MSTORE PUSH1 0x20 ADD DUP3 DUP1 SLOAD PUSH2 0x2343 SWAP1 PUSH2 0x44C8 JUMP JUMPDEST DUP1 ISZERO PUSH2 0x2390 JUMPI DUP1 PUSH1 0x1F LT PUSH2 0x2365 JUMPI PUSH2 0x100 DUP1 DUP4 SLOAD DIV MUL DUP4 MSTORE SWAP2 PUSH1 0x20 ADD SWAP2 PUSH2 0x2390 JUMP JUMPDEST DUP3 ADD SWAP2 SWAP1 PUSH1 0x0 MSTORE PUSH1 0x20 PUSH1 0x0 KECCAK256 SWAP1 JUMPDEST DUP2 SLOAD DUP2 MSTORE SWAP1 PUSH1 0x1 ADD SWAP1 PUSH1 0x20 ADD DUP1 DUP4 GT PUSH2 0x2373 JUMPI DUP3 SWAP1 SUB PUSH1 0x1F AND DUP3 ADD SWAP2 JUMPDEST POP POP POP POP POP DUP2 MSTORE PUSH1 0x20 ADD PUSH1 0x2 DUP3 ADD DUP1 SLOAD PUSH2 0x23A9 SWAP1 PUSH2 0x44C8 JUMP JUMPDEST DUP1 PUSH1 0x1F ADD PUSH1 0x20 DUP1 SWAP2 DIV MUL PUSH1 0x20 ADD PUSH1 0x40 MLOAD SWAP1 DUP2 ADD PUSH1 0x40 MSTORE DUP1 SWAP3 SWAP2 SWAP1 DUP2 DUP2 MSTORE PUSH1 0x20 ADD DUP3 DUP1 SLOAD PUSH2 0x23D5 SWAP1 PUSH2 0x44C8 JUMP JUMPDEST DUP1 ISZERO PUSH2 0x2422 JUMPI DUP1 PUSH1 0x1F LT PUSH2 0x23F7 JUMPI PUSH2 0x100 DUP1 DUP4 SLOAD DIV MUL DUP4 MSTORE SWAP2 PUSH1 0x20 ADD SWAP2 PUSH2 0x2422 JUMP JUMPDEST DUP3 ADD SWAP2 SWAP1 PUSH1 0x0 MSTORE PUSH1 0x20 PUSH1 0x0 KECCAK256 SWAP1 JUMPDEST DUP2 SLOAD DUP2 MSTORE SWAP1 PUSH1 0x1 ADD SWAP1 PUSH1 0x20 ADD DUP1 DUP4 GT PUSH2 0x2405 JUMPI DUP3 SWAP1 SUB PUSH1 0x1F AND DUP3 ADD SWAP2 JUMPDEST POP POP POP POP POP DUP2 MSTORE PUSH1 0x20 ADD PUSH1 0x3 DUP3 ADD DUP1 SLOAD PUSH2 0x243B SWAP1 PUSH2 0x44C8 JUMP JUMPDEST DUP1 PUSH1 0x1F ADD PUSH1 0x20 DUP1 SWAP2 DIV MUL PUSH1 0x20 ADD PUSH1 0x40 MLOAD SWAP1 DUP2 ADD PUSH1 0x40 MSTORE DUP1 SWAP3 SWAP2 SWAP1 DUP2 DUP2 MSTORE PUSH1 0x20 ADD DUP3 DUP1 SLOAD PUSH2 0x2467 SWAP1 PUSH2 0x44C8 JUMP JUMPDEST DUP1 ISZERO PUSH2 0x24B4 JUMPI DUP1 PUSH1 0x1F LT PUSH2 0x2489 JUMPI PUSH2 0x100 DUP1 DUP4 SLOAD DIV MUL DUP4 MSTORE SWAP2 PUSH1 0x20 ADD SWAP2 PUSH2 0x24B4 JUMP JUMPDEST DUP3 ADD SWAP2 SWAP1 PUSH1 0x0 MSTORE PUSH1 0x20 PUSH1 0x0 KECCAK256 SWAP1 JUMPDEST DUP2 SLOAD DUP2 MSTORE SWAP1 PUSH1 0x1 ADD SWAP1 PUSH1 0x20 ADD DUP1 DUP4 GT PUSH2 0x2497 JUMPI DUP3 SWAP1 SUB PUSH1 0x1F AND DUP3 ADD SWAP2 JUMPDEST POP POP POP POP POP DUP2 MSTORE PUSH1 0x20 ADD PUSH1 0x4 DUP3 ADD DUP1 SLOAD PUSH2 0x24CD SWAP1 PUSH2 0x44C8 JUMP JUMPDEST DUP1 PUSH1 0x1F ADD PUSH1 0x20 DUP1 SWAP2 DIV MUL PUSH1 0x20 ADD PUSH1 0x40 MLOAD SWAP1 DUP2 ADD PUSH1 0x40 MSTORE DUP1 SWAP3 SWAP2 SWAP1 DUP2 DUP2 MSTORE PUSH1 0x20 ADD DUP3 DUP1 SLOAD PUSH2 0x24F9 SWAP1 PUSH2 0x44C8 JUMP JUMPDEST DUP1 ISZERO PUSH2 0x2546 JUMPI DUP1 PUSH1 0x1F LT PUSH2 0x251B JUMPI PUSH2 0x100 DUP1 DUP4 SLOAD DIV MUL DUP4 MSTORE SWAP2 PUSH1 0x20 ADD SWAP2 PUSH2 0x2546 JUMP JUMPDEST DUP3 ADD SWAP2 SWAP1 PUSH1 0x0 MSTORE PUSH1 0x20 PUSH1 0x0 KECCAK256 SWAP1 JUMPDEST DUP2 SLOAD DUP2 MSTORE SWAP1 PUSH1 0x1 ADD SWAP1 PUSH1 0x20 ADD DUP1 DUP4 GT PUSH2 0x2529 JUMPI DUP3 SWAP1 SUB PUSH1 0x1F AND DUP3 ADD SWAP2 JUMPDEST POP POP POP POP POP DUP2 MSTORE PUSH1 0x20 ADD PUSH1 0x5 DUP3 ADD DUP1 SLOAD PUSH2 0x255F SWAP1 PUSH2 0x44C8 JUMP JUMPDEST DUP1 PUSH1 0x1F ADD PUSH1 0x20 DUP1 SWAP2 DIV MUL PUSH1 0x20 ADD PUSH1 0x40 MLOAD SWAP1 DUP2 ADD PUSH1 0x40 MSTORE DUP1 SWAP3 SWAP2 SWAP1 DUP2 DUP2 MSTORE PUSH1 0x20 ADD DUP3 DUP1 SLOAD PUSH2 0x258B SWAP1 PUSH2 0x44C8 JUMP JUMPDEST DUP1 ISZERO PUSH2 0x25D8 JUMPI DUP1 PUSH1 0x1F LT PUSH2 0x25AD JUMPI PUSH2 0x100 DUP1 DUP4 SLOAD DIV MUL DUP4 MSTORE SWAP2 PUSH1 0x20 ADD SWAP2 PUSH2 0x25D8 JUMP JUMPDEST DUP3 ADD SWAP2 SWAP1 PUSH1 0x0 MSTORE PUSH1 0x20 PUSH1 0x0 KECCAK256 SWAP1 JUMPDEST DUP2 SLOAD DUP2 MSTORE SWAP1 PUSH1 0x1 ADD SWAP1 PUSH1 0x20 ADD DUP1 DUP4 GT PUSH2 0x25BB JUMPI DUP3 SWAP1 SUB PUSH1 0x1F AND DUP3 ADD SWAP2 JUMPDEST POP POP POP POP POP DUP2 MSTORE PUSH1 0x20 ADD PUSH1 0x6 DUP3 ADD DUP1 SLOAD PUSH2 0x25F1 SWAP1 PUSH2 0x44C8 JUMP JUMPDEST DUP1 PUSH1 0x1F ADD PUSH1 0x20 DUP1 SWAP2 DIV MUL PUSH1 0x20 ADD PUSH1 0x40 MLOAD SWAP1 DUP2 ADD PUSH1 0x40 MSTORE DUP1 SWAP3 SWAP2 SWAP1 DUP2 DUP2 MSTORE PUSH1 0x20 ADD DUP3 DUP1 SLOAD PUSH2 0x261D SWAP1 PUSH2 0x44C8 JUMP JUMPDEST DUP1 ISZERO PUSH2 0x266A JUMPI DUP1 PUSH1 0x1F LT PUSH2 0x263F JUMPI PUSH2 0x100 DUP1 DUP4 SLOAD DIV MUL DUP4 MSTORE SWAP2 PUSH1 0x20 ADD SWAP2 PUSH2 0x266A JUMP JUMPDEST DUP3 ADD SWAP2 SWAP1 PUSH1 0x0 MSTORE PUSH1 0x20 PUSH1 0x0 KECCAK256 SWAP1 JUMPDEST DUP2 SLOAD DUP2 MSTORE SWAP1 PUSH1 0x1 ADD SWAP1 PUSH1 0x20 ADD DUP1 DUP4 GT PUSH2 0x264D JUMPI DUP3 SWAP1 SUB PUSH1 0x1F AND DUP3 ADD SWAP2 JUMPDEST POP POP POP POP POP DUP2 MSTORE PUSH1 0x20 ADD PUSH1 0x7 DUP3 ADD SLOAD DUP2 MSTORE POP POP DUP2 MSTORE PUSH1 0x20 ADD SWAP1 PUSH1 0x1 ADD SWAP1 PUSH2 0x22D9 JUMP JUMPDEST POP POP POP POP SWAP1 POP SWAP1 JUMP JUMPDEST PUSH1 0x0 DUP1 SLOAD SWAP1 PUSH2 0x100 EXP SWAP1 DIV PUSH20 0xFFFFFFFFFFFFFFFFFFFFFFFFFFFFFFFFFFFFFFFF AND DUP2 JUMP JUMPDEST PUSH2 0x26C1 PUSH2 0x3508 JUMP JUMPDEST PUSH1 0x0 DUP1 PUSH1 0x0 SWAP1 SLOAD SWAP1 PUSH2 0x100 EXP SWAP1 DIV PUSH20 0xFFFFFFFFFFFFFFFFFFFFFFFFFFFFFFFFFFFFFFFF AND PUSH20 0xFFFFFFFFFFFFFFFFFFFFFFFFFFFFFFFFFFFFFFFF AND PUSH4 0xF9C59D07 PUSH1 0x40 MLOAD DUP2 PUSH4 0xFFFFFFFF AND PUSH1 0xE0 SHL DUP2 MSTORE PUSH1 0x4 ADD PUSH1 0x20 PUSH1 0x40 MLOAD DUP1 DUP4 SUB DUP2 DUP7 GAS STATICCALL ISZERO DUP1 ISZERO PUSH2 0x272F JUMPI RETURNDATASIZE PUSH1 0x0 DUP1 RETURNDATACOPY RETURNDATASIZE PUSH1 0x0 REVERT JUMPDEST POP POP POP POP PUSH1 0x40 MLOAD RETURNDATASIZE PUSH1 0x1F NOT PUSH1 0x1F DUP3 ADD AND DUP3 ADD DUP1 PUSH1 0x40 MSTORE POP DUP2 ADD SWAP1 PUSH2 0x2753 SWAP2 SWAP1 PUSH2 0x421F JUMP JUMPDEST SWAP1 POP DUP1 CALLVALUE EQ PUSH2 0x2797 JUMPI PUSH1 0x40 MLOAD PUSH32 0x8C379A000000000000000000000000000000000000000000000000000000000 DUP2 MSTORE PUSH1 0x4 ADD PUSH2 0x278E SWAP1 PUSH2 0x4D1A JUMP JUMPDEST PUSH1 0x40 MLOAD DUP1 SWAP2 SUB SWAP1 REVERT JUMPDEST PUSH1 0x0 DUP1 PUSH1 0x0 SWAP1 SLOAD SWAP1 PUSH2 0x100 EXP SWAP1 DIV PUSH20 0xFFFFFFFFFFFFFFFFFFFFFFFFFFFFFFFFFFFFFFFF AND PUSH20 0xFFFFFFFFFFFFFFFFFFFFFFFFFFFFFFFFFFFFFFFF AND CALLVALUE PUSH1 0x40 MLOAD PUSH2 0x27DE SWAP1 PUSH2 0x4320 JUMP JUMPDEST PUSH1 0x0 PUSH1 0x40 MLOAD DUP1 DUP4 SUB DUP2 DUP6 DUP8 GAS CALL SWAP3 POP POP POP RETURNDATASIZE DUP1 PUSH1 0x0 DUP2 EQ PUSH2 0x281B JUMPI PUSH1 0x40 MLOAD SWAP2 POP PUSH1 0x1F NOT PUSH1 0x3F RETURNDATASIZE ADD AND DUP3 ADD PUSH1 0x40 MSTORE RETURNDATASIZE DUP3 MSTORE RETURNDATASIZE PUSH1 0x0 PUSH1 0x20 DUP5 ADD RETURNDATACOPY PUSH2 0x2820 JUMP JUMPDEST PUSH1 0x60 SWAP2 POP JUMPDEST POP POP SWAP1 POP DUP1 PUSH2 0x2864 JUMPI PUSH1 0x40 MLOAD PUSH32 0x8C379A000000000000000000000000000000000000000000000000000000000 DUP2 MSTORE PUSH1 0x4 ADD PUSH2 0x285B SWAP1 PUSH2 0x4381 JUMP JUMPDEST PUSH1 0x40 MLOAD DUP1 SWAP2 SUB SWAP1 REVERT JUMPDEST PUSH1 0x0 JUMPDEST DUP5 DUP5 SWAP1 POP DUP2 LT ISZERO PUSH2 0x3093 JUMPI PUSH1 0x0 DUP6 DUP6 DUP4 DUP2 DUP2 LT PUSH2 0x2887 JUMPI PUSH2 0x2886 PUSH2 0x43A1 JUMP JUMPDEST JUMPDEST SWAP1 POP PUSH1 0x20 MUL DUP2 ADD SWAP1 PUSH2 0x2899 SWAP2 SWAP1 PUSH2 0x4D3A JUMP JUMPDEST PUSH1 0x0 ADD CALLDATALOAD SUB PUSH2 0x2CAF JUMPI PUSH1 0x5 PUSH1 0x40 MLOAD DUP1 PUSH2 0x100 ADD PUSH1 0x40 MSTORE DUP1 PUSH1 0x4 SLOAD DUP2 MSTORE PUSH1 0x20 ADD DUP8 DUP8 DUP6 DUP2 DUP2 LT PUSH2 0x28CB JUMPI PUSH2 0x28CA PUSH2 0x43A1 JUMP JUMPDEST JUMPDEST SWAP1 POP PUSH1 0x20 MUL DUP2 ADD SWAP1 PUSH2 0x28DD SWAP2 SWAP1 PUSH2 0x4D3A JUMP JUMPDEST DUP1 PUSH1 0x20 ADD SWAP1 PUSH2 0x28EC SWAP2 SWAP1 PUSH2 0x4407 JUMP JUMPDEST DUP1 DUP1 PUSH1 0x1F ADD PUSH1 0x20 DUP1 SWAP2 DIV MUL PUSH1 0x20 ADD PUSH1 0x40 MLOAD SWAP1 DUP2 ADD PUSH1 0x40 MSTORE DUP1 SWAP4 SWAP3 SWAP2 SWAP1 DUP2 DUP2 MSTORE PUSH1 0x20 ADD DUP4 DUP4 DUP1 DUP3 DUP5 CALLDATACOPY PUSH1 0x0 DUP2 DUP5 ADD MSTORE PUSH1 0x1F NOT PUSH1 0x1F DUP3 ADD AND SWAP1 POP DUP1 DUP4 ADD SWAP3 POP POP POP POP POP POP POP DUP2 MSTORE PUSH1 0x20 ADD DUP8 DUP8 DUP6 DUP2 DUP2 LT PUSH2 0x2947 JUMPI PUSH2 0x2946 PUSH2 0x43A1 JUMP JUMPDEST JUMPDEST SWAP1 POP PUSH1 0x20 MUL DUP2 ADD SWAP1 PUSH2 0x2959 SWAP2 SWAP1 PUSH2 0x4D3A JUMP JUMPDEST DUP1 PUSH1 0x40 ADD SWAP1 PUSH2 0x2968 SWAP2 SWAP1 PUSH2 0x4407 JUMP JUMPDEST DUP1 DUP1 PUSH1 0x1F ADD PUSH1 0x20 DUP1 SWAP2 DIV MUL PUSH1 0x20 ADD PUSH1 0x40 MLOAD SWAP1 DUP2 ADD PUSH1 0x40 MSTORE DUP1 SWAP4 SWAP3 SWAP2 SWAP1 DUP2 DUP2 MSTORE PUSH1 0x20 ADD DUP4 DUP4 DUP1 DUP3 DUP5 CALLDATACOPY PUSH1 0x0 DUP2 DUP5 ADD MSTORE PUSH1 0x1F NOT PUSH1 0x1F DUP3 ADD AND SWAP1 POP DUP1 DUP4 ADD SWAP3 POP POP POP POP POP POP POP DUP2 MSTORE PUSH1 0x20 ADD DUP8 DUP8 DUP6 DUP2 DUP2 LT PUSH2 0x29C3 JUMPI PUSH2 0x29C2 PUSH2 0x43A1 JUMP JUMPDEST JUMPDEST SWAP1 POP PUSH1 0x20 MUL DUP2 ADD SWAP1 PUSH2 0x29D5 SWAP2 SWAP1 PUSH2 0x4D3A JUMP JUMPDEST DUP1 PUSH1 0x60 ADD SWAP1 PUSH2 0x29E4 SWAP2 SWAP1 PUSH2 0x4407 JUMP JUMPDEST DUP1 DUP1 PUSH1 0x1F ADD PUSH1 0x20 DUP1 SWAP2 DIV MUL PUSH1 0x20 ADD PUSH1 0x40 MLOAD SWAP1 DUP2 ADD PUSH1 0x40 MSTORE DUP1 SWAP4 SWAP3 SWAP2 SWAP1 DUP2 DUP2 MSTORE PUSH1 0x20 ADD DUP4 DUP4 DUP1 DUP3 DUP5 CALLDATACOPY PUSH1 0x0 DUP2 DUP5 ADD MSTORE PUSH1 0x1F NOT PUSH1 0x1F DUP3 ADD AND SWAP1 POP DUP1 DUP4 ADD SWAP3 POP POP POP POP POP POP POP DUP2 MSTORE PUSH1 0x20 ADD DUP8 DUP8 DUP6 DUP2 DUP2 LT PUSH2 0x2A3F JUMPI PUSH2 0x2A3E PUSH2 0x43A1 JUMP JUMPDEST JUMPDEST SWAP1 POP PUSH1 0x20 MUL DUP2 ADD SWAP1 PUSH2 0x2A51 SWAP2 SWAP1 PUSH2 0x4D3A JUMP JUMPDEST DUP1 PUSH1 0x80 ADD SWAP1 PUSH2 0x2A60 SWAP2 SWAP1 PUSH2 0x4407 JUMP JUMPDEST DUP1 DUP1 PUSH1 0x1F ADD PUSH1 0x20 DUP1 SWAP2 DIV MUL PUSH1 0x20 ADD PUSH1 0x40 MLOAD SWAP1 DUP2 ADD PUSH1 0x40 MSTORE DUP1 SWAP4 SWAP3 SWAP2 SWAP1 DUP2 DUP2 MSTORE PUSH1 0x20 ADD DUP4 DUP4 DUP1 DUP3 DUP5 CALLDATACOPY PUSH1 0x0 DUP2 DUP5 ADD MSTORE PUSH1 0x1F NOT PUSH1 0x1F DUP3 ADD AND SWAP1 POP DUP1 DUP4 ADD SWAP3 POP POP POP POP POP POP POP DUP2 MSTORE PUSH1 0x20 ADD DUP8 DUP8 DUP6 DUP2 DUP2 LT PUSH2 0x2ABB JUMPI PUSH2 0x2ABA PUSH2 0x43A1 JUMP JUMPDEST JUMPDEST SWAP1 POP PUSH1 0x20 MUL DUP2 ADD SWAP1 PUSH2 0x2ACD SWAP2 SWAP1 PUSH2 0x4D3A JUMP JUMPDEST DUP1 PUSH1 0xA0 ADD SWAP1 PUSH2 0x2ADC SWAP2 SWAP1 PUSH2 0x4407 JUMP JUMPDEST DUP1 DUP1 PUSH1 0x1F ADD PUSH1 0x20 DUP1 SWAP2 DIV MUL PUSH1 0x20 ADD PUSH1 0x40 MLOAD SWAP1 DUP2 ADD PUSH1 0x40 MSTORE DUP1 SWAP4 SWAP3 SWAP2 SWAP1 DUP2 DUP2 MSTORE PUSH1 0x20 ADD DUP4 DUP4 DUP1 DUP3 DUP5 CALLDATACOPY PUSH1 0x0 DUP2 DUP5 ADD MSTORE PUSH1 0x1F NOT PUSH1 0x1F DUP3 ADD AND SWAP1 POP DUP1 DUP4 ADD SWAP3 POP POP POP POP POP POP POP DUP2 MSTORE PUSH1 0x20 ADD DUP8 DUP8 DUP6 DUP2 DUP2 LT PUSH2 0x2B37 JUMPI PUSH2 0x2B36 PUSH2 0x43A1 JUMP JUMPDEST JUMPDEST SWAP1 POP PUSH1 0x20 MUL DUP2 ADD SWAP1 PUSH2 0x2B49 SWAP2 SWAP1 PUSH2 0x4D3A JUMP JUMPDEST DUP1 PUSH1 0xC0 ADD SWAP1 PUSH2 0x2B58 SWAP2 SWAP1 PUSH2 0x4407 JUMP JUMPDEST DUP1 DUP1 PUSH1 0x1F ADD PUSH1 0x20 DUP1 SWAP2 DIV MUL PUSH1 0x20 ADD PUSH1 0x40 MLOAD SWAP1 DUP2 ADD PUSH1 0x40 MSTORE DUP1 SWAP4 SWAP3 SWAP2 SWAP1 DUP2 DUP2 MSTORE PUSH1 0x20 ADD DUP4 DUP4 DUP1 DUP3 DUP5 CALLDATACOPY PUSH1 0x0 DUP2 DUP5 ADD MSTORE PUSH1 0x1F NOT PUSH1 0x1F DUP3 ADD AND SWAP1 POP DUP1 DUP4 ADD SWAP3 POP POP POP POP POP POP POP DUP2 MSTORE PUSH1 0x20 ADD TIMESTAMP DUP2 MSTORE POP SWAP1 DUP1 PUSH1 0x1 DUP2 SLOAD ADD DUP1 DUP3 SSTORE DUP1 SWAP2 POP POP PUSH1 0x1 SWAP1 SUB SWAP1 PUSH1 0x0 MSTORE PUSH1 0x20 PUSH1 0x0 KECCAK256 SWAP1 PUSH1 0x8 MUL ADD PUSH1 0x0 SWAP1 SWAP2 SWAP1 SWAP2 SWAP1 SWAP2 POP PUSH1 0x0 DUP3 ADD MLOAD DUP2 PUSH1 0x0 ADD SSTORE PUSH1 0x20 DUP3 ADD MLOAD DUP2 PUSH1 0x1 ADD SWAP1 DUP2 PUSH2 0x2BEC SWAP2 SWAP1 PUSH2 0x469B JUMP JUMPDEST POP PUSH1 0x40 DUP3 ADD MLOAD DUP2 PUSH1 0x2 ADD SWAP1 DUP2 PUSH2 0x2C02 SWAP2 SWAP1 PUSH2 0x469B JUMP JUMPDEST POP PUSH1 0x60 DUP3 ADD MLOAD DUP2 PUSH1 0x3 ADD SWAP1 DUP2 PUSH2 0x2C18 SWAP2 SWAP1 PUSH2 0x469B JUMP JUMPDEST POP PUSH1 0x80 DUP3 ADD MLOAD DUP2 PUSH1 0x4 ADD SWAP1 DUP2 PUSH2 0x2C2E SWAP2 SWAP1 PUSH2 0x469B JUMP JUMPDEST POP PUSH1 0xA0 DUP3 ADD MLOAD DUP2 PUSH1 0x5 ADD SWAP1 DUP2 PUSH2 0x2C44 SWAP2 SWAP1 PUSH2 0x469B JUMP JUMPDEST POP PUSH1 0xC0 DUP3 ADD MLOAD DUP2 PUSH1 0x6 ADD SWAP1 DUP2 PUSH2 0x2C5A SWAP2 SWAP1 PUSH2 0x469B JUMP JUMPDEST POP PUSH1 0xE0 DUP3 ADD MLOAD DUP2 PUSH1 0x7 ADD SSTORE POP POP PUSH1 0x1 PUSH1 0x5 DUP1 SLOAD SWAP1 POP PUSH2 0x2C79 SWAP2 SWAP1 PUSH2 0x479C JUMP JUMPDEST PUSH1 0x6 PUSH1 0x0 PUSH1 0x4 SLOAD DUP2 MSTORE PUSH1 0x20 ADD SWAP1 DUP2 MSTORE PUSH1 0x20 ADD PUSH1 0x0 KECCAK256 DUP2 SWAP1 SSTORE POP PUSH1 0x4 PUSH1 0x0 DUP2 SLOAD DUP1 SWAP3 SWAP2 SWAP1 PUSH2 0x2CA5 SWAP1 PUSH2 0x47D0 JUMP JUMPDEST SWAP2 SWAP1 POP SSTORE POP PUSH2 0x3086 JUMP JUMPDEST PUSH1 0x0 PUSH1 0x6 PUSH1 0x0 DUP8 DUP8 DUP6 DUP2 DUP2 LT PUSH2 0x2CC8 JUMPI PUSH2 0x2CC7 PUSH2 0x43A1 JUMP JUMPDEST JUMPDEST SWAP1 POP PUSH1 0x20 MUL DUP2 ADD SWAP1 PUSH2 0x2CDA SWAP2 SWAP1 PUSH2 0x4D3A JUMP JUMPDEST PUSH1 0x0 ADD CALLDATALOAD DUP2 MSTORE PUSH1 0x20 ADD SWAP1 DUP2 MSTORE PUSH1 0x20 ADD PUSH1 0x0 KECCAK256 SLOAD SWAP1 POP PUSH1 0x5 DUP1 SLOAD SWAP1 POP DUP2 LT PUSH2 0x2D36 JUMPI PUSH1 0x40 MLOAD PUSH32 0x8C379A000000000000000000000000000000000000000000000000000000000 DUP2 MSTORE PUSH1 0x4 ADD PUSH2 0x2D2D SWAP1 PUSH2 0x4BAE JUMP JUMPDEST PUSH1 0x40 MLOAD DUP1 SWAP2 SUB SWAP1 REVERT JUMPDEST PUSH1 0x0 PUSH1 0x5 DUP3 DUP2 SLOAD DUP2 LT PUSH2 0x2D4C JUMPI PUSH2 0x2D4B PUSH2 0x43A1 JUMP JUMPDEST JUMPDEST SWAP1 PUSH1 0x0 MSTORE PUSH1 0x20 PUSH1 0x0 KECCAK256 SWAP1 PUSH1 0x8 MUL ADD SWAP1 POP PUSH1 0x0 DUP8 DUP8 DUP6 DUP2 DUP2 LT PUSH2 0x2D71 JUMPI PUSH2 0x2D70 PUSH2 0x43A1 JUMP JUMPDEST JUMPDEST SWAP1 POP PUSH1 0x20 MUL DUP2 ADD SWAP1 PUSH2 0x2D83 SWAP2 SWAP1 PUSH2 0x4D3A JUMP JUMPDEST DUP1 PUSH1 0x20 ADD SWAP1 PUSH2 0x2D92 SWAP2 SWAP1 PUSH2 0x4407 JUMP JUMPDEST SWAP1 POP GT ISZERO PUSH2 0x2DE1 JUMPI DUP7 DUP7 DUP5 DUP2 DUP2 LT PUSH2 0x2DAD JUMPI PUSH2 0x2DAC PUSH2 0x43A1 JUMP JUMPDEST JUMPDEST SWAP1 POP PUSH1 0x20 MUL DUP2 ADD SWAP1 PUSH2 0x2DBF SWAP2 SWAP1 PUSH2 0x4D3A JUMP JUMPDEST DUP1 PUSH1 0x20 ADD SWAP1 PUSH2 0x2DCE SWAP2 SWAP1 PUSH2 0x4407 JUMP JUMPDEST DUP3 PUSH1 0x1 ADD SWAP2 DUP3 PUSH2 0x2DDF SWAP3 SWAP2 SWAP1 PUSH2 0x488F JUMP JUMPDEST POP JUMPDEST PUSH1 0x0 DUP8 DUP8 DUP6 DUP2 DUP2 LT PUSH2 0x2DF6 JUMPI PUSH2 0x2DF5 PUSH2 0x43A1 JUMP JUMPDEST JUMPDEST SWAP1 POP PUSH1 0x20 MUL DUP2 ADD SWAP1 PUSH2 0x2E08 SWAP2 SWAP1 PUSH2 0x4D3A JUMP JUMPDEST DUP1 PUSH1 0x40 ADD SWAP1 PUSH2 0x2E17 SWAP2 SWAP1 PUSH2 0x4407 JUMP JUMPDEST SWAP1 POP GT ISZERO PUSH2 0x2E66 JUMPI DUP7 DUP7 DUP5 DUP2 DUP2 LT PUSH2 0x2E32 JUMPI PUSH2 0x2E31 PUSH2 0x43A1 JUMP JUMPDEST JUMPDEST SWAP1 POP PUSH1 0x20 MUL DUP2 ADD SWAP1 PUSH2 0x2E44 SWAP2 SWAP1 PUSH2 0x4D3A JUMP JUMPDEST DUP1 PUSH1 0x40 ADD SWAP1 PUSH2 0x2E53 SWAP2 SWAP1 PUSH2 0x4407 JUMP JUMPDEST DUP3 PUSH1 0x2 ADD SWAP2 DUP3 PUSH2 0x2E64 SWAP3 SWAP2 SWAP1 PUSH2 0x488F JUMP JUMPDEST POP JUMPDEST PUSH1 0x0 DUP8 DUP8 DUP6 DUP2 DUP2 LT PUSH2 0x2E7B JUMPI PUSH2 0x2E7A PUSH2 0x43A1 JUMP JUMPDEST JUMPDEST SWAP1 POP PUSH1 0x20 MUL DUP2 ADD SWAP1 PUSH2 0x2E8D SWAP2 SWAP1 PUSH2 0x4D3A JUMP JUMPDEST DUP1 PUSH1 0x60 ADD SWAP1 PUSH2 0x2E9C SWAP2 SWAP1 PUSH2 0x4407 JUMP JUMPDEST SWAP1 POP GT ISZERO PUSH2 0x2EEB JUMPI DUP7 DUP7 DUP5 DUP2 DUP2 LT PUSH2 0x2EB7 JUMPI PUSH2 0x2EB6 PUSH2 0x43A1 JUMP JUMPDEST JUMPDEST SWAP1 POP PUSH1 0x20 MUL DUP2 ADD SWAP1 PUSH2 0x2EC9 SWAP2 SWAP1 PUSH2 0x4D3A JUMP JUMPDEST DUP1 PUSH1 0x60 ADD SWAP1 PUSH2 0x2ED8 SWAP2 SWAP1 PUSH2 0x4407 JUMP JUMPDEST DUP3 PUSH1 0x3 ADD SWAP2 DUP3 PUSH2 0x2EE9 SWAP3 SWAP2 SWAP1 PUSH2 0x488F JUMP JUMPDEST POP JUMPDEST PUSH1 0x0 DUP8 DUP8 DUP6 DUP2 DUP2 LT PUSH2 0x2F00 JUMPI PUSH2 0x2EFF PUSH2 0x43A1 JUMP JUMPDEST JUMPDEST SWAP1 POP PUSH1 0x20 MUL DUP2 ADD SWAP1 PUSH2 0x2F12 SWAP2 SWAP1 PUSH2 0x4D3A JUMP JUMPDEST DUP1 PUSH1 0x80 ADD SWAP1 PUSH2 0x2F21 SWAP2 SWAP1 PUSH2 0x4407 JUMP JUMPDEST SWAP1 POP GT ISZERO PUSH2 0x2F70 JUMPI DUP7 DUP7 DUP5 DUP2 DUP2 LT PUSH2 0x2F3C JUMPI PUSH2 0x2F3B PUSH2 0x43A1 JUMP JUMPDEST JUMPDEST SWAP1 POP PUSH1 0x20 MUL DUP2 ADD SWAP1 PUSH2 0x2F4E SWAP2 SWAP1 PUSH2 0x4D3A JUMP JUMPDEST DUP1 PUSH1 0x80 ADD SWAP1 PUSH2 0x2F5D SWAP2 SWAP1 PUSH2 0x4407 JUMP JUMPDEST DUP3 PUSH1 0x4 ADD SWAP2 DUP3 PUSH2 0x2F6E SWAP3 SWAP2 SWAP1 PUSH2 0x488F JUMP JUMPDEST POP JUMPDEST PUSH1 0x0 DUP8 DUP8 DUP6 DUP2 DUP2 LT PUSH2 0x2F85 JUMPI PUSH2 0x2F84 PUSH2 0x43A1 JUMP JUMPDEST JUMPDEST SWAP1 POP PUSH1 0x20 MUL DUP2 ADD SWAP1 PUSH2 0x2F97 SWAP2 SWAP1 PUSH2 0x4D3A JUMP JUMPDEST DUP1 PUSH1 0xA0 ADD SWAP1 PUSH2 0x2FA6 SWAP2 SWAP1 PUSH2 0x4407 JUMP JUMPDEST SWAP1 POP GT ISZERO PUSH2 0x2FF5 JUMPI DUP7 DUP7 DUP5 DUP2 DUP2 LT PUSH2 0x2FC1 JUMPI PUSH2 0x2FC0 PUSH2 0x43A1 JUMP JUMPDEST JUMPDEST SWAP1 POP PUSH1 0x20 MUL DUP2 ADD SWAP1 PUSH2 0x2FD3 SWAP2 SWAP1 PUSH2 0x4D3A JUMP JUMPDEST DUP1 PUSH1 0xA0 ADD SWAP1 PUSH2 0x2FE2 SWAP2 SWAP1 PUSH2 0x4407 JUMP JUMPDEST DUP3 PUSH1 0x5 ADD SWAP2 DUP3 PUSH2 0x2FF3 SWAP3 SWAP2 SWAP1 PUSH2 0x488F JUMP JUMPDEST POP JUMPDEST PUSH1 0x0 DUP8 DUP8 DUP6 DUP2 DUP2 LT PUSH2 0x300A JUMPI PUSH2 0x3009 PUSH2 0x43A1 JUMP JUMPDEST JUMPDEST SWAP1 POP PUSH1 0x20 MUL DUP2 ADD SWAP1 PUSH2 0x301C SWAP2 SWAP1 PUSH2 0x4D3A JUMP JUMPDEST DUP1 PUSH1 0xC0 ADD SWAP1 PUSH2 0x302B SWAP2 SWAP1 PUSH2 0x4407 JUMP JUMPDEST SWAP1 POP GT ISZERO PUSH2 0x307A JUMPI DUP7 DUP7 DUP5 DUP2 DUP2 LT PUSH2 0x3046 JUMPI PUSH2 0x3045 PUSH2 0x43A1 JUMP JUMPDEST JUMPDEST SWAP1 POP PUSH1 0x20 MUL DUP2 ADD SWAP1 PUSH2 0x3058 SWAP2 SWAP1 PUSH2 0x4D3A JUMP JUMPDEST DUP1 PUSH1 0xC0 ADD SWAP1 PUSH2 0x3067 SWAP2 SWAP1 PUSH2 0x4407 JUMP JUMPDEST DUP3 PUSH1 0x6 ADD SWAP2 DUP3 PUSH2 0x3078 SWAP3 SWAP2 SWAP1 PUSH2 0x488F JUMP JUMPDEST POP JUMPDEST TIMESTAMP DUP2 PUSH1 0x7 ADD DUP2 SWAP1 SSTORE POP POP POP JUMPDEST DUP1 DUP1 PUSH1 0x1 ADD SWAP2 POP POP PUSH2 0x2867 JUMP JUMPDEST POP POP POP POP POP JUMP JUMPDEST PUSH2 0x30A2 PUSH2 0x3508 JUMP JUMPDEST PUSH1 0x0 PUSH20 0xFFFFFFFFFFFFFFFFFFFFFFFFFFFFFFFFFFFFFFFF AND DUP2 PUSH20 0xFFFFFFFFFFFFFFFFFFFFFFFFFFFFFFFFFFFFFFFF AND SUB PUSH2 0x3114 JUMPI PUSH1 0x0 PUSH1 0x40 MLOAD PUSH32 0x1E4FBDF700000000000000000000000000000000000000000000000000000000 DUP2 MSTORE PUSH1 0x4 ADD PUSH2 0x310B SWAP2 SWAP1 PUSH2 0x3D20 JUMP JUMPDEST PUSH1 0x40 MLOAD DUP1 SWAP2 SUB SWAP1 REVERT JUMPDEST PUSH2 0x311D DUP2 PUSH2 0x35B7 JUMP JUMPDEST POP JUMP JUMPDEST PUSH1 0x60 PUSH2 0x312A PUSH2 0x3508 JUMP JUMPDEST PUSH1 0x5 DUP1 SLOAD DUP1 PUSH1 0x20 MUL PUSH1 0x20 ADD PUSH1 0x40 MLOAD SWAP1 DUP2 ADD PUSH1 0x40 MSTORE DUP1 SWAP3 SWAP2 SWAP1 DUP2 DUP2 MSTORE PUSH1 0x20 ADD PUSH1 0x0 SWAP1 JUMPDEST DUP3 DUP3 LT ISZERO PUSH2 0x34FF JUMPI DUP4 DUP3 SWAP1 PUSH1 0x0 MSTORE PUSH1 0x20 PUSH1 0x0 KECCAK256 SWAP1 PUSH1 0x8 MUL ADD PUSH1 0x40 MLOAD DUP1 PUSH2 0x100 ADD PUSH1 0x40 MSTORE SWAP1 DUP2 PUSH1 0x0 DUP3 ADD SLOAD DUP2 MSTORE PUSH1 0x20 ADD PUSH1 0x1 DUP3 ADD DUP1 SLOAD PUSH2 0x318A SWAP1 PUSH2 0x44C8 JUMP JUMPDEST DUP1 PUSH1 0x1F ADD PUSH1 0x20 DUP1 SWAP2 DIV MUL PUSH1 0x20 ADD PUSH1 0x40 MLOAD SWAP1 DUP2 ADD PUSH1 0x40 MSTORE DUP1 SWAP3 SWAP2 SWAP1 DUP2 DUP2 MSTORE PUSH1 0x20 ADD DUP3 DUP1 SLOAD PUSH2 0x31B6 SWAP1 PUSH2 0x44C8 JUMP JUMPDEST DUP1 ISZERO PUSH2 0x3203 JUMPI DUP1 PUSH1 0x1F LT PUSH2 0x31D8 JUMPI PUSH2 0x100 DUP1 DUP4 SLOAD DIV MUL DUP4 MSTORE SWAP2 PUSH1 0x20 ADD SWAP2 PUSH2 0x3203 JUMP JUMPDEST DUP3 ADD SWAP2 SWAP1 PUSH1 0x0 MSTORE PUSH1 0x20 PUSH1 0x0 KECCAK256 SWAP1 JUMPDEST DUP2 SLOAD DUP2 MSTORE SWAP1 PUSH1 0x1 ADD SWAP1 PUSH1 0x20 ADD DUP1 DUP4 GT PUSH2 0x31E6 JUMPI DUP3 SWAP1 SUB PUSH1 0x1F AND DUP3 ADD SWAP2 JUMPDEST POP POP POP POP POP DUP2 MSTORE PUSH1 0x20 ADD PUSH1 0x2 DUP3 ADD DUP1 SLOAD PUSH2 0x321C SWAP1 PUSH2 0x44C8 JUMP JUMPDEST DUP1 PUSH1 0x1F ADD PUSH1 0x20 DUP1 SWAP2 DIV MUL PUSH1 0x20 ADD PUSH1 0x40 MLOAD SWAP1 DUP2 ADD PUSH1 0x40 MSTORE DUP1 SWAP3 SWAP2 SWAP1 DUP2 DUP2 MSTORE PUSH1 0x20 ADD DUP3 DUP1 SLOAD PUSH2 0x3248 SWAP1 PUSH2 0x44C8 JUMP JUMPDEST DUP1 ISZERO PUSH2 0x3295 JUMPI DUP1 PUSH1 0x1F LT PUSH2 0x326A JUMPI PUSH2 0x100 DUP1 DUP4 SLOAD DIV MUL DUP4 MSTORE SWAP2 PUSH1 0x20 ADD SWAP2 PUSH2 0x3295 JUMP JUMPDEST DUP3 ADD SWAP2 SWAP1 PUSH1 0x0 MSTORE PUSH1 0x20 PUSH1 0x0 KECCAK256 SWAP1 JUMPDEST DUP2 SLOAD DUP2 MSTORE SWAP1 PUSH1 0x1 ADD SWAP1 PUSH1 0x20 ADD DUP1 DUP4 GT PUSH2 0x3278 JUMPI DUP3 SWAP1 SUB PUSH1 0x1F AND DUP3 ADD SWAP2 JUMPDEST POP POP POP POP POP DUP2 MSTORE PUSH1 0x20 ADD PUSH1 0x3 DUP3 ADD DUP1 SLOAD PUSH2 0x32AE SWAP1 PUSH2 0x44C8 JUMP JUMPDEST DUP1 PUSH1 0x1F ADD PUSH1 0x20 DUP1 SWAP2 DIV MUL PUSH1 0x20 ADD PUSH1 0x40 MLOAD SWAP1 DUP2 ADD PUSH1 0x40 MSTORE DUP1 SWAP3 SWAP2 SWAP1 DUP2 DUP2 MSTORE PUSH1 0x20 ADD DUP3 DUP1 SLOAD PUSH2 0x32DA SWAP1 PUSH2 0x44C8 JUMP JUMPDEST DUP1 ISZERO PUSH2 0x3327 JUMPI DUP1 PUSH1 0x1F LT PUSH2 0x32FC JUMPI PUSH2 0x100 DUP1 DUP4 SLOAD DIV MUL DUP4 MSTORE SWAP2 PUSH1 0x20 ADD SWAP2 PUSH2 0x3327 JUMP JUMPDEST DUP3 ADD SWAP2 SWAP1 PUSH1 0x0 MSTORE PUSH1 0x20 PUSH1 0x0 KECCAK256 SWAP1 JUMPDEST DUP2 SLOAD DUP2 MSTORE SWAP1 PUSH1 0x1 ADD SWAP1 PUSH1 0x20 ADD DUP1 DUP4 GT PUSH2 0x330A JUMPI DUP3 SWAP1 SUB PUSH1 0x1F AND DUP3 ADD SWAP2 JUMPDEST POP POP POP POP POP DUP2 MSTORE PUSH1 0x20 ADD PUSH1 0x4 DUP3 ADD DUP1 SLOAD PUSH2 0x3340 SWAP1 PUSH2 0x44C8 JUMP JUMPDEST DUP1 PUSH1 0x1F ADD PUSH1 0x20 DUP1 SWAP2 DIV MUL PUSH1 0x20 ADD PUSH1 0x40 MLOAD SWAP1 DUP2 ADD PUSH1 0x40 MSTORE DUP1 SWAP3 SWAP2 SWAP1 DUP2 DUP2 MSTORE PUSH1 0x20 ADD DUP3 DUP1 SLOAD PUSH2 0x336C SWAP1 PUSH2 0x44C8 JUMP JUMPDEST DUP1 ISZERO PUSH2 0x33B9 JUMPI DUP1 PUSH1 0x1F LT PUSH2 0x338E JUMPI PUSH2 0x100 DUP1 DUP4 SLOAD DIV MUL DUP4 MSTORE SWAP2 PUSH1 0x20 ADD SWAP2 PUSH2 0x33B9 JUMP JUMPDEST DUP3 ADD SWAP2 SWAP1 PUSH1 0x0 MSTORE PUSH1 0x20 PUSH1 0x0 KECCAK256 SWAP1 JUMPDEST DUP2 SLOAD DUP2 MSTORE SWAP1 PUSH1 0x1 ADD SWAP1 PUSH1 0x20 ADD DUP1 DUP4 GT PUSH2 0x339C JUMPI DUP3 SWAP1 SUB PUSH1 0x1F AND DUP3 ADD SWAP2 JUMPDEST POP POP POP POP POP DUP2 MSTORE PUSH1 0x20 ADD PUSH1 0x5 DUP3 ADD DUP1 SLOAD PUSH2 0x33D2 SWAP1 PUSH2 0x44C8 JUMP JUMPDEST DUP1 PUSH1 0x1F ADD PUSH1 0x20 DUP1 SWAP2 DIV MUL PUSH1 0x20 ADD PUSH1 0x40 MLOAD SWAP1 DUP2 ADD PUSH1 0x40 MSTORE DUP1 SWAP3 SWAP2 SWAP1 DUP2 DUP2 MSTORE PUSH1 0x20 ADD DUP3 DUP1 SLOAD PUSH2 0x33FE SWAP1 PUSH2 0x44C8 JUMP JUMPDEST DUP1 ISZERO PUSH2 0x344B JUMPI DUP1 PUSH1 0x1F LT PUSH2 0x3420 JUMPI PUSH2 0x100 DUP1 DUP4 SLOAD DIV MUL DUP4 MSTORE SWAP2 PUSH1 0x20 ADD SWAP2 PUSH2 0x344B JUMP JUMPDEST DUP3 ADD SWAP2 SWAP1 PUSH1 0x0 MSTORE PUSH1 0x20 PUSH1 0x0 KECCAK256 SWAP1 JUMPDEST DUP2 SLOAD DUP2 MSTORE SWAP1 PUSH1 0x1 ADD SWAP1 PUSH1 0x20 ADD DUP1 DUP4 GT PUSH2 0x342E JUMPI DUP3 SWAP1 SUB PUSH1 0x1F AND DUP3 ADD SWAP2 JUMPDEST POP POP POP POP POP DUP2 MSTORE PUSH1 0x20 ADD PUSH1 0x6 DUP3 ADD DUP1 SLOAD PUSH2 0x3464 SWAP1 PUSH2 0x44C8 JUMP JUMPDEST DUP1 PUSH1 0x1F ADD PUSH1 0x20 DUP1 SWAP2 DIV MUL PUSH1 0x20 ADD PUSH1 0x40 MLOAD SWAP1 DUP2 ADD PUSH1 0x40 MSTORE DUP1 SWAP3 SWAP2 SWAP1 DUP2 DUP2 MSTORE PUSH1 0x20 ADD DUP3 DUP1 SLOAD PUSH2 0x3490 SWAP1 PUSH2 0x44C8 JUMP JUMPDEST DUP1 ISZERO PUSH2 0x34DD JUMPI DUP1 PUSH1 0x1F LT PUSH2 0x34B2 JUMPI PUSH2 0x100 DUP1 DUP4 SLOAD DIV MUL DUP4 MSTORE SWAP2 PUSH1 0x20 ADD SWAP2 PUSH2 0x34DD JUMP JUMPDEST DUP3 ADD SWAP2 SWAP1 PUSH1 0x0 MSTORE PUSH1 0x20 PUSH1 0x0 KECCAK256 SWAP1 JUMPDEST DUP2 SLOAD DUP2 MSTORE SWAP1 PUSH1 0x1 ADD SWAP1 PUSH1 0x20 ADD DUP1 DUP4 GT PUSH2 0x34C0 JUMPI DUP3 SWAP1 SUB PUSH1 0x1F AND DUP3 ADD SWAP2 JUMPDEST POP POP POP POP POP DUP2 MSTORE PUSH1 0x20 ADD PUSH1 0x7 DUP3 ADD SLOAD DUP2 MSTORE POP POP DUP2 MSTORE PUSH1 0x20 ADD SWAP1 PUSH1 0x1 ADD SWAP1 PUSH2 0x314C JUMP JUMPDEST POP POP POP POP SWAP1 POP SWAP1 JUMP JUMPDEST PUSH2 0x3510 PUSH2 0x36B6 JUMP JUMPDEST PUSH20 0xFFFFFFFFFFFFFFFFFFFFFFFFFFFFFFFFFFFFFFFF AND PUSH2 0x352E PUSH2 0x2275 JUMP JUMPDEST PUSH20 0xFFFFFFFFFFFFFFFFFFFFFFFFFFFFFFFFFFFFFFFF AND EQ PUSH2 0x358D JUMPI PUSH2 0x3551 PUSH2 0x36B6 JUMP JUMPDEST PUSH1 0x40 MLOAD PUSH32 0x118CDAA700000000000000000000000000000000000000000000000000000000 DUP2 MSTORE PUSH1 0x4 ADD PUSH2 0x3584 SWAP2 SWAP1 PUSH2 0x3D20 JUMP JUMPDEST PUSH1 0x40 MLOAD DUP1 SWAP2 SUB SWAP1 REVERT JUMPDEST JUMP JUMPDEST PUSH1 0x0 DUP1 PUSH2 0x359A PUSH2 0x36BE JUMP JUMPDEST SWAP1 POP DUP1 SWAP2 POP POP SWAP1 JUMP JUMPDEST PUSH2 0x35AB PUSH2 0x36E9 JUMP JUMPDEST PUSH2 0x35B4 DUP2 PUSH2 0x3729 JUMP JUMPDEST POP JUMP JUMPDEST PUSH1 0x0 PUSH2 0x35C1 PUSH2 0x368E JUMP JUMPDEST SWAP1 POP PUSH1 0x0 DUP2 PUSH1 0x0 ADD PUSH1 0x0 SWAP1 SLOAD SWAP1 PUSH2 0x100 EXP SWAP1 DIV PUSH20 0xFFFFFFFFFFFFFFFFFFFFFFFFFFFFFFFFFFFFFFFF AND SWAP1 POP DUP3 DUP3 PUSH1 0x0 ADD PUSH1 0x0 PUSH2 0x100 EXP DUP2 SLOAD DUP2 PUSH20 0xFFFFFFFFFFFFFFFFFFFFFFFFFFFFFFFFFFFFFFFF MUL NOT AND SWAP1 DUP4 PUSH20 0xFFFFFFFFFFFFFFFFFFFFFFFFFFFFFFFFFFFFFFFF AND MUL OR SWAP1 SSTORE POP DUP3 PUSH20 0xFFFFFFFFFFFFFFFFFFFFFFFFFFFFFFFFFFFFFFFF AND DUP2 PUSH20 0xFFFFFFFFFFFFFFFFFFFFFFFFFFFFFFFFFFFFFFFF AND PUSH32 0x8BE0079C531659141344CD1FD0A4F28419497F9722A3DAAFE3B4186F6B6457E0 PUSH1 0x40 MLOAD PUSH1 0x40 MLOAD DUP1 SWAP2 SUB SWAP1 LOG3 POP POP POP JUMP JUMPDEST PUSH1 0x0 PUSH32 0x9016D09D72D40FDAE2FD8CEAC6B6234C7706214FD39C1CD1E609A0528C199300 SWAP1 POP SWAP1 JUMP JUMPDEST PUSH1 0x0 CALLER SWAP1 POP SWAP1 JUMP JUMPDEST PUSH1 0x0 PUSH32 0xF0C57E16840DF040F15088DC2F81FE391C3923BEC73E23A9662EFC9C229C6A00 PUSH1 0x0 SHL SWAP1 POP SWAP1 JUMP JUMPDEST PUSH2 0x36F1 PUSH2 0x37AF JUMP JUMPDEST PUSH2 0x3727 JUMPI PUSH1 0x40 MLOAD PUSH32 0xD7E6BCF800000000000000000000000000000000000000000000000000000000 DUP2 MSTORE PUSH1 0x4 ADD PUSH1 0x40 MLOAD DUP1 SWAP2 SUB SWAP1 REVERT JUMPDEST JUMP JUMPDEST PUSH2 0x3731 PUSH2 0x36E9 JUMP JUMPDEST PUSH1 0x0 PUSH20 0xFFFFFFFFFFFFFFFFFFFFFFFFFFFFFFFFFFFFFFFF AND DUP2 PUSH20 0xFFFFFFFFFFFFFFFFFFFFFFFFFFFFFFFFFFFFFFFF AND SUB PUSH2 0x37A3 JUMPI PUSH1 0x0 PUSH1 0x40 MLOAD PUSH32 0x1E4FBDF700000000000000000000000000000000000000000000000000000000 DUP2 MSTORE PUSH1 0x4 ADD PUSH2 0x379A SWAP2 SWAP1 PUSH2 0x3D20 JUMP JUMPDEST PUSH1 0x40 MLOAD DUP1 SWAP2 SUB SWAP1 REVERT JUMPDEST PUSH2 0x37AC DUP2 PUSH2 0x35B7 JUMP JUMPDEST POP JUMP JUMPDEST PUSH1 0x0 PUSH2 0x37B9 PUSH2 0x358F JUMP JUMPDEST PUSH1 0x0 ADD PUSH1 0x8 SWAP1 SLOAD SWAP1 PUSH2 0x100 EXP SWAP1 DIV PUSH1 0xFF AND SWAP1 POP SWAP1 JUMP JUMPDEST POP DUP1 SLOAD PUSH2 0x37DB SWAP1 PUSH2 0x44C8 JUMP JUMPDEST PUSH1 0x0 DUP3 SSTORE DUP1 PUSH1 0x1F LT PUSH2 0x37ED JUMPI POP PUSH2 0x380C JUMP JUMPDEST PUSH1 0x1F ADD PUSH1 0x20 SWAP1 DIV SWAP1 PUSH1 0x0 MSTORE PUSH1 0x20 PUSH1 0x0 KECCAK256 SWAP1 DUP2 ADD SWAP1 PUSH2 0x380B SWAP2 SWAP1 PUSH2 0x380F JUMP JUMPDEST JUMPDEST POP JUMP JUMPDEST JUMPDEST DUP1 DUP3 GT ISZERO PUSH2 0x3828 JUMPI PUSH1 0x0 DUP2 PUSH1 0x0 SWAP1 SSTORE POP PUSH1 0x1 ADD PUSH2 0x3810 JUMP JUMPDEST POP SWAP1 JUMP JUMPDEST PUSH1 0x0 DUP1 REVERT JUMPDEST PUSH1 0x0 DUP1 REVERT JUMPDEST PUSH1 0x0 DUP1 REVERT JUMPDEST PUSH1 0x0 DUP1 REVERT JUMPDEST PUSH1 0x0 DUP1 REVERT JUMPDEST PUSH1 0x0 DUP1 DUP4 PUSH1 0x1F DUP5 ADD SLT PUSH2 0x385B JUMPI PUSH2 0x385A PUSH2 0x3836 JUMP JUMPDEST JUMPDEST DUP3 CALLDATALOAD SWAP1 POP PUSH8 0xFFFFFFFFFFFFFFFF DUP2 GT ISZERO PUSH2 0x3878 JUMPI PUSH2 0x3877 PUSH2 0x383B JUMP JUMPDEST JUMPDEST PUSH1 0x20 DUP4 ADD SWAP2 POP DUP4 PUSH1 0x20 DUP3 MUL DUP4 ADD GT ISZERO PUSH2 0x3894 JUMPI PUSH2 0x3893 PUSH2 0x3840 JUMP JUMPDEST JUMPDEST SWAP3 POP SWAP3 SWAP1 POP JUMP JUMPDEST PUSH1 0x0 DUP1 PUSH1 0x20 DUP4 DUP6 SUB SLT ISZERO PUSH2 0x38B2 JUMPI PUSH2 0x38B1 PUSH2 0x382C JUMP JUMPDEST JUMPDEST PUSH1 0x0 DUP4 ADD CALLDATALOAD PUSH8 0xFFFFFFFFFFFFFFFF DUP2 GT ISZERO PUSH2 0x38D0 JUMPI PUSH2 0x38CF PUSH2 0x3831 JUMP JUMPDEST JUMPDEST PUSH2 0x38DC DUP6 DUP3 DUP7 ADD PUSH2 0x3845 JUMP JUMPDEST SWAP3 POP SWAP3 POP POP SWAP3 POP SWAP3 SWAP1 POP JUMP JUMPDEST PUSH1 0x0 DUP1 DUP4 PUSH1 0x1F DUP5 ADD SLT PUSH2 0x38FE JUMPI PUSH2 0x38FD PUSH2 0x3836 JUMP JUMPDEST JUMPDEST DUP3 CALLDATALOAD SWAP1 POP PUSH8 0xFFFFFFFFFFFFFFFF DUP2 GT ISZERO PUSH2 0x391B JUMPI PUSH2 0x391A PUSH2 0x383B JUMP JUMPDEST JUMPDEST PUSH1 0x20 DUP4 ADD SWAP2 POP DUP4 PUSH1 0x20 DUP3 MUL DUP4 ADD GT ISZERO PUSH2 0x3937 JUMPI PUSH2 0x3936 PUSH2 0x3840 JUMP JUMPDEST JUMPDEST SWAP3 POP SWAP3 SWAP1 POP JUMP JUMPDEST PUSH1 0x0 DUP1 PUSH1 0x20 DUP4 DUP6 SUB SLT ISZERO PUSH2 0x3955 JUMPI PUSH2 0x3954 PUSH2 0x382C JUMP JUMPDEST JUMPDEST PUSH1 0x0 DUP4 ADD CALLDATALOAD PUSH8 0xFFFFFFFFFFFFFFFF DUP2 GT ISZERO PUSH2 0x3973 JUMPI PUSH2 0x3972 PUSH2 0x3831 JUMP JUMPDEST JUMPDEST PUSH2 0x397F DUP6 DUP3 DUP7 ADD PUSH2 0x38E8 JUMP JUMPDEST SWAP3 POP SWAP3 POP POP SWAP3 POP SWAP3 SWAP1 POP JUMP JUMPDEST PUSH1 0x0 PUSH20 0xFFFFFFFFFFFFFFFFFFFFFFFFFFFFFFFFFFFFFFFF DUP3 AND SWAP1 POP SWAP2 SWAP1 POP JUMP JUMPDEST PUSH1 0x0 PUSH2 0x39B6 DUP3 PUSH2 0x398B JUMP JUMPDEST SWAP1 POP SWAP2 SWAP1 POP JUMP JUMPDEST PUSH2 0x39C6 DUP2 PUSH2 0x39AB JUMP JUMPDEST DUP2 EQ PUSH2 0x39D1 JUMPI PUSH1 0x0 DUP1 REVERT JUMPDEST POP JUMP JUMPDEST PUSH1 0x0 DUP2 CALLDATALOAD SWAP1 POP PUSH2 0x39E3 DUP2 PUSH2 0x39BD JUMP JUMPDEST SWAP3 SWAP2 POP POP JUMP JUMPDEST PUSH1 0x0 DUP1 PUSH1 0x40 DUP4 DUP6 SUB SLT ISZERO PUSH2 0x3A00 JUMPI PUSH2 0x39FF PUSH2 0x382C JUMP JUMPDEST JUMPDEST PUSH1 0x0 PUSH2 0x3A0E DUP6 DUP3 DUP7 ADD PUSH2 0x39D4 JUMP JUMPDEST SWAP3 POP POP PUSH1 0x20 PUSH2 0x3A1F DUP6 DUP3 DUP7 ADD PUSH2 0x39D4 JUMP JUMPDEST SWAP2 POP POP SWAP3 POP SWAP3 SWAP1 POP JUMP JUMPDEST PUSH1 0x0 DUP2 MLOAD SWAP1 POP SWAP2 SWAP1 POP JUMP JUMPDEST PUSH1 0x0 DUP3 DUP3 MSTORE PUSH1 0x20 DUP3 ADD SWAP1 POP SWAP3 SWAP2 POP POP JUMP JUMPDEST PUSH1 0x0 DUP2 SWAP1 POP PUSH1 0x20 DUP3 ADD SWAP1 POP SWAP2 SWAP1 POP JUMP JUMPDEST PUSH1 0x0 DUP2 SWAP1 POP SWAP2 SWAP1 POP JUMP JUMPDEST PUSH2 0x3A68 DUP2 PUSH2 0x3A55 JUMP JUMPDEST DUP3 MSTORE POP POP JUMP JUMPDEST PUSH1 0x0 DUP2 MLOAD SWAP1 POP SWAP2 SWAP1 POP JUMP JUMPDEST PUSH1 0x0 DUP3 DUP3 MSTORE PUSH1 0x20 DUP3 ADD SWAP1 POP SWAP3 SWAP2 POP POP JUMP JUMPDEST PUSH1 0x0 JUMPDEST DUP4 DUP2 LT ISZERO PUSH2 0x3AA8 JUMPI DUP1 DUP3 ADD MLOAD DUP2 DUP5 ADD MSTORE PUSH1 0x20 DUP2 ADD SWAP1 POP PUSH2 0x3A8D JUMP JUMPDEST PUSH1 0x0 DUP5 DUP5 ADD MSTORE POP POP POP POP JUMP JUMPDEST PUSH1 0x0 PUSH1 0x1F NOT PUSH1 0x1F DUP4 ADD AND SWAP1 POP SWAP2 SWAP1 POP JUMP JUMPDEST PUSH1 0x0 PUSH2 0x3AD0 DUP3 PUSH2 0x3A6E JUMP JUMPDEST PUSH2 0x3ADA DUP2 DUP6 PUSH2 0x3A79 JUMP JUMPDEST SWAP4 POP PUSH2 0x3AEA DUP2 DUP6 PUSH1 0x20 DUP7 ADD PUSH2 0x3A8A JUMP JUMPDEST PUSH2 0x3AF3 DUP2 PUSH2 0x3AB4 JUMP JUMPDEST DUP5 ADD SWAP2 POP POP SWAP3 SWAP2 POP POP JUMP JUMPDEST PUSH1 0x0 PUSH1 0xE0 DUP4 ADD PUSH1 0x0 DUP4 ADD MLOAD PUSH2 0x3B16 PUSH1 0x0 DUP7 ADD DUP3 PUSH2 0x3A5F JUMP JUMPDEST POP PUSH1 0x20 DUP4 ADD MLOAD DUP5 DUP3 SUB PUSH1 0x20 DUP7 ADD MSTORE PUSH2 0x3B2E DUP3 DUP3 PUSH2 0x3AC5 JUMP JUMPDEST SWAP2 POP POP PUSH1 0x40 DUP4 ADD MLOAD DUP5 DUP3 SUB PUSH1 0x40 DUP7 ADD MSTORE PUSH2 0x3B48 DUP3 DUP3 PUSH2 0x3AC5 JUMP JUMPDEST SWAP2 POP POP PUSH1 0x60 DUP4 ADD MLOAD DUP5 DUP3 SUB PUSH1 0x60 DUP7 ADD MSTORE PUSH2 0x3B62 DUP3 DUP3 PUSH2 0x3AC5 JUMP JUMPDEST SWAP2 POP POP PUSH1 0x80 DUP4 ADD MLOAD DUP5 DUP3 SUB PUSH1 0x80 DUP7 ADD MSTORE PUSH2 0x3B7C DUP3 DUP3 PUSH2 0x3AC5 JUMP JUMPDEST SWAP2 POP POP PUSH1 0xA0 DUP4 ADD MLOAD DUP5 DUP3 SUB PUSH1 0xA0 DUP7 ADD MSTORE PUSH2 0x3B96 DUP3 DUP3 PUSH2 0x3AC5 JUMP JUMPDEST SWAP2 POP POP PUSH1 0xC0 DUP4 ADD MLOAD PUSH2 0x3BAB PUSH1 0xC0 DUP7 ADD DUP3 PUSH2 0x3A5F JUMP JUMPDEST POP DUP1 SWAP2 POP POP SWAP3 SWAP2 POP POP JUMP JUMPDEST PUSH1 0x0 PUSH2 0x3BC2 DUP4 DUP4 PUSH2 0x3AFE JUMP JUMPDEST SWAP1 POP SWAP3 SWAP2 POP POP JUMP JUMPDEST PUSH1 0x0 PUSH1 0x20 DUP3 ADD SWAP1 POP SWAP2 SWAP1 POP JUMP JUMPDEST PUSH1 0x0 PUSH2 0x3BE2 DUP3 PUSH2 0x3A29 JUMP JUMPDEST PUSH2 0x3BEC DUP2 DUP6 PUSH2 0x3A34 JUMP JUMPDEST SWAP4 POP DUP4 PUSH1 0x20 DUP3 MUL DUP6 ADD PUSH2 0x3BFE DUP6 PUSH2 0x3A45 JUMP JUMPDEST DUP1 PUSH1 0x0 JUMPDEST DUP6 DUP2 LT ISZERO PUSH2 0x3C3A JUMPI DUP5 DUP5 SUB DUP10 MSTORE DUP2 MLOAD PUSH2 0x3C1B DUP6 DUP3 PUSH2 0x3BB6 JUMP JUMPDEST SWAP5 POP PUSH2 0x3C26 DUP4 PUSH2 0x3BCA JUMP JUMPDEST SWAP3 POP PUSH1 0x20 DUP11 ADD SWAP10 POP POP PUSH1 0x1 DUP2 ADD SWAP1 POP PUSH2 0x3C02 JUMP JUMPDEST POP DUP3 SWAP8 POP DUP8 SWAP6 POP POP POP POP POP POP SWAP3 SWAP2 POP POP JUMP JUMPDEST PUSH1 0x0 PUSH1 0x20 DUP3 ADD SWAP1 POP DUP2 DUP2 SUB PUSH1 0x0 DUP4 ADD MSTORE PUSH2 0x3C66 DUP2 DUP5 PUSH2 0x3BD7 JUMP JUMPDEST SWAP1 POP SWAP3 SWAP2 POP POP JUMP JUMPDEST PUSH1 0x0 DUP1 DUP4 PUSH1 0x1F DUP5 ADD SLT PUSH2 0x3C84 JUMPI PUSH2 0x3C83 PUSH2 0x3836 JUMP JUMPDEST JUMPDEST DUP3 CALLDATALOAD SWAP1 POP PUSH8 0xFFFFFFFFFFFFFFFF DUP2 GT ISZERO PUSH2 0x3CA1 JUMPI PUSH2 0x3CA0 PUSH2 0x383B JUMP JUMPDEST JUMPDEST PUSH1 0x20 DUP4 ADD SWAP2 POP DUP4 PUSH1 0x20 DUP3 MUL DUP4 ADD GT ISZERO PUSH2 0x3CBD JUMPI PUSH2 0x3CBC PUSH2 0x3840 JUMP JUMPDEST JUMPDEST SWAP3 POP SWAP3 SWAP1 POP JUMP JUMPDEST PUSH1 0x0 DUP1 PUSH1 0x20 DUP4 DUP6 SUB SLT ISZERO PUSH2 0x3CDB JUMPI PUSH2 0x3CDA PUSH2 0x382C JUMP JUMPDEST JUMPDEST PUSH1 0x0 DUP4 ADD CALLDATALOAD PUSH8 0xFFFFFFFFFFFFFFFF DUP2 GT ISZERO PUSH2 0x3CF9 JUMPI PUSH2 0x3CF8 PUSH2 0x3831 JUMP JUMPDEST JUMPDEST PUSH2 0x3D05 DUP6 DUP3 DUP7 ADD PUSH2 0x3C6E JUMP JUMPDEST SWAP3 POP SWAP3 POP POP SWAP3 POP SWAP3 SWAP1 POP JUMP JUMPDEST PUSH2 0x3D1A DUP2 PUSH2 0x39AB JUMP JUMPDEST DUP3 MSTORE POP POP JUMP JUMPDEST PUSH1 0x0 PUSH1 0x20 DUP3 ADD SWAP1 POP PUSH2 0x3D35 PUSH1 0x0 DUP4 ADD DUP5 PUSH2 0x3D11 JUMP JUMPDEST SWAP3 SWAP2 POP POP JUMP JUMPDEST PUSH1 0x0 DUP2 MLOAD SWAP1 POP SWAP2 SWAP1 POP JUMP JUMPDEST PUSH1 0x0 DUP3 DUP3 MSTORE PUSH1 0x20 DUP3 ADD SWAP1 POP SWAP3 SWAP2 POP POP JUMP JUMPDEST PUSH1 0x0 DUP2 SWAP1 POP PUSH1 0x20 DUP3 ADD SWAP1 POP SWAP2 SWAP1 POP JUMP JUMPDEST PUSH1 0x0 PUSH2 0x100 DUP4 ADD PUSH1 0x0 DUP4 ADD MLOAD PUSH2 0x3D80 PUSH1 0x0 DUP7 ADD DUP3 PUSH2 0x3A5F JUMP JUMPDEST POP PUSH1 0x20 DUP4 ADD MLOAD DUP5 DUP3 SUB PUSH1 0x20 DUP7 ADD MSTORE PUSH2 0x3D98 DUP3 DUP3 PUSH2 0x3AC5 JUMP JUMPDEST SWAP2 POP POP PUSH1 0x40 DUP4 ADD MLOAD DUP5 DUP3 SUB PUSH1 0x40 DUP7 ADD MSTORE PUSH2 0x3DB2 DUP3 DUP3 PUSH2 0x3AC5 JUMP JUMPDEST SWAP2 POP POP PUSH1 0x60 DUP4 ADD MLOAD DUP5 DUP3 SUB PUSH1 0x60 DUP7 ADD MSTORE PUSH2 0x3DCC DUP3 DUP3 PUSH2 0x3AC5 JUMP JUMPDEST SWAP2 POP POP PUSH1 0x80 DUP4 ADD MLOAD DUP5 DUP3 SUB PUSH1 0x80 DUP7 ADD MSTORE PUSH2 0x3DE6 DUP3 DUP3 PUSH2 0x3AC5 JUMP JUMPDEST SWAP2 POP POP PUSH1 0xA0 DUP4 ADD MLOAD DUP5 DUP3 SUB PUSH1 0xA0 DUP7 ADD MSTORE PUSH2 0x3E00 DUP3 DUP3 PUSH2 0x3AC5 JUMP JUMPDEST SWAP2 POP POP PUSH1 0xC0 DUP4 ADD MLOAD DUP5 DUP3 SUB PUSH1 0xC0 DUP7 ADD MSTORE PUSH2 0x3E1A DUP3 DUP3 PUSH2 0x3AC5 JUMP JUMPDEST SWAP2 POP POP PUSH1 0xE0 DUP4 ADD MLOAD PUSH2 0x3E2F PUSH1 0xE0 DUP7 ADD DUP3 PUSH2 0x3A5F JUMP JUMPDEST POP DUP1 SWAP2 POP POP SWAP3 SWAP2 POP POP JUMP JUMPDEST PUSH1 0x0 PUSH2 0x3E46 DUP4 DUP4 PUSH2 0x3D67 JUMP JUMPDEST SWAP1 POP SWAP3 SWAP2 POP POP JUMP JUMPDEST PUSH1 0x0 PUSH1 0x20 DUP3 ADD SWAP1 POP SWAP2 SWAP1 POP JUMP JUMPDEST PUSH1 0x0 PUSH2 0x3E66 DUP3 PUSH2 0x3D3B JUMP JUMPDEST PUSH2 0x3E70 DUP2 DUP6 PUSH2 0x3D46 JUMP JUMPDEST SWAP4 POP DUP4 PUSH1 0x20 DUP3 MUL DUP6 ADD PUSH2 0x3E82 DUP6 PUSH2 0x3D57 JUMP JUMPDEST DUP1 PUSH1 0x0 JUMPDEST DUP6 DUP2 LT ISZERO PUSH2 0x3EBE JUMPI DUP5 DUP5 SUB DUP10 MSTORE DUP2 MLOAD PUSH2 0x3E9F DUP6 DUP3 PUSH2 0x3E3A JUMP JUMPDEST SWAP5 POP PUSH2 0x3EAA DUP4 PUSH2 0x3E4E JUMP JUMPDEST SWAP3 POP PUSH1 0x20 DUP11 ADD SWAP10 POP POP PUSH1 0x1 DUP2 ADD SWAP1 POP PUSH2 0x3E86 JUMP JUMPDEST POP DUP3 SWAP8 POP DUP8 SWAP6 POP POP POP POP POP POP SWAP3 SWAP2 POP POP JUMP JUMPDEST PUSH1 0x0 PUSH1 0x20 DUP3 ADD SWAP1 POP DUP2 DUP2 SUB PUSH1 0x0 DUP4 ADD MSTORE PUSH2 0x3EEA DUP2 DUP5 PUSH2 0x3E5B JUMP JUMPDEST SWAP1 POP SWAP3 SWAP2 POP POP JUMP JUMPDEST PUSH1 0x0 DUP2 SWAP1 POP SWAP2 SWAP1 POP JUMP JUMPDEST PUSH1 0x0 PUSH2 0x3F17 PUSH2 0x3F12 PUSH2 0x3F0D DUP5 PUSH2 0x398B JUMP JUMPDEST PUSH2 0x3EF2 JUMP JUMPDEST PUSH2 0x398B JUMP JUMPDEST SWAP1 POP SWAP2 SWAP1 POP JUMP JUMPDEST PUSH1 0x0 PUSH2 0x3F29 DUP3 PUSH2 0x3EFC JUMP JUMPDEST SWAP1 POP SWAP2 SWAP1 POP JUMP JUMPDEST PUSH1 0x0 PUSH2 0x3F3B DUP3 PUSH2 0x3F1E JUMP JUMPDEST SWAP1 POP SWAP2 SWAP1 POP JUMP JUMPDEST PUSH2 0x3F4B DUP2 PUSH2 0x3F30 JUMP JUMPDEST DUP3 MSTORE POP POP JUMP JUMPDEST PUSH1 0x0 PUSH1 0x20 DUP3 ADD SWAP1 POP PUSH2 0x3F66 PUSH1 0x0 DUP4 ADD DUP5 PUSH2 0x3F42 JUMP JUMPDEST SWAP3 SWAP2 POP POP JUMP JUMPDEST PUSH1 0x0 DUP1 DUP4 PUSH1 0x1F DUP5 ADD SLT PUSH2 0x3F82 JUMPI PUSH2 0x3F81 PUSH2 0x3836 JUMP JUMPDEST JUMPDEST DUP3 CALLDATALOAD SWAP1 POP PUSH8 0xFFFFFFFFFFFFFFFF DUP2 GT ISZERO PUSH2 0x3F9F JUMPI PUSH2 0x3F9E PUSH2 0x383B JUMP JUMPDEST JUMPDEST PUSH1 0x20 DUP4 ADD SWAP2 POP DUP4 PUSH1 0x20 DUP3 MUL DUP4 ADD GT ISZERO PUSH2 0x3FBB JUMPI PUSH2 0x3FBA PUSH2 0x3840 JUMP JUMPDEST JUMPDEST SWAP3 POP SWAP3 SWAP1 POP JUMP JUMPDEST PUSH1 0x0 DUP1 PUSH1 0x20 DUP4 DUP6 SUB SLT ISZERO PUSH2 0x3FD9 JUMPI PUSH2 0x3FD8 PUSH2 0x382C JUMP JUMPDEST JUMPDEST PUSH1 0x0 DUP4 ADD CALLDATALOAD PUSH8 0xFFFFFFFFFFFFFFFF DUP2 GT ISZERO PUSH2 0x3FF7 JUMPI PUSH2 0x3FF6 PUSH2 0x3831 JUMP JUMPDEST JUMPDEST PUSH2 0x4003 DUP6 DUP3 DUP7 ADD PUSH2 0x3F6C JUMP JUMPDEST SWAP3 POP SWAP3 POP POP SWAP3 POP SWAP3 SWAP1 POP JUMP JUMPDEST PUSH1 0x0 PUSH1 0x20 DUP3 DUP5 SUB SLT ISZERO PUSH2 0x4025 JUMPI PUSH2 0x4024 PUSH2 0x382C JUMP JUMPDEST JUMPDEST PUSH1 0x0 PUSH2 0x4033 DUP5 DUP3 DUP6 ADD PUSH2 0x39D4 JUMP JUMPDEST SWAP2 POP POP SWAP3 SWAP2 POP POP JUMP JUMPDEST PUSH1 0x0 DUP2 MLOAD SWAP1 POP SWAP2 SWAP1 POP JUMP JUMPDEST PUSH1 0x0 DUP3 DUP3 MSTORE PUSH1 0x20 DUP3 ADD SWAP1 POP SWAP3 SWAP2 POP POP JUMP JUMPDEST PUSH1 0x0 DUP2 SWAP1 POP PUSH1 0x20 DUP3 ADD SWAP1 POP SWAP2 SWAP1 POP JUMP JUMPDEST PUSH1 0x0 PUSH2 0x100 DUP4 ADD PUSH1 0x0 DUP4 ADD MLOAD PUSH2 0x4081 PUSH1 0x0 DUP7 ADD DUP3 PUSH2 0x3A5F JUMP JUMPDEST POP PUSH1 0x20 DUP4 ADD MLOAD DUP5 DUP3 SUB PUSH1 0x20 DUP7 ADD MSTORE PUSH2 0x4099 DUP3 DUP3 PUSH2 0x3AC5 JUMP JUMPDEST SWAP2 POP POP PUSH1 0x40 DUP4 ADD MLOAD DUP5 DUP3 SUB PUSH1 0x40 DUP7 ADD MSTORE PUSH2 0x40B3 DUP3 DUP3 PUSH2 0x3AC5 JUMP JUMPDEST SWAP2 POP POP PUSH1 0x60 DUP4 ADD MLOAD DUP5 DUP3 SUB PUSH1 0x60 DUP7 ADD MSTORE PUSH2 0x40CD DUP3 DUP3 PUSH2 0x3AC5 JUMP JUMPDEST SWAP2 POP POP PUSH1 0x80 DUP4 ADD MLOAD DUP5 DUP3 SUB PUSH1 0x80 DUP7 ADD MSTORE PUSH2 0x40E7 DUP3 DUP3 PUSH2 0x3AC5 JUMP JUMPDEST SWAP2 POP POP PUSH1 0xA0 DUP4 ADD MLOAD DUP5 DUP3 SUB PUSH1 0xA0 DUP7 ADD MSTORE PUSH2 0x4101 DUP3 DUP3 PUSH2 0x3AC5 JUMP JUMPDEST SWAP2 POP POP PUSH1 0xC0 DUP4 ADD MLOAD DUP5 DUP3 SUB PUSH1 0xC0 DUP7 ADD MSTORE PUSH2 0x411B DUP3 DUP3 PUSH2 0x3AC5 JUMP JUMPDEST SWAP2 POP POP PUSH1 0xE0 DUP4 ADD MLOAD PUSH2 0x4130 PUSH1 0xE0 DUP7 ADD DUP3 PUSH2 0x3A5F JUMP JUMPDEST POP DUP1 SWAP2 POP POP SWAP3 SWAP2 POP POP JUMP JUMPDEST PUSH1 0x0 PUSH2 0x4147 DUP4 DUP4 PUSH2 0x4068 JUMP JUMPDEST SWAP1 POP SWAP3 SWAP2 POP POP JUMP JUMPDEST PUSH1 0x0 PUSH1 0x20 DUP3 ADD SWAP1 POP SWAP2 SWAP1 POP JUMP JUMPDEST PUSH1 0x0 PUSH2 0x4167 DUP3 PUSH2 0x403C JUMP JUMPDEST PUSH2 0x4171 DUP2 DUP6 PUSH2 0x4047 JUMP JUMPDEST SWAP4 POP DUP4 PUSH1 0x20 DUP3 MUL DUP6 ADD PUSH2 0x4183 DUP6 PUSH2 0x4058 JUMP JUMPDEST DUP1 PUSH1 0x0 JUMPDEST DUP6 DUP2 LT ISZERO PUSH2 0x41BF JUMPI DUP5 DUP5 SUB DUP10 MSTORE DUP2 MLOAD PUSH2 0x41A0 DUP6 DUP3 PUSH2 0x413B JUMP JUMPDEST SWAP5 POP PUSH2 0x41AB DUP4 PUSH2 0x414F JUMP JUMPDEST SWAP3 POP PUSH1 0x20 DUP11 ADD SWAP10 POP POP PUSH1 0x1 DUP2 ADD SWAP1 POP PUSH2 0x4187 JUMP JUMPDEST POP DUP3 SWAP8 POP DUP8 SWAP6 POP POP POP POP POP POP SWAP3 SWAP2 POP POP JUMP JUMPDEST PUSH1 0x0 PUSH1 0x20 DUP3 ADD SWAP1 POP DUP2 DUP2 SUB PUSH1 0x0 DUP4 ADD MSTORE PUSH2 0x41EB DUP2 DUP5 PUSH2 0x415C JUMP JUMPDEST SWAP1 POP SWAP3 SWAP2 POP POP JUMP JUMPDEST PUSH2 0x41FC DUP2 PUSH2 0x3A55 JUMP JUMPDEST DUP2 EQ PUSH2 0x4207 JUMPI PUSH1 0x0 DUP1 REVERT JUMPDEST POP JUMP JUMPDEST PUSH1 0x0 DUP2 MLOAD SWAP1 POP PUSH2 0x4219 DUP2 PUSH2 0x41F3 JUMP JUMPDEST SWAP3 SWAP2 POP POP JUMP JUMPDEST PUSH1 0x0 PUSH1 0x20 DUP3 DUP5 SUB SLT ISZERO PUSH2 0x4235 JUMPI PUSH2 0x4234 PUSH2 0x382C JUMP JUMPDEST JUMPDEST PUSH1 0x0 PUSH2 0x4243 DUP5 DUP3 DUP6 ADD PUSH2 0x420A JUMP JUMPDEST SWAP2 POP POP SWAP3 SWAP2 POP POP JUMP JUMPDEST PUSH1 0x0 DUP3 DUP3 MSTORE PUSH1 0x20 DUP3 ADD SWAP1 POP SWAP3 SWAP2 POP POP JUMP JUMPDEST PUSH32 0x57726F6E6720636F737420666F72207570736572744C6567616C446F63756D65 PUSH1 0x0 DUP3 ADD MSTORE PUSH32 0x6E74730000000000000000000000000000000000000000000000000000000000 PUSH1 0x20 DUP3 ADD MSTORE POP JUMP JUMPDEST PUSH1 0x0 PUSH2 0x42B9 PUSH1 0x23 DUP4 PUSH2 0x424C JUMP JUMPDEST SWAP2 POP PUSH2 0x42C4 DUP3 PUSH2 0x425D JUMP JUMPDEST PUSH1 0x40 DUP3 ADD SWAP1 POP SWAP2 SWAP1 POP JUMP JUMPDEST PUSH1 0x0 PUSH1 0x20 DUP3 ADD SWAP1 POP DUP2 DUP2 SUB PUSH1 0x0 DUP4 ADD MSTORE PUSH2 0x42E8 DUP2 PUSH2 0x42AC JUMP JUMPDEST SWAP1 POP SWAP2 SWAP1 POP JUMP JUMPDEST PUSH1 0x0 DUP2 SWAP1 POP SWAP3 SWAP2 POP POP JUMP JUMPDEST POP JUMP JUMPDEST PUSH1 0x0 PUSH2 0x430A PUSH1 0x0 DUP4 PUSH2 0x42EF JUMP JUMPDEST SWAP2 POP PUSH2 0x4315 DUP3 PUSH2 0x42FA JUMP JUMPDEST PUSH1 0x0 DUP3 ADD SWAP1 POP SWAP2 SWAP1 POP JUMP JUMPDEST PUSH1 0x0 PUSH2 0x432B DUP3 PUSH2 0x42FD JUMP JUMPDEST SWAP2 POP DUP2 SWAP1 POP SWAP2 SWAP1 POP JUMP JUMPDEST PUSH32 0x466F7277617264696E6720666565206661696C65640000000000000000000000 PUSH1 0x0 DUP3 ADD MSTORE POP JUMP JUMPDEST PUSH1 0x0 PUSH2 0x436B PUSH1 0x15 DUP4 PUSH2 0x424C JUMP JUMPDEST SWAP2 POP PUSH2 0x4376 DUP3 PUSH2 0x4335 JUMP JUMPDEST PUSH1 0x20 DUP3 ADD SWAP1 POP SWAP2 SWAP1 POP JUMP JUMPDEST PUSH1 0x0 PUSH1 0x20 DUP3 ADD SWAP1 POP DUP2 DUP2 SUB PUSH1 0x0 DUP4 ADD MSTORE PUSH2 0x439A DUP2 PUSH2 0x435E JUMP JUMPDEST SWAP1 POP SWAP2 SWAP1 POP JUMP JUMPDEST PUSH32 0x4E487B7100000000000000000000000000000000000000000000000000000000 PUSH1 0x0 MSTORE PUSH1 0x32 PUSH1 0x4 MSTORE PUSH1 0x24 PUSH1 0x0 REVERT JUMPDEST PUSH1 0x0 DUP1 REVERT JUMPDEST PUSH1 0x0 DUP1 REVERT JUMPDEST PUSH1 0x0 DUP1 REVERT JUMPDEST PUSH1 0x0 DUP3 CALLDATALOAD PUSH1 0x1 PUSH1 0xC0 SUB DUP4 CALLDATASIZE SUB SUB DUP2 SLT PUSH2 0x43FB JUMPI PUSH2 0x43FA PUSH2 0x43D0 JUMP JUMPDEST JUMPDEST DUP1 DUP4 ADD SWAP2 POP POP SWAP3 SWAP2 POP POP JUMP JUMPDEST PUSH1 0x0 DUP1 DUP4 CALLDATALOAD PUSH1 0x1 PUSH1 0x20 SUB DUP5 CALLDATASIZE SUB SUB DUP2 SLT PUSH2 0x4424 JUMPI PUSH2 0x4423 PUSH2 0x43D0 JUMP JUMPDEST JUMPDEST DUP1 DUP5 ADD SWAP3 POP DUP3 CALLDATALOAD SWAP2 POP PUSH8 0xFFFFFFFFFFFFFFFF DUP3 GT ISZERO PUSH2 0x4446 JUMPI PUSH2 0x4445 PUSH2 0x43D5 JUMP JUMPDEST JUMPDEST PUSH1 0x20 DUP4 ADD SWAP3 POP PUSH1 0x1 DUP3 MUL CALLDATASIZE SUB DUP4 SGT ISZERO PUSH2 0x4462 JUMPI PUSH2 0x4461 PUSH2 0x43DA JUMP JUMPDEST JUMPDEST POP SWAP3 POP SWAP3 SWAP1 POP JUMP JUMPDEST PUSH32 0x4E487B7100000000000000000000000000000000000000000000000000000000 PUSH1 0x0 MSTORE PUSH1 0x41 PUSH1 0x4 MSTORE PUSH1 0x24 PUSH1 0x0 REVERT JUMPDEST PUSH32 0x4E487B7100000000000000000000000000000000000000000000000000000000 PUSH1 0x0 MSTORE PUSH1 0x22 PUSH1 0x4 MSTORE PUSH1 0x24 PUSH1 0x0 REVERT JUMPDEST PUSH1 0x0 PUSH1 0x2 DUP3 DIV SWAP1 POP PUSH1 0x1 DUP3 AND DUP1 PUSH2 0x44E0 JUMPI PUSH1 0x7F DUP3 AND SWAP2 POP JUMPDEST PUSH1 0x20 DUP3 LT DUP2 SUB PUSH2 0x44F3 JUMPI PUSH2 0x44F2 PUSH2 0x4499 JUMP JUMPDEST JUMPDEST POP SWAP2 SWAP1 POP JUMP JUMPDEST PUSH1 0x0 DUP2 SWAP1 POP DUP2 PUSH1 0x0 MSTORE PUSH1 0x20 PUSH1 0x0 KECCAK256 SWAP1 POP SWAP2 SWAP1 POP JUMP JUMPDEST PUSH1 0x0 PUSH1 0x20 PUSH1 0x1F DUP4 ADD DIV SWAP1 POP SWAP2 SWAP1 POP JUMP JUMPDEST PUSH1 0x0 DUP3 DUP3 SHL SWAP1 POP SWAP3 SWAP2 POP POP JUMP JUMPDEST PUSH1 0x0 PUSH1 0x8 DUP4 MUL PUSH2 0x455B PUSH32 0xFFFFFFFFFFFFFFFFFFFFFFFFFFFFFFFFFFFFFFFFFFFFFFFFFFFFFFFFFFFFFFFF DUP3 PUSH2 0x451E JUMP JUMPDEST PUSH2 0x4565 DUP7 DUP4 PUSH2 0x451E JUMP JUMPDEST SWAP6 POP DUP1 NOT DUP5 AND SWAP4 POP DUP1 DUP7 AND DUP5 OR SWAP3 POP POP POP SWAP4 SWAP3 POP POP POP JUMP JUMPDEST PUSH1 0x0 PUSH2 0x4598 PUSH2 0x4593 PUSH2 0x458E DUP5 PUSH2 0x3A55 JUMP JUMPDEST PUSH2 0x3EF2 JUMP JUMPDEST PUSH2 0x3A55 JUMP JUMPDEST SWAP1 POP SWAP2 SWAP1 POP JUMP JUMPDEST PUSH1 0x0 DUP2 SWAP1 POP SWAP2 SWAP1 POP JUMP JUMPDEST PUSH2 0x45B2 DUP4 PUSH2 0x457D JUMP JUMPDEST PUSH2 0x45C6 PUSH2 0x45BE DUP3 PUSH2 0x459F JUMP JUMPDEST DUP5 DUP5 SLOAD PUSH2 0x452B JUMP JUMPDEST DUP3 SSTORE POP POP POP POP JUMP JUMPDEST PUSH1 0x0 SWAP1 JUMP JUMPDEST PUSH2 0x45DB PUSH2 0x45CE JUMP JUMPDEST PUSH2 0x45E6 DUP2 DUP5 DUP5 PUSH2 0x45A9 JUMP JUMPDEST POP POP POP JUMP JUMPDEST JUMPDEST DUP2 DUP2 LT ISZERO PUSH2 0x460A JUMPI PUSH2 0x45FF PUSH1 0x0 DUP3 PUSH2 0x45D3 JUMP JUMPDEST PUSH1 0x1 DUP2 ADD SWAP1 POP PUSH2 0x45EC JUMP JUMPDEST POP POP JUMP JUMPDEST PUSH1 0x1F DUP3 GT ISZERO PUSH2 0x464F JUMPI PUSH2 0x4620 DUP2 PUSH2 0x44F9 JUMP JUMPDEST PUSH2 0x4629 DUP5 PUSH2 0x450E JUMP JUMPDEST DUP2 ADD PUSH1 0x20 DUP6 LT ISZERO PUSH2 0x4638 JUMPI DUP2 SWAP1 POP JUMPDEST PUSH2 0x464C PUSH2 0x4644 DUP6 PUSH2 0x450E JUMP JUMPDEST DUP4 ADD DUP3 PUSH2 0x45EB JUMP JUMPDEST POP POP JUMPDEST POP POP POP JUMP JUMPDEST PUSH1 0x0 DUP3 DUP3 SHR SWAP1 POP SWAP3 SWAP2 POP POP JUMP JUMPDEST PUSH1 0x0 PUSH2 0x4672 PUSH1 0x0 NOT DUP5 PUSH1 0x8 MUL PUSH2 0x4654 JUMP JUMPDEST NOT DUP1 DUP4 AND SWAP2 POP POP SWAP3 SWAP2 POP POP JUMP JUMPDEST PUSH1 0x0 PUSH2 0x468B DUP4 DUP4 PUSH2 0x4661 JUMP JUMPDEST SWAP2 POP DUP3 PUSH1 0x2 MUL DUP3 OR SWAP1 POP SWAP3 SWAP2 POP POP JUMP JUMPDEST PUSH2 0x46A4 DUP3 PUSH2 0x3A6E JUMP JUMPDEST PUSH8 0xFFFFFFFFFFFFFFFF DUP2 GT ISZERO PUSH2 0x46BD JUMPI PUSH2 0x46BC PUSH2 0x446A JUMP JUMPDEST JUMPDEST PUSH2 0x46C7 DUP3 SLOAD PUSH2 0x44C8 JUMP JUMPDEST PUSH2 0x46D2 DUP3 DUP3 DUP6 PUSH2 0x460E JUMP JUMPDEST PUSH1 0x0 PUSH1 0x20 SWAP1 POP PUSH1 0x1F DUP4 GT PUSH1 0x1 DUP2 EQ PUSH2 0x4705 JUMPI PUSH1 0x0 DUP5 ISZERO PUSH2 0x46F3 JUMPI DUP3 DUP8 ADD MLOAD SWAP1 POP JUMPDEST PUSH2 0x46FD DUP6 DUP3 PUSH2 0x467F JUMP JUMPDEST DUP7 SSTORE POP PUSH2 0x4765 JUMP JUMPDEST PUSH1 0x1F NOT DUP5 AND PUSH2 0x4713 DUP7 PUSH2 0x44F9 JUMP JUMPDEST PUSH1 0x0 JUMPDEST DUP3 DUP2 LT ISZERO PUSH2 0x473B JUMPI DUP5 DUP10 ADD MLOAD DUP3 SSTORE PUSH1 0x1 DUP3 ADD SWAP2 POP PUSH1 0x20 DUP6 ADD SWAP5 POP PUSH1 0x20 DUP2 ADD SWAP1 POP PUSH2 0x4716 JUMP JUMPDEST DUP7 DUP4 LT ISZERO PUSH2 0x4758 JUMPI DUP5 DUP10 ADD MLOAD PUSH2 0x4754 PUSH1 0x1F DUP10 AND DUP3 PUSH2 0x4661 JUMP JUMPDEST DUP4 SSTORE POP JUMPDEST PUSH1 0x1 PUSH1 0x2 DUP9 MUL ADD DUP9 SSTORE POP POP POP JUMPDEST POP POP POP POP POP POP JUMP JUMPDEST PUSH32 0x4E487B7100000000000000000000000000000000000000000000000000000000 PUSH1 0x0 MSTORE PUSH1 0x11 PUSH1 0x4 MSTORE PUSH1 0x24 PUSH1 0x0 REVERT JUMPDEST PUSH1 0x0 PUSH2 0x47A7 DUP3 PUSH2 0x3A55 JUMP JUMPDEST SWAP2 POP PUSH2 0x47B2 DUP4 PUSH2 0x3A55 JUMP JUMPDEST SWAP3 POP DUP3 DUP3 SUB SWAP1 POP DUP2 DUP2 GT ISZERO PUSH2 0x47CA JUMPI PUSH2 0x47C9 PUSH2 0x476D JUMP JUMPDEST JUMPDEST SWAP3 SWAP2 POP POP JUMP JUMPDEST PUSH1 0x0 PUSH2 0x47DB DUP3 PUSH2 0x3A55 JUMP JUMPDEST SWAP2 POP PUSH32 0xFFFFFFFFFFFFFFFFFFFFFFFFFFFFFFFFFFFFFFFFFFFFFFFFFFFFFFFFFFFFFFFF DUP3 SUB PUSH2 0x480D JUMPI PUSH2 0x480C PUSH2 0x476D JUMP JUMPDEST JUMPDEST PUSH1 0x1 DUP3 ADD SWAP1 POP SWAP2 SWAP1 POP JUMP JUMPDEST PUSH32 0x496E76616C6964206C6567616C20646F63756D656E7420494400000000000000 PUSH1 0x0 DUP3 ADD MSTORE POP JUMP JUMPDEST PUSH1 0x0 PUSH2 0x484E PUSH1 0x19 DUP4 PUSH2 0x424C JUMP JUMPDEST SWAP2 POP PUSH2 0x4859 DUP3 PUSH2 0x4818 JUMP JUMPDEST PUSH1 0x20 DUP3 ADD SWAP1 POP SWAP2 SWAP1 POP JUMP JUMPDEST PUSH1 0x0 PUSH1 0x20 DUP3 ADD SWAP1 POP DUP2 DUP2 SUB PUSH1 0x0 DUP4 ADD MSTORE PUSH2 0x487D DUP2 PUSH2 0x4841 JUMP JUMPDEST SWAP1 POP SWAP2 SWAP1 POP JUMP JUMPDEST PUSH1 0x0 DUP3 SWAP1 POP SWAP3 SWAP2 POP POP JUMP JUMPDEST PUSH2 0x4899 DUP4 DUP4 PUSH2 0x4884 JUMP JUMPDEST PUSH8 0xFFFFFFFFFFFFFFFF DUP2 GT ISZERO PUSH2 0x48B2 JUMPI PUSH2 0x48B1 PUSH2 0x446A JUMP JUMPDEST JUMPDEST PUSH2 0x48BC DUP3 SLOAD PUSH2 0x44C8 JUMP JUMPDEST PUSH2 0x48C7 DUP3 DUP3 DUP6 PUSH2 0x460E JUMP JUMPDEST PUSH1 0x0 PUSH1 0x1F DUP4 GT PUSH1 0x1 DUP2 EQ PUSH2 0x48F6 JUMPI PUSH1 0x0 DUP5 ISZERO PUSH2 0x48E4 JUMPI DUP3 DUP8 ADD CALLDATALOAD SWAP1 POP JUMPDEST PUSH2 0x48EE DUP6 DUP3 PUSH2 0x467F JUMP JUMPDEST DUP7 SSTORE POP PUSH2 0x4956 JUMP JUMPDEST PUSH1 0x1F NOT DUP5 AND PUSH2 0x4904 DUP7 PUSH2 0x44F9 JUMP JUMPDEST PUSH1 0x0 JUMPDEST DUP3 DUP2 LT ISZERO PUSH2 0x492C JUMPI DUP5 DUP10 ADD CALLDATALOAD DUP3 SSTORE PUSH1 0x1 DUP3 ADD SWAP2 POP PUSH1 0x20 DUP6 ADD SWAP5 POP PUSH1 0x20 DUP2 ADD SWAP1 POP PUSH2 0x4907 JUMP JUMPDEST DUP7 DUP4 LT ISZERO PUSH2 0x4949 JUMPI DUP5 DUP10 ADD CALLDATALOAD PUSH2 0x4945 PUSH1 0x1F DUP10 AND DUP3 PUSH2 0x4661 JUMP JUMPDEST DUP4 SSTORE POP JUMPDEST PUSH1 0x1 PUSH1 0x2 DUP9 MUL ADD DUP9 SSTORE POP POP POP JUMPDEST POP POP POP POP POP POP POP JUMP JUMPDEST PUSH1 0x0 DUP2 SLOAD SWAP1 POP PUSH2 0x496E DUP2 PUSH2 0x44C8 JUMP JUMPDEST SWAP1 POP SWAP2 SWAP1 POP JUMP JUMPDEST DUP2 DUP2 SUB PUSH2 0x4983 JUMPI POP POP PUSH2 0x4A5B JUMP JUMPDEST PUSH2 0x498C DUP3 PUSH2 0x495F JUMP JUMPDEST PUSH8 0xFFFFFFFFFFFFFFFF DUP2 GT ISZERO PUSH2 0x49A5 JUMPI PUSH2 0x49A4 PUSH2 0x446A JUMP JUMPDEST JUMPDEST PUSH2 0x49AF DUP3 SLOAD PUSH2 0x44C8 JUMP JUMPDEST PUSH2 0x49BA DUP3 DUP3 DUP6 PUSH2 0x460E JUMP JUMPDEST PUSH1 0x0 PUSH1 0x1F DUP4 GT PUSH1 0x1 DUP2 EQ PUSH2 0x49E9 JUMPI PUSH1 0x0 DUP5 ISZERO PUSH2 0x49D7 JUMPI DUP3 DUP8 ADD SLOAD SWAP1 POP JUMPDEST PUSH2 0x49E1 DUP6 DUP3 PUSH2 0x467F JUMP JUMPDEST DUP7 SSTORE POP PUSH2 0x4A54 JUMP JUMPDEST PUSH1 0x1F NOT DUP5 AND PUSH2 0x49F7 DUP8 PUSH2 0x44F9 JUMP JUMPDEST SWAP7 POP PUSH2 0x4A02 DUP7 PUSH2 0x44F9 JUMP JUMPDEST PUSH1 0x0 JUMPDEST DUP3 DUP2 LT ISZERO PUSH2 0x4A2A JUMPI DUP5 DUP10 ADD SLOAD DUP3 SSTORE PUSH1 0x1 DUP3 ADD SWAP2 POP PUSH1 0x1 DUP6 ADD SWAP5 POP PUSH1 0x20 DUP2 ADD SWAP1 POP PUSH2 0x4A05 JUMP JUMPDEST DUP7 DUP4 LT ISZERO PUSH2 0x4A47 JUMPI DUP5 DUP10 ADD SLOAD PUSH2 0x4A43 PUSH1 0x1F DUP10 AND DUP3 PUSH2 0x4661 JUMP JUMPDEST DUP4 SSTORE POP JUMPDEST PUSH1 0x1 PUSH1 0x2 DUP9 MUL ADD DUP9 SSTORE POP POP POP JUMPDEST POP POP POP POP POP POP JUMPDEST JUMP JUMPDEST PUSH32 0x4E487B7100000000000000000000000000000000000000000000000000000000 PUSH1 0x0 MSTORE PUSH1 0x31 PUSH1 0x4 MSTORE PUSH1 0x24 PUSH1 0x0 REVERT JUMPDEST PUSH32 0x496E76616C696420436F73744D616E6167657200000000000000000000000000 PUSH1 0x0 DUP3 ADD MSTORE POP JUMP JUMPDEST PUSH1 0x0 PUSH2 0x4AC2 PUSH1 0x13 DUP4 PUSH2 0x424C JUMP JUMPDEST SWAP2 POP PUSH2 0x4ACD DUP3 PUSH2 0x4A8C JUMP JUMPDEST PUSH1 0x20 DUP3 ADD SWAP1 POP SWAP2 SWAP1 POP JUMP JUMPDEST PUSH1 0x0 PUSH1 0x20 DUP3 ADD SWAP1 POP DUP2 DUP2 SUB PUSH1 0x0 DUP4 ADD MSTORE PUSH2 0x4AF1 DUP2 PUSH2 0x4AB5 JUMP JUMPDEST SWAP1 POP SWAP2 SWAP1 POP JUMP JUMPDEST PUSH1 0x0 DUP2 SWAP1 POP SWAP2 SWAP1 POP JUMP JUMPDEST PUSH1 0x0 PUSH8 0xFFFFFFFFFFFFFFFF DUP3 AND SWAP1 POP SWAP2 SWAP1 POP JUMP JUMPDEST PUSH1 0x0 PUSH2 0x4B31 PUSH2 0x4B2C PUSH2 0x4B27 DUP5 PUSH2 0x4AF8 JUMP JUMPDEST PUSH2 0x3EF2 JUMP JUMPDEST PUSH2 0x4B02 JUMP JUMPDEST SWAP1 POP SWAP2 SWAP1 POP JUMP JUMPDEST PUSH2 0x4B41 DUP2 PUSH2 0x4B16 JUMP JUMPDEST DUP3 MSTORE POP POP JUMP JUMPDEST PUSH1 0x0 PUSH1 0x20 DUP3 ADD SWAP1 POP PUSH2 0x4B5C PUSH1 0x0 DUP4 ADD DUP5 PUSH2 0x4B38 JUMP JUMPDEST SWAP3 SWAP2 POP POP JUMP JUMPDEST PUSH32 0x496E76616C6964206964656E7469747920494400000000000000000000000000 PUSH1 0x0 DUP3 ADD MSTORE POP JUMP JUMPDEST PUSH1 0x0 PUSH2 0x4B98 PUSH1 0x13 DUP4 PUSH2 0x424C JUMP JUMPDEST SWAP2 POP PUSH2 0x4BA3 DUP3 PUSH2 0x4B62 JUMP JUMPDEST PUSH1 0x20 DUP3 ADD SWAP1 POP SWAP2 SWAP1 POP JUMP JUMPDEST PUSH1 0x0 PUSH1 0x20 DUP3 ADD SWAP1 POP DUP2 DUP2 SUB PUSH1 0x0 DUP4 ADD MSTORE PUSH2 0x4BC7 DUP2 PUSH2 0x4B8B JUMP JUMPDEST SWAP1 POP SWAP2 SWAP1 POP JUMP JUMPDEST PUSH32 0x57726F6E6720636F737420666F7220757073657274496E737572616E63657300 PUSH1 0x0 DUP3 ADD MSTORE POP JUMP JUMPDEST PUSH1 0x0 PUSH2 0x4C04 PUSH1 0x1F DUP4 PUSH2 0x424C JUMP JUMPDEST SWAP2 POP PUSH2 0x4C0F DUP3 PUSH2 0x4BCE JUMP JUMPDEST PUSH1 0x20 DUP3 ADD SWAP1 POP SWAP2 SWAP1 POP JUMP JUMPDEST PUSH1 0x0 PUSH1 0x20 DUP3 ADD SWAP1 POP DUP2 DUP2 SUB PUSH1 0x0 DUP4 ADD MSTORE PUSH2 0x4C33 DUP2 PUSH2 0x4BF7 JUMP JUMPDEST SWAP1 POP SWAP2 SWAP1 POP JUMP JUMPDEST PUSH1 0x0 DUP3 CALLDATALOAD PUSH1 0x1 PUSH1 0xE0 SUB DUP4 CALLDATASIZE SUB SUB DUP2 SLT PUSH2 0x4C56 JUMPI PUSH2 0x4C55 PUSH2 0x43D0 JUMP JUMPDEST JUMPDEST DUP1 DUP4 ADD SWAP2 POP POP SWAP3 SWAP2 POP POP JUMP JUMPDEST PUSH32 0x496E76616C696420696E737572616E6365204944000000000000000000000000 PUSH1 0x0 DUP3 ADD MSTORE POP JUMP JUMPDEST PUSH1 0x0 PUSH2 0x4C98 PUSH1 0x14 DUP4 PUSH2 0x424C JUMP JUMPDEST SWAP2 POP PUSH2 0x4CA3 DUP3 PUSH2 0x4C62 JUMP JUMPDEST PUSH1 0x20 DUP3 ADD SWAP1 POP SWAP2 SWAP1 POP JUMP JUMPDEST PUSH1 0x0 PUSH1 0x20 DUP3 ADD SWAP1 POP DUP2 DUP2 SUB PUSH1 0x0 DUP4 ADD MSTORE PUSH2 0x4CC7 DUP2 PUSH2 0x4C8B JUMP JUMPDEST SWAP1 POP SWAP2 SWAP1 POP JUMP JUMPDEST PUSH32 0x57726F6E6720636F737420666F72207570736572744964656E74697469657300 PUSH1 0x0 DUP3 ADD MSTORE POP JUMP JUMPDEST PUSH1 0x0 PUSH2 0x4D04 PUSH1 0x1F DUP4 PUSH2 0x424C JUMP JUMPDEST SWAP2 POP PUSH2 0x4D0F DUP3 PUSH2 0x4CCE JUMP JUMPDEST PUSH1 0x20 DUP3 ADD SWAP1 POP SWAP2 SWAP1 POP JUMP JUMPDEST PUSH1 0x0 PUSH1 0x20 DUP3 ADD SWAP1 POP DUP2 DUP2 SUB PUSH1 0x0 DUP4 ADD MSTORE PUSH2 0x4D33 DUP2 PUSH2 0x4CF7 JUMP JUMPDEST SWAP1 POP SWAP2 SWAP1 POP JUMP JUMPDEST PUSH1 0x0 DUP3 CALLDATALOAD PUSH1 0x1 PUSH1 0xE0 SUB DUP4 CALLDATASIZE SUB SUB DUP2 SLT PUSH2 0x4D56 JUMPI PUSH2 0x4D55 PUSH2 0x43D0 JUMP JUMPDEST JUMPDEST DUP1 DUP4 ADD SWAP2 POP POP SWAP3 SWAP2 POP POP JUMP INVALID LOG2 PUSH5 0x6970667358 0x22 SLT KECCAK256 CALL 0xC8 0xC6 0xF7 0xF7 PUSH12 0xEDD1E93087F5AF71F15AA213 PUSH21 0x9ABE09730BD1849456A48674D364736F6C63430008 SHR STOP CALLER "},"methodIdentifiers":{"costManager()":"cecd949a","deleteIdentities(uint256[])":"5886ed5e","deleteInsurances(uint256[])":"7d651b45","deleteLegalDocuments(uint256[])":"3cdafff2","initialize(address,address)":"485cc955","owner()":"8da5cb5b","readIdentities()":"f9084d69","readInsurances()":"a8a91ce6","readLegalDocuments()":"51521679","renounceOwnership()":"715018a6","transferOwnership(address)":"f2fde38b","upsertIdentities((uint256,string,string,string,string,string,string)[])":"eb420024","upsertInsurances((uint256,string,string,string,string,string,string)[])":"7d588e84","upsertLegalDocuments((uint256,string,string,string,string,string)[])":"2687499b"}}}}}