{
  "_format": "hh-sol-artifact-1",
  "contractName": "VaultContract3",
  "sourceName": "contracts/VaultContract3.sol",
  "abi": [
    {
      "inputs": [],
      "name": "InvalidInitialization",
      "type": "error"
    },
    {
      "inputs": [],
      "name": "NotInitializing",
      "type": "error"
    },
    {
      "inputs": [
        {
          "internalType": "address",
          "name": "owner",
          "type": "address"
        }
      ],
      "name": "OwnableInvalidOwner",
      "type": "error"
    },
    {
      "inputs": [
        {
          "internalType": "address",
          "name": "account",
          "type": "address"
        }
      ],
      "name": "OwnableUnauthorizedAccount",
      "type": "error"
    },
    {
      "anonymous": false,
      "inputs": [
        {
          "indexed": false,
          "internalType": "uint64",
          "name": "version",
          "type": "uint64"
        }
      ],
      "name": "Initialized",
      "type": "event"
    },
    {
      "anonymous": false,
      "inputs": [
        {
          "indexed": true,
          "internalType": "address",
          "name": "previousOwner",
          "type": "address"
        },
        {
          "indexed": true,
          "internalType": "address",
          "name": "newOwner",
          "type": "address"
        }
      ],
      "name": "OwnershipTransferred",
      "type": "event"
    },
    {
      "stateMutability": "payable",
      "type": "fallback"
    },
    {
      "inputs": [],
      "name": "costManager",
      "outputs": [
        {
          "internalType": "contract CostManager",
          "name": "",
          "type": "address"
        }
      ],
      "stateMutability": "view",
      "type": "function"
    },
    {
      "inputs": [
        {
          "internalType": "uint256[]",
          "name": "ids",
          "type": "uint256[]"
        }
      ],
      "name": "deleteIdentities",
      "outputs": [],
      "stateMutability": "nonpayable",
      "type": "function"
    },
    {
      "inputs": [
        {
          "internalType": "uint256[]",
          "name": "ids",
          "type": "uint256[]"
        }
      ],
      "name": "deleteInsurances",
      "outputs": [],
      "stateMutability": "nonpayable",
      "type": "function"
    },
    {
      "inputs": [
        {
          "internalType": "uint256[]",
          "name": "ids",
          "type": "uint256[]"
        }
      ],
      "name": "deleteLegalDocuments",
      "outputs": [],
      "stateMutability": "nonpayable",
      "type": "function"
    },
    {
      "inputs": [
        {
          "internalType": "address",
          "name": "_owner",
          "type": "address"
        },
        {
          "internalType": "address",
          "name": "_costManager",
          "type": "address"
        }
      ],
      "name": "initialize",
      "outputs": [],
      "stateMutability": "payable",
      "type": "function"
    },
    {
      "inputs": [],
      "name": "owner",
      "outputs": [
        {
          "internalType": "address",
          "name": "",
          "type": "address"
        }
      ],
      "stateMutability": "view",
      "type": "function"
    },
    {
      "inputs": [],
      "name": "readIdentities",
      "outputs": [
        {
          "components": [
            {
              "internalType": "uint256",
              "name": "id",
              "type": "uint256"
            },
            {
              "internalType": "string",
              "name": "name",
              "type": "string"
            },
            {
              "internalType": "string",
              "name": "documentType",
              "type": "string"
            },
            {
              "internalType": "string",
              "name": "documentNumber",
              "type": "string"
            },
            {
              "internalType": "string",
              "name": "country",
              "type": "string"
            },
            {
              "internalType": "string",
              "name": "expiryDate",
              "type": "string"
            },
            {
              "internalType": "string",
              "name": "remarks",
              "type": "string"
            },
            {
              "internalType": "uint256",
              "name": "timestamp",
              "type": "uint256"
            }
          ],
          "internalType": "struct VaultContract3.Identity[]",
          "name": "",
          "type": "tuple[]"
        }
      ],
      "stateMutability": "view",
      "type": "function"
    },
    {
      "inputs": [],
      "name": "readInsurances",
      "outputs": [
        {
          "components": [
            {
              "internalType": "uint256",
              "name": "id",
              "type": "uint256"
            },
            {
              "internalType": "string",
              "name": "name",
              "type": "string"
            },
            {
              "internalType": "string",
              "name": "provider",
              "type": "string"
            },
            {
              "internalType": "string",
              "name": "policyNumber",
              "type": "string"
            },
            {
              "internalType": "string",
              "name": "expiryDate",
              "type": "string"
            },
            {
              "internalType": "string",
              "name": "linkedTo",
              "type": "string"
            },
            {
              "internalType": "string",
              "name": "remarks",
              "type": "string"
            },
            {
              "internalType": "uint256",
              "name": "timestamp",
              "type": "uint256"
            }
          ],
          "internalType": "struct VaultContract3.Insurance[]",
          "name": "",
          "type": "tuple[]"
        }
      ],
      "stateMutability": "view",
      "type": "function"
    },
    {
      "inputs": [],
      "name": "readLegalDocuments",
      "outputs": [
        {
          "components": [
            {
              "internalType": "uint256",
              "name": "id",
              "type": "uint256"
            },
            {
              "internalType": "string",
              "name": "name",
              "type": "string"
            },
            {
              "internalType": "string",
              "name": "documentType",
              "type": "string"
            },
            {
              "internalType": "string",
              "name": "storageLocation",
              "type": "string"
            },
            {
              "internalType": "string",
              "name": "linkedTo",
              "type": "string"
            },
            {
              "internalType": "string",
              "name": "remarks",
              "type": "string"
            },
            {
              "internalType": "uint256",
              "name": "timestamp",
              "type": "uint256"
            }
          ],
          "internalType": "struct VaultContract3.LegalDocument[]",
          "name": "",
          "type": "tuple[]"
        }
      ],
      "stateMutability": "view",
      "type": "function"
    },
    {
      "inputs": [],
      "name": "renounceOwnership",
      "outputs": [],
      "stateMutability": "nonpayable",
      "type": "function"
    },
    {
      "inputs": [
        {
          "internalType": "address",
          "name": "newOwner",
          "type": "address"
        }
      ],
      "name": "transferOwnership",
      "outputs": [],
      "stateMutability": "nonpayable",
      "type": "function"
    },
    {
      "inputs": [
        {
          "components": [
            {
              "internalType": "uint256",
              "name": "id",
              "type": "uint256"
            },
            {
              "internalType": "string",
              "name": "name",
              "type": "string"
            },
            {
              "internalType": "string",
              "name": "documentType",
              "type": "string"
            },
            {
              "internalType": "string",
              "name": "documentNumber",
              "type": "string"
            },
            {
              "internalType": "string",
              "name": "country",
              "type": "string"
            },
            {
              "internalType": "string",
              "name": "expiryDate",
              "type": "string"
            },
            {
              "internalType": "string",
              "name": "remarks",
              "type": "string"
            }
          ],
          "internalType": "struct VaultContract3.IdentityUpsert[]",
          "name": "data",
          "type": "tuple[]"
        }
      ],
      "name": "upsertIdentities",
      "outputs": [],
      "stateMutability": "payable",
      "type": "function"
    },
    {
      "inputs": [
        {
          "components": [
            {
              "internalType": "uint256",
              "name": "id",
              "type": "uint256"
            },
            {
              "internalType": "string",
              "name": "name",
              "type": "string"
            },
            {
              "internalType": "string",
              "name": "provider",
              "type": "string"
            },
            {
              "internalType": "string",
              "name": "policyNumber",
              "type": "string"
            },
            {
              "internalType": "string",
              "name": "expiryDate",
              "type": "string"
            },
            {
              "internalType": "string",
              "name": "linkedTo",
              "type": "string"
            },
            {
              "internalType": "string",
              "name": "remarks",
              "type": "string"
            }
          ],
          "internalType": "struct VaultContract3.InsuranceUpsert[]",
          "name": "data",
          "type": "tuple[]"
        }
      ],
      "name": "upsertInsurances",
      "outputs": [],
      "stateMutability": "payable",
      "type": "function"
    },
    {
      "inputs": [
        {
          "components": [
            {
              "internalType": "uint256",
              "name": "id",
              "type": "uint256"
            },
            {
              "internalType": "string",
              "name": "name",
              "type": "string"
            },
            {
              "internalType": "string",
              "name": "documentType",
              "type": "string"
            },
            {
              "internalType": "string",
              "name": "storageLocation",
              "type": "string"
            },
            {
              "internalType": "string",
              "name": "linkedTo",
              "type": "string"
            },
            {
              "internalType": "string",
              "name": "remarks",
              "type": "string"
            }
          ],
          "internalType": "struct VaultContract3.LegalDocumentUpsert[]",
          "name": "data",
          "type": "tuple[]"
        }
      ],
      "name": "upsertLegalDocuments",
      "outputs": [],
      "stateMutability": "payable",
      "type": "function"
    },
    {
      "stateMutability": "payable",
      "type": "receive"
    }
  ],
  "bytecode": "0x60806040526001805560016004556001600755348015601d57600080fd5b50614d988061002d6000396000f3fe6080604052600436106100e15760003560e01c80637d651b451161007f578063cecd949a11610059578063cecd949a1461024b578063eb42002414610276578063f2fde38b14610292578063f9084d69146102bb576100e2565b80637d651b45146101cc5780638da5cb5b146101f5578063a8a91ce614610220576100e2565b806351521679116100bb57806351521679146101455780635886ed5e14610170578063715018a6146101995780637d588e84146101b0576100e2565b80632687499b146100e45780633cdafff214610100578063485cc95514610129576100e2565b5b005b6100fe60048036038101906100f9919061389b565b6102e6565b005b34801561010c57600080fd5b506101276004803603810190610122919061393e565b610baf565b005b610143600480360381019061013e91906139e9565b610dfd565b005b34801561015157600080fd5b5061015a611045565b6040516101679190613c4c565b60405180910390f35b34801561017c57600080fd5b506101976004803603810190610192919061393e565b61139a565b005b3480156101a557600080fd5b506101ae61160d565b005b6101ca60048036038101906101c59190613cc4565b611621565b005b3480156101d857600080fd5b506101f360048036038101906101ee919061393e565b612002565b005b34801561020157600080fd5b5061020a612275565b6040516102179190613d20565b60405180910390f35b34801561022c57600080fd5b506102356122ad565b6040516102429190613ed0565b60405180910390f35b34801561025757600080fd5b50610260612695565b60405161026d9190613f51565b60405180910390f35b610290600480360381019061028b9190613fc2565b6126b9565b005b34801561029e57600080fd5b506102b960048036038101906102b4919061400f565b61309a565b005b3480156102c757600080fd5b506102d0613120565b6040516102dd91906141d1565b60405180910390f35b6102ee613508565b60008060009054906101000a900473ffffffffffffffffffffffffffffffffffffffff1673ffffffffffffffffffffffffffffffffffffffff1663f9c59d076040518163ffffffff1660e01b8152600401602060405180830381865afa15801561035c573d6000803e3d6000fd5b505050506040513d601f19601f82011682018060405250810190610380919061421f565b90508034146103c4576040517f08c379a00000000000000000000000000000000000000000000000000000000081526004016103bb906142cf565b60405180910390fd5b60008060009054906101000a900473ffffffffffffffffffffffffffffffffffffffff1673ffffffffffffffffffffffffffffffffffffffff163460405161040b90614320565b60006040518083038185875af1925050503d8060008114610448576040519150601f19603f3d011682016040523d82523d6000602084013e61044d565b606091505b5050905080610491576040517f08c379a000000000000000000000000000000000000000000000000000000000815260040161048890614381565b60405180910390fd5b60005b84849050811015610ba85760008585838181106104b4576104b36143a1565b5b90506020028101906104c691906143df565b60000135036108495760086040518060e0016040528060075481526020018787858181106104f7576104f66143a1565b5b905060200281019061050991906143df565b80602001906105189190614407565b8080601f016020809104026020016040519081016040528093929190818152602001838380828437600081840152601f19601f820116905080830192505050505050508152602001878785818110610573576105726143a1565b5b905060200281019061058591906143df565b80604001906105949190614407565b8080601f016020809104026020016040519081016040528093929190818152602001838380828437600081840152601f19601f8201169050808301925050505050505081526020018787858181106105ef576105ee6143a1565b5b905060200281019061060191906143df565b80606001906106109190614407565b8080601f016020809104026020016040519081016040528093929190818152602001838380828437600081840152601f19601f82011690508083019250505050505050815260200187878581811061066b5761066a6143a1565b5b905060200281019061067d91906143df565b806080019061068c9190614407565b8080601f016020809104026020016040519081016040528093929190818152602001838380828437600081840152601f19601f8201169050808301925050505050505081526020018787858181106106e7576106e66143a1565b5b90506020028101906106f991906143df565b8060a001906107089190614407565b8080601f016020809104026020016040519081016040528093929190818152602001838380828437600081840152601f19601f82011690508083019250505050505050815260200142815250908060018154018082558091505060019003906000526020600020906007020160009091909190915060008201518160000155602082015181600101908161079c919061469b565b5060408201518160020190816107b2919061469b565b5060608201518160030190816107c8919061469b565b5060808201518160040190816107de919061469b565b5060a08201518160050190816107f4919061469b565b5060c0820151816006015550506001600880549050610813919061479c565b600960006007548152602001908152602001600020819055506007600081548092919061083f906147d0565b9190505550610b9b565b600060096000878785818110610862576108616143a1565b5b905060200281019061087491906143df565b60000135815260200190815260200160002054905060088054905081106108d0576040517f08c379a00000000000000000000000000000000000000000000000000000000081526004016108c790614864565b60405180910390fd5b6000600882815481106108e6576108e56143a1565b5b90600052602060002090600702019050600087878581811061090b5761090a6143a1565b5b905060200281019061091d91906143df565b806020019061092c9190614407565b9050111561097b57868684818110610947576109466143a1565b5b905060200281019061095991906143df565b80602001906109689190614407565b82600101918261097992919061488f565b505b60008787858181106109905761098f6143a1565b5b90506020028101906109a291906143df565b80604001906109b19190614407565b90501115610a00578686848181106109cc576109cb6143a1565b5b90506020028101906109de91906143df565b80604001906109ed9190614407565b8260020191826109fe92919061488f565b505b6000878785818110610a1557610a146143a1565b5b9050602002810190610a2791906143df565b8060600190610a369190614407565b90501115610a8557868684818110610a5157610a506143a1565b5b9050602002810190610a6391906143df565b8060600190610a729190614407565b826003019182610a8392919061488f565b505b6000878785818110610a9a57610a996143a1565b5b9050602002810190610aac91906143df565b8060800190610abb9190614407565b90501115610b0a57868684818110610ad657610ad56143a1565b5b9050602002810190610ae891906143df565b8060800190610af79190614407565b826004019182610b0892919061488f565b505b6000878785818110610b1f57610b1e6143a1565b5b9050602002810190610b3191906143df565b8060a00190610b409190614407565b90501115610b8f57868684818110610b5b57610b5a6143a1565b5b9050602002810190610b6d91906143df565b8060a00190610b7c9190614407565b826005019182610b8d92919061488f565b505b42816006018190555050505b8080600101915050610494565b5050505050565b610bb7613508565b60005b82829050811015610df8576000838383818110610bda57610bd96143a1565b5b9050602002013590506000600960008381526020019081526020016000205490506008805490508110610c42576040517f08c379a0000000000000000000000000000000000000000000000000000000008152600401610c3990614864565b60405180910390fd5b60006001600880549050610c56919061479c565b9050808214610d4657600060088281548110610c7557610c746143a1565b5b906000526020600020906007020190508060088481548110610c9a57610c996143a1565b5b90600052602060002090600702016000820154816000015560018201816001019081610cc69190614975565b5060028201816002019081610cdb9190614975565b5060038201816003019081610cf09190614975565b5060048201816004019081610d059190614975565b5060058201816005019081610d1a9190614975565b506006820154816006015590505082600960008360000154815260200190815260200160002081905550505b6008805480610d5857610d57614a5d565b5b6001900381819060005260206000209060070201600080820160009055600182016000610d8591906137cf565b600282016000610d9591906137cf565b600382016000610da591906137cf565b600482016000610db591906137cf565b600582016000610dc591906137cf565b60068201600090555050905560096000848152602001908152602001600020600090555050508080600101915050610bba565b505050565b6000610e0761358f565b905060008160000160089054906101000a900460ff1615905060008260000160009054906101000a900467ffffffffffffffff1690506000808267ffffffffffffffff16148015610e555750825b9050600060018367ffffffffffffffff16148015610e8a575060003073ffffffffffffffffffffffffffffffffffffffff163b145b905081158015610e98575080155b15610ecf576040517ff92ee8a900000000000000000000000000000000000000000000000000000000815260040160405180910390fd5b60018560000160006101000a81548167ffffffffffffffff021916908367ffffffffffffffff1602179055508315610f1f5760018560000160086101000a81548160ff0219169083151502179055505b610f28876135a3565b610f31876135b7565b600073ffffffffffffffffffffffffffffffffffffffff168673ffffffffffffffffffffffffffffffffffffffff1603610fa0576040517f08c379a0000000000000000000000000000000000000000000000000000000008152600401610f9790614ad8565b60405180910390fd5b856000806101000a81548173ffffffffffffffffffffffffffffffffffffffff021916908373ffffffffffffffffffffffffffffffffffffffff160217905550831561103c5760008560000160086101000a81548160ff0219169083151502179055507fc7f505b2f371ae2175ee4913f4499e1f2633a7b5936321eed1cdaeb6115181d260016040516110339190614b47565b60405180910390a15b50505050505050565b606061104f613508565b6008805480602002602001604051908101604052809291908181526020016000905b8282101561139157838290600052602060002090600702016040518060e0016040529081600082015481526020016001820180546110ae906144c8565b80601f01602080910402602001604051908101604052809291908181526020018280546110da906144c8565b80156111275780601f106110fc57610100808354040283529160200191611127565b820191906000526020600020905b81548152906001019060200180831161110a57829003601f168201915b50505050508152602001600282018054611140906144c8565b80601f016020809104026020016040519081016040528092919081815260200182805461116c906144c8565b80156111b95780601f1061118e576101008083540402835291602001916111b9565b820191906000526020600020905b81548152906001019060200180831161119c57829003601f168201915b505050505081526020016003820180546111d2906144c8565b80601f01602080910402602001604051908101604052809291908181526020018280546111fe906144c8565b801561124b5780601f106112205761010080835404028352916020019161124b565b820191906000526020600020905b81548152906001019060200180831161122e57829003601f168201915b50505050508152602001600482018054611264906144c8565b80601f0160208091040260200160405190810160405280929190818152602001828054611290906144c8565b80156112dd5780601f106112b2576101008083540402835291602001916112dd565b820191906000526020600020905b8154815290600101906020018083116112c057829003601f168201915b505050505081526020016005820180546112f6906144c8565b80601f0160208091040260200160405190810160405280929190818152602001828054611322906144c8565b801561136f5780601f106113445761010080835404028352916020019161136f565b820191906000526020600020905b81548152906001019060200180831161135257829003601f168201915b5050505050815260200160068201548152505081526020019060010190611071565b50505050905090565b6113a2613508565b60005b828290508110156116085760008383838181106113c5576113c46143a1565b5b905060200201359050600060066000838152602001908152602001600020549050600580549050811061142d576040517f08c379a000000000000000000000000000000000000000000000000000000000815260040161142490614bae565b60405180910390fd5b60006001600580549050611441919061479c565b9050808214611546576000600582815481106114605761145f6143a1565b5b906000526020600020906008020190508060058481548110611485576114846143a1565b5b906000526020600020906008020160008201548160000155600182018160010190816114b19190614975565b50600282018160020190816114c69190614975565b50600382018160030190816114db9190614975565b50600482018160040190816114f09190614975565b50600582018160050190816115059190614975565b506006820181600601908161151a9190614975565b506007820154816007015590505082600660008360000154815260200190815260200160002081905550505b600580548061155857611557614a5d565b5b600190038181906000526020600020906008020160008082016000905560018201600061158591906137cf565b60028201600061159591906137cf565b6003820160006115a591906137cf565b6004820160006115b591906137cf565b6005820160006115c591906137cf565b6006820160006115d591906137cf565b600782016000905550509055600660008481526020019081526020016000206000905550505080806001019150506113a5565b505050565b611615613508565b61161f60006135b7565b565b611629613508565b60008060009054906101000a900473ffffffffffffffffffffffffffffffffffffffff1673ffffffffffffffffffffffffffffffffffffffff1663f9c59d076040518163ffffffff1660e01b8152600401602060405180830381865afa158015611697573d6000803e3d6000fd5b505050506040513d601f19601f820116820180604052508101906116bb919061421f565b90508034146116ff576040517f08c379a00000000000000000000000000000000000000000000000000000000081526004016116f690614c1a565b60405180910390fd5b60008060009054906101000a900473ffffffffffffffffffffffffffffffffffffffff1673ffffffffffffffffffffffffffffffffffffffff163460405161174690614320565b60006040518083038185875af1925050503d8060008114611783576040519150601f19603f3d011682016040523d82523d6000602084013e611788565b606091505b50509050806117cc576040517f08c379a00000000000000000000000000000000000000000000000000000000081526004016117c390614381565b60405180910390fd5b60005b84849050811015611ffb5760008585838181106117ef576117ee6143a1565b5b90506020028101906118019190614c3a565b6000013503611c175760026040518061010001604052806001548152602001878785818110611833576118326143a1565b5b90506020028101906118459190614c3a565b80602001906118549190614407565b8080601f016020809104026020016040519081016040528093929190818152602001838380828437600081840152601f19601f8201169050808301925050505050505081526020018787858181106118af576118ae6143a1565b5b90506020028101906118c19190614c3a565b80604001906118d09190614407565b8080601f016020809104026020016040519081016040528093929190818152602001838380828437600081840152601f19601f82011690508083019250505050505050815260200187878581811061192b5761192a6143a1565b5b905060200281019061193d9190614c3a565b806060019061194c9190614407565b8080601f016020809104026020016040519081016040528093929190818152602001838380828437600081840152601f19601f8201169050808301925050505050505081526020018787858181106119a7576119a66143a1565b5b90506020028101906119b99190614c3a565b80608001906119c89190614407565b8080601f016020809104026020016040519081016040528093929190818152602001838380828437600081840152601f19601f820116905080830192505050505050508152602001878785818110611a2357611a226143a1565b5b9050602002810190611a359190614c3a565b8060a00190611a449190614407565b8080601f016020809104026020016040519081016040528093929190818152602001838380828437600081840152601f19601f820116905080830192505050505050508152602001878785818110611a9f57611a9e6143a1565b5b9050602002810190611ab19190614c3a565b8060c00190611ac09190614407565b8080601f016020809104026020016040519081016040528093929190818152602001838380828437600081840152601f19601f820116905080830192505050505050508152602001428152509080600181540180825580915050600190039060005260206000209060080201600090919091909150600082015181600001556020820151816001019081611b54919061469b565b506040820151816002019081611b6a919061469b565b506060820151816003019081611b80919061469b565b506080820151816004019081611b96919061469b565b5060a0820151816005019081611bac919061469b565b5060c0820151816006019081611bc2919061469b565b5060e0820151816007015550506001600280549050611be1919061479c565b6003600060015481526020019081526020016000208190555060016000815480929190611c0d906147d0565b9190505550611fee565b600060036000878785818110611c3057611c2f6143a1565b5b9050602002810190611c429190614c3a565b6000013581526020019081526020016000205490506002805490508110611c9e576040517f08c379a0000000000000000000000000000000000000000000000000000000008152600401611c9590614cae565b60405180910390fd5b600060028281548110611cb457611cb36143a1565b5b906000526020600020906008020190506000878785818110611cd957611cd86143a1565b5b9050602002810190611ceb9190614c3a565b8060200190611cfa9190614407565b90501115611d4957868684818110611d1557611d146143a1565b5b9050602002810190611d279190614c3a565b8060200190611d369190614407565b826001019182611d4792919061488f565b505b6000878785818110611d5e57611d5d6143a1565b5b9050602002810190611d709190614c3a565b8060400190611d7f9190614407565b90501115611dce57868684818110611d9a57611d996143a1565b5b9050602002810190611dac9190614c3a565b8060400190611dbb9190614407565b826002019182611dcc92919061488f565b505b6000878785818110611de357611de26143a1565b5b9050602002810190611df59190614c3a565b8060600190611e049190614407565b90501115611e5357868684818110611e1f57611e1e6143a1565b5b9050602002810190611e319190614c3a565b8060600190611e409190614407565b826003019182611e5192919061488f565b505b6000878785818110611e6857611e676143a1565b5b9050602002810190611e7a9190614c3a565b8060800190611e899190614407565b90501115611ed857868684818110611ea457611ea36143a1565b5b9050602002810190611eb69190614c3a565b8060800190611ec59190614407565b826004019182611ed692919061488f565b505b6000878785818110611eed57611eec6143a1565b5b9050602002810190611eff9190614c3a565b8060a00190611f0e9190614407565b90501115611f5d57868684818110611f2957611f286143a1565b5b9050602002810190611f3b9190614c3a565b8060a00190611f4a9190614407565b826005019182611f5b92919061488f565b505b6000878785818110611f7257611f716143a1565b5b9050602002810190611f849190614c3a565b8060c00190611f939190614407565b90501115611fe257868684818110611fae57611fad6143a1565b5b9050602002810190611fc09190614c3a565b8060c00190611fcf9190614407565b826006019182611fe092919061488f565b505b42816007018190555050505b80806001019150506117cf565b5050505050565b61200a613508565b60005b8282905081101561227057600083838381811061202d5761202c6143a1565b5b9050602002013590506000600360008381526020019081526020016000205490506002805490508110612095576040517f08c379a000000000000000000000000000000000000000000000000000000000815260040161208c90614cae565b60405180910390fd5b600060016002805490506120a9919061479c565b90508082146121ae576000600282815481106120c8576120c76143a1565b5b9060005260206000209060080201905080600284815481106120ed576120ec6143a1565b5b906000526020600020906008020160008201548160000155600182018160010190816121199190614975565b506002820181600201908161212e9190614975565b50600382018160030190816121439190614975565b50600482018160040190816121589190614975565b506005820181600501908161216d9190614975565b50600682018160060190816121829190614975565b506007820154816007015590505082600360008360000154815260200190815260200160002081905550505b60028054806121c0576121bf614a5d565b5b60019003818190600052602060002090600802016000808201600090556001820160006121ed91906137cf565b6002820160006121fd91906137cf565b60038201600061220d91906137cf565b60048201600061221d91906137cf565b60058201600061222d91906137cf565b60068201600061223d91906137cf565b6007820160009055505090556003600084815260200190815260200160002060009055505050808060010191505061200d565b505050565b60008061228061368e565b90508060000160009054906101000a900473ffffffffffffffffffffffffffffffffffffffff1691505090565b60606122b7613508565b6002805480602002602001604051908101604052809291908181526020016000905b8282101561268c57838290600052602060002090600802016040518061010001604052908160008201548152602001600182018054612317906144c8565b80601f0160208091040260200160405190810160405280929190818152602001828054612343906144c8565b80156123905780601f1061236557610100808354040283529160200191612390565b820191906000526020600020905b81548152906001019060200180831161237357829003601f168201915b505050505081526020016002820180546123a9906144c8565b80601f01602080910402602001604051908101604052809291908181526020018280546123d5906144c8565b80156124225780601f106123f757610100808354040283529160200191612422565b820191906000526020600020905b81548152906001019060200180831161240557829003601f168201915b5050505050815260200160038201805461243b906144c8565b80601f0160208091040260200160405190810160405280929190818152602001828054612467906144c8565b80156124b45780601f10612489576101008083540402835291602001916124b4565b820191906000526020600020905b81548152906001019060200180831161249757829003601f168201915b505050505081526020016004820180546124cd906144c8565b80601f01602080910402602001604051908101604052809291908181526020018280546124f9906144c8565b80156125465780601f1061251b57610100808354040283529160200191612546565b820191906000526020600020905b81548152906001019060200180831161252957829003601f168201915b5050505050815260200160058201805461255f906144c8565b80601f016020809104026020016040519081016040528092919081815260200182805461258b906144c8565b80156125d85780601f106125ad576101008083540402835291602001916125d8565b820191906000526020600020905b8154815290600101906020018083116125bb57829003601f168201915b505050505081526020016006820180546125f1906144c8565b80601f016020809104026020016040519081016040528092919081815260200182805461261d906144c8565b801561266a5780601f1061263f5761010080835404028352916020019161266a565b820191906000526020600020905b81548152906001019060200180831161264d57829003601f168201915b50505050508152602001600782015481525050815260200190600101906122d9565b50505050905090565b60008054906101000a900473ffffffffffffffffffffffffffffffffffffffff1681565b6126c1613508565b60008060009054906101000a900473ffffffffffffffffffffffffffffffffffffffff1673ffffffffffffffffffffffffffffffffffffffff1663f9c59d076040518163ffffffff1660e01b8152600401602060405180830381865afa15801561272f573d6000803e3d6000fd5b505050506040513d601f19601f82011682018060405250810190612753919061421f565b9050803414612797576040517f08c379a000000000000000000000000000000000000000000000000000000000815260040161278e90614d1a565b60405180910390fd5b60008060009054906101000a900473ffffffffffffffffffffffffffffffffffffffff1673ffffffffffffffffffffffffffffffffffffffff16346040516127de90614320565b60006040518083038185875af1925050503d806000811461281b576040519150601f19603f3d011682016040523d82523d6000602084013e612820565b606091505b5050905080612864576040517f08c379a000000000000000000000000000000000000000000000000000000000815260040161285b90614381565b60405180910390fd5b60005b84849050811015613093576000858583818110612887576128866143a1565b5b90506020028101906128999190614d3a565b6000013503612caf57600560405180610100016040528060045481526020018787858181106128cb576128ca6143a1565b5b90506020028101906128dd9190614d3a565b80602001906128ec9190614407565b8080601f016020809104026020016040519081016040528093929190818152602001838380828437600081840152601f19601f820116905080830192505050505050508152602001878785818110612947576129466143a1565b5b90506020028101906129599190614d3a565b80604001906129689190614407565b8080601f016020809104026020016040519081016040528093929190818152602001838380828437600081840152601f19601f8201169050808301925050505050505081526020018787858181106129c3576129c26143a1565b5b90506020028101906129d59190614d3a565b80606001906129e49190614407565b8080601f016020809104026020016040519081016040528093929190818152602001838380828437600081840152601f19601f820116905080830192505050505050508152602001878785818110612a3f57612a3e6143a1565b5b9050602002810190612a519190614d3a565b8060800190612a609190614407565b8080601f016020809104026020016040519081016040528093929190818152602001838380828437600081840152601f19601f820116905080830192505050505050508152602001878785818110612abb57612aba6143a1565b5b9050602002810190612acd9190614d3a565b8060a00190612adc9190614407565b8080601f016020809104026020016040519081016040528093929190818152602001838380828437600081840152601f19601f820116905080830192505050505050508152602001878785818110612b3757612b366143a1565b5b9050602002810190612b499190614d3a565b8060c00190612b589190614407565b8080601f016020809104026020016040519081016040528093929190818152602001838380828437600081840152601f19601f820116905080830192505050505050508152602001428152509080600181540180825580915050600190039060005260206000209060080201600090919091909150600082015181600001556020820151816001019081612bec919061469b565b506040820151816002019081612c02919061469b565b506060820151816003019081612c18919061469b565b506080820151816004019081612c2e919061469b565b5060a0820151816005019081612c44919061469b565b5060c0820151816006019081612c5a919061469b565b5060e0820151816007015550506001600580549050612c79919061479c565b6006600060045481526020019081526020016000208190555060046000815480929190612ca5906147d0565b9190505550613086565b600060066000878785818110612cc857612cc76143a1565b5b9050602002810190612cda9190614d3a565b6000013581526020019081526020016000205490506005805490508110612d36576040517f08c379a0000000000000000000000000000000000000000000000000000000008152600401612d2d90614bae565b60405180910390fd5b600060058281548110612d4c57612d4b6143a1565b5b906000526020600020906008020190506000878785818110612d7157612d706143a1565b5b9050602002810190612d839190614d3a565b8060200190612d929190614407565b90501115612de157868684818110612dad57612dac6143a1565b5b9050602002810190612dbf9190614d3a565b8060200190612dce9190614407565b826001019182612ddf92919061488f565b505b6000878785818110612df657612df56143a1565b5b9050602002810190612e089190614d3a565b8060400190612e179190614407565b90501115612e6657868684818110612e3257612e316143a1565b5b9050602002810190612e449190614d3a565b8060400190612e539190614407565b826002019182612e6492919061488f565b505b6000878785818110612e7b57612e7a6143a1565b5b9050602002810190612e8d9190614d3a565b8060600190612e9c9190614407565b90501115612eeb57868684818110612eb757612eb66143a1565b5b9050602002810190612ec99190614d3a565b8060600190612ed89190614407565b826003019182612ee992919061488f565b505b6000878785818110612f0057612eff6143a1565b5b9050602002810190612f129190614d3a565b8060800190612f219190614407565b90501115612f7057868684818110612f3c57612f3b6143a1565b5b9050602002810190612f4e9190614d3a565b8060800190612f5d9190614407565b826004019182612f6e92919061488f565b505b6000878785818110612f8557612f846143a1565b5b9050602002810190612f979190614d3a565b8060a00190612fa69190614407565b90501115612ff557868684818110612fc157612fc06143a1565b5b9050602002810190612fd39190614d3a565b8060a00190612fe29190614407565b826005019182612ff392919061488f565b505b600087878581811061300a576130096143a1565b5b905060200281019061301c9190614d3a565b8060c0019061302b9190614407565b9050111561307a57868684818110613046576130456143a1565b5b90506020028101906130589190614d3a565b8060c001906130679190614407565b82600601918261307892919061488f565b505b42816007018190555050505b8080600101915050612867565b5050505050565b6130a2613508565b600073ffffffffffffffffffffffffffffffffffffffff168173ffffffffffffffffffffffffffffffffffffffff16036131145760006040517f1e4fbdf700000000000000000000000000000000000000000000000000000000815260040161310b9190613d20565b60405180910390fd5b61311d816135b7565b50565b606061312a613508565b6005805480602002602001604051908101604052809291908181526020016000905b828210156134ff5783829060005260206000209060080201604051806101000160405290816000820154815260200160018201805461318a906144c8565b80601f01602080910402602001604051908101604052809291908181526020018280546131b6906144c8565b80156132035780601f106131d857610100808354040283529160200191613203565b820191906000526020600020905b8154815290600101906020018083116131e657829003601f168201915b5050505050815260200160028201805461321c906144c8565b80601f0160208091040260200160405190810160405280929190818152602001828054613248906144c8565b80156132955780601f1061326a57610100808354040283529160200191613295565b820191906000526020600020905b81548152906001019060200180831161327857829003601f168201915b505050505081526020016003820180546132ae906144c8565b80601f01602080910402602001604051908101604052809291908181526020018280546132da906144c8565b80156133275780601f106132fc57610100808354040283529160200191613327565b820191906000526020600020905b81548152906001019060200180831161330a57829003601f168201915b50505050508152602001600482018054613340906144c8565b80601f016020809104026020016040519081016040528092919081815260200182805461336c906144c8565b80156133b95780601f1061338e576101008083540402835291602001916133b9565b820191906000526020600020905b81548152906001019060200180831161339c57829003601f168201915b505050505081526020016005820180546133d2906144c8565b80601f01602080910402602001604051908101604052809291908181526020018280546133fe906144c8565b801561344b5780601f106134205761010080835404028352916020019161344b565b820191906000526020600020905b81548152906001019060200180831161342e57829003601f168201915b50505050508152602001600682018054613464906144c8565b80601f0160208091040260200160405190810160405280929190818152602001828054613490906144c8565b80156134dd5780601f106134b2576101008083540402835291602001916134dd565b820191906000526020600020905b8154815290600101906020018083116134c057829003601f168201915b505050505081526020016007820154815250508152602001906001019061314c565b50505050905090565b6135106136b6565b73ffffffffffffffffffffffffffffffffffffffff1661352e612275565b73ffffffffffffffffffffffffffffffffffffffff161461358d576135516136b6565b6040517f118cdaa70000000000000000000000000000000000000000000000000000000081526004016135849190613d20565b60405180910390fd5b565b60008061359a6136be565b90508091505090565b6135ab6136e9565b6135b481613729565b50565b60006135c161368e565b905060008160000160009054906101000a900473ffffffffffffffffffffffffffffffffffffffff169050828260000160006101000a81548173ffffffffffffffffffffffffffffffffffffffff021916908373ffffffffffffffffffffffffffffffffffffffff1602179055508273ffffffffffffffffffffffffffffffffffffffff168173ffffffffffffffffffffffffffffffffffffffff167f8be0079c531659141344cd1fd0a4f28419497f9722a3daafe3b4186f6b6457e060405160405180910390a3505050565b60007f9016d09d72d40fdae2fd8ceac6b6234c7706214fd39c1cd1e609a0528c199300905090565b600033905090565b60007ff0c57e16840df040f15088dc2f81fe391c3923bec73e23a9662efc9c229c6a0060001b905090565b6136f16137af565b613727576040517fd7e6bcf800000000000000000000000000000000000000000000000000000000815260040160405180910390fd5b565b6137316136e9565b600073ffffffffffffffffffffffffffffffffffffffff168173ffffffffffffffffffffffffffffffffffffffff16036137a35760006040517f1e4fbdf700000000000000000000000000000000000000000000000000000000815260040161379a9190613d20565b60405180910390fd5b6137ac816135b7565b50565b60006137b961358f565b60000160089054906101000a900460ff16905090565b5080546137db906144c8565b6000825580601f106137ed575061380c565b601f01602090049060005260206000209081019061380b919061380f565b5b50565b5b80821115613828576000816000905550600101613810565b5090565b600080fd5b600080fd5b600080fd5b600080fd5b600080fd5b60008083601f84011261385b5761385a613836565b5b8235905067ffffffffffffffff8111156138785761387761383b565b5b60208301915083602082028301111561389457613893613840565b5b9250929050565b600080602083850312156138b2576138b161382c565b5b600083013567ffffffffffffffff8111156138d0576138cf613831565b5b6138dc85828601613845565b92509250509250929050565b60008083601f8401126138fe576138fd613836565b5b8235905067ffffffffffffffff81111561391b5761391a61383b565b5b60208301915083602082028301111561393757613936613840565b5b9250929050565b600080602083850312156139555761395461382c565b5b600083013567ffffffffffffffff81111561397357613972613831565b5b61397f858286016138e8565b92509250509250929050565b600073ffffffffffffffffffffffffffffffffffffffff82169050919050565b60006139b68261398b565b9050919050565b6139c6816139ab565b81146139d157600080fd5b50565b6000813590506139e3816139bd565b92915050565b60008060408385031215613a00576139ff61382c565b5b6000613a0e858286016139d4565b9250506020613a1f858286016139d4565b9150509250929050565b600081519050919050565b600082825260208201905092915050565b6000819050602082019050919050565b6000819050919050565b613a6881613a55565b82525050565b600081519050919050565b600082825260208201905092915050565b60005b83811015613aa8578082015181840152602081019050613a8d565b60008484015250505050565b6000601f19601f8301169050919050565b6000613ad082613a6e565b613ada8185613a79565b9350613aea818560208601613a8a565b613af381613ab4565b840191505092915050565b600060e083016000830151613b166000860182613a5f565b5060208301518482036020860152613b2e8282613ac5565b91505060408301518482036040860152613b488282613ac5565b91505060608301518482036060860152613b628282613ac5565b91505060808301518482036080860152613b7c8282613ac5565b91505060a083015184820360a0860152613b968282613ac5565b91505060c0830151613bab60c0860182613a5f565b508091505092915050565b6000613bc28383613afe565b905092915050565b6000602082019050919050565b6000613be282613a29565b613bec8185613a34565b935083602082028501613bfe85613a45565b8060005b85811015613c3a5784840389528151613c1b8582613bb6565b9450613c2683613bca565b925060208a01995050600181019050613c02565b50829750879550505050505092915050565b60006020820190508181036000830152613c668184613bd7565b905092915050565b60008083601f840112613c8457613c83613836565b5b8235905067ffffffffffffffff811115613ca157613ca061383b565b5b602083019150836020820283011115613cbd57613cbc613840565b5b9250929050565b60008060208385031215613cdb57613cda61382c565b5b600083013567ffffffffffffffff811115613cf957613cf8613831565b5b613d0585828601613c6e565b92509250509250929050565b613d1a816139ab565b82525050565b6000602082019050613d356000830184613d11565b92915050565b600081519050919050565b600082825260208201905092915050565b6000819050602082019050919050565b600061010083016000830151613d806000860182613a5f565b5060208301518482036020860152613d988282613ac5565b91505060408301518482036040860152613db28282613ac5565b91505060608301518482036060860152613dcc8282613ac5565b91505060808301518482036080860152613de68282613ac5565b91505060a083015184820360a0860152613e008282613ac5565b91505060c083015184820360c0860152613e1a8282613ac5565b91505060e0830151613e2f60e0860182613a5f565b508091505092915050565b6000613e468383613d67565b905092915050565b6000602082019050919050565b6000613e6682613d3b565b613e708185613d46565b935083602082028501613e8285613d57565b8060005b85811015613ebe5784840389528151613e9f8582613e3a565b9450613eaa83613e4e565b925060208a01995050600181019050613e86565b50829750879550505050505092915050565b60006020820190508181036000830152613eea8184613e5b565b905092915050565b6000819050919050565b6000613f17613f12613f0d8461398b565b613ef2565b61398b565b9050919050565b6000613f2982613efc565b9050919050565b6000613f3b82613f1e565b9050919050565b613f4b81613f30565b82525050565b6000602082019050613f666000830184613f42565b92915050565b60008083601f840112613f8257613f81613836565b5b8235905067ffffffffffffffff811115613f9f57613f9e61383b565b5b602083019150836020820283011115613fbb57613fba613840565b5b9250929050565b60008060208385031215613fd957613fd861382c565b5b600083013567ffffffffffffffff811115613ff757613ff6613831565b5b61400385828601613f6c565b92509250509250929050565b6000602082840312156140255761402461382c565b5b6000614033848285016139d4565b91505092915050565b600081519050919050565b600082825260208201905092915050565b6000819050602082019050919050565b6000610100830160008301516140816000860182613a5f565b50602083015184820360208601526140998282613ac5565b915050604083015184820360408601526140b38282613ac5565b915050606083015184820360608601526140cd8282613ac5565b915050608083015184820360808601526140e78282613ac5565b91505060a083015184820360a08601526141018282613ac5565b91505060c083015184820360c086015261411b8282613ac5565b91505060e083015161413060e0860182613a5f565b508091505092915050565b60006141478383614068565b905092915050565b6000602082019050919050565b60006141678261403c565b6141718185614047565b93508360208202850161418385614058565b8060005b858110156141bf57848403895281516141a0858261413b565b94506141ab8361414f565b925060208a01995050600181019050614187565b50829750879550505050505092915050565b600060208201905081810360008301526141eb818461415c565b905092915050565b6141fc81613a55565b811461420757600080fd5b50565b600081519050614219816141f3565b92915050565b6000602082840312156142355761423461382c565b5b60006142438482850161420a565b91505092915050565b600082825260208201905092915050565b7f57726f6e6720636f737420666f72207570736572744c6567616c446f63756d6560008201527f6e74730000000000000000000000000000000000000000000000000000000000602082015250565b60006142b960238361424c565b91506142c48261425d565b604082019050919050565b600060208201905081810360008301526142e8816142ac565b9050919050565b600081905092915050565b50565b600061430a6000836142ef565b9150614315826142fa565b600082019050919050565b600061432b826142fd565b9150819050919050565b7f466f7277617264696e6720666565206661696c65640000000000000000000000600082015250565b600061436b60158361424c565b915061437682614335565b602082019050919050565b6000602082019050818103600083015261439a8161435e565b9050919050565b7f4e487b7100000000000000000000000000000000000000000000000000000000600052603260045260246000fd5b600080fd5b600080fd5b600080fd5b60008235600160c0038336030381126143fb576143fa6143d0565b5b80830191505092915050565b60008083356001602003843603038112614424576144236143d0565b5b80840192508235915067ffffffffffffffff821115614446576144456143d5565b5b602083019250600182023603831315614462576144616143da565b5b509250929050565b7f4e487b7100000000000000000000000000000000000000000000000000000000600052604160045260246000fd5b7f4e487b7100000000000000000000000000000000000000000000000000000000600052602260045260246000fd5b600060028204905060018216806144e057607f821691505b6020821081036144f3576144f2614499565b5b50919050565b60008190508160005260206000209050919050565b60006020601f8301049050919050565b600082821b905092915050565b60006008830261455b7fffffffffffffffffffffffffffffffffffffffffffffffffffffffffffffffff8261451e565b614565868361451e565b95508019841693508086168417925050509392505050565b600061459861459361458e84613a55565b613ef2565b613a55565b9050919050565b6000819050919050565b6145b28361457d565b6145c66145be8261459f565b84845461452b565b825550505050565b600090565b6145db6145ce565b6145e68184846145a9565b505050565b5b8181101561460a576145ff6000826145d3565b6001810190506145ec565b5050565b601f82111561464f57614620816144f9565b6146298461450e565b81016020851015614638578190505b61464c6146448561450e565b8301826145eb565b50505b505050565b600082821c905092915050565b600061467260001984600802614654565b1980831691505092915050565b600061468b8383614661565b9150826002028217905092915050565b6146a482613a6e565b67ffffffffffffffff8111156146bd576146bc61446a565b5b6146c782546144c8565b6146d282828561460e565b600060209050601f83116001811461470557600084156146f3578287015190505b6146fd858261467f565b865550614765565b601f198416614713866144f9565b60005b8281101561473b57848901518255600182019150602085019450602081019050614716565b868310156147585784890151614754601f891682614661565b8355505b6001600288020188555050505b505050505050565b7f4e487b7100000000000000000000000000000000000000000000000000000000600052601160045260246000fd5b60006147a782613a55565b91506147b283613a55565b92508282039050818111156147ca576147c961476d565b5b92915050565b60006147db82613a55565b91507fffffffffffffffffffffffffffffffffffffffffffffffffffffffffffffffff820361480d5761480c61476d565b5b600182019050919050565b7f496e76616c6964206c6567616c20646f63756d656e7420494400000000000000600082015250565b600061484e60198361424c565b915061485982614818565b602082019050919050565b6000602082019050818103600083015261487d81614841565b9050919050565b600082905092915050565b6148998383614884565b67ffffffffffffffff8111156148b2576148b161446a565b5b6148bc82546144c8565b6148c782828561460e565b6000601f8311600181146148f657600084156148e4578287013590505b6148ee858261467f565b865550614956565b601f198416614904866144f9565b60005b8281101561492c57848901358255600182019150602085019450602081019050614907565b868310156149495784890135614945601f891682614661565b8355505b6001600288020188555050505b50505050505050565b60008154905061496e816144c8565b9050919050565b818103614983575050614a5b565b61498c8261495f565b67ffffffffffffffff8111156149a5576149a461446a565b5b6149af82546144c8565b6149ba82828561460e565b6000601f8311600181146149e957600084156149d7578287015490505b6149e1858261467f565b865550614a54565b601f1984166149f7876144f9565b9650614a02866144f9565b60005b82811015614a2a57848901548255600182019150600185019450602081019050614a05565b86831015614a475784890154614a43601f891682614661565b8355505b6001600288020188555050505b5050505050505b565b7f4e487b7100000000000000000000000000000000000000000000000000000000600052603160045260246000fd5b7f496e76616c696420436f73744d616e6167657200000000000000000000000000600082015250565b6000614ac260138361424c565b9150614acd82614a8c565b602082019050919050565b60006020820190508181036000830152614af181614ab5565b9050919050565b6000819050919050565b600067ffffffffffffffff82169050919050565b6000614b31614b2c614b2784614af8565b613ef2565b614b02565b9050919050565b614b4181614b16565b82525050565b6000602082019050614b5c6000830184614b38565b92915050565b7f496e76616c6964206964656e7469747920494400000000000000000000000000600082015250565b6000614b9860138361424c565b9150614ba382614b62565b602082019050919050565b60006020820190508181036000830152614bc781614b8b565b9050919050565b7f57726f6e6720636f737420666f7220757073657274496e737572616e63657300600082015250565b6000614c04601f8361424c565b9150614c0f82614bce565b602082019050919050565b60006020820190508181036000830152614c3381614bf7565b9050919050565b60008235600160e003833603038112614c5657614c556143d0565b5b80830191505092915050565b7f496e76616c696420696e737572616e6365204944000000000000000000000000600082015250565b6000614c9860148361424c565b9150614ca382614c62565b602082019050919050565b60006020820190508181036000830152614cc781614c8b565b9050919050565b7f57726f6e6720636f737420666f72207570736572744964656e74697469657300600082015250565b6000614d04601f8361424c565b9150614d0f82614cce565b602082019050919050565b60006020820190508181036000830152614d3381614cf7565b9050919050565b60008235600160e003833603038112614d5657614d556143d0565b5b8083019150509291505056fea2646970667358221220f1c8c6f7f76bedd1e93087f5af71f15aa213749abe09730bd1849456a48674d364736f6c634300081c0033",
  "linkReferences": {},
  "deployedLinkReferences": {}
}