{
  "_format": "hh-sol-artifact-1",
  "contractName": "CostManager",
  "sourceName": "contracts/CostManager.sol",
  "abi": [
    {
      "inputs": [],
      "stateMutability": "nonpayable",
      "type": "constructor"
    },
    {
      "inputs": [
        {
          "internalType": "address",
          "name": "owner",
          "type": "address"
        }
      ],
      "name": "OwnableInvalidOwner",
      "type": "error"
    },
    {
      "inputs": [
        {
          "internalType": "address",
          "name": "account",
          "type": "address"
        }
      ],
      "name": "OwnableUnauthorizedAccount",
      "type": "error"
    },
    {
      "anonymous": false,
      "inputs": [
        {
          "indexed": true,
          "internalType": "address",
          "name": "addr",
          "type": "address"
        }
      ],
      "name": "AuthorizedAddressAdded",
      "type": "event"
    },
    {
      "anonymous": false,
      "inputs": [
        {
          "indexed": true,
          "internalType": "address",
          "name": "addr",
          "type": "address"
        }
      ],
      "name": "AuthorizedAddressRemoved",
      "type": "event"
    },
    {
      "anonymous": false,
      "inputs": [
        {
          "indexed": true,
          "internalType": "address",
          "name": "previousOwner",
          "type": "address"
        },
        {
          "indexed": true,
          "internalType": "address",
          "name": "newOwner",
          "type": "address"
        }
      ],
      "name": "OwnershipTransferred",
      "type": "event"
    },
    {
      "anonymous": false,
      "inputs": [
        {
          "indexed": false,
          "internalType": "uint256",
          "name": "oldCost",
          "type": "uint256"
        },
        {
          "indexed": false,
          "internalType": "uint256",
          "name": "newCost",
          "type": "uint256"
        }
      ],
      "name": "VaultCreationCostUpdated",
      "type": "event"
    },
    {
      "anonymous": false,
      "inputs": [
        {
          "indexed": false,
          "internalType": "uint256",
          "name": "oldCost",
          "type": "uint256"
        },
        {
          "indexed": false,
          "internalType": "uint256",
          "name": "newCost",
          "type": "uint256"
        }
      ],
      "name": "VaultUpsertCostUpdated",
      "type": "event"
    },
    {
      "stateMutability": "payable",
      "type": "fallback"
    },
    {
      "inputs": [
        {
          "internalType": "address",
          "name": "_addr",
          "type": "address"
        }
      ],
      "name": "addAuthorized",
      "outputs": [],
      "stateMutability": "nonpayable",
      "type": "function"
    },
    {
      "inputs": [
        {
          "internalType": "address",
          "name": "",
          "type": "address"
        }
      ],
      "name": "authorized",
      "outputs": [
        {
          "internalType": "bool",
          "name": "",
          "type": "bool"
        }
      ],
      "stateMutability": "view",
      "type": "function"
    },
    {
      "inputs": [],
      "name": "owner",
      "outputs": [
        {
          "internalType": "address",
          "name": "",
          "type": "address"
        }
      ],
      "stateMutability": "view",
      "type": "function"
    },
    {
      "inputs": [
        {
          "internalType": "address",
          "name": "_addr",
          "type": "address"
        }
      ],
      "name": "removeAuthorized",
      "outputs": [],
      "stateMutability": "nonpayable",
      "type": "function"
    },
    {
      "inputs": [],
      "name": "renounceOwnership",
      "outputs": [],
      "stateMutability": "nonpayable",
      "type": "function"
    },
    {
      "inputs": [
        {
          "internalType": "uint256",
          "name": "_newCost",
          "type": "uint256"
        }
      ],
      "name": "setVaultCreationCost",
      "outputs": [],
      "stateMutability": "nonpayable",
      "type": "function"
    },
    {
      "inputs": [
        {
          "internalType": "address",
          "name": "_vaultFactory",
          "type": "address"
        }
      ],
      "name": "setVaultFactory",
      "outputs": [],
      "stateMutability": "nonpayable",
      "type": "function"
    },
    {
      "inputs": [
        {
          "internalType": "uint256",
          "name": "_newCost",
          "type": "uint256"
        }
      ],
      "name": "setVaultUpsertCost",
      "outputs": [],
      "stateMutability": "nonpayable",
      "type": "function"
    },
    {
      "inputs": [
        {
          "internalType": "address",
          "name": "newOwner",
          "type": "address"
        }
      ],
      "name": "transferOwnership",
      "outputs": [],
      "stateMutability": "nonpayable",
      "type": "function"
    },
    {
      "inputs": [],
      "name": "vaultCreationCost",
      "outputs": [
        {
          "internalType": "uint256",
          "name": "",
          "type": "uint256"
        }
      ],
      "stateMutability": "view",
      "type": "function"
    },
    {
      "inputs": [],
      "name": "vaultFactory",
      "outputs": [
        {
          "internalType": "address",
          "name": "",
          "type": "address"
        }
      ],
      "stateMutability": "view",
      "type": "function"
    },
    {
      "inputs": [],
      "name": "vaultUpsertCost",
      "outputs": [
        {
          "internalType": "uint256",
          "name": "",
          "type": "uint256"
        }
      ],
      "stateMutability": "view",
      "type": "function"
    },
    {
      "inputs": [
        {
          "internalType": "address payable",
          "name": "_to",
          "type": "address"
        },
        {
          "internalType": "uint256",
          "name": "_amount",
          "type": "uint256"
        }
      ],
      "name": "withdraw",
      "outputs": [],
      "stateMutability": "nonpayable",
      "type": "function"
    },
    {
      "stateMutability": "payable",
      "type": "receive"
    }
  ],
  "bytecode": "0x6080604052678ac7230489e80000600155670de0b6b3a764000060025534801561002857600080fd5b5033600073ffffffffffffffffffffffffffffffffffffffff168173ffffffffffffffffffffffffffffffffffffffff160361009c5760006040517f1e4fbdf700000000000000000000000000000000000000000000000000000000815260040161009391906101b6565b60405180910390fd5b6100ab816100b160201b60201c565b506101d1565b60008060009054906101000a900473ffffffffffffffffffffffffffffffffffffffff169050816000806101000a81548173ffffffffffffffffffffffffffffffffffffffff021916908373ffffffffffffffffffffffffffffffffffffffff1602179055508173ffffffffffffffffffffffffffffffffffffffff168173ffffffffffffffffffffffffffffffffffffffff167f8be0079c531659141344cd1fd0a4f28419497f9722a3daafe3b4186f6b6457e060405160405180910390a35050565b600073ffffffffffffffffffffffffffffffffffffffff82169050919050565b60006101a082610175565b9050919050565b6101b081610195565b82525050565b60006020820190506101cb60008301846101a7565b92915050565b6116cd806101e06000396000f3fe6080604052600436106100c65760003560e01c8063b91816111161007f578063edd60f5c11610059578063edd60f5c14610240578063f2fde38b1461026b578063f3fef3a314610294578063f9c59d07146102bd576100c7565b8063b9181611146101af578063cf1c316a146101ec578063d8a06f7314610215576100c7565b80633ea7fbdb146100c9578063485d7d94146100f25780634d7a0cd41461011b57806366903bec14610144578063715018a61461016d5780638da5cb5b14610184576100c7565b5b005b3480156100d557600080fd5b506100f060048036038101906100eb91906111f7565b6102e8565b005b3480156100fe57600080fd5b50610119600480360381019061011491906111f7565b610472565b005b34801561012757600080fd5b50610142600480360381019061013d919061125a565b6105e7565b005b34801561015057600080fd5b5061016b6004803603810190610166919061125a565b610709565b005b34801561017957600080fd5b5061018261082b565b005b34801561019057600080fd5b5061019961083f565b6040516101a69190611296565b60405180910390f35b3480156101bb57600080fd5b506101d660048036038101906101d191906111f7565b610868565b6040516101e391906112cc565b60405180910390f35b3480156101f857600080fd5b50610213600480360381019061020e91906111f7565b610888565b005b34801561022157600080fd5b5061022a6109fd565b6040516102379190611296565b60405180910390f35b34801561024c57600080fd5b50610255610a23565b60405161026291906112f6565b60405180910390f35b34801561027757600080fd5b50610292600480360381019061028d91906111f7565b610a29565b005b3480156102a057600080fd5b506102bb60048036038101906102b6919061134f565b610d6f565b005b3480156102c957600080fd5b506102d2610fb5565b6040516102df91906112f6565b60405180910390f35b6102f0610fbb565b73ffffffffffffffffffffffffffffffffffffffff1661030e61083f565b73ffffffffffffffffffffffffffffffffffffffff161480610380575060046000610337610fbb565b73ffffffffffffffffffffffffffffffffffffffff1673ffffffffffffffffffffffffffffffffffffffff16815260200190815260200160002060009054906101000a900460ff165b6103bf576040517f08c379a00000000000000000000000000000000000000000000000000000000081526004016103b6906113ec565b60405180910390fd5b600073ffffffffffffffffffffffffffffffffffffffff168173ffffffffffffffffffffffffffffffffffffffff160361042e576040517f08c379a000000000000000000000000000000000000000000000000000000000815260040161042590611458565b60405180910390fd5b80600360006101000a81548173ffffffffffffffffffffffffffffffffffffffff021916908373ffffffffffffffffffffffffffffffffffffffff16021790555050565b61047a610fbb565b73ffffffffffffffffffffffffffffffffffffffff1661049861083f565b73ffffffffffffffffffffffffffffffffffffffff16148061050a5750600460006104c1610fbb565b73ffffffffffffffffffffffffffffffffffffffff1673ffffffffffffffffffffffffffffffffffffffff16815260200190815260200160002060009054906101000a900460ff165b610549576040517f08c379a0000000000000000000000000000000000000000000000000000000008152600401610540906113ec565b60405180910390fd5b6000600460008373ffffffffffffffffffffffffffffffffffffffff1673ffffffffffffffffffffffffffffffffffffffff16815260200190815260200160002060006101000a81548160ff0219169083151502179055508073ffffffffffffffffffffffffffffffffffffffff167f66d5f06f711af3c9feba3203fdb00b51345d514c68585d9d319c5ff5e6f7759260405160405180910390a250565b6105ef610fbb565b73ffffffffffffffffffffffffffffffffffffffff1661060d61083f565b73ffffffffffffffffffffffffffffffffffffffff16148061067f575060046000610636610fbb565b73ffffffffffffffffffffffffffffffffffffffff1673ffffffffffffffffffffffffffffffffffffffff16815260200190815260200160002060009054906101000a900460ff165b6106be576040517f08c379a00000000000000000000000000000000000000000000000000000000081526004016106b5906113ec565b60405180910390fd5b60008190507f6f293c90d870ebd948e04617840242cd8192ca8aece6b634ae6f212767170435600154826040516106f6929190611478565b60405180910390a1806001819055505050565b610711610fbb565b73ffffffffffffffffffffffffffffffffffffffff1661072f61083f565b73ffffffffffffffffffffffffffffffffffffffff1614806107a1575060046000610758610fbb565b73ffffffffffffffffffffffffffffffffffffffff1673ffffffffffffffffffffffffffffffffffffffff16815260200190815260200160002060009054906101000a900460ff165b6107e0576040517f08c379a00000000000000000000000000000000000000000000000000000000081526004016107d7906113ec565b60405180910390fd5b60008190507f2b0bfa212001e6157c9d21528674df104c827f6b9081a36d81da4e3d36f0272a60025482604051610818929190611478565b60405180910390a1806002819055505050565b610833610fc3565b61083d600061104a565b565b60008060009054906101000a900473ffffffffffffffffffffffffffffffffffffffff16905090565b60046020528060005260406000206000915054906101000a900460ff1681565b610890610fbb565b73ffffffffffffffffffffffffffffffffffffffff166108ae61083f565b73ffffffffffffffffffffffffffffffffffffffff1614806109205750600460006108d7610fbb565b73ffffffffffffffffffffffffffffffffffffffff1673ffffffffffffffffffffffffffffffffffffffff16815260200190815260200160002060009054906101000a900460ff165b61095f576040517f08c379a0000000000000000000000000000000000000000000000000000000008152600401610956906113ec565b60405180910390fd5b6001600460008373ffffffffffffffffffffffffffffffffffffffff1673ffffffffffffffffffffffffffffffffffffffff16815260200190815260200160002060006101000a81548160ff0219169083151502179055508073ffffffffffffffffffffffffffffffffffffffff167f10ac961f00d5e732ba4dcc2c6fb09bebea0eb9edd2a75c8109775ef288382e6760405160405180910390a250565b600360009054906101000a900473ffffffffffffffffffffffffffffffffffffffff1681565b60015481565b610a31610fbb565b73ffffffffffffffffffffffffffffffffffffffff16610a4f61083f565b73ffffffffffffffffffffffffffffffffffffffff161480610ac1575060046000610a78610fbb565b73ffffffffffffffffffffffffffffffffffffffff1673ffffffffffffffffffffffffffffffffffffffff16815260200190815260200160002060009054906101000a900460ff165b610b00576040517f08c379a0000000000000000000000000000000000000000000000000000000008152600401610af7906113ec565b60405180910390fd5b6000610b0a61083f565b9050600073ffffffffffffffffffffffffffffffffffffffff168273ffffffffffffffffffffffffffffffffffffffff1603610b7b576040517f08c379a0000000000000000000000000000000000000000000000000000000008152600401610b72906114ed565b60405180910390fd5b610b848261110e565b600073ffffffffffffffffffffffffffffffffffffffff16600360009054906101000a900473ffffffffffffffffffffffffffffffffffffffff1673ffffffffffffffffffffffffffffffffffffffff1614610c6857600360009054906101000a900473ffffffffffffffffffffffffffffffffffffffff1673ffffffffffffffffffffffffffffffffffffffff16633eecb3ca836040518263ffffffff1660e01b8152600401610c359190611296565b600060405180830381600087803b158015610c4f57600080fd5b505af1158015610c63573d6000803e3d6000fd5b505050505b6001600460008373ffffffffffffffffffffffffffffffffffffffff1673ffffffffffffffffffffffffffffffffffffffff16815260200190815260200160002060006101000a81548160ff021916908315150217905550600460008373ffffffffffffffffffffffffffffffffffffffff1673ffffffffffffffffffffffffffffffffffffffff16815260200190815260200160002060009054906101000a900460ff1615610d6b576000600460008473ffffffffffffffffffffffffffffffffffffffff1673ffffffffffffffffffffffffffffffffffffffff16815260200190815260200160002060006101000a81548160ff0219169083151502179055505b5050565b610d77610fbb565b73ffffffffffffffffffffffffffffffffffffffff16610d9561083f565b73ffffffffffffffffffffffffffffffffffffffff161480610e07575060046000610dbe610fbb565b73ffffffffffffffffffffffffffffffffffffffff1673ffffffffffffffffffffffffffffffffffffffff16815260200190815260200160002060009054906101000a900460ff165b610e46576040517f08c379a0000000000000000000000000000000000000000000000000000000008152600401610e3d906113ec565b60405180910390fd5b600073ffffffffffffffffffffffffffffffffffffffff168273ffffffffffffffffffffffffffffffffffffffff1603610eb5576040517f08c379a0000000000000000000000000000000000000000000000000000000008152600401610eac90611559565b60405180910390fd5b47811115610ef8576040517f08c379a0000000000000000000000000000000000000000000000000000000008152600401610eef906115c5565b60405180910390fd5b60008103610f04574790505b60008273ffffffffffffffffffffffffffffffffffffffff1682604051610f2a90611616565b60006040518083038185875af1925050503d8060008114610f67576040519150601f19603f3d011682016040523d82523d6000602084013e610f6c565b606091505b5050905080610fb0576040517f08c379a0000000000000000000000000000000000000000000000000000000008152600401610fa790611677565b60405180910390fd5b505050565b60025481565b600033905090565b610fcb610fbb565b73ffffffffffffffffffffffffffffffffffffffff16610fe961083f565b73ffffffffffffffffffffffffffffffffffffffff16146110485761100c610fbb565b6040517f118cdaa700000000000000000000000000000000000000000000000000000000815260040161103f9190611296565b60405180910390fd5b565b60008060009054906101000a900473ffffffffffffffffffffffffffffffffffffffff169050816000806101000a81548173ffffffffffffffffffffffffffffffffffffffff021916908373ffffffffffffffffffffffffffffffffffffffff1602179055508173ffffffffffffffffffffffffffffffffffffffff168173ffffffffffffffffffffffffffffffffffffffff167f8be0079c531659141344cd1fd0a4f28419497f9722a3daafe3b4186f6b6457e060405160405180910390a35050565b611116610fc3565b600073ffffffffffffffffffffffffffffffffffffffff168173ffffffffffffffffffffffffffffffffffffffff16036111885760006040517f1e4fbdf700000000000000000000000000000000000000000000000000000000815260040161117f9190611296565b60405180910390fd5b6111918161104a565b50565b600080fd5b600073ffffffffffffffffffffffffffffffffffffffff82169050919050565b60006111c482611199565b9050919050565b6111d4816111b9565b81146111df57600080fd5b50565b6000813590506111f1816111cb565b92915050565b60006020828403121561120d5761120c611194565b5b600061121b848285016111e2565b91505092915050565b6000819050919050565b61123781611224565b811461124257600080fd5b50565b6000813590506112548161122e565b92915050565b6000602082840312156112705761126f611194565b5b600061127e84828501611245565b91505092915050565b611290816111b9565b82525050565b60006020820190506112ab6000830184611287565b92915050565b60008115159050919050565b6112c6816112b1565b82525050565b60006020820190506112e160008301846112bd565b92915050565b6112f081611224565b82525050565b600060208201905061130b60008301846112e7565b92915050565b600061131c82611199565b9050919050565b61132c81611311565b811461133757600080fd5b50565b60008135905061134981611323565b92915050565b6000806040838503121561136657611365611194565b5b60006113748582860161133a565b925050602061138585828601611245565b9150509250929050565b600082825260208201905092915050565b7f4e6f74206f776e6572206f7220617574686f72697a6564000000000000000000600082015250565b60006113d660178361138f565b91506113e1826113a0565b602082019050919050565b60006020820190508181036000830152611405816113c9565b9050919050565b7f496e76616c6964207661756c74466163746f7279206164647265737300000000600082015250565b6000611442601c8361138f565b915061144d8261140c565b602082019050919050565b6000602082019050818103600083015261147181611435565b9050919050565b600060408201905061148d60008301856112e7565b61149a60208301846112e7565b9392505050565b7f496e76616c6964206e6577206f776e6572000000000000000000000000000000600082015250565b60006114d760118361138f565b91506114e2826114a1565b602082019050919050565b60006020820190508181036000830152611506816114ca565b9050919050565b7f496e76616c696420726563697069656e74000000000000000000000000000000600082015250565b600061154360118361138f565b915061154e8261150d565b602082019050919050565b6000602082019050818103600083015261157281611536565b9050919050565b7f496e73756666696369656e742062616c616e6365000000000000000000000000600082015250565b60006115af60148361138f565b91506115ba82611579565b602082019050919050565b600060208201905081810360008301526115de816115a2565b9050919050565b600081905092915050565b50565b60006116006000836115e5565b915061160b826115f0565b600082019050919050565b6000611621826115f3565b9150819050919050565b7f5472616e73666572206661696c65640000000000000000000000000000000000600082015250565b6000611661600f8361138f565b915061166c8261162b565b602082019050919050565b6000602082019050818103600083015261169081611654565b905091905056fea26469706673582212201cfbc46d787b38f66b194f689fe272fd00d351bedef31ebffb67d211555788ae64736f6c634300081c0033",
  "linkReferences": {},
  "deployedLinkReferences": {}
}