{
  "_format": "hh-sol-artifact-1",
  "contractName": "CostManager",
  "sourceName": "contracts/CostManager.sol",
  "abi": [
    {
      "inputs": [],
      "stateMutability": "nonpayable",
      "type": "constructor"
    },
    {
      "inputs": [
        {
          "internalType": "address",
          "name": "owner",
          "type": "address"
        }
      ],
      "name": "OwnableInvalidOwner",
      "type": "error"
    },
    {
      "inputs": [
        {
          "internalType": "address",
          "name": "account",
          "type": "address"
        }
      ],
      "name": "OwnableUnauthorizedAccount",
      "type": "error"
    },
    {
      "anonymous": false,
      "inputs": [
        {
          "indexed": true,
          "internalType": "address",
          "name": "addr",
          "type": "address"
        }
      ],
      "name": "AuthorizedAddressAdded",
      "type": "event"
    },
    {
      "anonymous": false,
      "inputs": [
        {
          "indexed": true,
          "internalType": "address",
          "name": "addr",
          "type": "address"
        }
      ],
      "name": "AuthorizedAddressRemoved",
      "type": "event"
    },
    {
      "anonymous": false,
      "inputs": [
        {
          "indexed": true,
          "internalType": "address",
          "name": "previousOwner",
          "type": "address"
        },
        {
          "indexed": true,
          "internalType": "address",
          "name": "newOwner",
          "type": "address"
        }
      ],
      "name": "OwnershipTransferred",
      "type": "event"
    },
    {
      "anonymous": false,
      "inputs": [
        {
          "indexed": false,
          "internalType": "uint256",
          "name": "oldCost",
          "type": "uint256"
        },
        {
          "indexed": false,
          "internalType": "uint256",
          "name": "newCost",
          "type": "uint256"
        }
      ],
      "name": "VaultCreationCostUpdated",
      "type": "event"
    },
    {
      "anonymous": false,
      "inputs": [
        {
          "indexed": false,
          "internalType": "uint256",
          "name": "oldCost",
          "type": "uint256"
        },
        {
          "indexed": false,
          "internalType": "uint256",
          "name": "newCost",
          "type": "uint256"
        }
      ],
      "name": "VaultUpsertCostUpdated",
      "type": "event"
    },
    {
      "stateMutability": "payable",
      "type": "fallback"
    },
    {
      "inputs": [
        {
          "internalType": "address",
          "name": "_addr",
          "type": "address"
        }
      ],
      "name": "addAuthorized",
      "outputs": [],
      "stateMutability": "nonpayable",
      "type": "function"
    },
    {
      "inputs": [
        {
          "internalType": "address",
          "name": "",
          "type": "address"
        }
      ],
      "name": "authorized",
      "outputs": [
        {
          "internalType": "bool",
          "name": "",
          "type": "bool"
        }
      ],
      "stateMutability": "view",
      "type": "function"
    },
    {
      "inputs": [],
      "name": "owner",
      "outputs": [
        {
          "internalType": "address",
          "name": "",
          "type": "address"
        }
      ],
      "stateMutability": "view",
      "type": "function"
    },
    {
      "inputs": [
        {
          "internalType": "address",
          "name": "_addr",
          "type": "address"
        }
      ],
      "name": "removeAuthorized",
      "outputs": [],
      "stateMutability": "nonpayable",
      "type": "function"
    },
    {
      "inputs": [],
      "name": "renounceOwnership",
      "outputs": [],
      "stateMutability": "nonpayable",
      "type": "function"
    },
    {
      "inputs": [
        {
          "internalType": "uint256",
          "name": "_newCost",
          "type": "uint256"
        }
      ],
      "name": "setVaultCreationCost",
      "outputs": [],
      "stateMutability": "nonpayable",
      "type": "function"
    },
    {
      "inputs": [
        {
          "internalType": "address",
          "name": "_vaultFactory",
          "type": "address"
        }
      ],
      "name": "setVaultFactory",
      "outputs": [],
      "stateMutability": "nonpayable",
      "type": "function"
    },
    {
      "inputs": [
        {
          "internalType": "uint256",
          "name": "_newCost",
          "type": "uint256"
        }
      ],
      "name": "setVaultUpsertCost",
      "outputs": [],
      "stateMutability": "nonpayable",
      "type": "function"
    },
    {
      "inputs": [
        {
          "internalType": "address",
          "name": "newOwner",
          "type": "address"
        }
      ],
      "name": "transferOwnership",
      "outputs": [],
      "stateMutability": "nonpayable",
      "type": "function"
    },
    {
      "inputs": [],
      "name": "vaultCreationCost",
      "outputs": [
        {
          "internalType": "uint256",
          "name": "",
          "type": "uint256"
        }
      ],
      "stateMutability": "view",
      "type": "function"
    },
    {
      "inputs": [],
      "name": "vaultFactory",
      "outputs": [
        {
          "internalType": "address",
          "name": "",
          "type": "address"
        }
      ],
      "stateMutability": "view",
      "type": "function"
    },
    {
      "inputs": [],
      "name": "vaultUpsertCost",
      "outputs": [
        {
          "internalType": "uint256",
          "name": "",
          "type": "uint256"
        }
      ],
      "stateMutability": "view",
      "type": "function"
    },
    {
      "inputs": [
        {
          "internalType": "address payable",
          "name": "_to",
          "type": "address"
        },
        {
          "internalType": "uint256",
          "name": "_amount",
          "type": "uint256"
        }
      ],
      "name": "withdraw",
      "outputs": [],
      "stateMutability": "nonpayable",
      "type": "function"
    },
    {
      "stateMutability": "payable",
      "type": "receive"
    }
  ],
  "bytecode": "0x6080604052678ac7230489e80000600155670de0b6b3a764000060025534801561002857600080fd5b5033600073ffffffffffffffffffffffffffffffffffffffff168173ffffffffffffffffffffffffffffffffffffffff160361009c5760006040517f1e4fbdf700000000000000000000000000000000000000000000000000000000815260040161009391906101b6565b60405180910390fd5b6100ab816100b160201b60201c565b506101d1565b60008060009054906101000a900473ffffffffffffffffffffffffffffffffffffffff169050816000806101000a81548173ffffffffffffffffffffffffffffffffffffffff021916908373ffffffffffffffffffffffffffffffffffffffff1602179055508173ffffffffffffffffffffffffffffffffffffffff168173ffffffffffffffffffffffffffffffffffffffff167f8be0079c531659141344cd1fd0a4f28419497f9722a3daafe3b4186f6b6457e060405160405180910390a35050565b600073ffffffffffffffffffffffffffffffffffffffff82169050919050565b60006101a082610175565b9050919050565b6101b081610195565b82525050565b60006020820190506101cb60008301846101a7565b92915050565b611764806101e06000396000f3fe6080604052600436106100c65760003560e01c8063b91816111161007f578063edd60f5c11610059578063edd60f5c14610240578063f2fde38b1461026b578063f3fef3a314610294578063f9c59d07146102bd576100c7565b8063b9181611146101af578063cf1c316a146101ec578063d8a06f7314610215576100c7565b80633ea7fbdb146100c9578063485d7d94146100f25780634d7a0cd41461011b57806366903bec14610144578063715018a61461016d5780638da5cb5b14610184576100c7565b5b005b3480156100d557600080fd5b506100f060048036038101906100eb919061121d565b6102e8565b005b3480156100fe57600080fd5b506101196004803603810190610114919061121d565b610472565b005b34801561012757600080fd5b50610142600480360381019061013d9190611280565b6105e7565b005b34801561015057600080fd5b5061016b60048036038101906101669190611280565b61071c565b005b34801561017957600080fd5b50610182610851565b005b34801561019057600080fd5b50610199610865565b6040516101a691906112bc565b60405180910390f35b3480156101bb57600080fd5b506101d660048036038101906101d1919061121d565b61088e565b6040516101e391906112f2565b60405180910390f35b3480156101f857600080fd5b50610213600480360381019061020e919061121d565b6108ae565b005b34801561022157600080fd5b5061022a610a23565b60405161023791906112bc565b60405180910390f35b34801561024c57600080fd5b50610255610a49565b604051610262919061131c565b60405180910390f35b34801561027757600080fd5b50610292600480360381019061028d919061121d565b610a4f565b005b3480156102a057600080fd5b506102bb60048036038101906102b69190611375565b610d95565b005b3480156102c957600080fd5b506102d2610fdb565b6040516102df919061131c565b60405180910390f35b6102f0610fe1565b73ffffffffffffffffffffffffffffffffffffffff1661030e610865565b73ffffffffffffffffffffffffffffffffffffffff161480610380575060046000610337610fe1565b73ffffffffffffffffffffffffffffffffffffffff1673ffffffffffffffffffffffffffffffffffffffff16815260200190815260200160002060009054906101000a900460ff165b6103bf576040517f08c379a00000000000000000000000000000000000000000000000000000000081526004016103b690611412565b60405180910390fd5b600073ffffffffffffffffffffffffffffffffffffffff168173ffffffffffffffffffffffffffffffffffffffff160361042e576040517f08c379a00000000000000000000000000000000000000000000000000000000081526004016104259061147e565b60405180910390fd5b80600360006101000a81548173ffffffffffffffffffffffffffffffffffffffff021916908373ffffffffffffffffffffffffffffffffffffffff16021790555050565b61047a610fe1565b73ffffffffffffffffffffffffffffffffffffffff16610498610865565b73ffffffffffffffffffffffffffffffffffffffff16148061050a5750600460006104c1610fe1565b73ffffffffffffffffffffffffffffffffffffffff1673ffffffffffffffffffffffffffffffffffffffff16815260200190815260200160002060009054906101000a900460ff165b610549576040517f08c379a000000000000000000000000000000000000000000000000000000000815260040161054090611412565b60405180910390fd5b6000600460008373ffffffffffffffffffffffffffffffffffffffff1673ffffffffffffffffffffffffffffffffffffffff16815260200190815260200160002060006101000a81548160ff0219169083151502179055508073ffffffffffffffffffffffffffffffffffffffff167f66d5f06f711af3c9feba3203fdb00b51345d514c68585d9d319c5ff5e6f7759260405160405180910390a250565b6105ef610fe1565b73ffffffffffffffffffffffffffffffffffffffff1661060d610865565b73ffffffffffffffffffffffffffffffffffffffff16148061067f575060046000610636610fe1565b73ffffffffffffffffffffffffffffffffffffffff1673ffffffffffffffffffffffffffffffffffffffff16815260200190815260200160002060009054906101000a900460ff165b6106be576040517f08c379a00000000000000000000000000000000000000000000000000000000081526004016106b590611412565b60405180910390fd5b6000670de0b6b3a7640000826106d491906114cd565b90507f6f293c90d870ebd948e04617840242cd8192ca8aece6b634ae6f2127671704356001548260405161070992919061150f565b60405180910390a1806001819055505050565b610724610fe1565b73ffffffffffffffffffffffffffffffffffffffff16610742610865565b73ffffffffffffffffffffffffffffffffffffffff1614806107b457506004600061076b610fe1565b73ffffffffffffffffffffffffffffffffffffffff1673ffffffffffffffffffffffffffffffffffffffff16815260200190815260200160002060009054906101000a900460ff165b6107f3576040517f08c379a00000000000000000000000000000000000000000000000000000000081526004016107ea90611412565b60405180910390fd5b6000670de0b6b3a76400008261080991906114cd565b90507f2b0bfa212001e6157c9d21528674df104c827f6b9081a36d81da4e3d36f0272a6002548260405161083e92919061150f565b60405180910390a1806002819055505050565b610859610fe9565b6108636000611070565b565b60008060009054906101000a900473ffffffffffffffffffffffffffffffffffffffff16905090565b60046020528060005260406000206000915054906101000a900460ff1681565b6108b6610fe1565b73ffffffffffffffffffffffffffffffffffffffff166108d4610865565b73ffffffffffffffffffffffffffffffffffffffff1614806109465750600460006108fd610fe1565b73ffffffffffffffffffffffffffffffffffffffff1673ffffffffffffffffffffffffffffffffffffffff16815260200190815260200160002060009054906101000a900460ff165b610985576040517f08c379a000000000000000000000000000000000000000000000000000000000815260040161097c90611412565b60405180910390fd5b6001600460008373ffffffffffffffffffffffffffffffffffffffff1673ffffffffffffffffffffffffffffffffffffffff16815260200190815260200160002060006101000a81548160ff0219169083151502179055508073ffffffffffffffffffffffffffffffffffffffff167f10ac961f00d5e732ba4dcc2c6fb09bebea0eb9edd2a75c8109775ef288382e6760405160405180910390a250565b600360009054906101000a900473ffffffffffffffffffffffffffffffffffffffff1681565b60015481565b610a57610fe1565b73ffffffffffffffffffffffffffffffffffffffff16610a75610865565b73ffffffffffffffffffffffffffffffffffffffff161480610ae7575060046000610a9e610fe1565b73ffffffffffffffffffffffffffffffffffffffff1673ffffffffffffffffffffffffffffffffffffffff16815260200190815260200160002060009054906101000a900460ff165b610b26576040517f08c379a0000000000000000000000000000000000000000000000000000000008152600401610b1d90611412565b60405180910390fd5b6000610b30610865565b9050600073ffffffffffffffffffffffffffffffffffffffff168273ffffffffffffffffffffffffffffffffffffffff1603610ba1576040517f08c379a0000000000000000000000000000000000000000000000000000000008152600401610b9890611584565b60405180910390fd5b610baa82611134565b600073ffffffffffffffffffffffffffffffffffffffff16600360009054906101000a900473ffffffffffffffffffffffffffffffffffffffff1673ffffffffffffffffffffffffffffffffffffffff1614610c8e57600360009054906101000a900473ffffffffffffffffffffffffffffffffffffffff1673ffffffffffffffffffffffffffffffffffffffff16633eecb3ca836040518263ffffffff1660e01b8152600401610c5b91906112bc565b600060405180830381600087803b158015610c7557600080fd5b505af1158015610c89573d6000803e3d6000fd5b505050505b6001600460008373ffffffffffffffffffffffffffffffffffffffff1673ffffffffffffffffffffffffffffffffffffffff16815260200190815260200160002060006101000a81548160ff021916908315150217905550600460008373ffffffffffffffffffffffffffffffffffffffff1673ffffffffffffffffffffffffffffffffffffffff16815260200190815260200160002060009054906101000a900460ff1615610d91576000600460008473ffffffffffffffffffffffffffffffffffffffff1673ffffffffffffffffffffffffffffffffffffffff16815260200190815260200160002060006101000a81548160ff0219169083151502179055505b5050565b610d9d610fe1565b73ffffffffffffffffffffffffffffffffffffffff16610dbb610865565b73ffffffffffffffffffffffffffffffffffffffff161480610e2d575060046000610de4610fe1565b73ffffffffffffffffffffffffffffffffffffffff1673ffffffffffffffffffffffffffffffffffffffff16815260200190815260200160002060009054906101000a900460ff165b610e6c576040517f08c379a0000000000000000000000000000000000000000000000000000000008152600401610e6390611412565b60405180910390fd5b600073ffffffffffffffffffffffffffffffffffffffff168273ffffffffffffffffffffffffffffffffffffffff1603610edb576040517f08c379a0000000000000000000000000000000000000000000000000000000008152600401610ed2906115f0565b60405180910390fd5b47811115610f1e576040517f08c379a0000000000000000000000000000000000000000000000000000000008152600401610f159061165c565b60405180910390fd5b60008103610f2a574790505b60008273ffffffffffffffffffffffffffffffffffffffff1682604051610f50906116ad565b60006040518083038185875af1925050503d8060008114610f8d576040519150601f19603f3d011682016040523d82523d6000602084013e610f92565b606091505b5050905080610fd6576040517f08c379a0000000000000000000000000000000000000000000000000000000008152600401610fcd9061170e565b60405180910390fd5b505050565b60025481565b600033905090565b610ff1610fe1565b73ffffffffffffffffffffffffffffffffffffffff1661100f610865565b73ffffffffffffffffffffffffffffffffffffffff161461106e57611032610fe1565b6040517f118cdaa700000000000000000000000000000000000000000000000000000000815260040161106591906112bc565b60405180910390fd5b565b60008060009054906101000a900473ffffffffffffffffffffffffffffffffffffffff169050816000806101000a81548173ffffffffffffffffffffffffffffffffffffffff021916908373ffffffffffffffffffffffffffffffffffffffff1602179055508173ffffffffffffffffffffffffffffffffffffffff168173ffffffffffffffffffffffffffffffffffffffff167f8be0079c531659141344cd1fd0a4f28419497f9722a3daafe3b4186f6b6457e060405160405180910390a35050565b61113c610fe9565b600073ffffffffffffffffffffffffffffffffffffffff168173ffffffffffffffffffffffffffffffffffffffff16036111ae5760006040517f1e4fbdf70000000000000000000000000000000000000000000000000000000081526004016111a591906112bc565b60405180910390fd5b6111b781611070565b50565b600080fd5b600073ffffffffffffffffffffffffffffffffffffffff82169050919050565b60006111ea826111bf565b9050919050565b6111fa816111df565b811461120557600080fd5b50565b600081359050611217816111f1565b92915050565b600060208284031215611233576112326111ba565b5b600061124184828501611208565b91505092915050565b6000819050919050565b61125d8161124a565b811461126857600080fd5b50565b60008135905061127a81611254565b92915050565b600060208284031215611296576112956111ba565b5b60006112a48482850161126b565b91505092915050565b6112b6816111df565b82525050565b60006020820190506112d160008301846112ad565b92915050565b60008115159050919050565b6112ec816112d7565b82525050565b600060208201905061130760008301846112e3565b92915050565b6113168161124a565b82525050565b6000602082019050611331600083018461130d565b92915050565b6000611342826111bf565b9050919050565b61135281611337565b811461135d57600080fd5b50565b60008135905061136f81611349565b92915050565b6000806040838503121561138c5761138b6111ba565b5b600061139a85828601611360565b92505060206113ab8582860161126b565b9150509250929050565b600082825260208201905092915050565b7f4e6f74206f776e6572206f7220617574686f72697a6564000000000000000000600082015250565b60006113fc6017836113b5565b9150611407826113c6565b602082019050919050565b6000602082019050818103600083015261142b816113ef565b9050919050565b7f496e76616c6964207661756c74466163746f7279206164647265737300000000600082015250565b6000611468601c836113b5565b915061147382611432565b602082019050919050565b600060208201905081810360008301526114978161145b565b9050919050565b7f4e487b7100000000000000000000000000000000000000000000000000000000600052601160045260246000fd5b60006114d88261124a565b91506114e38361124a565b92508282026114f18161124a565b915082820484148315176115085761150761149e565b5b5092915050565b6000604082019050611524600083018561130d565b611531602083018461130d565b9392505050565b7f496e76616c6964206e6577206f776e6572000000000000000000000000000000600082015250565b600061156e6011836113b5565b915061157982611538565b602082019050919050565b6000602082019050818103600083015261159d81611561565b9050919050565b7f496e76616c696420726563697069656e74000000000000000000000000000000600082015250565b60006115da6011836113b5565b91506115e5826115a4565b602082019050919050565b60006020820190508181036000830152611609816115cd565b9050919050565b7f496e73756666696369656e742062616c616e6365000000000000000000000000600082015250565b60006116466014836113b5565b915061165182611610565b602082019050919050565b6000602082019050818103600083015261167581611639565b9050919050565b600081905092915050565b50565b600061169760008361167c565b91506116a282611687565b600082019050919050565b60006116b88261168a565b9150819050919050565b7f5472616e73666572206661696c65640000000000000000000000000000000000600082015250565b60006116f8600f836113b5565b9150611703826116c2565b602082019050919050565b60006020820190508181036000830152611727816116eb565b905091905056fea26469706673582212206de38c9187d003c62b9dc7c63b545be3cd6cd5d502f61f6a6feaea682f2f752964736f6c634300081c0033",
  "linkReferences": {},
  "deployedLinkReferences": {}
}