{
    "contractName": "VaultContract",
    "abi": [
        {
            "inputs": [],
            "name": "InvalidInitialization",
            "type": "error"
        },
        {
            "inputs": [],
            "name": "NotInitializing",
            "type": "error"
        },
        {
            "inputs": [
                {
                    "internalType": "address",
                    "name": "owner",
                    "type": "address"
                }
            ],
            "name": "OwnableInvalidOwner",
            "type": "error"
        },
        {
            "inputs": [
                {
                    "internalType": "address",
                    "name": "account",
                    "type": "address"
                }
            ],
            "name": "OwnableUnauthorizedAccount",
            "type": "error"
        },
        {
            "anonymous": false,
            "inputs": [
                {
                    "indexed": false,
                    "internalType": "uint64",
                    "name": "version",
                    "type": "uint64"
                }
            ],
            "name": "Initialized",
            "type": "event"
        },
        {
            "anonymous": false,
            "inputs": [
                {
                    "indexed": true,
                    "internalType": "address",
                    "name": "previousOwner",
                    "type": "address"
                },
                {
                    "indexed": true,
                    "internalType": "address",
                    "name": "newOwner",
                    "type": "address"
                }
            ],
            "name": "OwnershipTransferred",
            "type": "event"
        },
        {
            "stateMutability": "payable",
            "type": "fallback"
        },
        {
            "inputs": [],
            "name": "costManager",
            "outputs": [
                {
                    "internalType": "contract CostManager",
                    "name": "",
                    "type": "address"
                }
            ],
            "stateMutability": "view",
            "type": "function"
        },
        {
            "inputs": [
                {
                    "internalType": "uint256[]",
                    "name": "ids",
                    "type": "uint256[]"
                }
            ],
            "name": "deleteCredentials",
            "outputs": [],
            "stateMutability": "nonpayable",
            "type": "function"
        },
        {
            "inputs": [
                {
                    "internalType": "uint256[]",
                    "name": "ids",
                    "type": "uint256[]"
                }
            ],
            "name": "deleteNotes",
            "outputs": [],
            "stateMutability": "nonpayable",
            "type": "function"
        },
        {
            "inputs": [
                {
                    "internalType": "address[]",
                    "name": "addrs",
                    "type": "address[]"
                }
            ],
            "name": "deleteWalletAddresses",
            "outputs": [],
            "stateMutability": "nonpayable",
            "type": "function"
        },
        {
            "inputs": [
                {
                    "internalType": "address",
                    "name": "_owner",
                    "type": "address"
                },
                {
                    "internalType": "address",
                    "name": "_costManager",
                    "type": "address"
                }
            ],
            "name": "initialize",
            "outputs": [],
            "stateMutability": "payable",
            "type": "function"
        },
        {
            "inputs": [],
            "name": "owner",
            "outputs": [
                {
                    "internalType": "address",
                    "name": "",
                    "type": "address"
                }
            ],
            "stateMutability": "view",
            "type": "function"
        },
        {
            "inputs": [],
            "name": "readCredentials",
            "outputs": [
                {
                    "components": [
                        {
                            "internalType": "uint256",
                            "name": "id",
                            "type": "uint256"
                        },
                        {
                            "internalType": "string",
                            "name": "name",
                            "type": "string"
                        },
                        {
                            "internalType": "string",
                            "name": "username",
                            "type": "string"
                        },
                        {
                            "internalType": "string",
                            "name": "password",
                            "type": "string"
                        },
                        {
                            "internalType": "string",
                            "name": "remarks",
                            "type": "string"
                        },
                        {
                            "internalType": "uint256",
                            "name": "timestamp",
                            "type": "uint256"
                        }
                    ],
                    "internalType": "struct VaultContract.Credential[]",
                    "name": "",
                    "type": "tuple[]"
                }
            ],
            "stateMutability": "view",
            "type": "function"
        },
        {
            "inputs": [],
            "name": "readNote",
            "outputs": [
                {
                    "components": [
                        {
                            "internalType": "uint256",
                            "name": "id",
                            "type": "uint256"
                        },
                        {
                            "internalType": "string",
                            "name": "name",
                            "type": "string"
                        },
                        {
                            "internalType": "string",
                            "name": "note",
                            "type": "string"
                        },
                        {
                            "internalType": "uint256",
                            "name": "timestamp",
                            "type": "uint256"
                        }
                    ],
                    "internalType": "struct VaultContract.Note[]",
                    "name": "",
                    "type": "tuple[]"
                }
            ],
            "stateMutability": "view",
            "type": "function"
        },
        {
            "inputs": [],
            "name": "readWalletAddress",
            "outputs": [
                {
                    "components": [
                        {
                            "internalType": "address",
                            "name": "walletAddress",
                            "type": "address"
                        },
                        {
                            "internalType": "string",
                            "name": "name",
                            "type": "string"
                        },
                        {
                            "internalType": "string",
                            "name": "privateKey",
                            "type": "string"
                        },
                        {
                            "internalType": "string",
                            "name": "seedPhrase",
                            "type": "string"
                        },
                        {
                            "internalType": "string",
                            "name": "remarks",
                            "type": "string"
                        },
                        {
                            "internalType": "uint256",
                            "name": "timestamp",
                            "type": "uint256"
                        }
                    ],
                    "internalType": "struct VaultContract.WalletInfo[]",
                    "name": "",
                    "type": "tuple[]"
                }
            ],
            "stateMutability": "view",
            "type": "function"
        },
        {
            "inputs": [],
            "name": "renounceOwnership",
            "outputs": [],
            "stateMutability": "nonpayable",
            "type": "function"
        },
        {
            "inputs": [
                {
                    "internalType": "address",
                    "name": "newOwner",
                    "type": "address"
                }
            ],
            "name": "transferOwnership",
            "outputs": [],
            "stateMutability": "nonpayable",
            "type": "function"
        },
        {
            "inputs": [
                {
                    "components": [
                        {
                            "internalType": "uint256",
                            "name": "id",
                            "type": "uint256"
                        },
                        {
                            "internalType": "string",
                            "name": "name",
                            "type": "string"
                        },
                        {
                            "internalType": "string",
                            "name": "username",
                            "type": "string"
                        },
                        {
                            "internalType": "string",
                            "name": "password",
                            "type": "string"
                        },
                        {
                            "internalType": "string",
                            "name": "remarks",
                            "type": "string"
                        }
                    ],
                    "internalType": "struct VaultContract.CredentialUpsert[]",
                    "name": "data",
                    "type": "tuple[]"
                }
            ],
            "name": "upsertCredentials",
            "outputs": [],
            "stateMutability": "payable",
            "type": "function"
        },
        {
            "inputs": [
                {
                    "components": [
                        {
                            "internalType": "uint256",
                            "name": "id",
                            "type": "uint256"
                        },
                        {
                            "internalType": "string",
                            "name": "name",
                            "type": "string"
                        },
                        {
                            "internalType": "string",
                            "name": "note",
                            "type": "string"
                        }
                    ],
                    "internalType": "struct VaultContract.NoteUpsert[]",
                    "name": "data",
                    "type": "tuple[]"
                }
            ],
            "name": "upsertNotes",
            "outputs": [],
            "stateMutability": "payable",
            "type": "function"
        },
        {
            "inputs": [
                {
                    "components": [
                        {
                            "internalType": "address",
                            "name": "walletAddress",
                            "type": "address"
                        },
                        {
                            "internalType": "string",
                            "name": "name",
                            "type": "string"
                        },
                        {
                            "internalType": "string",
                            "name": "privateKey",
                            "type": "string"
                        },
                        {
                            "internalType": "string",
                            "name": "seedPhrase",
                            "type": "string"
                        },
                        {
                            "internalType": "string",
                            "name": "remarks",
                            "type": "string"
                        }
                    ],
                    "internalType": "struct VaultContract.WalletUpsert[]",
                    "name": "data",
                    "type": "tuple[]"
                }
            ],
            "name": "upsertWalletAddress",
            "outputs": [],
            "stateMutability": "payable",
            "type": "function"
        },
        {
            "stateMutability": "payable",
            "type": "receive"
        }
    ],
    "bytecode": "60808060405234601e5760018055600160045561286a90816100238239f35b5f80fdfe60a06040526004361015610010575b005b5f3560e01c806323dc59c314611c04578063413ba32614611a90578063485cc9551461185a57806352ab43e61461171e578063715018a6146116b75780637576e7f7146114e457806382e91caa146113935780638da5cb5b1461135f578063a4595a2014610df5578063cafdf8b514610c8e578063ccd7dc5a14610a8b578063cecd949a14610a64578063f117c6a8146100db5763f2fde38b0361000e57346100d75760203660031901126100d75761000e6100ca6121b1565b6100d2612742565b612717565b5f80fd5b60203660031901126100d7576004356001600160401b0381116100d757610106903690600401612181565b61010e612742565b5f5460405163f9c59d0760e01b81526001600160a01b0390911690602081600481855afa908115610a59575f91610a27575b5034036109e3575f8080806101619434905af161015b61225d565b5061228c565b5f6080525b806080511061017157005b61017e60805182846122d0565b35610616579061022d9160015461023c61024b6101ab6101a160805186886122d0565b6020810190612332565b6101c86101be608094939451888a6122d0565b6040810190612332565b94906101e46101da6080518a8c6122d0565b6060810190612332565b9a909161021e6102056101fb8d8d608051916122d0565b6080810190612332565b9890966040519b6102158d612206565b8c5236916126bf565b9760208a0198895236916126bf565b99604088019a8b5236916126bf565b926060860193845236916126bf565b956080840196875260a0840192428452600254600160401b8110156104b05780600161027a920160025561244b565b9590956106035751855551805160018601916001600160401b0382116104b0576102ae826102a88554612364565b856123b2565b602090601f83116001146105a0576102dd92915f9183610595575b50508160011b915f199060031b1c19161790565b90555b51805160028501916001600160401b0382116104b057610304826102a88554612364565b602090601f83116001146105325761033292915f91836105275750508160011b915f199060031b1c19161790565b90555b51805160038401916001600160401b0382116104b057610359826102a88554612364565b602090601f83116001146104c45761038792915f918361043d5750508160011b915f199060031b1c19161790565b90555b6004820194519485516001600160401b0381116104b0576103b5816103af8454612364565b846123b2565b6020601f82116001146104485790806103e8926005969798995f9261043d5750508160011b915f199060031b1c19161790565b90555b519101556002545f198101908111610429576001545f52600360205260405f20556104176001546126f5565b6001555b600160805101608052610166565b634e487b7160e01b5f52601160045260245ffd5b0151905089806102c9565b96601f19821690835f52885f20915f5b818110610498575098839291600194600598999a9b10610480575b505050811b0190556103eb565b01515f1960f88460031b161c19169055888080610473565b828b0151845560209a8b019a60019094019301610458565b634e487b7160e01b5f52604160045260245ffd5b90601f19831691845f52815f20925f5b81811061050f57509084600195949392106104f7575b505050811b01905561038a565b01515f1960f88460031b161c191690558880806104ea565b929360206001819287860151815501950193016104d4565b015190508a806102c9565b90601f19831691845f52815f20925f5b81811061057d5750908460019594939210610565575b505050811b019055610335565b01515f1960f88460031b161c19169055898080610558565b92936020600181928786015181550195019301610542565b015190508b806102c9565b90601f19831691845f52815f20925f5b8181106105eb57509084600195949392106105d3575b505050811b0190556102e0565b01515f1960f88460031b161c191690558a80806105c6565b929360206001819287860151815501950193016105b0565b634e487b7160e01b5f525f60045260245ffd5b61062360805182846122d0565b355f52600360205261064560405f20546106406002548210612407565b61244b565b506106566101a160805184866122d0565b905061091a575b61066d6101be60805184866122d0565b9050610851575b6106846101da60805184866122d0565b9050610788575b61069b6101fb60805184866122d0565b90506106ad575b60054291015561041b565b91906106bf6101fb60805183856122d0565b600485929501906001600160401b0381116104b0576106e2816103af8454612364565b5f601f821160011461072457819061071293949596975f926107195750508160011b915f199060031b1c19161790565b90556106a2565b0135905087806102c9565b601f19821696835f5260205f20915f5b8981106107705750836001959697989910610757575b505050811b0190556106a2565b01355f19600384901b60f8161c1916905586808061074a565b90926020600181928686013581550194019101610734565b6107986101da60805184866122d0565b60038301916001600160401b0382116104b0576107b9826102a88554612364565b5f90601f83116001146107ed576107e692915f91836107195750508160011b915f199060031b1c19161790565b905561068b565b601f19831691845f5260205f20925f5b8181106108395750908460019594939210610820575b505050811b01905561068b565b01355f19600384901b60f8161c19169055868080610813565b838301358555600190940193602092830192016107fd565b6108616101be60805184866122d0565b60028301916001600160401b0382116104b057610882826102a88554612364565b5f90601f83116001146108b6576108af92915f91836107195750508160011b915f199060031b1c19161790565b9055610674565b601f19831691845f5260205f20925f5b81811061090257509084600195949392106108e9575b505050811b019055610674565b01355f19600384901b60f8161c191690558680806108dc565b838301358555600190940193602092830192016108c6565b61092a6101a160805184866122d0565b60018301916001600160401b0382116104b05761094b826102a88554612364565b5f90601f831160011461097f5761097892915f91836107195750508160011b915f199060031b1c19161790565b905561065d565b601f19831691845f5260205f20925f5b8181106109cb57509084600195949392106109b2575b505050811b01905561065d565b01355f19600384901b60f8161c191690558680806109a5565b8383013585556001909401936020928301920161098f565b606460405162461bcd60e51b815260206004820152602060248201527f57726f6e6720636f737420666f722075707365727443726564656e7469616c736044820152fd5b90506020813d602011610a51575b81610a4260209383612221565b810103126100d7575184610140565b3d9150610a35565b6040513d5f823e3d90fd5b346100d7575f3660031901126100d7575f546040516001600160a01b039091168152602090f35b346100d7575f3660031901126100d757610aa3612742565b600754610aaf816125e8565b90610abd6040519283612221565b808252601f19610acc826125e8565b015f5b818110610c505750505f5b818110610bab57826040518091602082016020835281518091526040830190602060408260051b8601019301915f905b828210610b1957505050500390f35b919360019193955060208091603f19898203018552875190848060a01b03825116815260a080610b95610b83610b71610b5f8888015160c08a89015260c08801906121c7565b604088015187820360408901526121c7565b606087015186820360608801526121c7565b608086015185820360808701526121c7565b9301519101529601920192018594939192610b0a565b80610bb760019261231a565b838060a01b0391549060031b1c165f52600860205260405f20600560405191610bdf83612206565b848060a01b038154168352610bf58582016125ff565b6020840152610c06600282016125ff565b6040840152610c17600382016125ff565b6060840152610c28600482016125ff565b6080840152015460a0820152610c3e8286612703565b52610c498185612703565b5001610ada565b602090604051610c5f81612206565b5f815260608382015260606040820152606080820152606060808201525f60a082015282828701015201610acf565b346100d7575f3660031901126100d757610ca6612742565b600254610cb2816125e8565b90610cc06040519283612221565b80825260208201908160025f527f405787fa12a823e0f2b7631cc41b3ba8828b3321ca811111fa75cd3aa3bb5ace5f915b838310610d8457848660405191829160208301906020845251809152604083019060408160051b85010192915f905b828210610d2f57505050500390f35b919360019193955060208091603f198982030185528751908151815260a080610d6e610b83610b71610b5f8888015160c08a89015260c08801906121c7565b9301519101529601920192018594939192610d20565b60066020600192604051610d9781612206565b85548152610da68587016125ff565b83820152610db6600287016125ff565b6040820152610dc7600387016125ff565b6060820152610dd8600487016125ff565b6080820152600586015460a0820152815201920192019190610cf1565b60203660031901126100d7576004356001600160401b0381116100d757610e20903690600401612181565b610e28612742565b5f5460405163f9c59d0760e01b81526001600160a01b0390911690602081600481855afa908115610a59575f9161132d575b5034036112e8575f808080610e759434905af161015b61225d565b5f5b818110610e8057005b610e8b81838561269d565b356110ca57600454610ee0610ea46101a184868861269d565b610ed1610eb86101be87898b97969761269d565b94909260405196610ec8886121eb565b875236916126bf565b926020850193845236916126bf565b604083019081526060830191428352600554600160401b8110156104b057806001610f0e92016005556125cc565b9490946106035751845551805160018501916001600160401b0382116104b057610f3c826102a88554612364565b602090601f831160011461106757610f6a92915f91836105275750508160011b915f199060031b1c19161790565b90555b51805160028401916001600160401b0382116104b057610f91826102a88554612364565b602090601f8311600114611001579180610fc49260039695945f926105275750508160011b915f199060031b1c19161790565b90555b519101556005545f19810191908211610429576001916004545f52600660205260405f2055610ff76004546126f5565b6004555b01610e77565b90601f19831691845f52815f20925f5b81811061104f575091600193918560039897969410611038575b505050811b019055610fc7565b01515f1983881b60f8161c1916905589808061102b565b92936020600181928786015181550195019301611011565b90601f19831691845f52815f20925f5b8181106110b2575090846001959493921061109a575b505050811b019055610f6d565b01515f1960f88460031b161c1916905589808061108d565b92936020600181928786015181550195019301611077565b91906110d783828461269d565b355f5260066020526110f960405f20546110f4600554821061258e565b6125cc565b50926111096101a182848661269d565b9050611216575b61111e6101be82848661269d565b9050611135575b6001919293600342910155610ffb565b6111436101be82848661269d565b600286929601906001600160401b0381116104b057611166816103af8454612364565b5f96601f82116001146111af5790806001969798611198935f926111a45750508160011b915f199060031b1c19161790565b90555b93929150611125565b0135905089806102c9565b601f19821697835f5260205f20985f5b8181106111fe57509160019798999184899594106111e5575b505050811b01905561119b565b01355f19600384901b60f8161c191690558880806111d8565b91996020600181928d8701358155019b0192016111bf565b6112246101a182848661269d565b60018601916001600160401b0382116104b057611245826102a88554612364565b5f90601f83116001146112845761127292915f91836112795750508160011b915f199060031b1c19161790565b9055611110565b0135905088806102c9565b601f19831691845f5260205f20925f5b8181106112d057509084600195949392106112b7575b505050811b019055611110565b01355f19600384901b60f8161c191690558780806112aa565b83830135855560019094019360209283019201611294565b60405162461bcd60e51b815260206004820152601a60248201527f57726f6e6720636f737420666f72207570736572744e6f7465730000000000006044820152606490fd5b90506020813d602011611357575b8161134860209383612221565b810103126100d7575184610e5a565b3d915061133b565b346100d7575f3660031901126100d7575f5160206127f55f395f51905f52546040516001600160a01b039091168152602090f35b346100d7575f3660031901126100d7576113ab612742565b6005546113b7816125e8565b906113c56040519283612221565b80825260208201908160055f527f036b6384b5eca791c62761152d0c79bb0604c104a5fb6f4eb0703f3154bb3db05f915b83831061149557848660405191829160208301906020845251809152604083019060408160051b85010192915f905b82821061143457505050500390f35b919360019193955060208091603f198982030185528751908151815260608061147f61146d8686015160808887015260808601906121c7565b604086015185820360408701526121c7565b9301519101529601920192018594939192611425565b600460206001926040516114a8816121eb565b855481526114b78587016125ff565b838201526114c7600287016125ff565b6040820152600386015460608201528152019201920191906113f6565b346100d75760203660031901126100d7576004356001600160401b0381116100d757611514903690600401612181565b9061151d612742565b5f5b82811061152857005b6001600160a01b0361154361153e8386866123f7565b612306565b165f818152600860205260409020549091906001600160a01b03161561167f57815f52600960205260405f20546007545f19810190811161042957808203611620575b505060075491821561160c576001925f19016115a18161231a565b815490868060a01b039060031b1b19169055600755805f5260096020525f60408120555f5260086020525f6005604082208281556115e0858201612540565b6115ec60028201612540565b6115f860038201612540565b61160460048201612540565b01550161151f565b634e487b7160e01b5f52603160045260245ffd5b6116299061231a565b905460039190911b1c6001600160a01b031661166c816116488461231a565b81546001600160a01b0393841660039290921b91821b9390911b1916919091179055565b5f52600960205260405f20558480611586565b60405162461bcd60e51b815260206004820152601060248201526f15d85b1b195d081b9bdd08199bdd5b9960821b6044820152606490fd5b346100d7575f3660031901126100d7576116cf612742565b5f5160206127f55f395f51905f5280546001600160a01b031981169091555f906001600160a01b03167f8be0079c531659141344cd1fd0a4f28419497f9722a3daafe3b4186f6b6457e08280a3005b346100d75760203660031901126100d7576004356001600160401b0381116100d75761174e903690600401612181565b611756612742565b5f5b81811061176157005b61176c8183856123f7565b3590815f52600660205260405f205460055461178981831061258e565b5f198101908111610429578082036117f3575b5050600554801561160c575f1901916117b4836125cc565b939093610603575f60038582600197556117cf878201612540565b6117db60028201612540565b01556005555f5260066020525f604081205501611758565b6117fc906125cc565b50611806826125cc565b61060357818103611827575b50545f52600660205260405f2055848061179c565b8154815561183b6001830160018301612467565b61184b6002830160028301612467565b60038083015491015586611812565b60403660031901126100d75761186e6121b1565b6024356001600160a01b038116908190036100d7575f5160206128155f395f51905f525460ff8160401c1615926001600160401b03821680159081611a88575b6001149081611a7e575b159081611a75575b50611a665767ffffffffffffffff1982166001175f5160206128155f395f51905f525561190c9184611a3a575b506118f66127c9565b6118fe6127c9565b61190781612717565b612775565b80156119ff575f80546001600160a01b0319168217905534611987575b5061193057005b68ff0000000000000000195f5160206128155f395f51905f5254165f5160206128155f395f51905f52557fc7f505b2f371ae2175ee4913f4499e1f2633a7b5936321eed1cdaeb6115181d2602060405160018152a1005b5f8080809334905af161199861225d565b50156119a45781611929565b60405162461bcd60e51b815260206004820152602d60248201527f466f7277617264696e67206372656174696f6e2066656520746f20436f73744d60448201526c185b9859d95c8819985a5b1959609a1b6064820152608490fd5b60405162461bcd60e51b815260206004820152601360248201527224b73b30b634b21021b7b9ba26b0b730b3b2b960691b6044820152606490fd5b68ffffffffffffffffff191668010000000000000001175f5160206128155f395f51905f5255846118ed565b63f92ee8a960e01b5f5260045ffd5b905015856118c0565b303b1591506118b8565b8591506118ae565b346100d75760203660031901126100d7576004356001600160401b0381116100d757611ac0903690600401612181565b611ac8612742565b5f5b818110611ad357005b611ade8183856123f7565b3590815f52600360205260405f2054600254611afb818310612407565b5f19810190811161042957808203611b7d575b5050600254801561160c575f190191611b268361244b565b939093610603575f6005858260019755611b41878201612540565b611b4d60028201612540565b611b5960038201612540565b611b6560048201612540565b01556002555f5260036020525f604081205501611aca565b611b869061244b565b50611b908261244b565b61060357818103611bb1575b50545f52600360205260405f20558480611b0e565b81548155611bc56001830160018301612467565b611bd56002830160028301612467565b611be56003830160038301612467565b611bf56004830160048301612467565b60058083015491015586611b9c565b60203660031901126100d7576004356001600160401b0381116100d757611c2f903690600401612181565b611c37612742565b5f5460405163f9c59d0760e01b81526001600160a01b0390911690602081600481855afa908115610a59575f9161214f575b5034036120ff57611c855f808080879534905af161015b61225d565b5f915b808310611c9157005b611c9f61153e8483856122d0565b926001600160a01b03841680156120ba575f81815260086020526040902080549095906001600160a01b031615612065575b5050611ce16101a18284866122d0565b9050611f9e575b611cf66101be8284866122d0565b9050611ed7575b611d0b6101da8284866122d0565b9050611e10575b611d206101fb8284866122d0565b9050611d3a575b6001919293600542910155019190611c88565b611d486101fb8284866122d0565b600486929601906001600160401b0381116104b057611d6b816103af8454612364565b5f96601f8211600114611da95790806001969798611d9d935f926111a45750508160011b915f199060031b1c19161790565b90555b93929150611d27565b601f19821697835f5260205f20985f5b818110611df85750916001979899918489959410611ddf575b505050811b019055611da0565b01355f19600384901b60f8161c19169055888080611dd2565b91996020600181928d8701358155019b019201611db9565b611e1e6101da8284866122d0565b60038601916001600160401b0382116104b057611e3f826102a88554612364565b5f90601f8311600114611e7357611e6c92915f91836112795750508160011b915f199060031b1c19161790565b9055611d12565b601f19831691845f5260205f20925f5b818110611ebf5750908460019594939210611ea6575b505050811b019055611d12565b01355f19600384901b60f8161c19169055878080611e99565b83830135855560019094019360209283019201611e83565b611ee56101be8284866122d0565b60028601916001600160401b0382116104b057611f06826102a88554612364565b5f90601f8311600114611f3a57611f3392915f91836112795750508160011b915f199060031b1c19161790565b9055611cfd565b601f19831691845f5260205f20925f5b818110611f865750908460019594939210611f6d575b505050811b019055611cfd565b01355f19600384901b60f8161c19169055878080611f60565b83830135855560019094019360209283019201611f4a565b611fac6101a18284866122d0565b60018601916001600160401b0382116104b057611fcd826102a88554612364565b5f90601f831160011461200157611ffa92915f91836112795750508160011b915f199060031b1c19161790565b9055611ce8565b601f19831691845f5260205f20925f5b81811061204d5750908460019594939210612034575b505050811b019055611ce8565b01355f19600384901b60f8161c19169055878080612027565b83830135855560019094019360209283019201612011565b60075490600160401b8210156104b057611648826001612088940160075561231a565b6007545f198101908111610429575f8281526009602052604090205584546001600160a01b0319161784558480611cd1565b60405162461bcd60e51b815260206004820152601860248201527f5a65726f2061646472657373206e6f7420616c6c6f77656400000000000000006044820152606490fd5b60405162461bcd60e51b815260206004820152602260248201527f57726f6e6720636f737420666f722075707365727457616c6c65744164647265604482015261737360f01b6064820152608490fd5b90506020813d602011612179575b8161216a60209383612221565b810103126100d7575184611c69565b3d915061215d565b9181601f840112156100d7578235916001600160401b0383116100d7576020808501948460051b0101116100d757565b600435906001600160a01b03821682036100d757565b805180835260209291819084018484015e5f828201840152601f01601f1916010190565b608081019081106001600160401b038211176104b057604052565b60c081019081106001600160401b038211176104b057604052565b90601f801991011681019081106001600160401b038211176104b057604052565b6001600160401b0381116104b057601f01601f191660200190565b3d15612287573d9061226e82612242565b9161227c6040519384612221565b82523d5f602084013e565b606090565b1561229357565b60405162461bcd60e51b8152602060048201526015602482015274119bdc9dd85c991a5b99c81999594819985a5b1959605a1b6044820152606490fd5b91908110156122f25760051b81013590609e19813603018212156100d7570190565b634e487b7160e01b5f52603260045260245ffd5b356001600160a01b03811681036100d75790565b6007548110156122f25760075f5260205f2001905f90565b903590601e19813603018212156100d757018035906001600160401b0382116100d7576020019181360383136100d757565b90600182811c92168015612392575b602083101461237e57565b634e487b7160e01b5f52602260045260245ffd5b91607f1691612373565b8181106123a7575050565b5f815560010161239c565b9190601f81116123c157505050565b6123eb925f5260205f20906020601f840160051c830193106123ed575b601f0160051c019061239c565b565b90915081906123de565b91908110156122f25760051b0190565b1561240e57565b60405162461bcd60e51b8152602060048201526015602482015274125b9d985b1a590818dc9959195b9d1a585b081251605a1b6044820152606490fd5b6002548110156122f25760025f52600660205f20910201905f90565b91909182811461253b5761247b8354612364565b6001600160401b0381116104b057612497816103af8454612364565b5f93601f82116001146124d5576124c692939482915f926124ca5750508160011b915f199060031b1c19161790565b9055565b015490505f806102c9565b601f198216905f5260205f2094835f5260205f20915f5b8181106125235750958360019596971061250b575b505050811b019055565b01545f1960f88460031b161c191690555f8080612501565b9192600180602092868b0154815501940192016124ec565b509050565b61254a8154612364565b9081612554575050565b81601f5f9311600114612565575055565b8183526020832061258191601f0160051c81019060010161239c565b8082528160208120915555565b1561259557565b60405162461bcd60e51b815260206004820152600f60248201526e125b9d985b1a59081b9bdd19481251608a1b6044820152606490fd5b6005548110156122f25760055f5260205f209060021b01905f90565b6001600160401b0381116104b05760051b60200190565b9060405191825f82549261261284612364565b808452936001811690811561267b5750600114612637575b506123eb92500383612221565b90505f9291925260205f20905f915b81831061265f5750509060206123eb928201015f61262a565b6020919350806001915483858901015201910190918492612646565b9050602092506123eb94915060ff191682840152151560051b8201015f61262a565b91908110156122f25760051b81013590605e19813603018212156100d7570190565b9291926126cb82612242565b916126d96040519384612221565b8294818452818301116100d7578281602093845f960137010152565b5f1981146104295760010190565b80518210156122f25760209160051b010190565b6001600160a01b0381161561272f576123eb90612775565b631e4fbdf760e01b5f525f60045260245ffd5b5f5160206127f55f395f51905f52546001600160a01b0316330361276257565b63118cdaa760e01b5f523360045260245ffd5b5f5160206127f55f395f51905f5280546001600160a01b039283166001600160a01b0319821681179092559091167f8be0079c531659141344cd1fd0a4f28419497f9722a3daafe3b4186f6b6457e05f80a3565b60ff5f5160206128155f395f51905f525460401c16156127e557565b631afcd79f60e31b5f5260045ffdfe9016d09d72d40fdae2fd8ceac6b6234c7706214fd39c1cd1e609a0528c199300f0c57e16840df040f15088dc2f81fe391c3923bec73e23a9662efc9c229c6a00a2646970667358221220acb6a4066e5bd76cdfa6a5615bf88d605e665333c88b201884b01cc6657f4f9064736f6c634300081d0033",
    "sourcePath": "c:/Users/denni/OneDrive/Random Token/contracts/VaultContract.sol",
    "compiler": {
        "name": "solc",
        "version": "0.8.29+commit.ab55807c"
    },
    "functionHashes": {
        "costManager()": "cecd949a",
        "deleteCredentials(uint256[])": "413ba326",
        "deleteNotes(uint256[])": "52ab43e6",
        "deleteWalletAddresses(address[])": "7576e7f7",
        "initialize(address,address)": "485cc955",
        "owner()": "8da5cb5b",
        "readCredentials()": "cafdf8b5",
        "readNote()": "82e91caa",
        "readWalletAddress()": "ccd7dc5a",
        "renounceOwnership()": "715018a6",
        "transferOwnership(address)": "f2fde38b",
        "upsertCredentials((uint256,string,string,string,string)[])": "f117c6a8",
        "upsertNotes((uint256,string,string)[])": "a4595a20",
        "upsertWalletAddress((address,string,string,string,string)[])": "23dc59c3"
    },
    "gasEstimates": {
        "creation": {
            "codeDepositCost": "2069200",
            "executionCost": "46423",
            "totalCost": "2115623"
        },
        "external": {
            "": "360",
            "costManager()": "2516",
            "deleteCredentials(uint256[])": "infinite",
            "deleteNotes(uint256[])": "infinite",
            "deleteWalletAddresses(address[])": "infinite",
            "initialize(address,address)": "infinite",
            "owner()": "infinite",
            "readCredentials()": "infinite",
            "readNote()": "infinite",
            "readWalletAddress()": "infinite",
            "renounceOwnership()": "28198",
            "transferOwnership(address)": "28569",
            "upsertCredentials((uint256,string,string,string,string)[])": "infinite",
            "upsertNotes((uint256,string,string)[])": "infinite",
            "upsertWalletAddress((address,string,string,string,string)[])": "infinite"
        }
    }
}