{
    "contractName": "VaultFactory",
    "abi": [
        {
            "inputs": [
                {
                    "internalType": "address",
                    "name": "_vaultImplementation",
                    "type": "address"
                },
                {
                    "internalType": "address",
                    "name": "_costManager",
                    "type": "address"
                }
            ],
            "stateMutability": "nonpayable",
            "type": "constructor"
        },
        {
            "inputs": [],
            "name": "FailedDeployment",
            "type": "error"
        },
        {
            "inputs": [
                {
                    "internalType": "uint256",
                    "name": "balance",
                    "type": "uint256"
                },
                {
                    "internalType": "uint256",
                    "name": "needed",
                    "type": "uint256"
                }
            ],
            "name": "InsufficientBalance",
            "type": "error"
        },
        {
            "inputs": [
                {
                    "internalType": "address",
                    "name": "owner",
                    "type": "address"
                }
            ],
            "name": "OwnableInvalidOwner",
            "type": "error"
        },
        {
            "inputs": [
                {
                    "internalType": "address",
                    "name": "account",
                    "type": "address"
                }
            ],
            "name": "OwnableUnauthorizedAccount",
            "type": "error"
        },
        {
            "anonymous": false,
            "inputs": [
                {
                    "indexed": true,
                    "internalType": "address",
                    "name": "previousOwner",
                    "type": "address"
                },
                {
                    "indexed": true,
                    "internalType": "address",
                    "name": "newOwner",
                    "type": "address"
                }
            ],
            "name": "OwnershipTransferred",
            "type": "event"
        },
        {
            "anonymous": false,
            "inputs": [
                {
                    "indexed": true,
                    "internalType": "address",
                    "name": "vaultOwner",
                    "type": "address"
                },
                {
                    "indexed": true,
                    "internalType": "address",
                    "name": "vault",
                    "type": "address"
                }
            ],
            "name": "VaultCreated",
            "type": "event"
        },
        {
            "anonymous": false,
            "inputs": [
                {
                    "indexed": true,
                    "internalType": "address",
                    "name": "owner",
                    "type": "address"
                },
                {
                    "indexed": true,
                    "internalType": "address",
                    "name": "vault",
                    "type": "address"
                },
                {
                    "indexed": false,
                    "internalType": "string",
                    "name": "reason",
                    "type": "string"
                }
            ],
            "name": "VaultInitFailed",
            "type": "event"
        },
        {
            "inputs": [],
            "name": "costManager",
            "outputs": [
                {
                    "internalType": "contract CostManager",
                    "name": "",
                    "type": "address"
                }
            ],
            "stateMutability": "view",
            "type": "function"
        },
        {
            "inputs": [],
            "name": "createVault",
            "outputs": [],
            "stateMutability": "payable",
            "type": "function"
        },
        {
            "inputs": [],
            "name": "owner",
            "outputs": [
                {
                    "internalType": "address",
                    "name": "",
                    "type": "address"
                }
            ],
            "stateMutability": "view",
            "type": "function"
        },
        {
            "inputs": [
                {
                    "internalType": "address",
                    "name": "owner",
                    "type": "address"
                }
            ],
            "name": "ownerToVault",
            "outputs": [
                {
                    "internalType": "address",
                    "name": "",
                    "type": "address"
                }
            ],
            "stateMutability": "view",
            "type": "function"
        },
        {
            "inputs": [],
            "name": "renounceOwnership",
            "outputs": [],
            "stateMutability": "nonpayable",
            "type": "function"
        },
        {
            "inputs": [
                {
                    "internalType": "address",
                    "name": "_costManager",
                    "type": "address"
                }
            ],
            "name": "setCostManager",
            "outputs": [],
            "stateMutability": "nonpayable",
            "type": "function"
        },
        {
            "inputs": [
                {
                    "internalType": "address",
                    "name": "newOwner",
                    "type": "address"
                }
            ],
            "name": "transferOwnership",
            "outputs": [],
            "stateMutability": "nonpayable",
            "type": "function"
        },
        {
            "inputs": [
                {
                    "internalType": "address",
                    "name": "newOwner",
                    "type": "address"
                }
            ],
            "name": "transferVaultFactoryOwnership",
            "outputs": [],
            "stateMutability": "nonpayable",
            "type": "function"
        },
        {
            "inputs": [],
            "name": "vaultImplementation",
            "outputs": [
                {
                    "internalType": "address",
                    "name": "",
                    "type": "address"
                }
            ],
            "stateMutability": "view",
            "type": "function"
        }
    ],
    "bytecode": "60a03461018f57601f610b2938819003918201601f19168301916001600160401b0383118484101761019357808492604094855283398101031261018f57610052602061004b836101a7565b92016101a7565b90331561017c575f8054336001600160a01b03198216811783556040519290916001600160a01b0316907f8be0079c531659141344cd1fd0a4f28419497f9722a3daafe3b4186f6b6457e09080a36001600160a01b0382161561013a57506080526001600160a01b031680156100f557600180546001600160a01b03191691909117905560405161096d90816101bc8239608051818181610117015261023e0152f35b60405162461bcd60e51b815260206004820152601b60248201527f496e76616c696420436f73744d616e61676572206164647265737300000000006044820152606490fd5b62461bcd60e51b815260206004820152601660248201527f496e76616c696420696d706c656d656e746174696f6e000000000000000000006044820152606490fd5b631e4fbdf760e01b5f525f60045260245ffd5b5f80fd5b634e487b7160e01b5f52604160045260245ffd5b51906001600160a01b038216820361018f5756fe6080806040526004361015610012575f80fd5b5f905f3560e01c9081633eecb3ca146106df5750806346eff2b11461056c5780635cf25981146105285780635d12928b146101c7578063715018a61461016d5780638da5cb5b14610146578063bba48a9014610101578063cecd949a146100d85763f2fde38b14610081575f80fd5b346100d55760203660031901126100d5576004356001600160a01b0381168082036100d3576100ae6108cb565b156100bf576100bc906108f1565b80f35b631e4fbdf760e01b82526004829052602482fd5b825b80fd5b50346100d557806003193601126100d5576001546040516001600160a01b039091168152602090f35b50346100d557806003193601126100d5576040517f00000000000000000000000000000000000000000000000000000000000000006001600160a01b03168152602090f35b50346100d557806003193601126100d557546040516001600160a01b039091168152602090f35b50346100d557806003193601126100d5576101866108cb565b80546001600160a01b03198116825581906001600160a01b03167f8be0079c531659141344cd1fd0a4f28419497f9722a3daafe3b4186f6b6457e08280a380f35b505f36600319011261041c57335f908152600260205260409020546001600160a01b03166104ec576001546001600160a01b031680156104b157604051633b7583d760e21b8152602081600481855afa9081156104a6575f91610474575b50340361042f576e5af43d82803e903d91602b57fd5bf37f0000000000000000000000000000000000000000000000000000000000000000763d602d80600a3d3981f3363d3d373d3d3d363d7300000062ffffff8260881c16175f5260781b1760205260018060a01b03603760095ff01690811561042057813b1561041c576040519063485cc95560e01b825233600483015260248201525f8160448134865af19081610407575b506103c15760018260033d116103b1575b6308c379a01461033e575b6102f1575080f35b60405160208152600d60208201526c2ab735b737bbb71032b93937b960991b60408201527fb0b1777a54597bcdf7f74569380637165b2326a491fd5582f62933b6a679c5d460603392a380f35b610346610854565b80610352575b506102e9565b90508160207fb0b1777a54597bcdf7f74569380637165b2326a491fd5582f62933b6a679c5d48593604051908382528051938491828285015201604083015e86604084830101526040813394601f80199101168101030190a35f61034c565b50600483803e825160e01c6102de565b80337f5d9c31ffa0fecffd7cf379989a3c7af252f0335e0d2a1320b55245912c781f538480a333825260026020526040822080546001600160a01b031916909117905580f35b6104149193505f9061081e565b5f915f6102cd565b5f80fd5b63b06ebf3d60e01b5f5260045ffd5b60405162461bcd60e51b815260206004820152601d60248201527f496e636f7272656374207661756c74206372656174696f6e20636f73740000006044820152606490fd5b90506020813d60201161049e575b8161048f6020938361081e565b8101031261041c57515f610225565b3d9150610482565b6040513d5f823e3d90fd5b60405162461bcd60e51b815260206004820152601360248201527210dbdcdd13585b9859d95c881b9bdd081cd95d606a1b6044820152606490fd5b60405162461bcd60e51b81526020600482015260146024820152735661756c7420616c72656164792065786973747360601b6044820152606490fd5b3461041c57602036600319011261041c576004356001600160a01b0381169081900361041c575f526002602052602060018060a01b0360405f205416604051908152f35b3461041c57602036600319011261041c576004356001600160a01b0381169081900361041c575f546001600160a01b031633148015610663575b156106125780156105cd576bffffffffffffffffffffffff60a01b60015416176001555f80f35b60405162461bcd60e51b815260206004820152601b60248201527f496e76616c696420436f73744d616e61676572206164647265737300000000006044820152606490fd5b60405162461bcd60e51b815260206004820152602360248201527f4e6f74206f776e6572206f7220636f73744d616e6167657220617574686f72696044820152621e995960ea1b6064820152608490fd5b5060015460405163b918161160e01b815233600482015290602090829060249082906001600160a01b03165afa9081156104a6575f916106a4575b506105a6565b90506020813d6020116106d7575b816106bf6020938361081e565b8101031261041c5751801515810361041c578261069e565b3d91506106b2565b3461041c57602036600319011261041c57600435906001600160a01b0382169081830361041c57600154638da5cb5b60e01b8252602090829060049082906001600160a01b03165afa9081156104a6575f916107dc575b506001600160a01b03163303610797571561075e5761075c906107576108cb565b6108f1565b005b60405162461bcd60e51b815260206004820152601160248201527024b73b30b634b2103732bb9037bbb732b960791b6044820152606490fd5b60405162461bcd60e51b815260206004820152601760248201527f4e6f7420436f73744d616e616765722773206f776e65720000000000000000006044820152606490fd5b90506020813d602011610816575b816107f76020938361081e565b8101031261041c57516001600160a01b038116810361041c5783610736565b3d91506107ea565b90601f8019910116810190811067ffffffffffffffff82111761084057604052565b634e487b7160e01b5f52604160045260245ffd5b5f60443d106108ba576040513d600319016004823e8051913d602484011167ffffffffffffffff8411176108c5578282019283519167ffffffffffffffff83116108bd573d840160031901858401602001116108bd57506108ba9291016020019061081e565b90565b949350505050565b92915050565b5f546001600160a01b031633036108de57565b63118cdaa760e01b5f523360045260245ffd5b5f80546001600160a01b039283166001600160a01b03198216811783559216907f8be0079c531659141344cd1fd0a4f28419497f9722a3daafe3b4186f6b6457e09080a356fea2646970667358221220bea209a12d4fc6b1ab44b2bc2c2499094afb6d88ba70fc0c53811277ccd9261b64736f6c634300081d0033",
    "sourcePath": "c:/Users/denni/OneDrive/Random Token/contracts/VaultFactory.sol",
    "compiler": {
        "name": "solc",
        "version": "0.8.29+commit.ab55807c"
    },
    "functionHashes": {
        "costManager()": "cecd949a",
        "createVault()": "5d12928b",
        "owner()": "8da5cb5b",
        "ownerToVault(address)": "5cf25981",
        "renounceOwnership()": "715018a6",
        "setCostManager(address)": "46eff2b1",
        "transferOwnership(address)": "f2fde38b",
        "transferVaultFactoryOwnership(address)": "3eecb3ca",
        "vaultImplementation()": "bba48a90"
    },
    "gasEstimates": {
        "creation": {
            "codeDepositCost": "482600",
            "executionCost": "infinite",
            "totalCost": "infinite"
        },
        "external": {
            "costManager()": "2442",
            "createVault()": "infinite",
            "owner()": "2395",
            "ownerToVault(address)": "2434",
            "renounceOwnership()": "28153",
            "setCostManager(address)": "infinite",
            "transferOwnership(address)": "28345",
            "transferVaultFactoryOwnership(address)": "infinite",
            "vaultImplementation()": "infinite"
        }
    }
}