{
  "_format": "hh-sol-artifact-1",
  "contractName": "VaultContract2",
  "sourceName": "contracts/VaultContract2.sol",
  "abi": [
    {
      "inputs": [],
      "name": "InvalidInitialization",
      "type": "error"
    },
    {
      "inputs": [],
      "name": "NotInitializing",
      "type": "error"
    },
    {
      "inputs": [
        {
          "internalType": "address",
          "name": "owner",
          "type": "address"
        }
      ],
      "name": "OwnableInvalidOwner",
      "type": "error"
    },
    {
      "inputs": [
        {
          "internalType": "address",
          "name": "account",
          "type": "address"
        }
      ],
      "name": "OwnableUnauthorizedAccount",
      "type": "error"
    },
    {
      "anonymous": false,
      "inputs": [
        {
          "indexed": false,
          "internalType": "uint64",
          "name": "version",
          "type": "uint64"
        }
      ],
      "name": "Initialized",
      "type": "event"
    },
    {
      "anonymous": false,
      "inputs": [
        {
          "indexed": true,
          "internalType": "address",
          "name": "previousOwner",
          "type": "address"
        },
        {
          "indexed": true,
          "internalType": "address",
          "name": "newOwner",
          "type": "address"
        }
      ],
      "name": "OwnershipTransferred",
      "type": "event"
    },
    {
      "stateMutability": "payable",
      "type": "fallback"
    },
    {
      "inputs": [],
      "name": "costManager",
      "outputs": [
        {
          "internalType": "contract CostManager",
          "name": "",
          "type": "address"
        }
      ],
      "stateMutability": "view",
      "type": "function"
    },
    {
      "inputs": [
        {
          "internalType": "uint256[]",
          "name": "ids",
          "type": "uint256[]"
        }
      ],
      "name": "deleteBankAccounts",
      "outputs": [],
      "stateMutability": "nonpayable",
      "type": "function"
    },
    {
      "inputs": [
        {
          "internalType": "uint256[]",
          "name": "ids",
          "type": "uint256[]"
        }
      ],
      "name": "deleteCreditCards",
      "outputs": [],
      "stateMutability": "nonpayable",
      "type": "function"
    },
    {
      "inputs": [
        {
          "internalType": "uint256[]",
          "name": "ids",
          "type": "uint256[]"
        }
      ],
      "name": "deletePins",
      "outputs": [],
      "stateMutability": "nonpayable",
      "type": "function"
    },
    {
      "inputs": [
        {
          "internalType": "address",
          "name": "_owner",
          "type": "address"
        },
        {
          "internalType": "address",
          "name": "_costManager",
          "type": "address"
        }
      ],
      "name": "initialize",
      "outputs": [],
      "stateMutability": "payable",
      "type": "function"
    },
    {
      "inputs": [],
      "name": "owner",
      "outputs": [
        {
          "internalType": "address",
          "name": "",
          "type": "address"
        }
      ],
      "stateMutability": "view",
      "type": "function"
    },
    {
      "inputs": [],
      "name": "readBankAccounts",
      "outputs": [
        {
          "components": [
            {
              "internalType": "uint256",
              "name": "id",
              "type": "uint256"
            },
            {
              "internalType": "string",
              "name": "name",
              "type": "string"
            },
            {
              "internalType": "string",
              "name": "accountNumber",
              "type": "string"
            },
            {
              "internalType": "string",
              "name": "iban",
              "type": "string"
            },
            {
              "internalType": "string",
              "name": "swift",
              "type": "string"
            },
            {
              "internalType": "string",
              "name": "bankName",
              "type": "string"
            },
            {
              "internalType": "string",
              "name": "country",
              "type": "string"
            },
            {
              "internalType": "string",
              "name": "remarks",
              "type": "string"
            },
            {
              "internalType": "uint256",
              "name": "timestamp",
              "type": "uint256"
            }
          ],
          "internalType": "struct VaultContract2.BankAccount[]",
          "name": "",
          "type": "tuple[]"
        }
      ],
      "stateMutability": "view",
      "type": "function"
    },
    {
      "inputs": [],
      "name": "readCreditCards",
      "outputs": [
        {
          "components": [
            {
              "internalType": "uint256",
              "name": "id",
              "type": "uint256"
            },
            {
              "internalType": "string",
              "name": "name",
              "type": "string"
            },
            {
              "internalType": "string",
              "name": "cardNumber",
              "type": "string"
            },
            {
              "internalType": "string",
              "name": "cardHolder",
              "type": "string"
            },
            {
              "internalType": "string",
              "name": "expiryDate",
              "type": "string"
            },
            {
              "internalType": "string",
              "name": "cvv",
              "type": "string"
            },
            {
              "internalType": "string",
              "name": "linkedTo",
              "type": "string"
            },
            {
              "internalType": "string",
              "name": "remarks",
              "type": "string"
            },
            {
              "internalType": "uint256",
              "name": "timestamp",
              "type": "uint256"
            }
          ],
          "internalType": "struct VaultContract2.CreditCard[]",
          "name": "",
          "type": "tuple[]"
        }
      ],
      "stateMutability": "view",
      "type": "function"
    },
    {
      "inputs": [],
      "name": "readPins",
      "outputs": [
        {
          "components": [
            {
              "internalType": "uint256",
              "name": "id",
              "type": "uint256"
            },
            {
              "internalType": "string",
              "name": "name",
              "type": "string"
            },
            {
              "internalType": "string",
              "name": "linkedTo",
              "type": "string"
            },
            {
              "internalType": "string",
              "name": "pin",
              "type": "string"
            },
            {
              "internalType": "string",
              "name": "remarks",
              "type": "string"
            },
            {
              "internalType": "uint256",
              "name": "timestamp",
              "type": "uint256"
            }
          ],
          "internalType": "struct VaultContract2.Pin[]",
          "name": "",
          "type": "tuple[]"
        }
      ],
      "stateMutability": "view",
      "type": "function"
    },
    {
      "inputs": [],
      "name": "renounceOwnership",
      "outputs": [],
      "stateMutability": "nonpayable",
      "type": "function"
    },
    {
      "inputs": [
        {
          "internalType": "address",
          "name": "newOwner",
          "type": "address"
        }
      ],
      "name": "transferOwnership",
      "outputs": [],
      "stateMutability": "nonpayable",
      "type": "function"
    },
    {
      "inputs": [
        {
          "components": [
            {
              "internalType": "uint256",
              "name": "id",
              "type": "uint256"
            },
            {
              "internalType": "string",
              "name": "name",
              "type": "string"
            },
            {
              "internalType": "string",
              "name": "accountNumber",
              "type": "string"
            },
            {
              "internalType": "string",
              "name": "iban",
              "type": "string"
            },
            {
              "internalType": "string",
              "name": "swift",
              "type": "string"
            },
            {
              "internalType": "string",
              "name": "bankName",
              "type": "string"
            },
            {
              "internalType": "string",
              "name": "country",
              "type": "string"
            },
            {
              "internalType": "string",
              "name": "remarks",
              "type": "string"
            }
          ],
          "internalType": "struct VaultContract2.BankAccountUpsert[]",
          "name": "data",
          "type": "tuple[]"
        }
      ],
      "name": "upsertBankAccounts",
      "outputs": [],
      "stateMutability": "payable",
      "type": "function"
    },
    {
      "inputs": [
        {
          "components": [
            {
              "internalType": "uint256",
              "name": "id",
              "type": "uint256"
            },
            {
              "internalType": "string",
              "name": "name",
              "type": "string"
            },
            {
              "internalType": "string",
              "name": "cardNumber",
              "type": "string"
            },
            {
              "internalType": "string",
              "name": "cardHolder",
              "type": "string"
            },
            {
              "internalType": "string",
              "name": "expiryDate",
              "type": "string"
            },
            {
              "internalType": "string",
              "name": "cvv",
              "type": "string"
            },
            {
              "internalType": "string",
              "name": "linkedTo",
              "type": "string"
            },
            {
              "internalType": "string",
              "name": "remarks",
              "type": "string"
            }
          ],
          "internalType": "struct VaultContract2.CreditCardUpsert[]",
          "name": "data",
          "type": "tuple[]"
        }
      ],
      "name": "upsertCreditCards",
      "outputs": [],
      "stateMutability": "payable",
      "type": "function"
    },
    {
      "inputs": [
        {
          "components": [
            {
              "internalType": "uint256",
              "name": "id",
              "type": "uint256"
            },
            {
              "internalType": "string",
              "name": "name",
              "type": "string"
            },
            {
              "internalType": "string",
              "name": "linkedTo",
              "type": "string"
            },
            {
              "internalType": "string",
              "name": "pin",
              "type": "string"
            },
            {
              "internalType": "string",
              "name": "remarks",
              "type": "string"
            }
          ],
          "internalType": "struct VaultContract2.PinUpsert[]",
          "name": "data",
          "type": "tuple[]"
        }
      ],
      "name": "upsertPins",
      "outputs": [],
      "stateMutability": "payable",
      "type": "function"
    },
    {
      "stateMutability": "payable",
      "type": "receive"
    }
  ],
  "bytecode": "0x60806040526001805560016004556001600755348015601d57600080fd5b50614f888061002d6000396000f3fe6080604052600436106100e15760003560e01c80638805bfba1161007f578063b072daf011610059578063b072daf01461025a578063b3de9d9d14610276578063cecd949a14610292578063f2fde38b146102bd576100e2565b80638805bfba146101dd5780638da5cb5b14610206578063ac7b402a14610231576100e2565b8063485cc955116100bb578063485cc95514610163578063715018a61461017f578063792dd98d146101965780637ccd27d3146101b2576100e2565b806315dc1b5a146100e457806327b6abcb1461010f57806335d78f9d14610138576100e2565b5b005b3480156100f057600080fd5b506100f96102e6565b6040516101069190613c56565b60405180910390f35b34801561011b57600080fd5b5061013660048036038101906101319190613ce7565b610760565b005b34801561014457600080fd5b5061014d610989565b60405161015a9190613ee5565b60405180910390f35b61017d60048036038101906101789190613f65565b610e03565b005b34801561018b57600080fd5b5061019461104b565b005b6101b060048036038101906101ab9190613ffb565b61105f565b005b3480156101be57600080fd5b506101c7611b58565b6040516101d491906141a8565b60405180910390f35b3480156101e957600080fd5b5061020460048036038101906101ff9190613ce7565b611e1b565b005b34801561021257600080fd5b5061021b6120b3565b60405161022891906141d9565b60405180910390f35b34801561023d57600080fd5b5061025860048036038101906102539190613ce7565b6120eb565b005b610274600480360381019061026f919061424a565b612383565b005b610290600480360381019061028b91906142ed565b612b35565b005b34801561029e57600080fd5b506102a761362e565b6040516102b49190614399565b60405180910390f35b3480156102c957600080fd5b506102e460048036038101906102df91906143b4565b613652565b005b60606102f06136d8565b6008805480602002602001604051908101604052809291908181526020016000905b828210156107575783829060005260206000209060090201604051806101200160405290816000820154815260200160018201805461035090614410565b80601f016020809104026020016040519081016040528092919081815260200182805461037c90614410565b80156103c95780601f1061039e576101008083540402835291602001916103c9565b820191906000526020600020905b8154815290600101906020018083116103ac57829003601f168201915b505050505081526020016002820180546103e290614410565b80601f016020809104026020016040519081016040528092919081815260200182805461040e90614410565b801561045b5780601f106104305761010080835404028352916020019161045b565b820191906000526020600020905b81548152906001019060200180831161043e57829003601f168201915b5050505050815260200160038201805461047490614410565b80601f01602080910402602001604051908101604052809291908181526020018280546104a090614410565b80156104ed5780601f106104c2576101008083540402835291602001916104ed565b820191906000526020600020905b8154815290600101906020018083116104d057829003601f168201915b5050505050815260200160048201805461050690614410565b80601f016020809104026020016040519081016040528092919081815260200182805461053290614410565b801561057f5780601f106105545761010080835404028352916020019161057f565b820191906000526020600020905b81548152906001019060200180831161056257829003601f168201915b5050505050815260200160058201805461059890614410565b80601f01602080910402602001604051908101604052809291908181526020018280546105c490614410565b80156106115780601f106105e657610100808354040283529160200191610611565b820191906000526020600020905b8154815290600101906020018083116105f457829003601f168201915b5050505050815260200160068201805461062a90614410565b80601f016020809104026020016040519081016040528092919081815260200182805461065690614410565b80156106a35780601f10610678576101008083540402835291602001916106a3565b820191906000526020600020905b81548152906001019060200180831161068657829003601f168201915b505050505081526020016007820180546106bc90614410565b80601f01602080910402602001604051908101604052809291908181526020018280546106e890614410565b80156107355780601f1061070a57610100808354040283529160200191610735565b820191906000526020600020905b81548152906001019060200180831161071857829003601f168201915b5050505050815260200160088201548152505081526020019060010190610312565b50505050905090565b6107686136d8565b60005b8282905081101561098457600083838381811061078b5761078a614441565b5b90506020020135905060006003600083815260200190815260200160002054905060028054905081106107f3576040517f08c379a00000000000000000000000000000000000000000000000000000000081526004016107ea906144cd565b60405180910390fd5b60006001600280549050610807919061451c565b90508082146108e25760006002828154811061082657610825614441565b5b90600052602060002090600602019050806002848154811061084b5761084a614441565b5b906000526020600020906006020160008201548160000155600182018160010190816108779190614737565b506002820181600201908161088c9190614737565b50600382018160030190816108a19190614737565b50600482018160040190816108b69190614737565b506005820154816005015590505082600360008360000154815260200190815260200160002081905550505b60028054806108f4576108f361481f565b5b6001900381819060005260206000209060060201600080820160009055600182016000610921919061399f565b600282016000610931919061399f565b600382016000610941919061399f565b600482016000610951919061399f565b6005820160009055505090556003600084815260200190815260200160002060009055505050808060010191505061076b565b505050565b60606109936136d8565b6005805480602002602001604051908101604052809291908181526020016000905b82821015610dfa578382906000526020600020906009020160405180610120016040529081600082015481526020016001820180546109f390614410565b80601f0160208091040260200160405190810160405280929190818152602001828054610a1f90614410565b8015610a6c5780601f10610a4157610100808354040283529160200191610a6c565b820191906000526020600020905b815481529060010190602001808311610a4f57829003601f168201915b50505050508152602001600282018054610a8590614410565b80601f0160208091040260200160405190810160405280929190818152602001828054610ab190614410565b8015610afe5780601f10610ad357610100808354040283529160200191610afe565b820191906000526020600020905b815481529060010190602001808311610ae157829003601f168201915b50505050508152602001600382018054610b1790614410565b80601f0160208091040260200160405190810160405280929190818152602001828054610b4390614410565b8015610b905780601f10610b6557610100808354040283529160200191610b90565b820191906000526020600020905b815481529060010190602001808311610b7357829003601f168201915b50505050508152602001600482018054610ba990614410565b80601f0160208091040260200160405190810160405280929190818152602001828054610bd590614410565b8015610c225780601f10610bf757610100808354040283529160200191610c22565b820191906000526020600020905b815481529060010190602001808311610c0557829003601f168201915b50505050508152602001600582018054610c3b90614410565b80601f0160208091040260200160405190810160405280929190818152602001828054610c6790614410565b8015610cb45780601f10610c8957610100808354040283529160200191610cb4565b820191906000526020600020905b815481529060010190602001808311610c9757829003601f168201915b50505050508152602001600682018054610ccd90614410565b80601f0160208091040260200160405190810160405280929190818152602001828054610cf990614410565b8015610d465780601f10610d1b57610100808354040283529160200191610d46565b820191906000526020600020905b815481529060010190602001808311610d2957829003601f168201915b50505050508152602001600782018054610d5f90614410565b80601f0160208091040260200160405190810160405280929190818152602001828054610d8b90614410565b8015610dd85780601f10610dad57610100808354040283529160200191610dd8565b820191906000526020600020905b815481529060010190602001808311610dbb57829003601f168201915b50505050508152602001600882015481525050815260200190600101906109b5565b50505050905090565b6000610e0d61375f565b905060008160000160089054906101000a900460ff1615905060008260000160009054906101000a900467ffffffffffffffff1690506000808267ffffffffffffffff16148015610e5b5750825b9050600060018367ffffffffffffffff16148015610e90575060003073ffffffffffffffffffffffffffffffffffffffff163b145b905081158015610e9e575080155b15610ed5576040517ff92ee8a900000000000000000000000000000000000000000000000000000000815260040160405180910390fd5b60018560000160006101000a81548167ffffffffffffffff021916908367ffffffffffffffff1602179055508315610f255760018560000160086101000a81548160ff0219169083151502179055505b610f2e87613773565b610f3787613787565b600073ffffffffffffffffffffffffffffffffffffffff168673ffffffffffffffffffffffffffffffffffffffff1603610fa6576040517f08c379a0000000000000000000000000000000000000000000000000000000008152600401610f9d9061489a565b60405180910390fd5b856000806101000a81548173ffffffffffffffffffffffffffffffffffffffff021916908373ffffffffffffffffffffffffffffffffffffffff16021790555083156110425760008560000160086101000a81548160ff0219169083151502179055507fc7f505b2f371ae2175ee4913f4499e1f2633a7b5936321eed1cdaeb6115181d260016040516110399190614909565b60405180910390a15b50505050505050565b6110536136d8565b61105d6000613787565b565b6110676136d8565b60008060009054906101000a900473ffffffffffffffffffffffffffffffffffffffff1673ffffffffffffffffffffffffffffffffffffffff1663f9c59d076040518163ffffffff1660e01b8152600401602060405180830381865afa1580156110d5573d6000803e3d6000fd5b505050506040513d601f19601f820116820180604052508101906110f99190614950565b905080341461113d576040517f08c379a0000000000000000000000000000000000000000000000000000000008152600401611134906149ef565b60405180910390fd5b60008060009054906101000a900473ffffffffffffffffffffffffffffffffffffffff1673ffffffffffffffffffffffffffffffffffffffff163460405161118490614a40565b60006040518083038185875af1925050503d80600081146111c1576040519150601f19603f3d011682016040523d82523d6000602084013e6111c6565b606091505b505090508061120a576040517f08c379a000000000000000000000000000000000000000000000000000000000815260040161120190614aa1565b60405180910390fd5b60005b84849050811015611b5157600085858381811061122d5761122c614441565b5b905060200281019061123f9190614ad0565b60000135036116e8576005604051806101200160405280600454815260200187878581811061127157611270614441565b5b90506020028101906112839190614ad0565b80602001906112929190614af9565b8080601f016020809104026020016040519081016040528093929190818152602001838380828437600081840152601f19601f8201169050808301925050505050505081526020018787858181106112ed576112ec614441565b5b90506020028101906112ff9190614ad0565b806040019061130e9190614af9565b8080601f016020809104026020016040519081016040528093929190818152602001838380828437600081840152601f19601f82011690508083019250505050505050815260200187878581811061136957611368614441565b5b905060200281019061137b9190614ad0565b806060019061138a9190614af9565b8080601f016020809104026020016040519081016040528093929190818152602001838380828437600081840152601f19601f8201169050808301925050505050505081526020018787858181106113e5576113e4614441565b5b90506020028101906113f79190614ad0565b80608001906114069190614af9565b8080601f016020809104026020016040519081016040528093929190818152602001838380828437600081840152601f19601f82011690508083019250505050505050815260200187878581811061146157611460614441565b5b90506020028101906114739190614ad0565b8060a001906114829190614af9565b8080601f016020809104026020016040519081016040528093929190818152602001838380828437600081840152601f19601f8201169050808301925050505050505081526020018787858181106114dd576114dc614441565b5b90506020028101906114ef9190614ad0565b8060c001906114fe9190614af9565b8080601f016020809104026020016040519081016040528093929190818152602001838380828437600081840152601f19601f82011690508083019250505050505050815260200187878581811061155957611558614441565b5b905060200281019061156b9190614ad0565b8060e0019061157a9190614af9565b8080601f016020809104026020016040519081016040528093929190818152602001838380828437600081840152601f19601f82011690508083019250505050505050815260200142815250908060018154018082558091505060019003906000526020600020906009020160009091909190915060008201518160000155602082015181600101908161160e9190614b5c565b5060408201518160020190816116249190614b5c565b50606082015181600301908161163a9190614b5c565b5060808201518160040190816116509190614b5c565b5060a08201518160050190816116669190614b5c565b5060c082015181600601908161167c9190614b5c565b5060e08201518160070190816116929190614b5c565b506101008201518160080155505060016005805490506116b2919061451c565b60066000600454815260200190815260200160002081905550600460008154809291906116de90614c2e565b9190505550611b44565b60006006600087878581811061170157611700614441565b5b90506020028101906117139190614ad0565b600001358152602001908152602001600020549050600580549050811061176f576040517f08c379a000000000000000000000000000000000000000000000000000000000815260040161176690614cc2565b60405180910390fd5b60006005828154811061178557611784614441565b5b9060005260206000209060090201905060008787858181106117aa576117a9614441565b5b90506020028101906117bc9190614ad0565b80602001906117cb9190614af9565b9050111561181a578686848181106117e6576117e5614441565b5b90506020028101906117f89190614ad0565b80602001906118079190614af9565b826001019182611818929190614ced565b505b600087878581811061182f5761182e614441565b5b90506020028101906118419190614ad0565b80604001906118509190614af9565b9050111561189f5786868481811061186b5761186a614441565b5b905060200281019061187d9190614ad0565b806040019061188c9190614af9565b82600201918261189d929190614ced565b505b60008787858181106118b4576118b3614441565b5b90506020028101906118c69190614ad0565b80606001906118d59190614af9565b90501115611924578686848181106118f0576118ef614441565b5b90506020028101906119029190614ad0565b80606001906119119190614af9565b826003019182611922929190614ced565b505b600087878581811061193957611938614441565b5b905060200281019061194b9190614ad0565b806080019061195a9190614af9565b905011156119a95786868481811061197557611974614441565b5b90506020028101906119879190614ad0565b80608001906119969190614af9565b8260040191826119a7929190614ced565b505b60008787858181106119be576119bd614441565b5b90506020028101906119d09190614ad0565b8060a001906119df9190614af9565b90501115611a2e578686848181106119fa576119f9614441565b5b9050602002810190611a0c9190614ad0565b8060a00190611a1b9190614af9565b826005019182611a2c929190614ced565b505b6000878785818110611a4357611a42614441565b5b9050602002810190611a559190614ad0565b8060c00190611a649190614af9565b90501115611ab357868684818110611a7f57611a7e614441565b5b9050602002810190611a919190614ad0565b8060c00190611aa09190614af9565b826006019182611ab1929190614ced565b505b6000878785818110611ac857611ac7614441565b5b9050602002810190611ada9190614ad0565b8060e00190611ae99190614af9565b90501115611b3857868684818110611b0457611b03614441565b5b9050602002810190611b169190614ad0565b8060e00190611b259190614af9565b826007019182611b36929190614ced565b505b42816008018190555050505b808060010191505061120d565b5050505050565b6060611b626136d8565b6002805480602002602001604051908101604052809291908181526020016000905b82821015611e1257838290600052602060002090600602016040518060c001604052908160008201548152602001600182018054611bc190614410565b80601f0160208091040260200160405190810160405280929190818152602001828054611bed90614410565b8015611c3a5780601f10611c0f57610100808354040283529160200191611c3a565b820191906000526020600020905b815481529060010190602001808311611c1d57829003601f168201915b50505050508152602001600282018054611c5390614410565b80601f0160208091040260200160405190810160405280929190818152602001828054611c7f90614410565b8015611ccc5780601f10611ca157610100808354040283529160200191611ccc565b820191906000526020600020905b815481529060010190602001808311611caf57829003601f168201915b50505050508152602001600382018054611ce590614410565b80601f0160208091040260200160405190810160405280929190818152602001828054611d1190614410565b8015611d5e5780601f10611d3357610100808354040283529160200191611d5e565b820191906000526020600020905b815481529060010190602001808311611d4157829003601f168201915b50505050508152602001600482018054611d7790614410565b80601f0160208091040260200160405190810160405280929190818152602001828054611da390614410565b8015611df05780601f10611dc557610100808354040283529160200191611df0565b820191906000526020600020905b815481529060010190602001808311611dd357829003601f168201915b5050505050815260200160058201548152505081526020019060010190611b84565b50505050905090565b611e236136d8565b60005b828290508110156120ae576000838383818110611e4657611e45614441565b5b9050602002013590506000600660008381526020019081526020016000205490506005805490508110611eae576040517f08c379a0000000000000000000000000000000000000000000000000000000008152600401611ea590614cc2565b60405180910390fd5b60006001600580549050611ec2919061451c565b9050808214611fdc57600060058281548110611ee157611ee0614441565b5b906000526020600020906009020190508060058481548110611f0657611f05614441565b5b90600052602060002090600902016000820154816000015560018201816001019081611f329190614737565b5060028201816002019081611f479190614737565b5060038201816003019081611f5c9190614737565b5060048201816004019081611f719190614737565b5060058201816005019081611f869190614737565b5060068201816006019081611f9b9190614737565b5060078201816007019081611fb09190614737565b506008820154816008015590505082600660008360000154815260200190815260200160002081905550505b6005805480611fee57611fed61481f565b5b600190038181906000526020600020906009020160008082016000905560018201600061201b919061399f565b60028201600061202b919061399f565b60038201600061203b919061399f565b60048201600061204b919061399f565b60058201600061205b919061399f565b60068201600061206b919061399f565b60078201600061207b919061399f565b60088201600090555050905560066000848152602001908152602001600020600090555050508080600101915050611e26565b505050565b6000806120be61385e565b90508060000160009054906101000a900473ffffffffffffffffffffffffffffffffffffffff1691505090565b6120f36136d8565b60005b8282905081101561237e57600083838381811061211657612115614441565b5b905060200201359050600060096000838152602001908152602001600020549050600880549050811061217e576040517f08c379a000000000000000000000000000000000000000000000000000000000815260040161217590614e09565b60405180910390fd5b60006001600880549050612192919061451c565b90508082146122ac576000600882815481106121b1576121b0614441565b5b9060005260206000209060090201905080600884815481106121d6576121d5614441565b5b906000526020600020906009020160008201548160000155600182018160010190816122029190614737565b50600282018160020190816122179190614737565b506003820181600301908161222c9190614737565b50600482018160040190816122419190614737565b50600582018160050190816122569190614737565b506006820181600601908161226b9190614737565b50600782018160070190816122809190614737565b506008820154816008015590505082600960008360000154815260200190815260200160002081905550505b60088054806122be576122bd61481f565b5b60019003818190600052602060002090600902016000808201600090556001820160006122eb919061399f565b6002820160006122fb919061399f565b60038201600061230b919061399f565b60048201600061231b919061399f565b60058201600061232b919061399f565b60068201600061233b919061399f565b60078201600061234b919061399f565b600882016000905550509055600960008481526020019081526020016000206000905550505080806001019150506120f6565b505050565b61238b6136d8565b60008060009054906101000a900473ffffffffffffffffffffffffffffffffffffffff1673ffffffffffffffffffffffffffffffffffffffff1663f9c59d076040518163ffffffff1660e01b8152600401602060405180830381865afa1580156123f9573d6000803e3d6000fd5b505050506040513d601f19601f8201168201806040525081019061241d9190614950565b9050803414612461576040517f08c379a000000000000000000000000000000000000000000000000000000000815260040161245890614e75565b60405180910390fd5b60008060009054906101000a900473ffffffffffffffffffffffffffffffffffffffff1673ffffffffffffffffffffffffffffffffffffffff16346040516124a890614a40565b60006040518083038185875af1925050503d80600081146124e5576040519150601f19603f3d011682016040523d82523d6000602084013e6124ea565b606091505b505090508061252e576040517f08c379a000000000000000000000000000000000000000000000000000000000815260040161252590614aa1565b60405180910390fd5b60005b84849050811015612b2e57600085858381811061255157612550614441565b5b90506020028101906125639190614e95565b60000135036128545760026040518060c00160405280600154815260200187878581811061259457612593614441565b5b90506020028101906125a69190614e95565b80602001906125b59190614af9565b8080601f016020809104026020016040519081016040528093929190818152602001838380828437600081840152601f19601f8201169050808301925050505050505081526020018787858181106126105761260f614441565b5b90506020028101906126229190614e95565b80604001906126319190614af9565b8080601f016020809104026020016040519081016040528093929190818152602001838380828437600081840152601f19601f82011690508083019250505050505050815260200187878581811061268c5761268b614441565b5b905060200281019061269e9190614e95565b80606001906126ad9190614af9565b8080601f016020809104026020016040519081016040528093929190818152602001838380828437600081840152601f19601f82011690508083019250505050505050815260200187878581811061270857612707614441565b5b905060200281019061271a9190614e95565b80608001906127299190614af9565b8080601f016020809104026020016040519081016040528093929190818152602001838380828437600081840152601f19601f8201169050808301925050505050505081526020014281525090806001815401808255809150506001900390600052602060002090600602016000909190919091506000820151816000015560208201518160010190816127bd9190614b5c565b5060408201518160020190816127d39190614b5c565b5060608201518160030190816127e99190614b5c565b5060808201518160040190816127ff9190614b5c565b5060a082015181600501555050600160028054905061281e919061451c565b600360006001548152602001908152602001600020819055506001600081548092919061284a90614c2e565b9190505550612b21565b60006003600087878581811061286d5761286c614441565b5b905060200281019061287f9190614e95565b60000135815260200190815260200160002054905060028054905081106128db576040517f08c379a00000000000000000000000000000000000000000000000000000000081526004016128d2906144cd565b60405180910390fd5b6000600282815481106128f1576128f0614441565b5b90600052602060002090600602019050600087878581811061291657612915614441565b5b90506020028101906129289190614e95565b80602001906129379190614af9565b905011156129865786868481811061295257612951614441565b5b90506020028101906129649190614e95565b80602001906129739190614af9565b826001019182612984929190614ced565b505b600087878581811061299b5761299a614441565b5b90506020028101906129ad9190614e95565b80604001906129bc9190614af9565b90501115612a0b578686848181106129d7576129d6614441565b5b90506020028101906129e99190614e95565b80604001906129f89190614af9565b826002019182612a09929190614ced565b505b6000878785818110612a2057612a1f614441565b5b9050602002810190612a329190614e95565b8060600190612a419190614af9565b90501115612a9057868684818110612a5c57612a5b614441565b5b9050602002810190612a6e9190614e95565b8060600190612a7d9190614af9565b826003019182612a8e929190614ced565b505b6000878785818110612aa557612aa4614441565b5b9050602002810190612ab79190614e95565b8060800190612ac69190614af9565b90501115612b1557868684818110612ae157612ae0614441565b5b9050602002810190612af39190614e95565b8060800190612b029190614af9565b826004019182612b13929190614ced565b505b42816005018190555050505b8080600101915050612531565b5050505050565b612b3d6136d8565b60008060009054906101000a900473ffffffffffffffffffffffffffffffffffffffff1673ffffffffffffffffffffffffffffffffffffffff1663f9c59d076040518163ffffffff1660e01b8152600401602060405180830381865afa158015612bab573d6000803e3d6000fd5b505050506040513d601f19601f82011682018060405250810190612bcf9190614950565b9050803414612c13576040517f08c379a0000000000000000000000000000000000000000000000000000000008152600401612c0a90614f09565b60405180910390fd5b60008060009054906101000a900473ffffffffffffffffffffffffffffffffffffffff1673ffffffffffffffffffffffffffffffffffffffff1634604051612c5a90614a40565b60006040518083038185875af1925050503d8060008114612c97576040519150601f19603f3d011682016040523d82523d6000602084013e612c9c565b606091505b5050905080612ce0576040517f08c379a0000000000000000000000000000000000000000000000000000000008152600401612cd790614aa1565b60405180910390fd5b60005b84849050811015613627576000858583818110612d0357612d02614441565b5b9050602002810190612d159190614f29565b60000135036131be5760086040518061012001604052806007548152602001878785818110612d4757612d46614441565b5b9050602002810190612d599190614f29565b8060200190612d689190614af9565b8080601f016020809104026020016040519081016040528093929190818152602001838380828437600081840152601f19601f820116905080830192505050505050508152602001878785818110612dc357612dc2614441565b5b9050602002810190612dd59190614f29565b8060400190612de49190614af9565b8080601f016020809104026020016040519081016040528093929190818152602001838380828437600081840152601f19601f820116905080830192505050505050508152602001878785818110612e3f57612e3e614441565b5b9050602002810190612e519190614f29565b8060600190612e609190614af9565b8080601f016020809104026020016040519081016040528093929190818152602001838380828437600081840152601f19601f820116905080830192505050505050508152602001878785818110612ebb57612eba614441565b5b9050602002810190612ecd9190614f29565b8060800190612edc9190614af9565b8080601f016020809104026020016040519081016040528093929190818152602001838380828437600081840152601f19601f820116905080830192505050505050508152602001878785818110612f3757612f36614441565b5b9050602002810190612f499190614f29565b8060a00190612f589190614af9565b8080601f016020809104026020016040519081016040528093929190818152602001838380828437600081840152601f19601f820116905080830192505050505050508152602001878785818110612fb357612fb2614441565b5b9050602002810190612fc59190614f29565b8060c00190612fd49190614af9565b8080601f016020809104026020016040519081016040528093929190818152602001838380828437600081840152601f19601f82011690508083019250505050505050815260200187878581811061302f5761302e614441565b5b90506020028101906130419190614f29565b8060e001906130509190614af9565b8080601f016020809104026020016040519081016040528093929190818152602001838380828437600081840152601f19601f8201169050808301925050505050505081526020014281525090806001815401808255809150506001900390600052602060002090600902016000909190919091506000820151816000015560208201518160010190816130e49190614b5c565b5060408201518160020190816130fa9190614b5c565b5060608201518160030190816131109190614b5c565b5060808201518160040190816131269190614b5c565b5060a082015181600501908161313c9190614b5c565b5060c08201518160060190816131529190614b5c565b5060e08201518160070190816131689190614b5c565b50610100820151816008015550506001600880549050613188919061451c565b60096000600754815260200190815260200160002081905550600760008154809291906131b490614c2e565b919050555061361a565b6000600960008787858181106131d7576131d6614441565b5b90506020028101906131e99190614f29565b6000013581526020019081526020016000205490506008805490508110613245576040517f08c379a000000000000000000000000000000000000000000000000000000000815260040161323c90614e09565b60405180910390fd5b60006008828154811061325b5761325a614441565b5b9060005260206000209060090201905060008787858181106132805761327f614441565b5b90506020028101906132929190614f29565b80602001906132a19190614af9565b905011156132f0578686848181106132bc576132bb614441565b5b90506020028101906132ce9190614f29565b80602001906132dd9190614af9565b8260010191826132ee929190614ced565b505b600087878581811061330557613304614441565b5b90506020028101906133179190614f29565b80604001906133269190614af9565b905011156133755786868481811061334157613340614441565b5b90506020028101906133539190614f29565b80604001906133629190614af9565b826002019182613373929190614ced565b505b600087878581811061338a57613389614441565b5b905060200281019061339c9190614f29565b80606001906133ab9190614af9565b905011156133fa578686848181106133c6576133c5614441565b5b90506020028101906133d89190614f29565b80606001906133e79190614af9565b8260030191826133f8929190614ced565b505b600087878581811061340f5761340e614441565b5b90506020028101906134219190614f29565b80608001906134309190614af9565b9050111561347f5786868481811061344b5761344a614441565b5b905060200281019061345d9190614f29565b806080019061346c9190614af9565b82600401918261347d929190614ced565b505b600087878581811061349457613493614441565b5b90506020028101906134a69190614f29565b8060a001906134b59190614af9565b90501115613504578686848181106134d0576134cf614441565b5b90506020028101906134e29190614f29565b8060a001906134f19190614af9565b826005019182613502929190614ced565b505b600087878581811061351957613518614441565b5b905060200281019061352b9190614f29565b8060c0019061353a9190614af9565b905011156135895786868481811061355557613554614441565b5b90506020028101906135679190614f29565b8060c001906135769190614af9565b826006019182613587929190614ced565b505b600087878581811061359e5761359d614441565b5b90506020028101906135b09190614f29565b8060e001906135bf9190614af9565b9050111561360e578686848181106135da576135d9614441565b5b90506020028101906135ec9190614f29565b8060e001906135fb9190614af9565b82600701918261360c929190614ced565b505b42816008018190555050505b8080600101915050612ce3565b5050505050565b60008054906101000a900473ffffffffffffffffffffffffffffffffffffffff1681565b61365a6136d8565b600073ffffffffffffffffffffffffffffffffffffffff168173ffffffffffffffffffffffffffffffffffffffff16036136cc5760006040517f1e4fbdf70000000000000000000000000000000000000000000000000000000081526004016136c391906141d9565b60405180910390fd5b6136d581613787565b50565b6136e0613886565b73ffffffffffffffffffffffffffffffffffffffff166136fe6120b3565b73ffffffffffffffffffffffffffffffffffffffff161461375d57613721613886565b6040517f118cdaa700000000000000000000000000000000000000000000000000000000815260040161375491906141d9565b60405180910390fd5b565b60008061376a61388e565b90508091505090565b61377b6138b9565b613784816138f9565b50565b600061379161385e565b905060008160000160009054906101000a900473ffffffffffffffffffffffffffffffffffffffff169050828260000160006101000a81548173ffffffffffffffffffffffffffffffffffffffff021916908373ffffffffffffffffffffffffffffffffffffffff1602179055508273ffffffffffffffffffffffffffffffffffffffff168173ffffffffffffffffffffffffffffffffffffffff167f8be0079c531659141344cd1fd0a4f28419497f9722a3daafe3b4186f6b6457e060405160405180910390a3505050565b60007f9016d09d72d40fdae2fd8ceac6b6234c7706214fd39c1cd1e609a0528c199300905090565b600033905090565b60007ff0c57e16840df040f15088dc2f81fe391c3923bec73e23a9662efc9c229c6a0060001b905090565b6138c161397f565b6138f7576040517fd7e6bcf800000000000000000000000000000000000000000000000000000000815260040160405180910390fd5b565b6139016138b9565b600073ffffffffffffffffffffffffffffffffffffffff168173ffffffffffffffffffffffffffffffffffffffff16036139735760006040517f1e4fbdf700000000000000000000000000000000000000000000000000000000815260040161396a91906141d9565b60405180910390fd5b61397c81613787565b50565b600061398961375f565b60000160089054906101000a900460ff16905090565b5080546139ab90614410565b6000825580601f106139bd57506139dc565b601f0160209004906000526020600020908101906139db91906139df565b5b50565b5b808211156139f85760008160009055506001016139e0565b5090565b600081519050919050565b600082825260208201905092915050565b6000819050602082019050919050565b6000819050919050565b613a3b81613a28565b82525050565b600081519050919050565b600082825260208201905092915050565b60005b83811015613a7b578082015181840152602081019050613a60565b60008484015250505050565b6000601f19601f8301169050919050565b6000613aa382613a41565b613aad8185613a4c565b9350613abd818560208601613a5d565b613ac681613a87565b840191505092915050565b600061012083016000830151613aea6000860182613a32565b5060208301518482036020860152613b028282613a98565b91505060408301518482036040860152613b1c8282613a98565b91505060608301518482036060860152613b368282613a98565b91505060808301518482036080860152613b508282613a98565b91505060a083015184820360a0860152613b6a8282613a98565b91505060c083015184820360c0860152613b848282613a98565b91505060e083015184820360e0860152613b9e8282613a98565b915050610100830151613bb5610100860182613a32565b508091505092915050565b6000613bcc8383613ad1565b905092915050565b6000602082019050919050565b6000613bec826139fc565b613bf68185613a07565b935083602082028501613c0885613a18565b8060005b85811015613c445784840389528151613c258582613bc0565b9450613c3083613bd4565b925060208a01995050600181019050613c0c565b50829750879550505050505092915050565b60006020820190508181036000830152613c708184613be1565b905092915050565b600080fd5b600080fd5b600080fd5b600080fd5b600080fd5b60008083601f840112613ca757613ca6613c82565b5b8235905067ffffffffffffffff811115613cc457613cc3613c87565b5b602083019150836020820283011115613ce057613cdf613c8c565b5b9250929050565b60008060208385031215613cfe57613cfd613c78565b5b600083013567ffffffffffffffff811115613d1c57613d1b613c7d565b5b613d2885828601613c91565b92509250509250929050565b600081519050919050565b600082825260208201905092915050565b6000819050602082019050919050565b600061012083016000830151613d796000860182613a32565b5060208301518482036020860152613d918282613a98565b91505060408301518482036040860152613dab8282613a98565b91505060608301518482036060860152613dc58282613a98565b91505060808301518482036080860152613ddf8282613a98565b91505060a083015184820360a0860152613df98282613a98565b91505060c083015184820360c0860152613e138282613a98565b91505060e083015184820360e0860152613e2d8282613a98565b915050610100830151613e44610100860182613a32565b508091505092915050565b6000613e5b8383613d60565b905092915050565b6000602082019050919050565b6000613e7b82613d34565b613e858185613d3f565b935083602082028501613e9785613d50565b8060005b85811015613ed35784840389528151613eb48582613e4f565b9450613ebf83613e63565b925060208a01995050600181019050613e9b565b50829750879550505050505092915050565b60006020820190508181036000830152613eff8184613e70565b905092915050565b600073ffffffffffffffffffffffffffffffffffffffff82169050919050565b6000613f3282613f07565b9050919050565b613f4281613f27565b8114613f4d57600080fd5b50565b600081359050613f5f81613f39565b92915050565b60008060408385031215613f7c57613f7b613c78565b5b6000613f8a85828601613f50565b9250506020613f9b85828601613f50565b9150509250929050565b60008083601f840112613fbb57613fba613c82565b5b8235905067ffffffffffffffff811115613fd857613fd7613c87565b5b602083019150836020820283011115613ff457613ff3613c8c565b5b9250929050565b6000806020838503121561401257614011613c78565b5b600083013567ffffffffffffffff8111156140305761402f613c7d565b5b61403c85828601613fa5565b92509250509250929050565b600081519050919050565b600082825260208201905092915050565b6000819050602082019050919050565b600060c08301600083015161408c6000860182613a32565b50602083015184820360208601526140a48282613a98565b915050604083015184820360408601526140be8282613a98565b915050606083015184820360608601526140d88282613a98565b915050608083015184820360808601526140f28282613a98565b91505060a083015161410760a0860182613a32565b508091505092915050565b600061411e8383614074565b905092915050565b6000602082019050919050565b600061413e82614048565b6141488185614053565b93508360208202850161415a85614064565b8060005b8581101561419657848403895281516141778582614112565b945061418283614126565b925060208a0199505060018101905061415e565b50829750879550505050505092915050565b600060208201905081810360008301526141c28184614133565b905092915050565b6141d381613f27565b82525050565b60006020820190506141ee60008301846141ca565b92915050565b60008083601f84011261420a57614209613c82565b5b8235905067ffffffffffffffff81111561422757614226613c87565b5b60208301915083602082028301111561424357614242613c8c565b5b9250929050565b6000806020838503121561426157614260613c78565b5b600083013567ffffffffffffffff81111561427f5761427e613c7d565b5b61428b858286016141f4565b92509250509250929050565b60008083601f8401126142ad576142ac613c82565b5b8235905067ffffffffffffffff8111156142ca576142c9613c87565b5b6020830191508360208202830111156142e6576142e5613c8c565b5b9250929050565b6000806020838503121561430457614303613c78565b5b600083013567ffffffffffffffff81111561432257614321613c7d565b5b61432e85828601614297565b92509250509250929050565b6000819050919050565b600061435f61435a61435584613f07565b61433a565b613f07565b9050919050565b600061437182614344565b9050919050565b600061438382614366565b9050919050565b61439381614378565b82525050565b60006020820190506143ae600083018461438a565b92915050565b6000602082840312156143ca576143c9613c78565b5b60006143d884828501613f50565b91505092915050565b7f4e487b7100000000000000000000000000000000000000000000000000000000600052602260045260246000fd5b6000600282049050600182168061442857607f821691505b60208210810361443b5761443a6143e1565b5b50919050565b7f4e487b7100000000000000000000000000000000000000000000000000000000600052603260045260246000fd5b600082825260208201905092915050565b7f496e76616c69642070696e204944000000000000000000000000000000000000600082015250565b60006144b7600e83614470565b91506144c282614481565b602082019050919050565b600060208201905081810360008301526144e6816144aa565b9050919050565b7f4e487b7100000000000000000000000000000000000000000000000000000000600052601160045260246000fd5b600061452782613a28565b915061453283613a28565b925082820390508181111561454a576145496144ed565b5b92915050565b60008154905061455f81614410565b9050919050565b7f4e487b7100000000000000000000000000000000000000000000000000000000600052604160045260246000fd5b60008190508160005260206000209050919050565b60006020601f8301049050919050565b600082821b905092915050565b6000600883026145f77fffffffffffffffffffffffffffffffffffffffffffffffffffffffffffffffff826145ba565b61460186836145ba565b95508019841693508086168417925050509392505050565b600061463461462f61462a84613a28565b61433a565b613a28565b9050919050565b6000819050919050565b61464e83614619565b61466261465a8261463b565b8484546145c7565b825550505050565b600090565b61467761466a565b614682818484614645565b505050565b5b818110156146a65761469b60008261466f565b600181019050614688565b5050565b601f8211156146eb576146bc81614595565b6146c5846145aa565b810160208510156146d4578190505b6146e86146e0856145aa565b830182614687565b50505b505050565b600082821c905092915050565b600061470e600019846008026146f0565b1980831691505092915050565b600061472783836146fd565b9150826002028217905092915050565b81810361474557505061481d565b61474e82614550565b67ffffffffffffffff81111561476757614766614566565b5b6147718254614410565b61477c8282856146aa565b6000601f8311600181146147ab5760008415614799578287015490505b6147a3858261471b565b865550614816565b601f1984166147b987614595565b96506147c486614595565b60005b828110156147ec578489015482556001820191506001850194506020810190506147c7565b868310156148095784890154614805601f8916826146fd565b8355505b6001600288020188555050505b5050505050505b565b7f4e487b7100000000000000000000000000000000000000000000000000000000600052603160045260246000fd5b7f496e76616c696420436f73744d616e6167657200000000000000000000000000600082015250565b6000614884601383614470565b915061488f8261484e565b602082019050919050565b600060208201905081810360008301526148b381614877565b9050919050565b6000819050919050565b600067ffffffffffffffff82169050919050565b60006148f36148ee6148e9846148ba565b61433a565b6148c4565b9050919050565b614903816148d8565b82525050565b600060208201905061491e60008301846148fa565b92915050565b61492d81613a28565b811461493857600080fd5b50565b60008151905061494a81614924565b92915050565b60006020828403121561496657614965613c78565b5b60006149748482850161493b565b91505092915050565b7f57726f6e6720636f737420666f722075707365727442616e6b4163636f756e7460008201527f7300000000000000000000000000000000000000000000000000000000000000602082015250565b60006149d9602183614470565b91506149e48261497d565b604082019050919050565b60006020820190508181036000830152614a08816149cc565b9050919050565b600081905092915050565b50565b6000614a2a600083614a0f565b9150614a3582614a1a565b600082019050919050565b6000614a4b82614a1d565b9150819050919050565b7f466f7277617264696e6720666565206661696c65640000000000000000000000600082015250565b6000614a8b601583614470565b9150614a9682614a55565b602082019050919050565b60006020820190508181036000830152614aba81614a7e565b9050919050565b600080fd5b600080fd5b600080fd5b60008235600161010003833603038112614aed57614aec614ac1565b5b80830191505092915050565b60008083356001602003843603038112614b1657614b15614ac1565b5b80840192508235915067ffffffffffffffff821115614b3857614b37614ac6565b5b602083019250600182023603831315614b5457614b53614acb565b5b509250929050565b614b6582613a41565b67ffffffffffffffff811115614b7e57614b7d614566565b5b614b888254614410565b614b938282856146aa565b600060209050601f831160018114614bc65760008415614bb4578287015190505b614bbe858261471b565b865550614c26565b601f198416614bd486614595565b60005b82811015614bfc57848901518255600182019150602085019450602081019050614bd7565b86831015614c195784890151614c15601f8916826146fd565b8355505b6001600288020188555050505b505050505050565b6000614c3982613a28565b91507fffffffffffffffffffffffffffffffffffffffffffffffffffffffffffffffff8203614c6b57614c6a6144ed565b5b600182019050919050565b7f496e76616c69642062616e6b206163636f756e74204944000000000000000000600082015250565b6000614cac601783614470565b9150614cb782614c76565b602082019050919050565b60006020820190508181036000830152614cdb81614c9f565b9050919050565b600082905092915050565b614cf78383614ce2565b67ffffffffffffffff811115614d1057614d0f614566565b5b614d1a8254614410565b614d258282856146aa565b6000601f831160018114614d545760008415614d42578287013590505b614d4c858261471b565b865550614db4565b601f198416614d6286614595565b60005b82811015614d8a57848901358255600182019150602085019450602081019050614d65565b86831015614da75784890135614da3601f8916826146fd565b8355505b6001600288020188555050505b50505050505050565b7f496e76616c696420637265646974206361726420494400000000000000000000600082015250565b6000614df3601683614470565b9150614dfe82614dbd565b602082019050919050565b60006020820190508181036000830152614e2281614de6565b9050919050565b7f57726f6e6720636f737420666f722075707365727450696e7300000000000000600082015250565b6000614e5f601983614470565b9150614e6a82614e29565b602082019050919050565b60006020820190508181036000830152614e8e81614e52565b9050919050565b60008235600160a003833603038112614eb157614eb0614ac1565b5b80830191505092915050565b7f57726f6e6720636f737420666f72207570736572744372656469744361726473600082015250565b6000614ef3602083614470565b9150614efe82614ebd565b602082019050919050565b60006020820190508181036000830152614f2281614ee6565b9050919050565b60008235600161010003833603038112614f4657614f45614ac1565b5b8083019150509291505056fea2646970667358221220d85680296d5552e967cf099d2ccdf3bd6a25f015a29c902e33535070549d8f3064736f6c634300081c0033",
  "linkReferences": {},
  "deployedLinkReferences": {}
}