{
  "_format": "hh-sol-artifact-1",
  "contractName": "VaultFactory",
  "sourceName": "contracts/VaultFactory.sol",
  "abi": [
    {
      "inputs": [
        {
          "internalType": "address",
          "name": "_vaultImplementation",
          "type": "address"
        },
        {
          "internalType": "address",
          "name": "_costManager",
          "type": "address"
        }
      ],
      "stateMutability": "nonpayable",
      "type": "constructor"
    },
    {
      "inputs": [],
      "name": "FailedDeployment",
      "type": "error"
    },
    {
      "inputs": [
        {
          "internalType": "uint256",
          "name": "balance",
          "type": "uint256"
        },
        {
          "internalType": "uint256",
          "name": "needed",
          "type": "uint256"
        }
      ],
      "name": "InsufficientBalance",
      "type": "error"
    },
    {
      "inputs": [
        {
          "internalType": "address",
          "name": "owner",
          "type": "address"
        }
      ],
      "name": "OwnableInvalidOwner",
      "type": "error"
    },
    {
      "inputs": [
        {
          "internalType": "address",
          "name": "account",
          "type": "address"
        }
      ],
      "name": "OwnableUnauthorizedAccount",
      "type": "error"
    },
    {
      "anonymous": false,
      "inputs": [
        {
          "indexed": true,
          "internalType": "address",
          "name": "previousOwner",
          "type": "address"
        },
        {
          "indexed": true,
          "internalType": "address",
          "name": "newOwner",
          "type": "address"
        }
      ],
      "name": "OwnershipTransferred",
      "type": "event"
    },
    {
      "anonymous": false,
      "inputs": [
        {
          "indexed": true,
          "internalType": "address",
          "name": "vaultOwner",
          "type": "address"
        },
        {
          "indexed": true,
          "internalType": "address",
          "name": "vault",
          "type": "address"
        }
      ],
      "name": "VaultCreated",
      "type": "event"
    },
    {
      "anonymous": false,
      "inputs": [
        {
          "indexed": true,
          "internalType": "address",
          "name": "owner",
          "type": "address"
        },
        {
          "indexed": true,
          "internalType": "address",
          "name": "vault",
          "type": "address"
        },
        {
          "indexed": false,
          "internalType": "string",
          "name": "reason",
          "type": "string"
        }
      ],
      "name": "VaultInitFailed",
      "type": "event"
    },
    {
      "inputs": [],
      "name": "costManager",
      "outputs": [
        {
          "internalType": "contract CostManager",
          "name": "",
          "type": "address"
        }
      ],
      "stateMutability": "view",
      "type": "function"
    },
    {
      "inputs": [],
      "name": "createVault",
      "outputs": [],
      "stateMutability": "payable",
      "type": "function"
    },
    {
      "inputs": [],
      "name": "owner",
      "outputs": [
        {
          "internalType": "address",
          "name": "",
          "type": "address"
        }
      ],
      "stateMutability": "view",
      "type": "function"
    },
    {
      "inputs": [
        {
          "internalType": "address",
          "name": "",
          "type": "address"
        }
      ],
      "name": "ownerToVault",
      "outputs": [
        {
          "internalType": "address",
          "name": "",
          "type": "address"
        }
      ],
      "stateMutability": "view",
      "type": "function"
    },
    {
      "inputs": [],
      "name": "renounceOwnership",
      "outputs": [],
      "stateMutability": "nonpayable",
      "type": "function"
    },
    {
      "inputs": [
        {
          "internalType": "address",
          "name": "newOwner",
          "type": "address"
        }
      ],
      "name": "transferOwnership",
      "outputs": [],
      "stateMutability": "nonpayable",
      "type": "function"
    },
    {
      "inputs": [
        {
          "internalType": "address",
          "name": "newOwner",
          "type": "address"
        }
      ],
      "name": "transferVaultFactoryOwnership",
      "outputs": [],
      "stateMutability": "nonpayable",
      "type": "function"
    },
    {
      "inputs": [],
      "name": "vaultImplementation",
      "outputs": [
        {
          "internalType": "address",
          "name": "",
          "type": "address"
        }
      ],
      "stateMutability": "view",
      "type": "function"
    }
  ],
  "bytecode": "0x60a060405234801561001057600080fd5b506040516116e93803806116e983398181016040528101906100329190610336565b33600073ffffffffffffffffffffffffffffffffffffffff168173ffffffffffffffffffffffffffffffffffffffff16036100a55760006040517f1e4fbdf700000000000000000000000000000000000000000000000000000000815260040161009c9190610385565b60405180910390fd5b6100b48161020f60201b60201c565b50600073ffffffffffffffffffffffffffffffffffffffff168273ffffffffffffffffffffffffffffffffffffffff1603610124576040517f08c379a000000000000000000000000000000000000000000000000000000000815260040161011b906103fd565b60405180910390fd5b8173ffffffffffffffffffffffffffffffffffffffff1660808173ffffffffffffffffffffffffffffffffffffffff1681525050600073ffffffffffffffffffffffffffffffffffffffff168173ffffffffffffffffffffffffffffffffffffffff16036101c7576040517f08c379a00000000000000000000000000000000000000000000000000000000081526004016101be90610469565b60405180910390fd5b80600160006101000a81548173ffffffffffffffffffffffffffffffffffffffff021916908373ffffffffffffffffffffffffffffffffffffffff1602179055505050610489565b60008060009054906101000a900473ffffffffffffffffffffffffffffffffffffffff169050816000806101000a81548173ffffffffffffffffffffffffffffffffffffffff021916908373ffffffffffffffffffffffffffffffffffffffff1602179055508173ffffffffffffffffffffffffffffffffffffffff168173ffffffffffffffffffffffffffffffffffffffff167f8be0079c531659141344cd1fd0a4f28419497f9722a3daafe3b4186f6b6457e060405160405180910390a35050565b600080fd5b600073ffffffffffffffffffffffffffffffffffffffff82169050919050565b6000610303826102d8565b9050919050565b610313816102f8565b811461031e57600080fd5b50565b6000815190506103308161030a565b92915050565b6000806040838503121561034d5761034c6102d3565b5b600061035b85828601610321565b925050602061036c85828601610321565b9150509250929050565b61037f816102f8565b82525050565b600060208201905061039a6000830184610376565b92915050565b600082825260208201905092915050565b7f496e76616c696420696d706c656d656e746174696f6e00000000000000000000600082015250565b60006103e76016836103a0565b91506103f2826103b1565b602082019050919050565b60006020820190508181036000830152610416816103da565b9050919050565b7f496e76616c696420436f73744d616e6167657220616464726573730000000000600082015250565b6000610453601b836103a0565b915061045e8261041d565b602082019050919050565b6000602082019050818103600083015261048281610446565b9050919050565b60805161123e6104ab6000396000818161057d015261083e015261123e6000f3fe60806040526004361061007b5760003560e01c80638da5cb5b1161004e5780638da5cb5b14610107578063bba48a9014610132578063cecd949a1461015d578063f2fde38b146101885761007b565b80633eecb3ca146100805780635cf25981146100a95780635d12928b146100e6578063715018a6146100f0575b600080fd5b34801561008c57600080fd5b506100a760048036038101906100a29190610bd8565b6101b1565b005b3480156100b557600080fd5b506100d060048036038101906100cb9190610bd8565b61032a565b6040516100dd9190610c14565b60405180910390f35b6100ee61035d565b005b3480156100fc57600080fd5b506101056107ff565b005b34801561011357600080fd5b5061011c610813565b6040516101299190610c14565b60405180910390f35b34801561013e57600080fd5b5061014761083c565b6040516101549190610c14565b60405180910390f35b34801561016957600080fd5b50610172610860565b60405161017f9190610c8e565b60405180910390f35b34801561019457600080fd5b506101af60048036038101906101aa9190610bd8565b610886565b005b600160009054906101000a900473ffffffffffffffffffffffffffffffffffffffff1673ffffffffffffffffffffffffffffffffffffffff16638da5cb5b6040518163ffffffff1660e01b8152600401602060405180830381865afa15801561021e573d6000803e3d6000fd5b505050506040513d601f19601f820116820180604052508101906102429190610cbe565b73ffffffffffffffffffffffffffffffffffffffff163373ffffffffffffffffffffffffffffffffffffffff16146102af576040517f08c379a00000000000000000000000000000000000000000000000000000000081526004016102a690610d48565b60405180910390fd5b600073ffffffffffffffffffffffffffffffffffffffff168173ffffffffffffffffffffffffffffffffffffffff160361031e576040517f08c379a000000000000000000000000000000000000000000000000000000000815260040161031590610db4565b60405180910390fd5b61032781610886565b50565b60026020528060005260406000206000915054906101000a900473ffffffffffffffffffffffffffffffffffffffff1681565b600073ffffffffffffffffffffffffffffffffffffffff16600260003373ffffffffffffffffffffffffffffffffffffffff1673ffffffffffffffffffffffffffffffffffffffff16815260200190815260200160002060009054906101000a900473ffffffffffffffffffffffffffffffffffffffff1673ffffffffffffffffffffffffffffffffffffffff161461042b576040517f08c379a000000000000000000000000000000000000000000000000000000000815260040161042290610e20565b60405180910390fd5b6000600160009054906101000a900473ffffffffffffffffffffffffffffffffffffffff169050600073ffffffffffffffffffffffffffffffffffffffff168173ffffffffffffffffffffffffffffffffffffffff16036104c1576040517f08c379a00000000000000000000000000000000000000000000000000000000081526004016104b890610e8c565b60405180910390fd5b60008173ffffffffffffffffffffffffffffffffffffffff1663edd60f5c6040518163ffffffff1660e01b8152600401602060405180830381865afa15801561050e573d6000803e3d6000fd5b505050506040513d601f19601f820116820180604052508101906105329190610ee2565b9050803414610576576040517f08c379a000000000000000000000000000000000000000000000000000000000815260040161056d90610f5b565b60405180910390fd5b60006105b77f000000000000000000000000000000000000000000000000000000000000000073ffffffffffffffffffffffffffffffffffffffff1661090c565b90508073ffffffffffffffffffffffffffffffffffffffff1663485cc9553433866040518463ffffffff1660e01b81526004016105f5929190610f7b565b6000604051808303818588803b15801561060e57600080fd5b505af193505050508015610620575060015b6107215761062c610fb1565b806308c379a0036106b65750610640611044565b8061064b57506106b8565b8173ffffffffffffffffffffffffffffffffffffffff163373ffffffffffffffffffffffffffffffffffffffff167fb0b1777a54597bcdf7f74569380637165b2326a491fd5582f62933b6a679c5d4836040516106a89190611142565b60405180910390a35061071c565b505b8073ffffffffffffffffffffffffffffffffffffffff163373ffffffffffffffffffffffffffffffffffffffff167fb0b1777a54597bcdf7f74569380637165b2326a491fd5582f62933b6a679c5d4604051610713906111b0565b60405180910390a35b6107fa565b8073ffffffffffffffffffffffffffffffffffffffff163373ffffffffffffffffffffffffffffffffffffffff167f5d9c31ffa0fecffd7cf379989a3c7af252f0335e0d2a1320b55245912c781f5360405160405180910390a380600260003373ffffffffffffffffffffffffffffffffffffffff1673ffffffffffffffffffffffffffffffffffffffff16815260200190815260200160002060006101000a81548173ffffffffffffffffffffffffffffffffffffffff021916908373ffffffffffffffffffffffffffffffffffffffff1602179055505b505050565b610807610920565b61081160006109a7565b565b60008060009054906101000a900473ffffffffffffffffffffffffffffffffffffffff16905090565b7f000000000000000000000000000000000000000000000000000000000000000081565b600160009054906101000a900473ffffffffffffffffffffffffffffffffffffffff1681565b61088e610920565b600073ffffffffffffffffffffffffffffffffffffffff168173ffffffffffffffffffffffffffffffffffffffff16036109005760006040517f1e4fbdf70000000000000000000000000000000000000000000000000000000081526004016108f79190610c14565b60405180910390fd5b610909816109a7565b50565b6000610919826000610a6b565b9050919050565b610928610b63565b73ffffffffffffffffffffffffffffffffffffffff16610946610813565b73ffffffffffffffffffffffffffffffffffffffff16146109a557610969610b63565b6040517f118cdaa700000000000000000000000000000000000000000000000000000000815260040161099c9190610c14565b60405180910390fd5b565b60008060009054906101000a900473ffffffffffffffffffffffffffffffffffffffff169050816000806101000a81548173ffffffffffffffffffffffffffffffffffffffff021916908373ffffffffffffffffffffffffffffffffffffffff1602179055508173ffffffffffffffffffffffffffffffffffffffff168173ffffffffffffffffffffffffffffffffffffffff167f8be0079c531659141344cd1fd0a4f28419497f9722a3daafe3b4186f6b6457e060405160405180910390a35050565b600081471015610ab45747826040517fcf479181000000000000000000000000000000000000000000000000000000008152600401610aab9291906111df565b60405180910390fd5b763d602d80600a3d3981f3363d3d373d3d3d363d730000008360601b60e81c176000526e5af43d82803e903d91602b57fd5bf38360781b176020526037600983f09050600073ffffffffffffffffffffffffffffffffffffffff168173ffffffffffffffffffffffffffffffffffffffff1603610b5d576040517fb06ebf3d00000000000000000000000000000000000000000000000000000000815260040160405180910390fd5b92915050565b600033905090565b6000604051905090565b600080fd5b600073ffffffffffffffffffffffffffffffffffffffff82169050919050565b6000610ba582610b7a565b9050919050565b610bb581610b9a565b8114610bc057600080fd5b50565b600081359050610bd281610bac565b92915050565b600060208284031215610bee57610bed610b75565b5b6000610bfc84828501610bc3565b91505092915050565b610c0e81610b9a565b82525050565b6000602082019050610c296000830184610c05565b92915050565b6000819050919050565b6000610c54610c4f610c4a84610b7a565b610c2f565b610b7a565b9050919050565b6000610c6682610c39565b9050919050565b6000610c7882610c5b565b9050919050565b610c8881610c6d565b82525050565b6000602082019050610ca36000830184610c7f565b92915050565b600081519050610cb881610bac565b92915050565b600060208284031215610cd457610cd3610b75565b5b6000610ce284828501610ca9565b91505092915050565b600082825260208201905092915050565b7f4e6f7420436f73744d616e616765722773206f776e6572000000000000000000600082015250565b6000610d32601783610ceb565b9150610d3d82610cfc565b602082019050919050565b60006020820190508181036000830152610d6181610d25565b9050919050565b7f496e76616c6964206e6577206f776e6572000000000000000000000000000000600082015250565b6000610d9e601183610ceb565b9150610da982610d68565b602082019050919050565b60006020820190508181036000830152610dcd81610d91565b9050919050565b7f5661756c7420616c726561647920657869737473000000000000000000000000600082015250565b6000610e0a601483610ceb565b9150610e1582610dd4565b602082019050919050565b60006020820190508181036000830152610e3981610dfd565b9050919050565b7f436f73744d616e61676572206e6f742073657400000000000000000000000000600082015250565b6000610e76601383610ceb565b9150610e8182610e40565b602082019050919050565b60006020820190508181036000830152610ea581610e69565b9050919050565b6000819050919050565b610ebf81610eac565b8114610eca57600080fd5b50565b600081519050610edc81610eb6565b92915050565b600060208284031215610ef857610ef7610b75565b5b6000610f0684828501610ecd565b91505092915050565b7f496e636f7272656374207661756c74206372656174696f6e20636f7374000000600082015250565b6000610f45601d83610ceb565b9150610f5082610f0f565b602082019050919050565b60006020820190508181036000830152610f7481610f38565b9050919050565b6000604082019050610f906000830185610c05565b610f9d6020830184610c05565b9392505050565b60008160e01c9050919050565b600060033d1115610fd05760046000803e610fcd600051610fa4565b90505b90565b6000601f19601f8301169050919050565b7f4e487b7100000000000000000000000000000000000000000000000000000000600052604160045260246000fd5b61101c82610fd3565b810181811067ffffffffffffffff8211171561103b5761103a610fe4565b5b80604052505050565b600060443d106110d157611056610b6b565b60043d036004823e80513d602482011167ffffffffffffffff8211171561107e5750506110d1565b808201805167ffffffffffffffff81111561109c57505050506110d1565b80602083010160043d0385018111156110b95750505050506110d1565b6110c882602001850186611013565b82955050505050505b90565b600081519050919050565b60005b838110156110fd5780820151818401526020810190506110e2565b60008484015250505050565b6000611114826110d4565b61111e8185610ceb565b935061112e8185602086016110df565b61113781610fd3565b840191505092915050565b6000602082019050818103600083015261115c8184611109565b905092915050565b7f556e6b6e6f776e206572726f7200000000000000000000000000000000000000600082015250565b600061119a600d83610ceb565b91506111a582611164565b602082019050919050565b600060208201905081810360008301526111c98161118d565b9050919050565b6111d981610eac565b82525050565b60006040820190506111f460008301856111d0565b61120160208301846111d0565b939250505056fea2646970667358221220a2f581a410cf8f3a1917b974a2f33166f17d1fd94829cae366e18224c458590d64736f6c634300081c0033",
  "linkReferences": {},
  "deployedLinkReferences": {}
}