{
  "_format": "hh-sol-artifact-1",
  "contractName": "VaultFactory",
  "sourceName": "contracts/VaultFactory.sol",
  "abi": [
    {
      "inputs": [
        {
          "internalType": "address",
          "name": "_initialImplementation",
          "type": "address"
        },
        {
          "internalType": "address",
          "name": "_costManager",
          "type": "address"
        }
      ],
      "stateMutability": "nonpayable",
      "type": "constructor"
    },
    {
      "inputs": [],
      "name": "FailedDeployment",
      "type": "error"
    },
    {
      "inputs": [
        {
          "internalType": "uint256",
          "name": "balance",
          "type": "uint256"
        },
        {
          "internalType": "uint256",
          "name": "needed",
          "type": "uint256"
        }
      ],
      "name": "InsufficientBalance",
      "type": "error"
    },
    {
      "inputs": [
        {
          "internalType": "address",
          "name": "owner",
          "type": "address"
        }
      ],
      "name": "OwnableInvalidOwner",
      "type": "error"
    },
    {
      "inputs": [
        {
          "internalType": "address",
          "name": "account",
          "type": "address"
        }
      ],
      "name": "OwnableUnauthorizedAccount",
      "type": "error"
    },
    {
      "anonymous": false,
      "inputs": [
        {
          "indexed": true,
          "internalType": "address",
          "name": "previousOwner",
          "type": "address"
        },
        {
          "indexed": true,
          "internalType": "address",
          "name": "newOwner",
          "type": "address"
        }
      ],
      "name": "OwnershipTransferred",
      "type": "event"
    },
    {
      "anonymous": false,
      "inputs": [
        {
          "indexed": true,
          "internalType": "address",
          "name": "vaultOwner",
          "type": "address"
        },
        {
          "indexed": true,
          "internalType": "address",
          "name": "vault",
          "type": "address"
        },
        {
          "indexed": false,
          "internalType": "uint256",
          "name": "implementationIndex",
          "type": "uint256"
        }
      ],
      "name": "VaultCreated",
      "type": "event"
    },
    {
      "anonymous": false,
      "inputs": [
        {
          "indexed": false,
          "internalType": "address",
          "name": "implementation",
          "type": "address"
        }
      ],
      "name": "VaultImplementationAdded",
      "type": "event"
    },
    {
      "anonymous": false,
      "inputs": [
        {
          "indexed": false,
          "internalType": "uint256",
          "name": "index",
          "type": "uint256"
        }
      ],
      "name": "VaultImplementationLocked",
      "type": "event"
    },
    {
      "anonymous": false,
      "inputs": [
        {
          "indexed": false,
          "internalType": "uint256",
          "name": "index",
          "type": "uint256"
        },
        {
          "indexed": false,
          "internalType": "address",
          "name": "oldImpl",
          "type": "address"
        },
        {
          "indexed": false,
          "internalType": "address",
          "name": "newImpl",
          "type": "address"
        }
      ],
      "name": "VaultImplementationUpdated",
      "type": "event"
    },
    {
      "anonymous": false,
      "inputs": [
        {
          "indexed": true,
          "internalType": "address",
          "name": "owner",
          "type": "address"
        },
        {
          "indexed": true,
          "internalType": "address",
          "name": "vault",
          "type": "address"
        },
        {
          "indexed": false,
          "internalType": "string",
          "name": "reason",
          "type": "string"
        }
      ],
      "name": "VaultInitFailed",
      "type": "event"
    },
    {
      "inputs": [
        {
          "internalType": "address",
          "name": "user",
          "type": "address"
        },
        {
          "internalType": "address",
          "name": "vault",
          "type": "address"
        }
      ],
      "name": "addVaultForUser",
      "outputs": [],
      "stateMutability": "nonpayable",
      "type": "function"
    },
    {
      "inputs": [
        {
          "internalType": "address",
          "name": "newImpl",
          "type": "address"
        }
      ],
      "name": "addVaultImplementation",
      "outputs": [],
      "stateMutability": "nonpayable",
      "type": "function"
    },
    {
      "inputs": [],
      "name": "costManager",
      "outputs": [
        {
          "internalType": "contract CostManager",
          "name": "",
          "type": "address"
        }
      ],
      "stateMutability": "view",
      "type": "function"
    },
    {
      "inputs": [],
      "name": "createVaultsForAllImplementations",
      "outputs": [],
      "stateMutability": "payable",
      "type": "function"
    },
    {
      "inputs": [
        {
          "internalType": "uint256",
          "name": "index",
          "type": "uint256"
        }
      ],
      "name": "deleteVaultImplementation",
      "outputs": [],
      "stateMutability": "nonpayable",
      "type": "function"
    },
    {
      "inputs": [],
      "name": "getVaultImplementations",
      "outputs": [
        {
          "components": [
            {
              "internalType": "address",
              "name": "implementation",
              "type": "address"
            },
            {
              "internalType": "bool",
              "name": "isImmutable",
              "type": "bool"
            }
          ],
          "internalType": "struct VaultFactory.VaultImplementation[]",
          "name": "",
          "type": "tuple[]"
        }
      ],
      "stateMutability": "view",
      "type": "function"
    },
    {
      "inputs": [
        {
          "internalType": "address",
          "name": "user",
          "type": "address"
        }
      ],
      "name": "getVaultsByOwner",
      "outputs": [
        {
          "internalType": "address[]",
          "name": "",
          "type": "address[]"
        }
      ],
      "stateMutability": "view",
      "type": "function"
    },
    {
      "inputs": [
        {
          "internalType": "uint256",
          "name": "",
          "type": "uint256"
        }
      ],
      "name": "implementations",
      "outputs": [
        {
          "internalType": "address",
          "name": "implementation",
          "type": "address"
        },
        {
          "internalType": "bool",
          "name": "isImmutable",
          "type": "bool"
        }
      ],
      "stateMutability": "view",
      "type": "function"
    },
    {
      "inputs": [
        {
          "internalType": "uint256",
          "name": "index",
          "type": "uint256"
        }
      ],
      "name": "lockVaultImplementation",
      "outputs": [],
      "stateMutability": "nonpayable",
      "type": "function"
    },
    {
      "inputs": [],
      "name": "owner",
      "outputs": [
        {
          "internalType": "address",
          "name": "",
          "type": "address"
        }
      ],
      "stateMutability": "view",
      "type": "function"
    },
    {
      "inputs": [
        {
          "internalType": "address",
          "name": "",
          "type": "address"
        },
        {
          "internalType": "uint256",
          "name": "",
          "type": "uint256"
        }
      ],
      "name": "ownerToVaults",
      "outputs": [
        {
          "internalType": "address",
          "name": "",
          "type": "address"
        }
      ],
      "stateMutability": "view",
      "type": "function"
    },
    {
      "inputs": [],
      "name": "renounceOwnership",
      "outputs": [],
      "stateMutability": "nonpayable",
      "type": "function"
    },
    {
      "inputs": [
        {
          "internalType": "address",
          "name": "newOwner",
          "type": "address"
        }
      ],
      "name": "transferOwnership",
      "outputs": [],
      "stateMutability": "nonpayable",
      "type": "function"
    },
    {
      "inputs": [
        {
          "internalType": "address",
          "name": "newOwner",
          "type": "address"
        }
      ],
      "name": "transferVaultFactoryOwnership",
      "outputs": [],
      "stateMutability": "nonpayable",
      "type": "function"
    },
    {
      "inputs": [
        {
          "internalType": "uint256",
          "name": "index",
          "type": "uint256"
        },
        {
          "internalType": "address",
          "name": "newImpl",
          "type": "address"
        }
      ],
      "name": "updateVaultImplementation",
      "outputs": [],
      "stateMutability": "nonpayable",
      "type": "function"
    }
  ],
  "bytecode": "0x608060405234801561001057600080fd5b50604051612f3a380380612f3a833981810160405281019061003291906103f7565b33600073ffffffffffffffffffffffffffffffffffffffff168173ffffffffffffffffffffffffffffffffffffffff16036100a55760006040517f1e4fbdf700000000000000000000000000000000000000000000000000000000815260040161009c9190610446565b60405180910390fd5b6100b4816102d060201b60201c565b50600073ffffffffffffffffffffffffffffffffffffffff168273ffffffffffffffffffffffffffffffffffffffff1603610124576040517f08c379a000000000000000000000000000000000000000000000000000000000815260040161011b906104be565b60405180910390fd5b600260405180604001604052808473ffffffffffffffffffffffffffffffffffffffff168152602001600015158152509080600181540180825580915050600190039060005260206000200160009091909190915060008201518160000160006101000a81548173ffffffffffffffffffffffffffffffffffffffff021916908373ffffffffffffffffffffffffffffffffffffffff16021790555060208201518160000160146101000a81548160ff0219169083151502179055505050600073ffffffffffffffffffffffffffffffffffffffff168173ffffffffffffffffffffffffffffffffffffffff1603610251576040517f08c379a00000000000000000000000000000000000000000000000000000000081526004016102489061052a565b60405180910390fd5b80600160006101000a81548173ffffffffffffffffffffffffffffffffffffffff021916908373ffffffffffffffffffffffffffffffffffffffff1602179055507f74d924245de50d8f9d7cb74f31996d706d600673548c9290d2499c7794a6fe94826040516102c19190610446565b60405180910390a1505061054a565b60008060009054906101000a900473ffffffffffffffffffffffffffffffffffffffff169050816000806101000a81548173ffffffffffffffffffffffffffffffffffffffff021916908373ffffffffffffffffffffffffffffffffffffffff1602179055508173ffffffffffffffffffffffffffffffffffffffff168173ffffffffffffffffffffffffffffffffffffffff167f8be0079c531659141344cd1fd0a4f28419497f9722a3daafe3b4186f6b6457e060405160405180910390a35050565b600080fd5b600073ffffffffffffffffffffffffffffffffffffffff82169050919050565b60006103c482610399565b9050919050565b6103d4816103b9565b81146103df57600080fd5b50565b6000815190506103f1816103cb565b92915050565b6000806040838503121561040e5761040d610394565b5b600061041c858286016103e2565b925050602061042d858286016103e2565b9150509250929050565b610440816103b9565b82525050565b600060208201905061045b6000830184610437565b92915050565b600082825260208201905092915050565b7f496e76616c696420696d706c656d656e746174696f6e00000000000000000000600082015250565b60006104a8601683610461565b91506104b382610472565b602082019050919050565b600060208201905081810360008301526104d78161049b565b9050919050565b7f496e76616c696420436f73744d616e6167657220616464726573730000000000600082015250565b6000610514601b83610461565b915061051f826104de565b602082019050919050565b6000602082019050818103600083015261054381610507565b9050919050565b6129e1806105596000396000f3fe6080604052600436106100e85760003560e01c8063845affc81161008a578063c91aa12511610059578063c91aa125146102be578063cecd949a146102e7578063db7fb39b14610312578063f2fde38b1461033d576100e8565b8063845affc81461020e5780638da5cb5b1461024c578063ac81871114610277578063b4c027d3146102b4576100e8565b8063186beb57116100c6578063186beb571461017c5780633bbeeef2146101a55780633eecb3ca146101ce578063715018a6146101f7576100e8565b80630c5bc6a9146100ed5780630fa19bc11461012a57806311288bdc14610153575b600080fd5b3480156100f957600080fd5b50610114600480360381019061010f9190611c62565b610366565b6040516101219190611cb1565b60405180910390f35b34801561013657600080fd5b50610151600480360381019061014c9190611ccc565b6103b4565b005b34801561015f57600080fd5b5061017a60048036038101906101759190611d0c565b6106d7565b005b34801561018857600080fd5b506101a3600480360381019061019e9190611d39565b610909565b005b3480156101b157600080fd5b506101cc60048036038101906101c79190611d79565b610ba3565b005b3480156101da57600080fd5b506101f560048036038101906101f09190611d79565b610e22565b005b34801561020357600080fd5b5061020c610f9b565b005b34801561021a57600080fd5b5061023560048036038101906102309190611d0c565b610faf565b604051610243929190611dc1565b60405180910390f35b34801561025857600080fd5b5061026161100c565b60405161026e9190611cb1565b60405180910390f35b34801561028357600080fd5b5061029e60048036038101906102999190611d79565b611035565b6040516102ab9190611ea8565b60405180910390f35b6102bc611102565b005b3480156102ca57600080fd5b506102e560048036038101906102e09190611d0c565b611615565b005b3480156102f357600080fd5b506102fc6117e8565b6040516103099190611f29565b60405180910390f35b34801561031e57600080fd5b5061032761180e565b6040516103349190612031565b60405180910390f35b34801561034957600080fd5b50610364600480360381019061035f9190611d79565b6118da565b005b6003602052816000526040600020818154811061038257600080fd5b906000526020600020016000915091509054906101000a900473ffffffffffffffffffffffffffffffffffffffff1681565b6103bc61100c565b73ffffffffffffffffffffffffffffffffffffffff163373ffffffffffffffffffffffffffffffffffffffff16148061048d5750600160009054906101000a900473ffffffffffffffffffffffffffffffffffffffff1673ffffffffffffffffffffffffffffffffffffffff1663b9181611336040518263ffffffff1660e01b815260040161044b9190611cb1565b602060405180830381865afa158015610468573d6000803e3d6000fd5b505050506040513d601f19601f8201168201806040525081019061048c919061207f565b5b6104cc576040517f08c379a00000000000000000000000000000000000000000000000000000000081526004016104c39061212f565b60405180910390fd5b6002805490508210610513576040517f08c379a000000000000000000000000000000000000000000000000000000000815260040161050a9061219b565b60405180910390fd5b60028281548110610527576105266121bb565b5b9060005260206000200160000160149054906101000a900460ff1615610582576040517f08c379a000000000000000000000000000000000000000000000000000000000815260040161057990612236565b60405180910390fd5b600073ffffffffffffffffffffffffffffffffffffffff168173ffffffffffffffffffffffffffffffffffffffff16036105f1576040517f08c379a00000000000000000000000000000000000000000000000000000000081526004016105e8906122a2565b60405180910390fd5b600060028381548110610607576106066121bb565b5b9060005260206000200160000160009054906101000a900473ffffffffffffffffffffffffffffffffffffffff169050816002848154811061064c5761064b6121bb565b5b9060005260206000200160000160006101000a81548173ffffffffffffffffffffffffffffffffffffffff021916908373ffffffffffffffffffffffffffffffffffffffff1602179055507f204cd5a2e451b1ddf4dacc0b95622da0efffa8539fea59f3972caddb364161a58382846040516106ca939291906122d1565b60405180910390a1505050565b6106df61100c565b73ffffffffffffffffffffffffffffffffffffffff163373ffffffffffffffffffffffffffffffffffffffff1614806107b05750600160009054906101000a900473ffffffffffffffffffffffffffffffffffffffff1673ffffffffffffffffffffffffffffffffffffffff1663b9181611336040518263ffffffff1660e01b815260040161076e9190611cb1565b602060405180830381865afa15801561078b573d6000803e3d6000fd5b505050506040513d601f19601f820116820180604052508101906107af919061207f565b5b6107ef576040517f08c379a00000000000000000000000000000000000000000000000000000000081526004016107e69061212f565b60405180910390fd5b6002805490508110610836576040517f08c379a000000000000000000000000000000000000000000000000000000000815260040161082d9061219b565b60405180910390fd5b6002818154811061084a576108496121bb565b5b9060005260206000200160000160149054906101000a900460ff16156108a5576040517f08c379a000000000000000000000000000000000000000000000000000000000815260040161089c9061237a565b60405180910390fd5b6000600282815481106108bb576108ba6121bb565b5b9060005260206000200160000160006101000a81548173ffffffffffffffffffffffffffffffffffffffff021916908373ffffffffffffffffffffffffffffffffffffffff16021790555050565b61091161100c565b73ffffffffffffffffffffffffffffffffffffffff163373ffffffffffffffffffffffffffffffffffffffff1614806109e25750600160009054906101000a900473ffffffffffffffffffffffffffffffffffffffff1673ffffffffffffffffffffffffffffffffffffffff1663b9181611336040518263ffffffff1660e01b81526004016109a09190611cb1565b602060405180830381865afa1580156109bd573d6000803e3d6000fd5b505050506040513d601f19601f820116820180604052508101906109e1919061207f565b5b610a21576040517f08c379a0000000000000000000000000000000000000000000000000000000008152600401610a189061212f565b60405180910390fd5b600073ffffffffffffffffffffffffffffffffffffffff168273ffffffffffffffffffffffffffffffffffffffff1603610a90576040517f08c379a0000000000000000000000000000000000000000000000000000000008152600401610a87906123e6565b60405180910390fd5b600073ffffffffffffffffffffffffffffffffffffffff168173ffffffffffffffffffffffffffffffffffffffff1603610aff576040517f08c379a0000000000000000000000000000000000000000000000000000000008152600401610af690612452565b60405180910390fd5b600360008373ffffffffffffffffffffffffffffffffffffffff1673ffffffffffffffffffffffffffffffffffffffff168152602001908152602001600020819080600181540180825580915050600190039060005260206000200160009091909190916101000a81548173ffffffffffffffffffffffffffffffffffffffff021916908373ffffffffffffffffffffffffffffffffffffffff1602179055505050565b610bab61100c565b73ffffffffffffffffffffffffffffffffffffffff163373ffffffffffffffffffffffffffffffffffffffff161480610c7c5750600160009054906101000a900473ffffffffffffffffffffffffffffffffffffffff1673ffffffffffffffffffffffffffffffffffffffff1663b9181611336040518263ffffffff1660e01b8152600401610c3a9190611cb1565b602060405180830381865afa158015610c57573d6000803e3d6000fd5b505050506040513d601f19601f82011682018060405250810190610c7b919061207f565b5b610cbb576040517f08c379a0000000000000000000000000000000000000000000000000000000008152600401610cb29061212f565b60405180910390fd5b600073ffffffffffffffffffffffffffffffffffffffff168173ffffffffffffffffffffffffffffffffffffffff1603610d2a576040517f08c379a0000000000000000000000000000000000000000000000000000000008152600401610d21906122a2565b60405180910390fd5b600260405180604001604052808373ffffffffffffffffffffffffffffffffffffffff168152602001600015158152509080600181540180825580915050600190039060005260206000200160009091909190915060008201518160000160006101000a81548173ffffffffffffffffffffffffffffffffffffffff021916908373ffffffffffffffffffffffffffffffffffffffff16021790555060208201518160000160146101000a81548160ff02191690831515021790555050507f74d924245de50d8f9d7cb74f31996d706d600673548c9290d2499c7794a6fe9481604051610e179190611cb1565b60405180910390a150565b600160009054906101000a900473ffffffffffffffffffffffffffffffffffffffff1673ffffffffffffffffffffffffffffffffffffffff16638da5cb5b6040518163ffffffff1660e01b8152600401602060405180830381865afa158015610e8f573d6000803e3d6000fd5b505050506040513d601f19601f82011682018060405250810190610eb39190612487565b73ffffffffffffffffffffffffffffffffffffffff163373ffffffffffffffffffffffffffffffffffffffff1614610f20576040517f08c379a0000000000000000000000000000000000000000000000000000000008152600401610f1790612500565b60405180910390fd5b600073ffffffffffffffffffffffffffffffffffffffff168173ffffffffffffffffffffffffffffffffffffffff1603610f8f576040517f08c379a0000000000000000000000000000000000000000000000000000000008152600401610f869061256c565b60405180910390fd5b610f98816118da565b50565b610fa3611960565b610fad60006119e7565b565b60028181548110610fbf57600080fd5b906000526020600020016000915090508060000160009054906101000a900473ffffffffffffffffffffffffffffffffffffffff16908060000160149054906101000a900460ff16905082565b60008060009054906101000a900473ffffffffffffffffffffffffffffffffffffffff16905090565b6060600360008373ffffffffffffffffffffffffffffffffffffffff1673ffffffffffffffffffffffffffffffffffffffff1681526020019081526020016000208054806020026020016040519081016040528092919081815260200182805480156110f657602002820191906000526020600020905b8160009054906101000a900473ffffffffffffffffffffffffffffffffffffffff1673ffffffffffffffffffffffffffffffffffffffff16815260200190600101908083116110ac575b50505050509050919050565b6000600360003373ffffffffffffffffffffffffffffffffffffffff1673ffffffffffffffffffffffffffffffffffffffff1681526020019081526020016000208054905090506002805490508110611190576040517f08c379a0000000000000000000000000000000000000000000000000000000008152600401611187906125d8565b60405180910390fd5b6000600160009054906101000a900473ffffffffffffffffffffffffffffffffffffffff169050600073ffffffffffffffffffffffffffffffffffffffff168173ffffffffffffffffffffffffffffffffffffffff1603611226576040517f08c379a000000000000000000000000000000000000000000000000000000000815260040161121d90612644565b60405180910390fd5b60008173ffffffffffffffffffffffffffffffffffffffff1663edd60f5c6040518163ffffffff1660e01b8152600401602060405180830381865afa158015611273573d6000803e3d6000fd5b505050506040513d601f19601f820116820180604052508101906112979190612679565b90508034146112db576040517f08c379a00000000000000000000000000000000000000000000000000000000081526004016112d2906126f2565b60405180910390fd5b60008390505b60028054905081101561160f57600060028281548110611304576113036121bb565b5b9060005260206000200160000160009054906101000a900473ffffffffffffffffffffffffffffffffffffffff169050600073ffffffffffffffffffffffffffffffffffffffff168173ffffffffffffffffffffffffffffffffffffffff160361136e5750611602565b600061138f8273ffffffffffffffffffffffffffffffffffffffff16611aab565b90508073ffffffffffffffffffffffffffffffffffffffff1663485cc9558533886040518463ffffffff1660e01b81526004016113cd929190612712565b6000604051808303818588803b1580156113e657600080fd5b505af1935050505080156113f8575060015b6114f957611404612748565b806308c379a00361148e57506114186127db565b806114235750611490565b8173ffffffffffffffffffffffffffffffffffffffff163373ffffffffffffffffffffffffffffffffffffffff167fb0b1777a54597bcdf7f74569380637165b2326a491fd5582f62933b6a679c5d48360405161148091906128d9565b60405180910390a3506114f4565b505b8073ffffffffffffffffffffffffffffffffffffffff163373ffffffffffffffffffffffffffffffffffffffff167fb0b1777a54597bcdf7f74569380637165b2326a491fd5582f62933b6a679c5d46040516114eb90612947565b60405180910390a35b6115ff565b600360003373ffffffffffffffffffffffffffffffffffffffff1673ffffffffffffffffffffffffffffffffffffffff168152602001908152602001600020819080600181540180825580915050600190039060005260206000200160009091909190916101000a81548173ffffffffffffffffffffffffffffffffffffffff021916908373ffffffffffffffffffffffffffffffffffffffff1602179055508073ffffffffffffffffffffffffffffffffffffffff163373ffffffffffffffffffffffffffffffffffffffff167f0b045af6aff86dd2cda5342fd0329a354dc66759ff1eda00d7ecf13a76c7fb3b856040516115f69190612967565b60405180910390a35b50505b80806001019150506112e1565b50505050565b61161d61100c565b73ffffffffffffffffffffffffffffffffffffffff163373ffffffffffffffffffffffffffffffffffffffff1614806116ee5750600160009054906101000a900473ffffffffffffffffffffffffffffffffffffffff1673ffffffffffffffffffffffffffffffffffffffff1663b9181611336040518263ffffffff1660e01b81526004016116ac9190611cb1565b602060405180830381865afa1580156116c9573d6000803e3d6000fd5b505050506040513d601f19601f820116820180604052508101906116ed919061207f565b5b61172d576040517f08c379a00000000000000000000000000000000000000000000000000000000081526004016117249061212f565b60405180910390fd5b6002805490508110611774576040517f08c379a000000000000000000000000000000000000000000000000000000000815260040161176b9061219b565b60405180910390fd5b60016002828154811061178a576117896121bb565b5b9060005260206000200160000160146101000a81548160ff0219169083151502179055507fcd70c46c7d9f03c14d9a032e823c170ff1d5a6dff8d05b3c058498fa8f38046a816040516117dd9190612967565b60405180910390a150565b600160009054906101000a900473ffffffffffffffffffffffffffffffffffffffff1681565b60606002805480602002602001604051908101604052809291908181526020016000905b828210156118d1578382906000526020600020016040518060400160405290816000820160009054906101000a900473ffffffffffffffffffffffffffffffffffffffff1673ffffffffffffffffffffffffffffffffffffffff1673ffffffffffffffffffffffffffffffffffffffff1681526020016000820160149054906101000a900460ff16151515158152505081526020019060010190611832565b50505050905090565b6118e2611960565b600073ffffffffffffffffffffffffffffffffffffffff168173ffffffffffffffffffffffffffffffffffffffff16036119545760006040517f1e4fbdf700000000000000000000000000000000000000000000000000000000815260040161194b9190611cb1565b60405180910390fd5b61195d816119e7565b50565b611968611abf565b73ffffffffffffffffffffffffffffffffffffffff1661198661100c565b73ffffffffffffffffffffffffffffffffffffffff16146119e5576119a9611abf565b6040517f118cdaa70000000000000000000000000000000000000000000000000000000081526004016119dc9190611cb1565b60405180910390fd5b565b60008060009054906101000a900473ffffffffffffffffffffffffffffffffffffffff169050816000806101000a81548173ffffffffffffffffffffffffffffffffffffffff021916908373ffffffffffffffffffffffffffffffffffffffff1602179055508173ffffffffffffffffffffffffffffffffffffffff168173ffffffffffffffffffffffffffffffffffffffff167f8be0079c531659141344cd1fd0a4f28419497f9722a3daafe3b4186f6b6457e060405160405180910390a35050565b6000611ab8826000611ac7565b9050919050565b600033905090565b600081471015611b105747826040517fcf479181000000000000000000000000000000000000000000000000000000008152600401611b07929190612982565b60405180910390fd5b763d602d80600a3d3981f3363d3d373d3d3d363d730000008360601b60e81c176000526e5af43d82803e903d91602b57fd5bf38360781b176020526037600983f09050600073ffffffffffffffffffffffffffffffffffffffff168173ffffffffffffffffffffffffffffffffffffffff1603611bb9576040517fb06ebf3d00000000000000000000000000000000000000000000000000000000815260040160405180910390fd5b92915050565b6000604051905090565b600080fd5b600073ffffffffffffffffffffffffffffffffffffffff82169050919050565b6000611bf982611bce565b9050919050565b611c0981611bee565b8114611c1457600080fd5b50565b600081359050611c2681611c00565b92915050565b6000819050919050565b611c3f81611c2c565b8114611c4a57600080fd5b50565b600081359050611c5c81611c36565b92915050565b60008060408385031215611c7957611c78611bc9565b5b6000611c8785828601611c17565b9250506020611c9885828601611c4d565b9150509250929050565b611cab81611bee565b82525050565b6000602082019050611cc66000830184611ca2565b92915050565b60008060408385031215611ce357611ce2611bc9565b5b6000611cf185828601611c4d565b9250506020611d0285828601611c17565b9150509250929050565b600060208284031215611d2257611d21611bc9565b5b6000611d3084828501611c4d565b91505092915050565b60008060408385031215611d5057611d4f611bc9565b5b6000611d5e85828601611c17565b9250506020611d6f85828601611c17565b9150509250929050565b600060208284031215611d8f57611d8e611bc9565b5b6000611d9d84828501611c17565b91505092915050565b60008115159050919050565b611dbb81611da6565b82525050565b6000604082019050611dd66000830185611ca2565b611de36020830184611db2565b9392505050565b600081519050919050565b600082825260208201905092915050565b6000819050602082019050919050565b611e1f81611bee565b82525050565b6000611e318383611e16565b60208301905092915050565b6000602082019050919050565b6000611e5582611dea565b611e5f8185611df5565b9350611e6a83611e06565b8060005b83811015611e9b578151611e828882611e25565b9750611e8d83611e3d565b925050600181019050611e6e565b5085935050505092915050565b60006020820190508181036000830152611ec28184611e4a565b905092915050565b6000819050919050565b6000611eef611eea611ee584611bce565b611eca565b611bce565b9050919050565b6000611f0182611ed4565b9050919050565b6000611f1382611ef6565b9050919050565b611f2381611f08565b82525050565b6000602082019050611f3e6000830184611f1a565b92915050565b600081519050919050565b600082825260208201905092915050565b6000819050602082019050919050565b611f7981611da6565b82525050565b604082016000820151611f956000850182611e16565b506020820151611fa86020850182611f70565b50505050565b6000611fba8383611f7f565b60408301905092915050565b6000602082019050919050565b6000611fde82611f44565b611fe88185611f4f565b9350611ff383611f60565b8060005b8381101561202457815161200b8882611fae565b975061201683611fc6565b925050600181019050611ff7565b5085935050505092915050565b6000602082019050818103600083015261204b8184611fd3565b905092915050565b61205c81611da6565b811461206757600080fd5b50565b60008151905061207981612053565b92915050565b60006020828403121561209557612094611bc9565b5b60006120a38482850161206a565b91505092915050565b600082825260208201905092915050565b7f4e6f74206f776e6572206f7220636f73744d616e6167657220617574686f726960008201527f7a65640000000000000000000000000000000000000000000000000000000000602082015250565b60006121196023836120ac565b9150612124826120bd565b604082019050919050565b600060208201905081810360008301526121488161210c565b9050919050565b7f496e76616c696420696e64657800000000000000000000000000000000000000600082015250565b6000612185600d836120ac565b91506121908261214f565b602082019050919050565b600060208201905081810360008301526121b481612178565b9050919050565b7f4e487b7100000000000000000000000000000000000000000000000000000000600052603260045260246000fd5b7f496d706c656d656e746174696f6e206973206c6f636b65640000000000000000600082015250565b60006122206018836120ac565b915061222b826121ea565b602082019050919050565b6000602082019050818103600083015261224f81612213565b9050919050565b7f496e76616c696420616464726573730000000000000000000000000000000000600082015250565b600061228c600f836120ac565b915061229782612256565b602082019050919050565b600060208201905081810360008301526122bb8161227f565b9050919050565b6122cb81611c2c565b82525050565b60006060820190506122e660008301866122c2565b6122f36020830185611ca2565b6123006040830184611ca2565b949350505050565b7f43616e6e6f742064656c65746520696d6d757461626c6520696d706c656d656e60008201527f746174696f6e0000000000000000000000000000000000000000000000000000602082015250565b60006123646026836120ac565b915061236f82612308565b604082019050919050565b6000602082019050818103600083015261239381612357565b9050919050565b7f496e76616c696420757365720000000000000000000000000000000000000000600082015250565b60006123d0600c836120ac565b91506123db8261239a565b602082019050919050565b600060208201905081810360008301526123ff816123c3565b9050919050565b7f496e76616c6964207661756c7400000000000000000000000000000000000000600082015250565b600061243c600d836120ac565b915061244782612406565b602082019050919050565b6000602082019050818103600083015261246b8161242f565b9050919050565b60008151905061248181611c00565b92915050565b60006020828403121561249d5761249c611bc9565b5b60006124ab84828501612472565b91505092915050565b7f4e6f7420436f73744d616e616765722773206f776e6572000000000000000000600082015250565b60006124ea6017836120ac565b91506124f5826124b4565b602082019050919050565b60006020820190508181036000830152612519816124dd565b9050919050565b7f496e76616c6964206e6577206f776e6572000000000000000000000000000000600082015250565b60006125566011836120ac565b915061256182612520565b602082019050919050565b6000602082019050818103600083015261258581612549565b9050919050565b7f416c6c207661756c747320616c72656164792065786973740000000000000000600082015250565b60006125c26018836120ac565b91506125cd8261258c565b602082019050919050565b600060208201905081810360008301526125f1816125b5565b9050919050565b7f436f73744d616e61676572206e6f742073657400000000000000000000000000600082015250565b600061262e6013836120ac565b9150612639826125f8565b602082019050919050565b6000602082019050818103600083015261265d81612621565b9050919050565b60008151905061267381611c36565b92915050565b60006020828403121561268f5761268e611bc9565b5b600061269d84828501612664565b91505092915050565b7f496e636f7272656374207661756c74206372656174696f6e20636f7374000000600082015250565b60006126dc601d836120ac565b91506126e7826126a6565b602082019050919050565b6000602082019050818103600083015261270b816126cf565b9050919050565b60006040820190506127276000830185611ca2565b6127346020830184611ca2565b9392505050565b60008160e01c9050919050565b600060033d11156127675760046000803e61276460005161273b565b90505b90565b6000601f19601f8301169050919050565b7f4e487b7100000000000000000000000000000000000000000000000000000000600052604160045260246000fd5b6127b38261276a565b810181811067ffffffffffffffff821117156127d2576127d161277b565b5b80604052505050565b600060443d10612868576127ed611bbf565b60043d036004823e80513d602482011167ffffffffffffffff82111715612815575050612868565b808201805167ffffffffffffffff8111156128335750505050612868565b80602083010160043d038501811115612850575050505050612868565b61285f826020018501866127aa565b82955050505050505b90565b600081519050919050565b60005b83811015612894578082015181840152602081019050612879565b60008484015250505050565b60006128ab8261286b565b6128b581856120ac565b93506128c5818560208601612876565b6128ce8161276a565b840191505092915050565b600060208201905081810360008301526128f381846128a0565b905092915050565b7f556e6b6e6f776e206572726f7200000000000000000000000000000000000000600082015250565b6000612931600d836120ac565b915061293c826128fb565b602082019050919050565b6000602082019050818103600083015261296081612924565b9050919050565b600060208201905061297c60008301846122c2565b92915050565b600060408201905061299760008301856122c2565b6129a460208301846122c2565b939250505056fea26469706673582212202116273ac61dec44b56fb5d28f5ef545578bcaa11f65be006b70374be2c51a2064736f6c634300081c0033",
  "linkReferences": {},
  "deployedLinkReferences": {}
}