{
  "_format": "hh-sol-artifact-1",
  "contractName": "VaultContract4",
  "sourceName": "contracts/VaultContract4.sol",
  "abi": [
    {
      "inputs": [],
      "name": "InvalidInitialization",
      "type": "error"
    },
    {
      "inputs": [],
      "name": "NotInitializing",
      "type": "error"
    },
    {
      "inputs": [
        {
          "internalType": "address",
          "name": "owner",
          "type": "address"
        }
      ],
      "name": "OwnableInvalidOwner",
      "type": "error"
    },
    {
      "inputs": [
        {
          "internalType": "address",
          "name": "account",
          "type": "address"
        }
      ],
      "name": "OwnableUnauthorizedAccount",
      "type": "error"
    },
    {
      "anonymous": false,
      "inputs": [
        {
          "indexed": false,
          "internalType": "uint64",
          "name": "version",
          "type": "uint64"
        }
      ],
      "name": "Initialized",
      "type": "event"
    },
    {
      "anonymous": false,
      "inputs": [
        {
          "indexed": true,
          "internalType": "address",
          "name": "previousOwner",
          "type": "address"
        },
        {
          "indexed": true,
          "internalType": "address",
          "name": "newOwner",
          "type": "address"
        }
      ],
      "name": "OwnershipTransferred",
      "type": "event"
    },
    {
      "stateMutability": "payable",
      "type": "fallback"
    },
    {
      "inputs": [],
      "name": "costManager",
      "outputs": [
        {
          "internalType": "contract CostManager",
          "name": "",
          "type": "address"
        }
      ],
      "stateMutability": "view",
      "type": "function"
    },
    {
      "inputs": [
        {
          "internalType": "uint256[]",
          "name": "ids",
          "type": "uint256[]"
        }
      ],
      "name": "deleteAssets",
      "outputs": [],
      "stateMutability": "nonpayable",
      "type": "function"
    },
    {
      "inputs": [
        {
          "internalType": "uint256[]",
          "name": "ids",
          "type": "uint256[]"
        }
      ],
      "name": "deleteContacts",
      "outputs": [],
      "stateMutability": "nonpayable",
      "type": "function"
    },
    {
      "inputs": [
        {
          "internalType": "uint256[]",
          "name": "ids",
          "type": "uint256[]"
        }
      ],
      "name": "deleteSubscriptions",
      "outputs": [],
      "stateMutability": "nonpayable",
      "type": "function"
    },
    {
      "inputs": [
        {
          "internalType": "address",
          "name": "_owner",
          "type": "address"
        },
        {
          "internalType": "address",
          "name": "_costManager",
          "type": "address"
        }
      ],
      "name": "initialize",
      "outputs": [],
      "stateMutability": "payable",
      "type": "function"
    },
    {
      "inputs": [],
      "name": "owner",
      "outputs": [
        {
          "internalType": "address",
          "name": "",
          "type": "address"
        }
      ],
      "stateMutability": "view",
      "type": "function"
    },
    {
      "inputs": [],
      "name": "readAssets",
      "outputs": [
        {
          "components": [
            {
              "internalType": "uint256",
              "name": "id",
              "type": "uint256"
            },
            {
              "internalType": "string",
              "name": "assetType",
              "type": "string"
            },
            {
              "internalType": "string",
              "name": "ownershipId",
              "type": "string"
            },
            {
              "internalType": "string",
              "name": "valueEstimate",
              "type": "string"
            },
            {
              "internalType": "string",
              "name": "linkedTo",
              "type": "string"
            },
            {
              "internalType": "string",
              "name": "remarks",
              "type": "string"
            },
            {
              "internalType": "uint256",
              "name": "timestamp",
              "type": "uint256"
            }
          ],
          "internalType": "struct VaultContract4.Asset[]",
          "name": "",
          "type": "tuple[]"
        }
      ],
      "stateMutability": "view",
      "type": "function"
    },
    {
      "inputs": [],
      "name": "readContacts",
      "outputs": [
        {
          "components": [
            {
              "internalType": "uint256",
              "name": "id",
              "type": "uint256"
            },
            {
              "internalType": "string",
              "name": "name",
              "type": "string"
            },
            {
              "internalType": "string",
              "name": "relation",
              "type": "string"
            },
            {
              "internalType": "string",
              "name": "email",
              "type": "string"
            },
            {
              "internalType": "string",
              "name": "phone",
              "type": "string"
            },
            {
              "internalType": "string",
              "name": "remarks",
              "type": "string"
            },
            {
              "internalType": "uint256",
              "name": "timestamp",
              "type": "uint256"
            }
          ],
          "internalType": "struct VaultContract4.Contact[]",
          "name": "",
          "type": "tuple[]"
        }
      ],
      "stateMutability": "view",
      "type": "function"
    },
    {
      "inputs": [],
      "name": "readSubscriptions",
      "outputs": [
        {
          "components": [
            {
              "internalType": "uint256",
              "name": "id",
              "type": "uint256"
            },
            {
              "internalType": "string",
              "name": "serviceName",
              "type": "string"
            },
            {
              "internalType": "string",
              "name": "billingAccount",
              "type": "string"
            },
            {
              "internalType": "string",
              "name": "frequency",
              "type": "string"
            },
            {
              "internalType": "string",
              "name": "linkedTo",
              "type": "string"
            },
            {
              "internalType": "string",
              "name": "remarks",
              "type": "string"
            },
            {
              "internalType": "uint256",
              "name": "timestamp",
              "type": "uint256"
            }
          ],
          "internalType": "struct VaultContract4.Subscription[]",
          "name": "",
          "type": "tuple[]"
        }
      ],
      "stateMutability": "view",
      "type": "function"
    },
    {
      "inputs": [],
      "name": "renounceOwnership",
      "outputs": [],
      "stateMutability": "nonpayable",
      "type": "function"
    },
    {
      "inputs": [
        {
          "internalType": "address",
          "name": "newOwner",
          "type": "address"
        }
      ],
      "name": "transferOwnership",
      "outputs": [],
      "stateMutability": "nonpayable",
      "type": "function"
    },
    {
      "inputs": [
        {
          "components": [
            {
              "internalType": "uint256",
              "name": "id",
              "type": "uint256"
            },
            {
              "internalType": "string",
              "name": "assetType",
              "type": "string"
            },
            {
              "internalType": "string",
              "name": "ownershipId",
              "type": "string"
            },
            {
              "internalType": "string",
              "name": "valueEstimate",
              "type": "string"
            },
            {
              "internalType": "string",
              "name": "linkedTo",
              "type": "string"
            },
            {
              "internalType": "string",
              "name": "remarks",
              "type": "string"
            }
          ],
          "internalType": "struct VaultContract4.AssetUpsert[]",
          "name": "data",
          "type": "tuple[]"
        }
      ],
      "name": "upsertAssets",
      "outputs": [],
      "stateMutability": "payable",
      "type": "function"
    },
    {
      "inputs": [
        {
          "components": [
            {
              "internalType": "uint256",
              "name": "id",
              "type": "uint256"
            },
            {
              "internalType": "string",
              "name": "name",
              "type": "string"
            },
            {
              "internalType": "string",
              "name": "relation",
              "type": "string"
            },
            {
              "internalType": "string",
              "name": "email",
              "type": "string"
            },
            {
              "internalType": "string",
              "name": "phone",
              "type": "string"
            },
            {
              "internalType": "string",
              "name": "remarks",
              "type": "string"
            }
          ],
          "internalType": "struct VaultContract4.ContactUpsert[]",
          "name": "data",
          "type": "tuple[]"
        }
      ],
      "name": "upsertContacts",
      "outputs": [],
      "stateMutability": "payable",
      "type": "function"
    },
    {
      "inputs": [
        {
          "components": [
            {
              "internalType": "uint256",
              "name": "id",
              "type": "uint256"
            },
            {
              "internalType": "string",
              "name": "serviceName",
              "type": "string"
            },
            {
              "internalType": "string",
              "name": "billingAccount",
              "type": "string"
            },
            {
              "internalType": "string",
              "name": "frequency",
              "type": "string"
            },
            {
              "internalType": "string",
              "name": "linkedTo",
              "type": "string"
            },
            {
              "internalType": "string",
              "name": "remarks",
              "type": "string"
            }
          ],
          "internalType": "struct VaultContract4.SubscriptionUpsert[]",
          "name": "data",
          "type": "tuple[]"
        }
      ],
      "name": "upsertSubscriptions",
      "outputs": [],
      "stateMutability": "payable",
      "type": "function"
    },
    {
      "stateMutability": "payable",
      "type": "receive"
    }
  ],
  "bytecode": "0x60806040526001805560016004556001600755348015601d57600080fd5b506149c28061002d6000396000f3fe6080604052600436106100e15760003560e01c80638da5cb5b1161007f578063cecd949a11610059578063cecd949a1461023e578063debd4a1c14610269578063f2fde38b14610292578063fdd53678146102bb576100e2565b80638da5cb5b146101cc57806394d822f2146101f7578063bfcb6aa214610213576100e2565b806369b191ec116100bb57806369b191ec146101455780636ea866951461016e578063715018a614610199578063820d591e146101b0576100e2565b806319dab1e5146100e4578063347a2f0a14610100578063485cc95514610129576100e2565b5b005b6100fe60048036038101906100f991906134fb565b6102e6565b005b34801561010c57600080fd5b506101276004803603810190610122919061359e565b610baf565b005b610143600480360381019061013e9190613649565b610dfd565b005b34801561015157600080fd5b5061016c6004803603810190610167919061359e565b611045565b005b34801561017a57600080fd5b50610183611293565b60405161019091906138ac565b60405180910390f35b3480156101a557600080fd5b506101ae6115e8565b005b6101ca60048036038101906101c59190613924565b6115fc565b005b3480156101d857600080fd5b506101e1611ec5565b6040516101ee9190613980565b60405180910390f35b610211600480360381019061020c91906139f1565b611efd565b005b34801561021f57600080fd5b506102286127c6565b6040516102359190613bb8565b60405180910390f35b34801561024a57600080fd5b50610253612b1b565b6040516102609190613c39565b60405180910390f35b34801561027557600080fd5b50610290600480360381019061028b919061359e565b612b3f565b005b34801561029e57600080fd5b506102b960048036038101906102b49190613c54565b612d8d565b005b3480156102c757600080fd5b506102d0612e13565b6040516102dd9190613dfb565b60405180910390f35b6102ee613168565b60008060009054906101000a900473ffffffffffffffffffffffffffffffffffffffff1673ffffffffffffffffffffffffffffffffffffffff1663f9c59d076040518163ffffffff1660e01b8152600401602060405180830381865afa15801561035c573d6000803e3d6000fd5b505050506040513d601f19601f820116820180604052508101906103809190613e49565b90508034146103c4576040517f08c379a00000000000000000000000000000000000000000000000000000000081526004016103bb90613ed3565b60405180910390fd5b60008060009054906101000a900473ffffffffffffffffffffffffffffffffffffffff1673ffffffffffffffffffffffffffffffffffffffff163460405161040b90613f24565b60006040518083038185875af1925050503d8060008114610448576040519150601f19603f3d011682016040523d82523d6000602084013e61044d565b606091505b5050905080610491576040517f08c379a000000000000000000000000000000000000000000000000000000000815260040161048890613f85565b60405180910390fd5b60005b84849050811015610ba85760008585838181106104b4576104b3613fa5565b5b90506020028101906104c69190613fe3565b60000135036108495760056040518060e0016040528060045481526020018787858181106104f7576104f6613fa5565b5b90506020028101906105099190613fe3565b8060200190610518919061400b565b8080601f016020809104026020016040519081016040528093929190818152602001838380828437600081840152601f19601f82011690508083019250505050505050815260200187878581811061057357610572613fa5565b5b90506020028101906105859190613fe3565b8060400190610594919061400b565b8080601f016020809104026020016040519081016040528093929190818152602001838380828437600081840152601f19601f8201169050808301925050505050505081526020018787858181106105ef576105ee613fa5565b5b90506020028101906106019190613fe3565b8060600190610610919061400b565b8080601f016020809104026020016040519081016040528093929190818152602001838380828437600081840152601f19601f82011690508083019250505050505050815260200187878581811061066b5761066a613fa5565b5b905060200281019061067d9190613fe3565b806080019061068c919061400b565b8080601f016020809104026020016040519081016040528093929190818152602001838380828437600081840152601f19601f8201169050808301925050505050505081526020018787858181106106e7576106e6613fa5565b5b90506020028101906106f99190613fe3565b8060a00190610708919061400b565b8080601f016020809104026020016040519081016040528093929190818152602001838380828437600081840152601f19601f82011690508083019250505050505050815260200142815250908060018154018082558091505060019003906000526020600020906007020160009091909190915060008201518160000155602082015181600101908161079c919061429f565b5060408201518160020190816107b2919061429f565b5060608201518160030190816107c8919061429f565b5060808201518160040190816107de919061429f565b5060a08201518160050190816107f4919061429f565b5060c082015181600601555050600160058054905061081391906143a0565b600660006004548152602001908152602001600020819055506004600081548092919061083f906143d4565b9190505550610b9b565b60006006600087878581811061086257610861613fa5565b5b90506020028101906108749190613fe3565b60000135815260200190815260200160002054905060058054905081106108d0576040517f08c379a00000000000000000000000000000000000000000000000000000000081526004016108c790614468565b60405180910390fd5b6000600582815481106108e6576108e5613fa5565b5b90600052602060002090600702019050600087878581811061090b5761090a613fa5565b5b905060200281019061091d9190613fe3565b806020019061092c919061400b565b9050111561097b5786868481811061094757610946613fa5565b5b90506020028101906109599190613fe3565b8060200190610968919061400b565b826001019182610979929190614493565b505b60008787858181106109905761098f613fa5565b5b90506020028101906109a29190613fe3565b80604001906109b1919061400b565b90501115610a00578686848181106109cc576109cb613fa5565b5b90506020028101906109de9190613fe3565b80604001906109ed919061400b565b8260020191826109fe929190614493565b505b6000878785818110610a1557610a14613fa5565b5b9050602002810190610a279190613fe3565b8060600190610a36919061400b565b90501115610a8557868684818110610a5157610a50613fa5565b5b9050602002810190610a639190613fe3565b8060600190610a72919061400b565b826003019182610a83929190614493565b505b6000878785818110610a9a57610a99613fa5565b5b9050602002810190610aac9190613fe3565b8060800190610abb919061400b565b90501115610b0a57868684818110610ad657610ad5613fa5565b5b9050602002810190610ae89190613fe3565b8060800190610af7919061400b565b826004019182610b08929190614493565b505b6000878785818110610b1f57610b1e613fa5565b5b9050602002810190610b319190613fe3565b8060a00190610b40919061400b565b90501115610b8f57868684818110610b5b57610b5a613fa5565b5b9050602002810190610b6d9190613fe3565b8060a00190610b7c919061400b565b826005019182610b8d929190614493565b505b42816006018190555050505b8080600101915050610494565b5050505050565b610bb7613168565b60005b82829050811015610df8576000838383818110610bda57610bd9613fa5565b5b9050602002013590506000600360008381526020019081526020016000205490506002805490508110610c42576040517f08c379a0000000000000000000000000000000000000000000000000000000008152600401610c39906145af565b60405180910390fd5b60006001600280549050610c5691906143a0565b9050808214610d4657600060028281548110610c7557610c74613fa5565b5b906000526020600020906007020190508060028481548110610c9a57610c99613fa5565b5b90600052602060002090600702016000820154816000015560018201816001019081610cc691906145e5565b5060028201816002019081610cdb91906145e5565b5060038201816003019081610cf091906145e5565b5060048201816004019081610d0591906145e5565b5060058201816005019081610d1a91906145e5565b506006820154816006015590505082600360008360000154815260200190815260200160002081905550505b6002805480610d5857610d576146cd565b5b6001900381819060005260206000209060070201600080820160009055600182016000610d85919061342f565b600282016000610d95919061342f565b600382016000610da5919061342f565b600482016000610db5919061342f565b600582016000610dc5919061342f565b60068201600090555050905560036000848152602001908152602001600020600090555050508080600101915050610bba565b505050565b6000610e076131ef565b905060008160000160089054906101000a900460ff1615905060008260000160009054906101000a900467ffffffffffffffff1690506000808267ffffffffffffffff16148015610e555750825b9050600060018367ffffffffffffffff16148015610e8a575060003073ffffffffffffffffffffffffffffffffffffffff163b145b905081158015610e98575080155b15610ecf576040517ff92ee8a900000000000000000000000000000000000000000000000000000000815260040160405180910390fd5b60018560000160006101000a81548167ffffffffffffffff021916908367ffffffffffffffff1602179055508315610f1f5760018560000160086101000a81548160ff0219169083151502179055505b610f2887613203565b610f3187613217565b600073ffffffffffffffffffffffffffffffffffffffff168673ffffffffffffffffffffffffffffffffffffffff1603610fa0576040517f08c379a0000000000000000000000000000000000000000000000000000000008152600401610f9790614748565b60405180910390fd5b856000806101000a81548173ffffffffffffffffffffffffffffffffffffffff021916908373ffffffffffffffffffffffffffffffffffffffff160217905550831561103c5760008560000160086101000a81548160ff0219169083151502179055507fc7f505b2f371ae2175ee4913f4499e1f2633a7b5936321eed1cdaeb6115181d2600160405161103391906147b7565b60405180910390a15b50505050505050565b61104d613168565b60005b8282905081101561128e5760008383838181106110705761106f613fa5565b5b90506020020135905060006009600083815260200190815260200160002054905060088054905081106110d8576040517f08c379a00000000000000000000000000000000000000000000000000000000081526004016110cf9061481e565b60405180910390fd5b600060016008805490506110ec91906143a0565b90508082146111dc5760006008828154811061110b5761110a613fa5565b5b9060005260206000209060070201905080600884815481106111305761112f613fa5565b5b9060005260206000209060070201600082015481600001556001820181600101908161115c91906145e5565b506002820181600201908161117191906145e5565b506003820181600301908161118691906145e5565b506004820181600401908161119b91906145e5565b50600582018160050190816111b091906145e5565b506006820154816006015590505082600960008360000154815260200190815260200160002081905550505b60088054806111ee576111ed6146cd565b5b600190038181906000526020600020906007020160008082016000905560018201600061121b919061342f565b60028201600061122b919061342f565b60038201600061123b919061342f565b60048201600061124b919061342f565b60058201600061125b919061342f565b60068201600090555050905560096000848152602001908152602001600020600090555050508080600101915050611050565b505050565b606061129d613168565b6005805480602002602001604051908101604052809291908181526020016000905b828210156115df57838290600052602060002090600702016040518060e0016040529081600082015481526020016001820180546112fc906140cc565b80601f0160208091040260200160405190810160405280929190818152602001828054611328906140cc565b80156113755780601f1061134a57610100808354040283529160200191611375565b820191906000526020600020905b81548152906001019060200180831161135857829003601f168201915b5050505050815260200160028201805461138e906140cc565b80601f01602080910402602001604051908101604052809291908181526020018280546113ba906140cc565b80156114075780601f106113dc57610100808354040283529160200191611407565b820191906000526020600020905b8154815290600101906020018083116113ea57829003601f168201915b50505050508152602001600382018054611420906140cc565b80601f016020809104026020016040519081016040528092919081815260200182805461144c906140cc565b80156114995780601f1061146e57610100808354040283529160200191611499565b820191906000526020600020905b81548152906001019060200180831161147c57829003601f168201915b505050505081526020016004820180546114b2906140cc565b80601f01602080910402602001604051908101604052809291908181526020018280546114de906140cc565b801561152b5780601f106115005761010080835404028352916020019161152b565b820191906000526020600020905b81548152906001019060200180831161150e57829003601f168201915b50505050508152602001600582018054611544906140cc565b80601f0160208091040260200160405190810160405280929190818152602001828054611570906140cc565b80156115bd5780601f10611592576101008083540402835291602001916115bd565b820191906000526020600020905b8154815290600101906020018083116115a057829003601f168201915b50505050508152602001600682015481525050815260200190600101906112bf565b50505050905090565b6115f0613168565b6115fa6000613217565b565b611604613168565b60008060009054906101000a900473ffffffffffffffffffffffffffffffffffffffff1673ffffffffffffffffffffffffffffffffffffffff1663f9c59d076040518163ffffffff1660e01b8152600401602060405180830381865afa158015611672573d6000803e3d6000fd5b505050506040513d601f19601f820116820180604052508101906116969190613e49565b90508034146116da576040517f08c379a00000000000000000000000000000000000000000000000000000000081526004016116d1906148b0565b60405180910390fd5b60008060009054906101000a900473ffffffffffffffffffffffffffffffffffffffff1673ffffffffffffffffffffffffffffffffffffffff163460405161172190613f24565b60006040518083038185875af1925050503d806000811461175e576040519150601f19603f3d011682016040523d82523d6000602084013e611763565b606091505b50509050806117a7576040517f08c379a000000000000000000000000000000000000000000000000000000000815260040161179e90613f85565b60405180910390fd5b60005b84849050811015611ebe5760008585838181106117ca576117c9613fa5565b5b90506020028101906117dc91906148d0565b6000013503611b5f5760086040518060e00160405280600754815260200187878581811061180d5761180c613fa5565b5b905060200281019061181f91906148d0565b806020019061182e919061400b565b8080601f016020809104026020016040519081016040528093929190818152602001838380828437600081840152601f19601f82011690508083019250505050505050815260200187878581811061188957611888613fa5565b5b905060200281019061189b91906148d0565b80604001906118aa919061400b565b8080601f016020809104026020016040519081016040528093929190818152602001838380828437600081840152601f19601f82011690508083019250505050505050815260200187878581811061190557611904613fa5565b5b905060200281019061191791906148d0565b8060600190611926919061400b565b8080601f016020809104026020016040519081016040528093929190818152602001838380828437600081840152601f19601f82011690508083019250505050505050815260200187878581811061198157611980613fa5565b5b905060200281019061199391906148d0565b80608001906119a2919061400b565b8080601f016020809104026020016040519081016040528093929190818152602001838380828437600081840152601f19601f8201169050808301925050505050505081526020018787858181106119fd576119fc613fa5565b5b9050602002810190611a0f91906148d0565b8060a00190611a1e919061400b565b8080601f016020809104026020016040519081016040528093929190818152602001838380828437600081840152601f19601f820116905080830192505050505050508152602001428152509080600181540180825580915050600190039060005260206000209060070201600090919091909150600082015181600001556020820151816001019081611ab2919061429f565b506040820151816002019081611ac8919061429f565b506060820151816003019081611ade919061429f565b506080820151816004019081611af4919061429f565b5060a0820151816005019081611b0a919061429f565b5060c0820151816006015550506001600880549050611b2991906143a0565b6009600060075481526020019081526020016000208190555060076000815480929190611b55906143d4565b9190505550611eb1565b600060096000878785818110611b7857611b77613fa5565b5b9050602002810190611b8a91906148d0565b6000013581526020019081526020016000205490506008805490508110611be6576040517f08c379a0000000000000000000000000000000000000000000000000000000008152600401611bdd9061481e565b60405180910390fd5b600060088281548110611bfc57611bfb613fa5565b5b906000526020600020906007020190506000878785818110611c2157611c20613fa5565b5b9050602002810190611c3391906148d0565b8060200190611c42919061400b565b90501115611c9157868684818110611c5d57611c5c613fa5565b5b9050602002810190611c6f91906148d0565b8060200190611c7e919061400b565b826001019182611c8f929190614493565b505b6000878785818110611ca657611ca5613fa5565b5b9050602002810190611cb891906148d0565b8060400190611cc7919061400b565b90501115611d1657868684818110611ce257611ce1613fa5565b5b9050602002810190611cf491906148d0565b8060400190611d03919061400b565b826002019182611d14929190614493565b505b6000878785818110611d2b57611d2a613fa5565b5b9050602002810190611d3d91906148d0565b8060600190611d4c919061400b565b90501115611d9b57868684818110611d6757611d66613fa5565b5b9050602002810190611d7991906148d0565b8060600190611d88919061400b565b826003019182611d99929190614493565b505b6000878785818110611db057611daf613fa5565b5b9050602002810190611dc291906148d0565b8060800190611dd1919061400b565b90501115611e2057868684818110611dec57611deb613fa5565b5b9050602002810190611dfe91906148d0565b8060800190611e0d919061400b565b826004019182611e1e929190614493565b505b6000878785818110611e3557611e34613fa5565b5b9050602002810190611e4791906148d0565b8060a00190611e56919061400b565b90501115611ea557868684818110611e7157611e70613fa5565b5b9050602002810190611e8391906148d0565b8060a00190611e92919061400b565b826005019182611ea3929190614493565b505b42816006018190555050505b80806001019150506117aa565b5050505050565b600080611ed06132ee565b90508060000160009054906101000a900473ffffffffffffffffffffffffffffffffffffffff1691505090565b611f05613168565b60008060009054906101000a900473ffffffffffffffffffffffffffffffffffffffff1673ffffffffffffffffffffffffffffffffffffffff1663f9c59d076040518163ffffffff1660e01b8152600401602060405180830381865afa158015611f73573d6000803e3d6000fd5b505050506040513d601f19601f82011682018060405250810190611f979190613e49565b9050803414611fdb576040517f08c379a0000000000000000000000000000000000000000000000000000000008152600401611fd290614944565b60405180910390fd5b60008060009054906101000a900473ffffffffffffffffffffffffffffffffffffffff1673ffffffffffffffffffffffffffffffffffffffff163460405161202290613f24565b60006040518083038185875af1925050503d806000811461205f576040519150601f19603f3d011682016040523d82523d6000602084013e612064565b606091505b50509050806120a8576040517f08c379a000000000000000000000000000000000000000000000000000000000815260040161209f90613f85565b60405180910390fd5b60005b848490508110156127bf5760008585838181106120cb576120ca613fa5565b5b90506020028101906120dd9190614964565b60000135036124605760026040518060e00160405280600154815260200187878581811061210e5761210d613fa5565b5b90506020028101906121209190614964565b806020019061212f919061400b565b8080601f016020809104026020016040519081016040528093929190818152602001838380828437600081840152601f19601f82011690508083019250505050505050815260200187878581811061218a57612189613fa5565b5b905060200281019061219c9190614964565b80604001906121ab919061400b565b8080601f016020809104026020016040519081016040528093929190818152602001838380828437600081840152601f19601f82011690508083019250505050505050815260200187878581811061220657612205613fa5565b5b90506020028101906122189190614964565b8060600190612227919061400b565b8080601f016020809104026020016040519081016040528093929190818152602001838380828437600081840152601f19601f82011690508083019250505050505050815260200187878581811061228257612281613fa5565b5b90506020028101906122949190614964565b80608001906122a3919061400b565b8080601f016020809104026020016040519081016040528093929190818152602001838380828437600081840152601f19601f8201169050808301925050505050505081526020018787858181106122fe576122fd613fa5565b5b90506020028101906123109190614964565b8060a0019061231f919061400b565b8080601f016020809104026020016040519081016040528093929190818152602001838380828437600081840152601f19601f8201169050808301925050505050505081526020014281525090806001815401808255809150506001900390600052602060002090600702016000909190919091506000820151816000015560208201518160010190816123b3919061429f565b5060408201518160020190816123c9919061429f565b5060608201518160030190816123df919061429f565b5060808201518160040190816123f5919061429f565b5060a082015181600501908161240b919061429f565b5060c082015181600601555050600160028054905061242a91906143a0565b6003600060015481526020019081526020016000208190555060016000815480929190612456906143d4565b91905055506127b2565b60006003600087878581811061247957612478613fa5565b5b905060200281019061248b9190614964565b60000135815260200190815260200160002054905060028054905081106124e7576040517f08c379a00000000000000000000000000000000000000000000000000000000081526004016124de906145af565b60405180910390fd5b6000600282815481106124fd576124fc613fa5565b5b90600052602060002090600702019050600087878581811061252257612521613fa5565b5b90506020028101906125349190614964565b8060200190612543919061400b565b905011156125925786868481811061255e5761255d613fa5565b5b90506020028101906125709190614964565b806020019061257f919061400b565b826001019182612590929190614493565b505b60008787858181106125a7576125a6613fa5565b5b90506020028101906125b99190614964565b80604001906125c8919061400b565b90501115612617578686848181106125e3576125e2613fa5565b5b90506020028101906125f59190614964565b8060400190612604919061400b565b826002019182612615929190614493565b505b600087878581811061262c5761262b613fa5565b5b905060200281019061263e9190614964565b806060019061264d919061400b565b9050111561269c5786868481811061266857612667613fa5565b5b905060200281019061267a9190614964565b8060600190612689919061400b565b82600301918261269a929190614493565b505b60008787858181106126b1576126b0613fa5565b5b90506020028101906126c39190614964565b80608001906126d2919061400b565b90501115612721578686848181106126ed576126ec613fa5565b5b90506020028101906126ff9190614964565b806080019061270e919061400b565b82600401918261271f929190614493565b505b600087878581811061273657612735613fa5565b5b90506020028101906127489190614964565b8060a00190612757919061400b565b905011156127a65786868481811061277257612771613fa5565b5b90506020028101906127849190614964565b8060a00190612793919061400b565b8260050191826127a4929190614493565b505b42816006018190555050505b80806001019150506120ab565b5050505050565b60606127d0613168565b6008805480602002602001604051908101604052809291908181526020016000905b82821015612b1257838290600052602060002090600702016040518060e00160405290816000820154815260200160018201805461282f906140cc565b80601f016020809104026020016040519081016040528092919081815260200182805461285b906140cc565b80156128a85780601f1061287d576101008083540402835291602001916128a8565b820191906000526020600020905b81548152906001019060200180831161288b57829003601f168201915b505050505081526020016002820180546128c1906140cc565b80601f01602080910402602001604051908101604052809291908181526020018280546128ed906140cc565b801561293a5780601f1061290f5761010080835404028352916020019161293a565b820191906000526020600020905b81548152906001019060200180831161291d57829003601f168201915b50505050508152602001600382018054612953906140cc565b80601f016020809104026020016040519081016040528092919081815260200182805461297f906140cc565b80156129cc5780601f106129a1576101008083540402835291602001916129cc565b820191906000526020600020905b8154815290600101906020018083116129af57829003601f168201915b505050505081526020016004820180546129e5906140cc565b80601f0160208091040260200160405190810160405280929190818152602001828054612a11906140cc565b8015612a5e5780601f10612a3357610100808354040283529160200191612a5e565b820191906000526020600020905b815481529060010190602001808311612a4157829003601f168201915b50505050508152602001600582018054612a77906140cc565b80601f0160208091040260200160405190810160405280929190818152602001828054612aa3906140cc565b8015612af05780601f10612ac557610100808354040283529160200191612af0565b820191906000526020600020905b815481529060010190602001808311612ad357829003601f168201915b50505050508152602001600682015481525050815260200190600101906127f2565b50505050905090565b60008054906101000a900473ffffffffffffffffffffffffffffffffffffffff1681565b612b47613168565b60005b82829050811015612d88576000838383818110612b6a57612b69613fa5565b5b9050602002013590506000600660008381526020019081526020016000205490506005805490508110612bd2576040517f08c379a0000000000000000000000000000000000000000000000000000000008152600401612bc990614468565b60405180910390fd5b60006001600580549050612be691906143a0565b9050808214612cd657600060058281548110612c0557612c04613fa5565b5b906000526020600020906007020190508060058481548110612c2a57612c29613fa5565b5b90600052602060002090600702016000820154816000015560018201816001019081612c5691906145e5565b5060028201816002019081612c6b91906145e5565b5060038201816003019081612c8091906145e5565b5060048201816004019081612c9591906145e5565b5060058201816005019081612caa91906145e5565b506006820154816006015590505082600660008360000154815260200190815260200160002081905550505b6005805480612ce857612ce76146cd565b5b6001900381819060005260206000209060070201600080820160009055600182016000612d15919061342f565b600282016000612d25919061342f565b600382016000612d35919061342f565b600482016000612d45919061342f565b600582016000612d55919061342f565b60068201600090555050905560066000848152602001908152602001600020600090555050508080600101915050612b4a565b505050565b612d95613168565b600073ffffffffffffffffffffffffffffffffffffffff168173ffffffffffffffffffffffffffffffffffffffff1603612e075760006040517f1e4fbdf7000000000000000000000000000000000000000000000000000000008152600401612dfe9190613980565b60405180910390fd5b612e1081613217565b50565b6060612e1d613168565b6002805480602002602001604051908101604052809291908181526020016000905b8282101561315f57838290600052602060002090600702016040518060e001604052908160008201548152602001600182018054612e7c906140cc565b80601f0160208091040260200160405190810160405280929190818152602001828054612ea8906140cc565b8015612ef55780601f10612eca57610100808354040283529160200191612ef5565b820191906000526020600020905b815481529060010190602001808311612ed857829003601f168201915b50505050508152602001600282018054612f0e906140cc565b80601f0160208091040260200160405190810160405280929190818152602001828054612f3a906140cc565b8015612f875780601f10612f5c57610100808354040283529160200191612f87565b820191906000526020600020905b815481529060010190602001808311612f6a57829003601f168201915b50505050508152602001600382018054612fa0906140cc565b80601f0160208091040260200160405190810160405280929190818152602001828054612fcc906140cc565b80156130195780601f10612fee57610100808354040283529160200191613019565b820191906000526020600020905b815481529060010190602001808311612ffc57829003601f168201915b50505050508152602001600482018054613032906140cc565b80601f016020809104026020016040519081016040528092919081815260200182805461305e906140cc565b80156130ab5780601f10613080576101008083540402835291602001916130ab565b820191906000526020600020905b81548152906001019060200180831161308e57829003601f168201915b505050505081526020016005820180546130c4906140cc565b80601f01602080910402602001604051908101604052809291908181526020018280546130f0906140cc565b801561313d5780601f106131125761010080835404028352916020019161313d565b820191906000526020600020905b81548152906001019060200180831161312057829003601f168201915b5050505050815260200160068201548152505081526020019060010190612e3f565b50505050905090565b613170613316565b73ffffffffffffffffffffffffffffffffffffffff1661318e611ec5565b73ffffffffffffffffffffffffffffffffffffffff16146131ed576131b1613316565b6040517f118cdaa70000000000000000000000000000000000000000000000000000000081526004016131e49190613980565b60405180910390fd5b565b6000806131fa61331e565b90508091505090565b61320b613349565b61321481613389565b50565b60006132216132ee565b905060008160000160009054906101000a900473ffffffffffffffffffffffffffffffffffffffff169050828260000160006101000a81548173ffffffffffffffffffffffffffffffffffffffff021916908373ffffffffffffffffffffffffffffffffffffffff1602179055508273ffffffffffffffffffffffffffffffffffffffff168173ffffffffffffffffffffffffffffffffffffffff167f8be0079c531659141344cd1fd0a4f28419497f9722a3daafe3b4186f6b6457e060405160405180910390a3505050565b60007f9016d09d72d40fdae2fd8ceac6b6234c7706214fd39c1cd1e609a0528c199300905090565b600033905090565b60007ff0c57e16840df040f15088dc2f81fe391c3923bec73e23a9662efc9c229c6a0060001b905090565b61335161340f565b613387576040517fd7e6bcf800000000000000000000000000000000000000000000000000000000815260040160405180910390fd5b565b613391613349565b600073ffffffffffffffffffffffffffffffffffffffff168173ffffffffffffffffffffffffffffffffffffffff16036134035760006040517f1e4fbdf70000000000000000000000000000000000000000000000000000000081526004016133fa9190613980565b60405180910390fd5b61340c81613217565b50565b60006134196131ef565b60000160089054906101000a900460ff16905090565b50805461343b906140cc565b6000825580601f1061344d575061346c565b601f01602090049060005260206000209081019061346b919061346f565b5b50565b5b80821115613488576000816000905550600101613470565b5090565b600080fd5b600080fd5b600080fd5b600080fd5b600080fd5b60008083601f8401126134bb576134ba613496565b5b8235905067ffffffffffffffff8111156134d8576134d761349b565b5b6020830191508360208202830111156134f4576134f36134a0565b5b9250929050565b600080602083850312156135125761351161348c565b5b600083013567ffffffffffffffff8111156135305761352f613491565b5b61353c858286016134a5565b92509250509250929050565b60008083601f84011261355e5761355d613496565b5b8235905067ffffffffffffffff81111561357b5761357a61349b565b5b602083019150836020820283011115613597576135966134a0565b5b9250929050565b600080602083850312156135b5576135b461348c565b5b600083013567ffffffffffffffff8111156135d3576135d2613491565b5b6135df85828601613548565b92509250509250929050565b600073ffffffffffffffffffffffffffffffffffffffff82169050919050565b6000613616826135eb565b9050919050565b6136268161360b565b811461363157600080fd5b50565b6000813590506136438161361d565b92915050565b600080604083850312156136605761365f61348c565b5b600061366e85828601613634565b925050602061367f85828601613634565b9150509250929050565b600081519050919050565b600082825260208201905092915050565b6000819050602082019050919050565b6000819050919050565b6136c8816136b5565b82525050565b600081519050919050565b600082825260208201905092915050565b60005b838110156137085780820151818401526020810190506136ed565b60008484015250505050565b6000601f19601f8301169050919050565b6000613730826136ce565b61373a81856136d9565b935061374a8185602086016136ea565b61375381613714565b840191505092915050565b600060e08301600083015161377660008601826136bf565b506020830151848203602086015261378e8282613725565b915050604083015184820360408601526137a88282613725565b915050606083015184820360608601526137c28282613725565b915050608083015184820360808601526137dc8282613725565b91505060a083015184820360a08601526137f68282613725565b91505060c083015161380b60c08601826136bf565b508091505092915050565b6000613822838361375e565b905092915050565b6000602082019050919050565b600061384282613689565b61384c8185613694565b93508360208202850161385e856136a5565b8060005b8581101561389a578484038952815161387b8582613816565b94506138868361382a565b925060208a01995050600181019050613862565b50829750879550505050505092915050565b600060208201905081810360008301526138c68184613837565b905092915050565b60008083601f8401126138e4576138e3613496565b5b8235905067ffffffffffffffff8111156139015761390061349b565b5b60208301915083602082028301111561391d5761391c6134a0565b5b9250929050565b6000806020838503121561393b5761393a61348c565b5b600083013567ffffffffffffffff81111561395957613958613491565b5b613965858286016138ce565b92509250509250929050565b61397a8161360b565b82525050565b60006020820190506139956000830184613971565b92915050565b60008083601f8401126139b1576139b0613496565b5b8235905067ffffffffffffffff8111156139ce576139cd61349b565b5b6020830191508360208202830111156139ea576139e96134a0565b5b9250929050565b60008060208385031215613a0857613a0761348c565b5b600083013567ffffffffffffffff811115613a2657613a25613491565b5b613a328582860161399b565b92509250509250929050565b600081519050919050565b600082825260208201905092915050565b6000819050602082019050919050565b600060e083016000830151613a8260008601826136bf565b5060208301518482036020860152613a9a8282613725565b91505060408301518482036040860152613ab48282613725565b91505060608301518482036060860152613ace8282613725565b91505060808301518482036080860152613ae88282613725565b91505060a083015184820360a0860152613b028282613725565b91505060c0830151613b1760c08601826136bf565b508091505092915050565b6000613b2e8383613a6a565b905092915050565b6000602082019050919050565b6000613b4e82613a3e565b613b588185613a49565b935083602082028501613b6a85613a5a565b8060005b85811015613ba65784840389528151613b878582613b22565b9450613b9283613b36565b925060208a01995050600181019050613b6e565b50829750879550505050505092915050565b60006020820190508181036000830152613bd28184613b43565b905092915050565b6000819050919050565b6000613bff613bfa613bf5846135eb565b613bda565b6135eb565b9050919050565b6000613c1182613be4565b9050919050565b6000613c2382613c06565b9050919050565b613c3381613c18565b82525050565b6000602082019050613c4e6000830184613c2a565b92915050565b600060208284031215613c6a57613c6961348c565b5b6000613c7884828501613634565b91505092915050565b600081519050919050565b600082825260208201905092915050565b6000819050602082019050919050565b600060e083016000830151613cc560008601826136bf565b5060208301518482036020860152613cdd8282613725565b91505060408301518482036040860152613cf78282613725565b91505060608301518482036060860152613d118282613725565b91505060808301518482036080860152613d2b8282613725565b91505060a083015184820360a0860152613d458282613725565b91505060c0830151613d5a60c08601826136bf565b508091505092915050565b6000613d718383613cad565b905092915050565b6000602082019050919050565b6000613d9182613c81565b613d9b8185613c8c565b935083602082028501613dad85613c9d565b8060005b85811015613de95784840389528151613dca8582613d65565b9450613dd583613d79565b925060208a01995050600181019050613db1565b50829750879550505050505092915050565b60006020820190508181036000830152613e158184613d86565b905092915050565b613e26816136b5565b8114613e3157600080fd5b50565b600081519050613e4381613e1d565b92915050565b600060208284031215613e5f57613e5e61348c565b5b6000613e6d84828501613e34565b91505092915050565b600082825260208201905092915050565b7f57726f6e6720636f737420666f7220757073657274436f6e7461637473000000600082015250565b6000613ebd601d83613e76565b9150613ec882613e87565b602082019050919050565b60006020820190508181036000830152613eec81613eb0565b9050919050565b600081905092915050565b50565b6000613f0e600083613ef3565b9150613f1982613efe565b600082019050919050565b6000613f2f82613f01565b9150819050919050565b7f466f7277617264696e6720666565206661696c65640000000000000000000000600082015250565b6000613f6f601583613e76565b9150613f7a82613f39565b602082019050919050565b60006020820190508181036000830152613f9e81613f62565b9050919050565b7f4e487b7100000000000000000000000000000000000000000000000000000000600052603260045260246000fd5b600080fd5b600080fd5b600080fd5b60008235600160c003833603038112613fff57613ffe613fd4565b5b80830191505092915050565b6000808335600160200384360303811261402857614027613fd4565b5b80840192508235915067ffffffffffffffff82111561404a57614049613fd9565b5b60208301925060018202360383131561406657614065613fde565b5b509250929050565b7f4e487b7100000000000000000000000000000000000000000000000000000000600052604160045260246000fd5b7f4e487b7100000000000000000000000000000000000000000000000000000000600052602260045260246000fd5b600060028204905060018216806140e457607f821691505b6020821081036140f7576140f661409d565b5b50919050565b60008190508160005260206000209050919050565b60006020601f8301049050919050565b600082821b905092915050565b60006008830261415f7fffffffffffffffffffffffffffffffffffffffffffffffffffffffffffffffff82614122565b6141698683614122565b95508019841693508086168417925050509392505050565b600061419c614197614192846136b5565b613bda565b6136b5565b9050919050565b6000819050919050565b6141b683614181565b6141ca6141c2826141a3565b84845461412f565b825550505050565b600090565b6141df6141d2565b6141ea8184846141ad565b505050565b5b8181101561420e576142036000826141d7565b6001810190506141f0565b5050565b601f82111561425357614224816140fd565b61422d84614112565b8101602085101561423c578190505b61425061424885614112565b8301826141ef565b50505b505050565b600082821c905092915050565b600061427660001984600802614258565b1980831691505092915050565b600061428f8383614265565b9150826002028217905092915050565b6142a8826136ce565b67ffffffffffffffff8111156142c1576142c061406e565b5b6142cb82546140cc565b6142d6828285614212565b600060209050601f83116001811461430957600084156142f7578287015190505b6143018582614283565b865550614369565b601f198416614317866140fd565b60005b8281101561433f5784890151825560018201915060208501945060208101905061431a565b8683101561435c5784890151614358601f891682614265565b8355505b6001600288020188555050505b505050505050565b7f4e487b7100000000000000000000000000000000000000000000000000000000600052601160045260246000fd5b60006143ab826136b5565b91506143b6836136b5565b92508282039050818111156143ce576143cd614371565b5b92915050565b60006143df826136b5565b91507fffffffffffffffffffffffffffffffffffffffffffffffffffffffffffffffff820361441157614410614371565b5b600182019050919050565b7f496e76616c696420636f6e746163742049440000000000000000000000000000600082015250565b6000614452601283613e76565b915061445d8261441c565b602082019050919050565b6000602082019050818103600083015261448181614445565b9050919050565b600082905092915050565b61449d8383614488565b67ffffffffffffffff8111156144b6576144b561406e565b5b6144c082546140cc565b6144cb828285614212565b6000601f8311600181146144fa57600084156144e8578287013590505b6144f28582614283565b86555061455a565b601f198416614508866140fd565b60005b828110156145305784890135825560018201915060208501945060208101905061450b565b8683101561454d5784890135614549601f891682614265565b8355505b6001600288020188555050505b50505050505050565b7f496e76616c696420617373657420494400000000000000000000000000000000600082015250565b6000614599601083613e76565b91506145a482614563565b602082019050919050565b600060208201905081810360008301526145c88161458c565b9050919050565b6000815490506145de816140cc565b9050919050565b8181036145f35750506146cb565b6145fc826145cf565b67ffffffffffffffff8111156146155761461461406e565b5b61461f82546140cc565b61462a828285614212565b6000601f8311600181146146595760008415614647578287015490505b6146518582614283565b8655506146c4565b601f198416614667876140fd565b9650614672866140fd565b60005b8281101561469a57848901548255600182019150600185019450602081019050614675565b868310156146b757848901546146b3601f891682614265565b8355505b6001600288020188555050505b5050505050505b565b7f4e487b7100000000000000000000000000000000000000000000000000000000600052603160045260246000fd5b7f496e76616c696420436f73744d616e6167657200000000000000000000000000600082015250565b6000614732601383613e76565b915061473d826146fc565b602082019050919050565b6000602082019050818103600083015261476181614725565b9050919050565b6000819050919050565b600067ffffffffffffffff82169050919050565b60006147a161479c61479784614768565b613bda565b614772565b9050919050565b6147b181614786565b82525050565b60006020820190506147cc60008301846147a8565b92915050565b7f496e76616c696420737562736372697074696f6e204944000000000000000000600082015250565b6000614808601783613e76565b9150614813826147d2565b602082019050919050565b60006020820190508181036000830152614837816147fb565b9050919050565b7f57726f6e6720636f737420666f7220757073657274537562736372697074696f60008201527f6e73000000000000000000000000000000000000000000000000000000000000602082015250565b600061489a602283613e76565b91506148a58261483e565b604082019050919050565b600060208201905081810360008301526148c98161488d565b9050919050565b60008235600160c0038336030381126148ec576148eb613fd4565b5b80830191505092915050565b7f57726f6e6720636f737420666f72207570736572744173736574730000000000600082015250565b600061492e601b83613e76565b9150614939826148f8565b602082019050919050565b6000602082019050818103600083015261495d81614921565b9050919050565b60008235600160c0038336030381126149805761497f613fd4565b5b8083019150509291505056fea26469706673582212207710ca2fe0ff46c5215b297fa32d95993550c03b5df3994978e0dc6b7c73494f64736f6c634300081c0033",
  "linkReferences": {},
  "deployedLinkReferences": {}
}