{
  "_format": "hh-sol-artifact-1",
  "contractName": "VaultContract",
  "sourceName": "contracts/VaultContract.sol",
  "abi": [
    {
      "inputs": [],
      "name": "InvalidInitialization",
      "type": "error"
    },
    {
      "inputs": [],
      "name": "NotInitializing",
      "type": "error"
    },
    {
      "inputs": [
        {
          "internalType": "address",
          "name": "owner",
          "type": "address"
        }
      ],
      "name": "OwnableInvalidOwner",
      "type": "error"
    },
    {
      "inputs": [
        {
          "internalType": "address",
          "name": "account",
          "type": "address"
        }
      ],
      "name": "OwnableUnauthorizedAccount",
      "type": "error"
    },
    {
      "anonymous": false,
      "inputs": [
        {
          "indexed": false,
          "internalType": "uint64",
          "name": "version",
          "type": "uint64"
        }
      ],
      "name": "Initialized",
      "type": "event"
    },
    {
      "anonymous": false,
      "inputs": [
        {
          "indexed": true,
          "internalType": "address",
          "name": "previousOwner",
          "type": "address"
        },
        {
          "indexed": true,
          "internalType": "address",
          "name": "newOwner",
          "type": "address"
        }
      ],
      "name": "OwnershipTransferred",
      "type": "event"
    },
    {
      "stateMutability": "payable",
      "type": "fallback"
    },
    {
      "inputs": [],
      "name": "costManager",
      "outputs": [
        {
          "internalType": "contract CostManager",
          "name": "",
          "type": "address"
        }
      ],
      "stateMutability": "view",
      "type": "function"
    },
    {
      "inputs": [
        {
          "internalType": "uint256[]",
          "name": "ids",
          "type": "uint256[]"
        }
      ],
      "name": "deleteCredentials",
      "outputs": [],
      "stateMutability": "nonpayable",
      "type": "function"
    },
    {
      "inputs": [
        {
          "internalType": "uint256[]",
          "name": "ids",
          "type": "uint256[]"
        }
      ],
      "name": "deleteNotes",
      "outputs": [],
      "stateMutability": "nonpayable",
      "type": "function"
    },
    {
      "inputs": [
        {
          "internalType": "uint256[]",
          "name": "ids",
          "type": "uint256[]"
        }
      ],
      "name": "deleteTOTP",
      "outputs": [],
      "stateMutability": "nonpayable",
      "type": "function"
    },
    {
      "inputs": [
        {
          "internalType": "uint256[]",
          "name": "ids",
          "type": "uint256[]"
        }
      ],
      "name": "deleteWalletAddresses",
      "outputs": [],
      "stateMutability": "nonpayable",
      "type": "function"
    },
    {
      "inputs": [
        {
          "internalType": "address",
          "name": "_owner",
          "type": "address"
        },
        {
          "internalType": "address",
          "name": "_costManager",
          "type": "address"
        }
      ],
      "name": "initialize",
      "outputs": [],
      "stateMutability": "payable",
      "type": "function"
    },
    {
      "inputs": [],
      "name": "owner",
      "outputs": [
        {
          "internalType": "address",
          "name": "",
          "type": "address"
        }
      ],
      "stateMutability": "view",
      "type": "function"
    },
    {
      "inputs": [],
      "name": "readCredentials",
      "outputs": [
        {
          "components": [
            {
              "internalType": "uint256",
              "name": "id",
              "type": "uint256"
            },
            {
              "internalType": "string",
              "name": "name",
              "type": "string"
            },
            {
              "internalType": "string",
              "name": "username",
              "type": "string"
            },
            {
              "internalType": "string",
              "name": "password",
              "type": "string"
            },
            {
              "internalType": "string",
              "name": "remarks",
              "type": "string"
            },
            {
              "internalType": "uint256",
              "name": "timestamp",
              "type": "uint256"
            }
          ],
          "internalType": "struct VaultContract.Credential[]",
          "name": "",
          "type": "tuple[]"
        }
      ],
      "stateMutability": "view",
      "type": "function"
    },
    {
      "inputs": [],
      "name": "readNote",
      "outputs": [
        {
          "components": [
            {
              "internalType": "uint256",
              "name": "id",
              "type": "uint256"
            },
            {
              "internalType": "string",
              "name": "name",
              "type": "string"
            },
            {
              "internalType": "string",
              "name": "note",
              "type": "string"
            },
            {
              "internalType": "uint256",
              "name": "timestamp",
              "type": "uint256"
            }
          ],
          "internalType": "struct VaultContract.Note[]",
          "name": "",
          "type": "tuple[]"
        }
      ],
      "stateMutability": "view",
      "type": "function"
    },
    {
      "inputs": [],
      "name": "readTOTP",
      "outputs": [
        {
          "components": [
            {
              "internalType": "uint256",
              "name": "id",
              "type": "uint256"
            },
            {
              "internalType": "string",
              "name": "name",
              "type": "string"
            },
            {
              "internalType": "string",
              "name": "key",
              "type": "string"
            },
            {
              "internalType": "string",
              "name": "algorithm",
              "type": "string"
            },
            {
              "internalType": "uint256",
              "name": "interval",
              "type": "uint256"
            },
            {
              "internalType": "uint256",
              "name": "timestamp",
              "type": "uint256"
            }
          ],
          "internalType": "struct VaultContract.TOTP[]",
          "name": "",
          "type": "tuple[]"
        }
      ],
      "stateMutability": "view",
      "type": "function"
    },
    {
      "inputs": [],
      "name": "readWalletAddress",
      "outputs": [
        {
          "components": [
            {
              "internalType": "uint256",
              "name": "id",
              "type": "uint256"
            },
            {
              "internalType": "string",
              "name": "name",
              "type": "string"
            },
            {
              "internalType": "string",
              "name": "walletAddress",
              "type": "string"
            },
            {
              "internalType": "string",
              "name": "privateKey",
              "type": "string"
            },
            {
              "internalType": "string",
              "name": "seedPhrase",
              "type": "string"
            },
            {
              "internalType": "string",
              "name": "remarks",
              "type": "string"
            },
            {
              "internalType": "uint256",
              "name": "timestamp",
              "type": "uint256"
            }
          ],
          "internalType": "struct VaultContract.WalletInfo[]",
          "name": "",
          "type": "tuple[]"
        }
      ],
      "stateMutability": "view",
      "type": "function"
    },
    {
      "inputs": [],
      "name": "renounceOwnership",
      "outputs": [],
      "stateMutability": "nonpayable",
      "type": "function"
    },
    {
      "inputs": [
        {
          "internalType": "address",
          "name": "newOwner",
          "type": "address"
        }
      ],
      "name": "transferOwnership",
      "outputs": [],
      "stateMutability": "nonpayable",
      "type": "function"
    },
    {
      "inputs": [
        {
          "components": [
            {
              "internalType": "uint256",
              "name": "id",
              "type": "uint256"
            },
            {
              "internalType": "string",
              "name": "name",
              "type": "string"
            },
            {
              "internalType": "string",
              "name": "username",
              "type": "string"
            },
            {
              "internalType": "string",
              "name": "password",
              "type": "string"
            },
            {
              "internalType": "string",
              "name": "remarks",
              "type": "string"
            }
          ],
          "internalType": "struct VaultContract.CredentialUpsert[]",
          "name": "data",
          "type": "tuple[]"
        }
      ],
      "name": "upsertCredentials",
      "outputs": [],
      "stateMutability": "payable",
      "type": "function"
    },
    {
      "inputs": [
        {
          "components": [
            {
              "internalType": "uint256",
              "name": "id",
              "type": "uint256"
            },
            {
              "internalType": "string",
              "name": "name",
              "type": "string"
            },
            {
              "internalType": "string",
              "name": "note",
              "type": "string"
            }
          ],
          "internalType": "struct VaultContract.NoteUpsert[]",
          "name": "data",
          "type": "tuple[]"
        }
      ],
      "name": "upsertNotes",
      "outputs": [],
      "stateMutability": "payable",
      "type": "function"
    },
    {
      "inputs": [
        {
          "components": [
            {
              "internalType": "uint256",
              "name": "id",
              "type": "uint256"
            },
            {
              "internalType": "string",
              "name": "name",
              "type": "string"
            },
            {
              "internalType": "string",
              "name": "key",
              "type": "string"
            },
            {
              "internalType": "string",
              "name": "algorithm",
              "type": "string"
            },
            {
              "internalType": "uint256",
              "name": "interval",
              "type": "uint256"
            }
          ],
          "internalType": "struct VaultContract.TOTPUpsert[]",
          "name": "data",
          "type": "tuple[]"
        }
      ],
      "name": "upsertTOTP",
      "outputs": [],
      "stateMutability": "payable",
      "type": "function"
    },
    {
      "inputs": [
        {
          "components": [
            {
              "internalType": "uint256",
              "name": "id",
              "type": "uint256"
            },
            {
              "internalType": "string",
              "name": "name",
              "type": "string"
            },
            {
              "internalType": "string",
              "name": "walletAddress",
              "type": "string"
            },
            {
              "internalType": "string",
              "name": "privateKey",
              "type": "string"
            },
            {
              "internalType": "string",
              "name": "seedPhrase",
              "type": "string"
            },
            {
              "internalType": "string",
              "name": "remarks",
              "type": "string"
            }
          ],
          "internalType": "struct VaultContract.WalletUpsert[]",
          "name": "data",
          "type": "tuple[]"
        }
      ],
      "name": "upsertWalletAddress",
      "outputs": [],
      "stateMutability": "payable",
      "type": "function"
    },
    {
      "stateMutability": "payable",
      "type": "receive"
    }
  ],
  "bytecode": "0x608060405260018055600160045560016007556001600a55348015602257600080fd5b506152c2806100326000396000f3fe6080604052600436106101025760003560e01c8063715018a611610095578063cafdf8b511610064578063cafdf8b5146102b1578063ccd7dc5a146102dc578063cecd949a14610307578063f117c6a814610332578063f2fde38b1461034e57610103565b8063715018a61461022857806382e91caa1461023f5780638da5cb5b1461026a578063a4595a201461029557610103565b8063485cc955116100d1578063485cc9551461019c57806352ab43e6146101b857806356ba0b01146101e1578063623ac7571461020c57610103565b80630309d406146101055780631e3758351461012e5780633017124114610157578063413ba3261461017357610103565b5b005b34801561011157600080fd5b5061012c60048036038101906101279190613ab3565b610377565b005b34801561013a57600080fd5b5061015560048036038101906101509190613ab3565b6105c5565b005b610171600480360381019061016c9190613b56565b6107db565b005b34801561017f57600080fd5b5061019a60048036038101906101959190613ab3565b610f11565b005b6101b660048036038101906101b19190613c01565b61113a565b005b3480156101c457600080fd5b506101df60048036038101906101da9190613ab3565b61145a565b005b3480156101ed57600080fd5b506101f6611639565b6040516102039190613e43565b60405180910390f35b61022660048036038101906102219190613ebb565b611874565b005b34801561023457600080fd5b5061023d61213d565b005b34801561024b57600080fd5b50610254612151565b6040516102619190614034565b60405180910390f35b34801561027657600080fd5b5061027f6122f0565b60405161028c9190614065565b60405180910390f35b6102af60048036038101906102aa91906140d6565b612328565b005b3480156102bd57600080fd5b506102c66128ac565b6040516102d39190614283565b60405180910390f35b3480156102e857600080fd5b506102f1612b6f565b6040516102fe919061441f565b60405180910390f35b34801561031357600080fd5b5061031c612ec4565b60405161032991906144a0565b60405180910390f35b61034c60048036038101906103479190614511565b612ee8565b005b34801561035a57600080fd5b506103756004803603810190610370919061455e565b61369a565b005b61037f613720565b60005b828290508110156105c05760008383838181106103a2576103a161458b565b5b905060200201359050600060096000838152602001908152602001600020549050600880549050811061040a576040517f08c379a000000000000000000000000000000000000000000000000000000000815260040161040190614617565b60405180910390fd5b6000600160088054905061041e9190614666565b905080821461050e5760006008828154811061043d5761043c61458b565b5b9060005260206000209060070201905080600884815481106104625761046161458b565b5b9060005260206000209060070201600082015481600001556001820181600101908161048e91906148e1565b50600282018160020190816104a391906148e1565b50600382018160030190816104b891906148e1565b50600482018160040190816104cd91906148e1565b50600582018160050190816104e291906148e1565b506006820154816006015590505082600960008360000154815260200190815260200160002081905550505b60088054806105205761051f6149c9565b5b600190038181906000526020600020906007020160008082016000905560018201600061054d91906139e7565b60028201600061055d91906139e7565b60038201600061056d91906139e7565b60048201600061057d91906139e7565b60058201600061058d91906139e7565b60068201600090555050905560096000848152602001908152602001600020600090555050508080600101915050610382565b505050565b6105cd613720565b60005b828290508110156107d65760008383838181106105f0576105ef61458b565b5b9050602002013590506000600c6000838152602001908152602001600020549050600b805490508110610658576040517f08c379a000000000000000000000000000000000000000000000000000000000815260040161064f90614a44565b60405180910390fd5b60006001600b8054905061066c9190614666565b905080821461073c576000600b828154811061068b5761068a61458b565b5b9060005260206000209060060201905080600b84815481106106b0576106af61458b565b5b906000526020600020906006020160008201548160000155600182018160010190816106dc91906148e1565b50600282018160020190816106f191906148e1565b506003820181600301908161070691906148e1565b50600482015481600401556005820154816005015590505082600c60008360000154815260200190815260200160002081905550505b600b80548061074e5761074d6149c9565b5b600190038181906000526020600020906006020160008082016000905560018201600061077b91906139e7565b60028201600061078b91906139e7565b60038201600061079b91906139e7565b6004820160009055600582016000905550509055600c60008481526020019081526020016000206000905550505080806001019150506105d0565b505050565b6107e3613720565b60008060009054906101000a900473ffffffffffffffffffffffffffffffffffffffff1673ffffffffffffffffffffffffffffffffffffffff1663f9c59d076040518163ffffffff1660e01b8152600401602060405180830381865afa158015610851573d6000803e3d6000fd5b505050506040513d601f19601f820116820180604052508101906108759190614a90565b90508034146108b9576040517f08c379a00000000000000000000000000000000000000000000000000000000081526004016108b090614b09565b60405180910390fd5b60008060009054906101000a900473ffffffffffffffffffffffffffffffffffffffff1673ffffffffffffffffffffffffffffffffffffffff163460405161090090614b5a565b60006040518083038185875af1925050503d806000811461093d576040519150601f19603f3d011682016040523d82523d6000602084013e610942565b606091505b5050905080610986576040517f08c379a000000000000000000000000000000000000000000000000000000000815260040161097d90614bbb565b60405180910390fd5b60005b84849050811015610f0a5760008585838181106109a9576109a861458b565b5b90506020028101906109bb9190614bea565b6000013503610c5257600b6040518060c00160405280600a5481526020018787858181106109ec576109eb61458b565b5b90506020028101906109fe9190614bea565b8060200190610a0d9190614c12565b8080601f016020809104026020016040519081016040528093929190818152602001838380828437600081840152601f19601f820116905080830192505050505050508152602001878785818110610a6857610a6761458b565b5b9050602002810190610a7a9190614bea565b8060400190610a899190614c12565b8080601f016020809104026020016040519081016040528093929190818152602001838380828437600081840152601f19601f820116905080830192505050505050508152602001878785818110610ae457610ae361458b565b5b9050602002810190610af69190614bea565b8060600190610b059190614c12565b8080601f016020809104026020016040519081016040528093929190818152602001838380828437600081840152601f19601f820116905080830192505050505050508152602001878785818110610b6057610b5f61458b565b5b9050602002810190610b729190614bea565b608001358152602001428152509080600181540180825580915050600190039060005260206000209060060201600090919091909150600082015181600001556020820151816001019081610bc79190614c75565b506040820151816002019081610bdd9190614c75565b506060820151816003019081610bf39190614c75565b506080820151816004015560a0820151816005015550506001600b80549050610c1c9190614666565b600c6000600a54815260200190815260200160002081905550600a6000815480929190610c4890614d47565b9190505550610efd565b6000600c6000878785818110610c6b57610c6a61458b565b5b9050602002810190610c7d9190614bea565b600001358152602001908152602001600020549050600b805490508110610cd9576040517f08c379a0000000000000000000000000000000000000000000000000000000008152600401610cd090614a44565b60405180910390fd5b6000600b8281548110610cef57610cee61458b565b5b906000526020600020906006020190506000878785818110610d1457610d1361458b565b5b9050602002810190610d269190614bea565b8060200190610d359190614c12565b90501115610d8457868684818110610d5057610d4f61458b565b5b9050602002810190610d629190614bea565b8060200190610d719190614c12565b826001019182610d82929190614d9a565b505b6000878785818110610d9957610d9861458b565b5b9050602002810190610dab9190614bea565b8060400190610dba9190614c12565b90501115610e0957868684818110610dd557610dd461458b565b5b9050602002810190610de79190614bea565b8060400190610df69190614c12565b826002019182610e07929190614d9a565b505b6000878785818110610e1e57610e1d61458b565b5b9050602002810190610e309190614bea565b8060600190610e3f9190614c12565b90501115610e8e57868684818110610e5a57610e5961458b565b5b9050602002810190610e6c9190614bea565b8060600190610e7b9190614c12565b826003019182610e8c929190614d9a565b505b6000878785818110610ea357610ea261458b565b5b9050602002810190610eb59190614bea565b608001351115610ef157868684818110610ed257610ed161458b565b5b9050602002810190610ee49190614bea565b6080013581600401819055505b42816005018190555050505b8080600101915050610989565b5050505050565b610f19613720565b60005b82829050811015611135576000838383818110610f3c57610f3b61458b565b5b9050602002013590506000600360008381526020019081526020016000205490506002805490508110610fa4576040517f08c379a0000000000000000000000000000000000000000000000000000000008152600401610f9b90614eb6565b60405180910390fd5b60006001600280549050610fb89190614666565b905080821461109357600060028281548110610fd757610fd661458b565b5b906000526020600020906006020190508060028481548110610ffc57610ffb61458b565b5b9060005260206000209060060201600082015481600001556001820181600101908161102891906148e1565b506002820181600201908161103d91906148e1565b506003820181600301908161105291906148e1565b506004820181600401908161106791906148e1565b506005820154816005015590505082600360008360000154815260200190815260200160002081905550505b60028054806110a5576110a46149c9565b5b60019003818190600052602060002090600602016000808201600090556001820160006110d291906139e7565b6002820160006110e291906139e7565b6003820160006110f291906139e7565b60048201600061110291906139e7565b60058201600090555050905560036000848152602001908152602001600020600090555050508080600101915050610f1c565b505050565b60006111446137a7565b905060008160000160089054906101000a900460ff1615905060008260000160009054906101000a900467ffffffffffffffff1690506000808267ffffffffffffffff161480156111925750825b9050600060018367ffffffffffffffff161480156111c7575060003073ffffffffffffffffffffffffffffffffffffffff163b145b9050811580156111d5575080155b1561120c576040517ff92ee8a900000000000000000000000000000000000000000000000000000000815260040160405180910390fd5b60018560000160006101000a81548167ffffffffffffffff021916908367ffffffffffffffff160217905550831561125c5760018560000160086101000a81548160ff0219169083151502179055505b611265876137bb565b61126e876137cf565b600073ffffffffffffffffffffffffffffffffffffffff168673ffffffffffffffffffffffffffffffffffffffff16036112dd576040517f08c379a00000000000000000000000000000000000000000000000000000000081526004016112d490614f22565b60405180910390fd5b856000806101000a81548173ffffffffffffffffffffffffffffffffffffffff021916908373ffffffffffffffffffffffffffffffffffffffff16021790555060003411156113f55760008060009054906101000a900473ffffffffffffffffffffffffffffffffffffffff1673ffffffffffffffffffffffffffffffffffffffff163460405161136d90614b5a565b60006040518083038185875af1925050503d80600081146113aa576040519150601f19603f3d011682016040523d82523d6000602084013e6113af565b606091505b50509050806113f3576040517f08c379a00000000000000000000000000000000000000000000000000000000081526004016113ea90614fb4565b60405180910390fd5b505b83156114515760008560000160086101000a81548160ff0219169083151502179055507fc7f505b2f371ae2175ee4913f4499e1f2633a7b5936321eed1cdaeb6115181d260016040516114489190615023565b60405180910390a15b50505050505050565b611462613720565b60005b828290508110156116345760008383838181106114855761148461458b565b5b90506020020135905060006006600083815260200190815260200160002054905060058054905081106114ed576040517f08c379a00000000000000000000000000000000000000000000000000000000081526004016114e49061508a565b60405180910390fd5b600060016005805490506115019190614666565b90508082146115b2576000600582815481106115205761151f61458b565b5b9060005260206000209060040201905080600584815481106115455761154461458b565b5b9060005260206000209060040201600082015481600001556001820181600101908161157191906148e1565b506002820181600201908161158691906148e1565b506003820154816003015590505082600660008360000154815260200190815260200160002081905550505b60058054806115c4576115c36149c9565b5b60019003818190600052602060002090600402016000808201600090556001820160006115f191906139e7565b60028201600061160191906139e7565b60038201600090555050905560066000848152602001908152602001600020600090555050508080600101915050611465565b505050565b6060611643613720565b600b805480602002602001604051908101604052809291908181526020016000905b8282101561186b57838290600052602060002090600602016040518060c0016040529081600082015481526020016001820180546116a2906146c9565b80601f01602080910402602001604051908101604052809291908181526020018280546116ce906146c9565b801561171b5780601f106116f05761010080835404028352916020019161171b565b820191906000526020600020905b8154815290600101906020018083116116fe57829003601f168201915b50505050508152602001600282018054611734906146c9565b80601f0160208091040260200160405190810160405280929190818152602001828054611760906146c9565b80156117ad5780601f10611782576101008083540402835291602001916117ad565b820191906000526020600020905b81548152906001019060200180831161179057829003601f168201915b505050505081526020016003820180546117c6906146c9565b80601f01602080910402602001604051908101604052809291908181526020018280546117f2906146c9565b801561183f5780601f106118145761010080835404028352916020019161183f565b820191906000526020600020905b81548152906001019060200180831161182257829003601f168201915b505050505081526020016004820154815260200160058201548152505081526020019060010190611665565b50505050905090565b61187c613720565b60008060009054906101000a900473ffffffffffffffffffffffffffffffffffffffff1673ffffffffffffffffffffffffffffffffffffffff1663f9c59d076040518163ffffffff1660e01b8152600401602060405180830381865afa1580156118ea573d6000803e3d6000fd5b505050506040513d601f19601f8201168201806040525081019061190e9190614a90565b9050803414611952576040517f08c379a00000000000000000000000000000000000000000000000000000000081526004016119499061511c565b60405180910390fd5b60008060009054906101000a900473ffffffffffffffffffffffffffffffffffffffff1673ffffffffffffffffffffffffffffffffffffffff163460405161199990614b5a565b60006040518083038185875af1925050503d80600081146119d6576040519150601f19603f3d011682016040523d82523d6000602084013e6119db565b606091505b5050905080611a1f576040517f08c379a0000000000000000000000000000000000000000000000000000000008152600401611a1690614bbb565b60405180910390fd5b60005b84849050811015612136576000858583818110611a4257611a4161458b565b5b9050602002810190611a54919061513c565b6000013503611dd75760086040518060e001604052806007548152602001878785818110611a8557611a8461458b565b5b9050602002810190611a97919061513c565b8060200190611aa69190614c12565b8080601f016020809104026020016040519081016040528093929190818152602001838380828437600081840152601f19601f820116905080830192505050505050508152602001878785818110611b0157611b0061458b565b5b9050602002810190611b13919061513c565b8060400190611b229190614c12565b8080601f016020809104026020016040519081016040528093929190818152602001838380828437600081840152601f19601f820116905080830192505050505050508152602001878785818110611b7d57611b7c61458b565b5b9050602002810190611b8f919061513c565b8060600190611b9e9190614c12565b8080601f016020809104026020016040519081016040528093929190818152602001838380828437600081840152601f19601f820116905080830192505050505050508152602001878785818110611bf957611bf861458b565b5b9050602002810190611c0b919061513c565b8060800190611c1a9190614c12565b8080601f016020809104026020016040519081016040528093929190818152602001838380828437600081840152601f19601f820116905080830192505050505050508152602001878785818110611c7557611c7461458b565b5b9050602002810190611c87919061513c565b8060a00190611c969190614c12565b8080601f016020809104026020016040519081016040528093929190818152602001838380828437600081840152601f19601f820116905080830192505050505050508152602001428152509080600181540180825580915050600190039060005260206000209060070201600090919091909150600082015181600001556020820151816001019081611d2a9190614c75565b506040820151816002019081611d409190614c75565b506060820151816003019081611d569190614c75565b506080820151816004019081611d6c9190614c75565b5060a0820151816005019081611d829190614c75565b5060c0820151816006015550506001600880549050611da19190614666565b6009600060075481526020019081526020016000208190555060076000815480929190611dcd90614d47565b9190505550612129565b600060096000878785818110611df057611def61458b565b5b9050602002810190611e02919061513c565b6000013581526020019081526020016000205490506008805490508110611e5e576040517f08c379a0000000000000000000000000000000000000000000000000000000008152600401611e5590614617565b60405180910390fd5b600060088281548110611e7457611e7361458b565b5b906000526020600020906007020190506000878785818110611e9957611e9861458b565b5b9050602002810190611eab919061513c565b8060200190611eba9190614c12565b90501115611f0957868684818110611ed557611ed461458b565b5b9050602002810190611ee7919061513c565b8060200190611ef69190614c12565b826001019182611f07929190614d9a565b505b6000878785818110611f1e57611f1d61458b565b5b9050602002810190611f30919061513c565b8060400190611f3f9190614c12565b90501115611f8e57868684818110611f5a57611f5961458b565b5b9050602002810190611f6c919061513c565b8060400190611f7b9190614c12565b826002019182611f8c929190614d9a565b505b6000878785818110611fa357611fa261458b565b5b9050602002810190611fb5919061513c565b8060600190611fc49190614c12565b9050111561201357868684818110611fdf57611fde61458b565b5b9050602002810190611ff1919061513c565b80606001906120009190614c12565b826003019182612011929190614d9a565b505b60008787858181106120285761202761458b565b5b905060200281019061203a919061513c565b80608001906120499190614c12565b90501115612098578686848181106120645761206361458b565b5b9050602002810190612076919061513c565b80608001906120859190614c12565b826004019182612096929190614d9a565b505b60008787858181106120ad576120ac61458b565b5b90506020028101906120bf919061513c565b8060a001906120ce9190614c12565b9050111561211d578686848181106120e9576120e861458b565b5b90506020028101906120fb919061513c565b8060a0019061210a9190614c12565b82600501918261211b929190614d9a565b505b42816006018190555050505b8080600101915050611a22565b5050505050565b612145613720565b61214f60006137cf565b565b606061215b613720565b6005805480602002602001604051908101604052809291908181526020016000905b828210156122e75783829060005260206000209060040201604051806080016040529081600082015481526020016001820180546121ba906146c9565b80601f01602080910402602001604051908101604052809291908181526020018280546121e6906146c9565b80156122335780601f1061220857610100808354040283529160200191612233565b820191906000526020600020905b81548152906001019060200180831161221657829003601f168201915b5050505050815260200160028201805461224c906146c9565b80601f0160208091040260200160405190810160405280929190818152602001828054612278906146c9565b80156122c55780601f1061229a576101008083540402835291602001916122c5565b820191906000526020600020905b8154815290600101906020018083116122a857829003601f168201915b505050505081526020016003820154815250508152602001906001019061217d565b50505050905090565b6000806122fb6138a6565b90508060000160009054906101000a900473ffffffffffffffffffffffffffffffffffffffff1691505090565b612330613720565b60008060009054906101000a900473ffffffffffffffffffffffffffffffffffffffff1673ffffffffffffffffffffffffffffffffffffffff1663f9c59d076040518163ffffffff1660e01b8152600401602060405180830381865afa15801561239e573d6000803e3d6000fd5b505050506040513d601f19601f820116820180604052508101906123c29190614a90565b9050803414612406576040517f08c379a00000000000000000000000000000000000000000000000000000000081526004016123fd906151b0565b60405180910390fd5b60008060009054906101000a900473ffffffffffffffffffffffffffffffffffffffff1673ffffffffffffffffffffffffffffffffffffffff163460405161244d90614b5a565b60006040518083038185875af1925050503d806000811461248a576040519150601f19603f3d011682016040523d82523d6000602084013e61248f565b606091505b50509050806124d3576040517f08c379a00000000000000000000000000000000000000000000000000000000081526004016124ca90614bbb565b60405180910390fd5b60005b848490508110156128a55760008585838181106124f6576124f561458b565b5b905060200281019061250891906151d0565b60000135036126d5576005604051806080016040528060045481526020018787858181106125395761253861458b565b5b905060200281019061254b91906151d0565b806020019061255a9190614c12565b8080601f016020809104026020016040519081016040528093929190818152602001838380828437600081840152601f19601f8201169050808301925050505050505081526020018787858181106125b5576125b461458b565b5b90506020028101906125c791906151d0565b80604001906125d69190614c12565b8080601f016020809104026020016040519081016040528093929190818152602001838380828437600081840152601f19601f82011690508083019250505050505050815260200142815250908060018154018082558091505060019003906000526020600020906004020160009091909190915060008201518160000155602082015181600101908161266a9190614c75565b5060408201518160020190816126809190614c75565b50606082015181600301555050600160058054905061269f9190614666565b60066000600454815260200190815260200160002081905550600460008154809291906126cb90614d47565b9190505550612898565b6000600660008787858181106126ee576126ed61458b565b5b905060200281019061270091906151d0565b600001358152602001908152602001600020549050600580549050811061275c576040517f08c379a00000000000000000000000000000000000000000000000000000000081526004016127539061508a565b60405180910390fd5b6000600582815481106127725761277161458b565b5b9060005260206000209060040201905060008787858181106127975761279661458b565b5b90506020028101906127a991906151d0565b80602001906127b89190614c12565b90501115612807578686848181106127d3576127d261458b565b5b90506020028101906127e591906151d0565b80602001906127f49190614c12565b826001019182612805929190614d9a565b505b600087878581811061281c5761281b61458b565b5b905060200281019061282e91906151d0565b806040019061283d9190614c12565b9050111561288c578686848181106128585761285761458b565b5b905060200281019061286a91906151d0565b80604001906128799190614c12565b82600201918261288a929190614d9a565b505b42816003018190555050505b80806001019150506124d6565b5050505050565b60606128b6613720565b6002805480602002602001604051908101604052809291908181526020016000905b82821015612b6657838290600052602060002090600602016040518060c001604052908160008201548152602001600182018054612915906146c9565b80601f0160208091040260200160405190810160405280929190818152602001828054612941906146c9565b801561298e5780601f106129635761010080835404028352916020019161298e565b820191906000526020600020905b81548152906001019060200180831161297157829003601f168201915b505050505081526020016002820180546129a7906146c9565b80601f01602080910402602001604051908101604052809291908181526020018280546129d3906146c9565b8015612a205780601f106129f557610100808354040283529160200191612a20565b820191906000526020600020905b815481529060010190602001808311612a0357829003601f168201915b50505050508152602001600382018054612a39906146c9565b80601f0160208091040260200160405190810160405280929190818152602001828054612a65906146c9565b8015612ab25780601f10612a8757610100808354040283529160200191612ab2565b820191906000526020600020905b815481529060010190602001808311612a9557829003601f168201915b50505050508152602001600482018054612acb906146c9565b80601f0160208091040260200160405190810160405280929190818152602001828054612af7906146c9565b8015612b445780601f10612b1957610100808354040283529160200191612b44565b820191906000526020600020905b815481529060010190602001808311612b2757829003601f168201915b50505050508152602001600582015481525050815260200190600101906128d8565b50505050905090565b6060612b79613720565b6008805480602002602001604051908101604052809291908181526020016000905b82821015612ebb57838290600052602060002090600702016040518060e001604052908160008201548152602001600182018054612bd8906146c9565b80601f0160208091040260200160405190810160405280929190818152602001828054612c04906146c9565b8015612c515780601f10612c2657610100808354040283529160200191612c51565b820191906000526020600020905b815481529060010190602001808311612c3457829003601f168201915b50505050508152602001600282018054612c6a906146c9565b80601f0160208091040260200160405190810160405280929190818152602001828054612c96906146c9565b8015612ce35780601f10612cb857610100808354040283529160200191612ce3565b820191906000526020600020905b815481529060010190602001808311612cc657829003601f168201915b50505050508152602001600382018054612cfc906146c9565b80601f0160208091040260200160405190810160405280929190818152602001828054612d28906146c9565b8015612d755780601f10612d4a57610100808354040283529160200191612d75565b820191906000526020600020905b815481529060010190602001808311612d5857829003601f168201915b50505050508152602001600482018054612d8e906146c9565b80601f0160208091040260200160405190810160405280929190818152602001828054612dba906146c9565b8015612e075780601f10612ddc57610100808354040283529160200191612e07565b820191906000526020600020905b815481529060010190602001808311612dea57829003601f168201915b50505050508152602001600582018054612e20906146c9565b80601f0160208091040260200160405190810160405280929190818152602001828054612e4c906146c9565b8015612e995780601f10612e6e57610100808354040283529160200191612e99565b820191906000526020600020905b815481529060010190602001808311612e7c57829003601f168201915b5050505050815260200160068201548152505081526020019060010190612b9b565b50505050905090565b60008054906101000a900473ffffffffffffffffffffffffffffffffffffffff1681565b612ef0613720565b60008060009054906101000a900473ffffffffffffffffffffffffffffffffffffffff1673ffffffffffffffffffffffffffffffffffffffff1663f9c59d076040518163ffffffff1660e01b8152600401602060405180830381865afa158015612f5e573d6000803e3d6000fd5b505050506040513d601f19601f82011682018060405250810190612f829190614a90565b9050803414612fc6576040517f08c379a0000000000000000000000000000000000000000000000000000000008152600401612fbd90615244565b60405180910390fd5b60008060009054906101000a900473ffffffffffffffffffffffffffffffffffffffff1673ffffffffffffffffffffffffffffffffffffffff163460405161300d90614b5a565b60006040518083038185875af1925050503d806000811461304a576040519150601f19603f3d011682016040523d82523d6000602084013e61304f565b606091505b5050905080613093576040517f08c379a000000000000000000000000000000000000000000000000000000000815260040161308a90614bbb565b60405180910390fd5b60005b848490508110156136935760008585838181106130b6576130b561458b565b5b90506020028101906130c89190615264565b60000135036133b95760026040518060c0016040528060015481526020018787858181106130f9576130f861458b565b5b905060200281019061310b9190615264565b806020019061311a9190614c12565b8080601f016020809104026020016040519081016040528093929190818152602001838380828437600081840152601f19601f8201169050808301925050505050505081526020018787858181106131755761317461458b565b5b90506020028101906131879190615264565b80604001906131969190614c12565b8080601f016020809104026020016040519081016040528093929190818152602001838380828437600081840152601f19601f8201169050808301925050505050505081526020018787858181106131f1576131f061458b565b5b90506020028101906132039190615264565b80606001906132129190614c12565b8080601f016020809104026020016040519081016040528093929190818152602001838380828437600081840152601f19601f82011690508083019250505050505050815260200187878581811061326d5761326c61458b565b5b905060200281019061327f9190615264565b806080019061328e9190614c12565b8080601f016020809104026020016040519081016040528093929190818152602001838380828437600081840152601f19601f8201169050808301925050505050505081526020014281525090806001815401808255809150506001900390600052602060002090600602016000909190919091506000820151816000015560208201518160010190816133229190614c75565b5060408201518160020190816133389190614c75565b50606082015181600301908161334e9190614c75565b5060808201518160040190816133649190614c75565b5060a08201518160050155505060016002805490506133839190614666565b60036000600154815260200190815260200160002081905550600160008154809291906133af90614d47565b9190505550613686565b6000600360008787858181106133d2576133d161458b565b5b90506020028101906133e49190615264565b6000013581526020019081526020016000205490506002805490508110613440576040517f08c379a000000000000000000000000000000000000000000000000000000000815260040161343790614eb6565b60405180910390fd5b6000600282815481106134565761345561458b565b5b90600052602060002090600602019050600087878581811061347b5761347a61458b565b5b905060200281019061348d9190615264565b806020019061349c9190614c12565b905011156134eb578686848181106134b7576134b661458b565b5b90506020028101906134c99190615264565b80602001906134d89190614c12565b8260010191826134e9929190614d9a565b505b6000878785818110613500576134ff61458b565b5b90506020028101906135129190615264565b80604001906135219190614c12565b905011156135705786868481811061353c5761353b61458b565b5b905060200281019061354e9190615264565b806040019061355d9190614c12565b82600201918261356e929190614d9a565b505b60008787858181106135855761358461458b565b5b90506020028101906135979190615264565b80606001906135a69190614c12565b905011156135f5578686848181106135c1576135c061458b565b5b90506020028101906135d39190615264565b80606001906135e29190614c12565b8260030191826135f3929190614d9a565b505b600087878581811061360a5761360961458b565b5b905060200281019061361c9190615264565b806080019061362b9190614c12565b9050111561367a578686848181106136465761364561458b565b5b90506020028101906136589190615264565b80608001906136679190614c12565b826004019182613678929190614d9a565b505b42816005018190555050505b8080600101915050613096565b5050505050565b6136a2613720565b600073ffffffffffffffffffffffffffffffffffffffff168173ffffffffffffffffffffffffffffffffffffffff16036137145760006040517f1e4fbdf700000000000000000000000000000000000000000000000000000000815260040161370b9190614065565b60405180910390fd5b61371d816137cf565b50565b6137286138ce565b73ffffffffffffffffffffffffffffffffffffffff166137466122f0565b73ffffffffffffffffffffffffffffffffffffffff16146137a5576137696138ce565b6040517f118cdaa700000000000000000000000000000000000000000000000000000000815260040161379c9190614065565b60405180910390fd5b565b6000806137b26138d6565b90508091505090565b6137c3613901565b6137cc81613941565b50565b60006137d96138a6565b905060008160000160009054906101000a900473ffffffffffffffffffffffffffffffffffffffff169050828260000160006101000a81548173ffffffffffffffffffffffffffffffffffffffff021916908373ffffffffffffffffffffffffffffffffffffffff1602179055508273ffffffffffffffffffffffffffffffffffffffff168173ffffffffffffffffffffffffffffffffffffffff167f8be0079c531659141344cd1fd0a4f28419497f9722a3daafe3b4186f6b6457e060405160405180910390a3505050565b60007f9016d09d72d40fdae2fd8ceac6b6234c7706214fd39c1cd1e609a0528c199300905090565b600033905090565b60007ff0c57e16840df040f15088dc2f81fe391c3923bec73e23a9662efc9c229c6a0060001b905090565b6139096139c7565b61393f576040517fd7e6bcf800000000000000000000000000000000000000000000000000000000815260040160405180910390fd5b565b613949613901565b600073ffffffffffffffffffffffffffffffffffffffff168173ffffffffffffffffffffffffffffffffffffffff16036139bb5760006040517f1e4fbdf70000000000000000000000000000000000000000000000000000000081526004016139b29190614065565b60405180910390fd5b6139c4816137cf565b50565b60006139d16137a7565b60000160089054906101000a900460ff16905090565b5080546139f3906146c9565b6000825580601f10613a055750613a24565b601f016020900490600052602060002090810190613a239190613a27565b5b50565b5b80821115613a40576000816000905550600101613a28565b5090565b600080fd5b600080fd5b600080fd5b600080fd5b600080fd5b60008083601f840112613a7357613a72613a4e565b5b8235905067ffffffffffffffff811115613a9057613a8f613a53565b5b602083019150836020820283011115613aac57613aab613a58565b5b9250929050565b60008060208385031215613aca57613ac9613a44565b5b600083013567ffffffffffffffff811115613ae857613ae7613a49565b5b613af485828601613a5d565b92509250509250929050565b60008083601f840112613b1657613b15613a4e565b5b8235905067ffffffffffffffff811115613b3357613b32613a53565b5b602083019150836020820283011115613b4f57613b4e613a58565b5b9250929050565b60008060208385031215613b6d57613b6c613a44565b5b600083013567ffffffffffffffff811115613b8b57613b8a613a49565b5b613b9785828601613b00565b92509250509250929050565b600073ffffffffffffffffffffffffffffffffffffffff82169050919050565b6000613bce82613ba3565b9050919050565b613bde81613bc3565b8114613be957600080fd5b50565b600081359050613bfb81613bd5565b92915050565b60008060408385031215613c1857613c17613a44565b5b6000613c2685828601613bec565b9250506020613c3785828601613bec565b9150509250929050565b600081519050919050565b600082825260208201905092915050565b6000819050602082019050919050565b6000819050919050565b613c8081613c6d565b82525050565b600081519050919050565b600082825260208201905092915050565b60005b83811015613cc0578082015181840152602081019050613ca5565b60008484015250505050565b6000601f19601f8301169050919050565b6000613ce882613c86565b613cf28185613c91565b9350613d02818560208601613ca2565b613d0b81613ccc565b840191505092915050565b600060c083016000830151613d2e6000860182613c77565b5060208301518482036020860152613d468282613cdd565b91505060408301518482036040860152613d608282613cdd565b91505060608301518482036060860152613d7a8282613cdd565b9150506080830151613d8f6080860182613c77565b5060a0830151613da260a0860182613c77565b508091505092915050565b6000613db98383613d16565b905092915050565b6000602082019050919050565b6000613dd982613c41565b613de38185613c4c565b935083602082028501613df585613c5d565b8060005b85811015613e315784840389528151613e128582613dad565b9450613e1d83613dc1565b925060208a01995050600181019050613df9565b50829750879550505050505092915050565b60006020820190508181036000830152613e5d8184613dce565b905092915050565b60008083601f840112613e7b57613e7a613a4e565b5b8235905067ffffffffffffffff811115613e9857613e97613a53565b5b602083019150836020820283011115613eb457613eb3613a58565b5b9250929050565b60008060208385031215613ed257613ed1613a44565b5b600083013567ffffffffffffffff811115613ef057613eef613a49565b5b613efc85828601613e65565b92509250509250929050565b600081519050919050565b600082825260208201905092915050565b6000819050602082019050919050565b6000608083016000830151613f4c6000860182613c77565b5060208301518482036020860152613f648282613cdd565b91505060408301518482036040860152613f7e8282613cdd565b9150506060830151613f936060860182613c77565b508091505092915050565b6000613faa8383613f34565b905092915050565b6000602082019050919050565b6000613fca82613f08565b613fd48185613f13565b935083602082028501613fe685613f24565b8060005b8581101561402257848403895281516140038582613f9e565b945061400e83613fb2565b925060208a01995050600181019050613fea565b50829750879550505050505092915050565b6000602082019050818103600083015261404e8184613fbf565b905092915050565b61405f81613bc3565b82525050565b600060208201905061407a6000830184614056565b92915050565b60008083601f84011261409657614095613a4e565b5b8235905067ffffffffffffffff8111156140b3576140b2613a53565b5b6020830191508360208202830111156140cf576140ce613a58565b5b9250929050565b600080602083850312156140ed576140ec613a44565b5b600083013567ffffffffffffffff81111561410b5761410a613a49565b5b61411785828601614080565b92509250509250929050565b600081519050919050565b600082825260208201905092915050565b6000819050602082019050919050565b600060c0830160008301516141676000860182613c77565b506020830151848203602086015261417f8282613cdd565b915050604083015184820360408601526141998282613cdd565b915050606083015184820360608601526141b38282613cdd565b915050608083015184820360808601526141cd8282613cdd565b91505060a08301516141e260a0860182613c77565b508091505092915050565b60006141f9838361414f565b905092915050565b6000602082019050919050565b600061421982614123565b614223818561412e565b9350836020820285016142358561413f565b8060005b85811015614271578484038952815161425285826141ed565b945061425d83614201565b925060208a01995050600181019050614239565b50829750879550505050505092915050565b6000602082019050818103600083015261429d818461420e565b905092915050565b600081519050919050565b600082825260208201905092915050565b6000819050602082019050919050565b600060e0830160008301516142e96000860182613c77565b50602083015184820360208601526143018282613cdd565b9150506040830151848203604086015261431b8282613cdd565b915050606083015184820360608601526143358282613cdd565b9150506080830151848203608086015261434f8282613cdd565b91505060a083015184820360a08601526143698282613cdd565b91505060c083015161437e60c0860182613c77565b508091505092915050565b600061439583836142d1565b905092915050565b6000602082019050919050565b60006143b5826142a5565b6143bf81856142b0565b9350836020820285016143d1856142c1565b8060005b8581101561440d57848403895281516143ee8582614389565b94506143f98361439d565b925060208a019950506001810190506143d5565b50829750879550505050505092915050565b6000602082019050818103600083015261443981846143aa565b905092915050565b6000819050919050565b600061446661446161445c84613ba3565b614441565b613ba3565b9050919050565b60006144788261444b565b9050919050565b600061448a8261446d565b9050919050565b61449a8161447f565b82525050565b60006020820190506144b56000830184614491565b92915050565b60008083601f8401126144d1576144d0613a4e565b5b8235905067ffffffffffffffff8111156144ee576144ed613a53565b5b60208301915083602082028301111561450a57614509613a58565b5b9250929050565b6000806020838503121561452857614527613a44565b5b600083013567ffffffffffffffff81111561454657614545613a49565b5b614552858286016144bb565b92509250509250929050565b60006020828403121561457457614573613a44565b5b600061458284828501613bec565b91505092915050565b7f4e487b7100000000000000000000000000000000000000000000000000000000600052603260045260246000fd5b600082825260208201905092915050565b7f496e76616c69642077616c6c6574204944000000000000000000000000000000600082015250565b60006146016011836145ba565b915061460c826145cb565b602082019050919050565b60006020820190508181036000830152614630816145f4565b9050919050565b7f4e487b7100000000000000000000000000000000000000000000000000000000600052601160045260246000fd5b600061467182613c6d565b915061467c83613c6d565b925082820390508181111561469457614693614637565b5b92915050565b7f4e487b7100000000000000000000000000000000000000000000000000000000600052602260045260246000fd5b600060028204905060018216806146e157607f821691505b6020821081036146f4576146f361469a565b5b50919050565b600081549050614709816146c9565b9050919050565b7f4e487b7100000000000000000000000000000000000000000000000000000000600052604160045260246000fd5b60008190508160005260206000209050919050565b60006020601f8301049050919050565b600082821b905092915050565b6000600883026147a17fffffffffffffffffffffffffffffffffffffffffffffffffffffffffffffffff82614764565b6147ab8683614764565b95508019841693508086168417925050509392505050565b60006147de6147d96147d484613c6d565b614441565b613c6d565b9050919050565b6000819050919050565b6147f8836147c3565b61480c614804826147e5565b848454614771565b825550505050565b600090565b614821614814565b61482c8184846147ef565b505050565b5b8181101561485057614845600082614819565b600181019050614832565b5050565b601f821115614895576148668161473f565b61486f84614754565b8101602085101561487e578190505b61489261488a85614754565b830182614831565b50505b505050565b600082821c905092915050565b60006148b86000198460080261489a565b1980831691505092915050565b60006148d183836148a7565b9150826002028217905092915050565b8181036148ef5750506149c7565b6148f8826146fa565b67ffffffffffffffff81111561491157614910614710565b5b61491b82546146c9565b614926828285614854565b6000601f8311600181146149555760008415614943578287015490505b61494d85826148c5565b8655506149c0565b601f1984166149638761473f565b965061496e8661473f565b60005b8281101561499657848901548255600182019150600185019450602081019050614971565b868310156149b357848901546149af601f8916826148a7565b8355505b6001600288020188555050505b5050505050505b565b7f4e487b7100000000000000000000000000000000000000000000000000000000600052603160045260246000fd5b7f496e76616c696420544f54502049440000000000000000000000000000000000600082015250565b6000614a2e600f836145ba565b9150614a39826149f8565b602082019050919050565b60006020820190508181036000830152614a5d81614a21565b9050919050565b614a6d81613c6d565b8114614a7857600080fd5b50565b600081519050614a8a81614a64565b92915050565b600060208284031215614aa657614aa5613a44565b5b6000614ab484828501614a7b565b91505092915050565b7f57726f6e6720636f737420666f7220757073657274544f545000000000000000600082015250565b6000614af36019836145ba565b9150614afe82614abd565b602082019050919050565b60006020820190508181036000830152614b2281614ae6565b9050919050565b600081905092915050565b50565b6000614b44600083614b29565b9150614b4f82614b34565b600082019050919050565b6000614b6582614b37565b9150819050919050565b7f466f7277617264696e6720666565206661696c65640000000000000000000000600082015250565b6000614ba56015836145ba565b9150614bb082614b6f565b602082019050919050565b60006020820190508181036000830152614bd481614b98565b9050919050565b600080fd5b600080fd5b600080fd5b60008235600160a003833603038112614c0657614c05614bdb565b5b80830191505092915050565b60008083356001602003843603038112614c2f57614c2e614bdb565b5b80840192508235915067ffffffffffffffff821115614c5157614c50614be0565b5b602083019250600182023603831315614c6d57614c6c614be5565b5b509250929050565b614c7e82613c86565b67ffffffffffffffff811115614c9757614c96614710565b5b614ca182546146c9565b614cac828285614854565b600060209050601f831160018114614cdf5760008415614ccd578287015190505b614cd785826148c5565b865550614d3f565b601f198416614ced8661473f565b60005b82811015614d1557848901518255600182019150602085019450602081019050614cf0565b86831015614d325784890151614d2e601f8916826148a7565b8355505b6001600288020188555050505b505050505050565b6000614d5282613c6d565b91507fffffffffffffffffffffffffffffffffffffffffffffffffffffffffffffffff8203614d8457614d83614637565b5b600182019050919050565b600082905092915050565b614da48383614d8f565b67ffffffffffffffff811115614dbd57614dbc614710565b5b614dc782546146c9565b614dd2828285614854565b6000601f831160018114614e015760008415614def578287013590505b614df985826148c5565b865550614e61565b601f198416614e0f8661473f565b60005b82811015614e3757848901358255600182019150602085019450602081019050614e12565b86831015614e545784890135614e50601f8916826148a7565b8355505b6001600288020188555050505b50505050505050565b7f496e76616c69642063726564656e7469616c2049440000000000000000000000600082015250565b6000614ea06015836145ba565b9150614eab82614e6a565b602082019050919050565b60006020820190508181036000830152614ecf81614e93565b9050919050565b7f496e76616c696420436f73744d616e6167657200000000000000000000000000600082015250565b6000614f0c6013836145ba565b9150614f1782614ed6565b602082019050919050565b60006020820190508181036000830152614f3b81614eff565b9050919050565b7f466f7277617264696e67206372656174696f6e2066656520746f20436f73744d60008201527f616e61676572206661696c656400000000000000000000000000000000000000602082015250565b6000614f9e602d836145ba565b9150614fa982614f42565b604082019050919050565b60006020820190508181036000830152614fcd81614f91565b9050919050565b6000819050919050565b600067ffffffffffffffff82169050919050565b600061500d61500861500384614fd4565b614441565b614fde565b9050919050565b61501d81614ff2565b82525050565b60006020820190506150386000830184615014565b92915050565b7f496e76616c6964206e6f74652049440000000000000000000000000000000000600082015250565b6000615074600f836145ba565b915061507f8261503e565b602082019050919050565b600060208201905081810360008301526150a381615067565b9050919050565b7f57726f6e6720636f737420666f722075707365727457616c6c6574416464726560008201527f7373000000000000000000000000000000000000000000000000000000000000602082015250565b60006151066022836145ba565b9150615111826150aa565b604082019050919050565b60006020820190508181036000830152615135816150f9565b9050919050565b60008235600160c00383360303811261515857615157614bdb565b5b80830191505092915050565b7f57726f6e6720636f737420666f72207570736572744e6f746573000000000000600082015250565b600061519a601a836145ba565b91506151a582615164565b602082019050919050565b600060208201905081810360008301526151c98161518d565b9050919050565b6000823560016060038336030381126151ec576151eb614bdb565b5b80830191505092915050565b7f57726f6e6720636f737420666f722075707365727443726564656e7469616c73600082015250565b600061522e6020836145ba565b9150615239826151f8565b602082019050919050565b6000602082019050818103600083015261525d81615221565b9050919050565b60008235600160a0038336030381126152805761527f614bdb565b5b8083019150509291505056fea26469706673582212206c5632e72654d5f8cdc3066c5f6dc18aa4280d1a4cb696a26bb9afd612c3856164736f6c634300081c0033",
  "linkReferences": {},
  "deployedLinkReferences": {}
}